:020000040020DA
:10200000887900208D222000C3B52000C1B52000B2
:10201000C1B52000C1B52000C1B5200000000000FE
:10202000000000000000000000000000C1B520001A
:10203000C1B5200000000000C1B5200021B620007D
:1020400043B6200049B620004FB6200055B6200008
:102050000000000027B620002DB62000C1B52000EA
:10206000C1B52000000000000000000000000000DA
:102070000000000000000000C1B5200000000000CA
:102080000000000000000000C1B52000C1B5200024
:10209000C1B52000C1B52000C1B52000C1B52000E8
:1020A000C1B52000C1B52000C1B52000C1B52000D8
:1020B000C1B52000C1B52000C1B52000C1B52000C8
:1020C000C1B52000C1B52000C1B52000C1B52000B8
:1020D000C1B520000000000000000000000000006A
:1020E00000000000000000000000000000000000F0
:1020F0000000000000000000253C2000353C2000CE
:1021000000000000000000000000000000000000CF
:1021100000000000000000000000000000000000BF
:1021200000000000000000000000000000000000AF
:10213000000000000000000000000000000000009F
:10214000000000000000000000000000000000008F
:10215000000000000000000000000000000000007F
:10216000000000000000000000000000000000006F
:10217000000000000000000000000000000000005F
:10218000000000000000000000000000000000004F
:10219000000000000000000000000000000000003F
:1021A000000000000000000000000000000000002F
:1021B000000000000000000000000000000000001F
:1021C000000000000000000000000000000000000F
:1021D00000000000000000000000000000000000FF
:1021E00000000000000000000000000000000000EF
:1021F00000000000000000000000000000000000DF
:1022000000000000000000000000000000000000CE
:1022100000000000000000000000000000000000BE
:1022200000000000000000000000000000000000AE
:10223000000000000000000000000000000000009E
:10224000000000000000000000000000000000008E
:10225000000000000000000000000000000000007E
:10226000000000000000000000000000000000006E
:10227000C1B520000D3B2000313B2000712E200015
:10228000953D200001292000C1B5200008B5094B6B
:10229000FF221A600848094A4824E3690849121ACB
:1022A00098470848084AA3690021121A984700F085
:1022B0000DF8FEE7B4200D4040400020F141002021
:1022C0006CD32000F841002087710020F7B500F0A2
:1022D0006DFC00F067FD00F0BDFC00F06FFA01F04E
:1022E00047FD09F0B6FB00F055FD00F0C9F80120EC
:1022F00009F06AF902F00AFF00F044FC002000F047
:1023000055FB012000F052FB4949002000F024FC5D
:1023100003F040F809F08DF9042009F055F945481B
:1023200009F032FA444809F02FFA00F0E9F90020E8
:1023300003F0D8F801F010FC4048002102F072FFD1
:1023400002F016FD09F06AF900F0B4FD00F0D0FDCE
:1023500007F0C6FB6846082101F02EFD9DF8073006
:102360009DF80670364C43EA07276B4603CB206086
:102370006160344802F01EF90025615D3248013584
:1023800002F018F9072D2E4EF7D1304DF179304873
:1023900002F010F9EC6A4AF6CD310220A047394626
:1023A0000320A0471A210120A047694608226B6B31
:1023B0000B209847274802F0FDF8274B186809F0D2
:1023C000E3F9264802F0F6F8254B186809F0DCF925
:1023D000244802F0EFF8244B186809F0D5F9234A95
:1023E000336813607368536007F066F82048002173
:1023F00002F018FF1F48002102F014FF1E4B0121BC
:102400009B688120984709F0F3FA1C4809F0E6FA26
:1024100000F0BEFB022009F0D7F800F0BFFB02F08D
:102420008DFE10F0FF0FF8D101F03AFCF5E700BF88
:1024300051532000A0D02000BAD0200078400020C6
:102440007F710020DFD02000FDD02000DCCF2000F5
:1024500003D1200009D1200034D0200010D1200069
:102460004CD0200017D1200068D0200054690020F3
:102470000C41002098400020E8CE200098D0200099
:1024800008B500F0DDF8024B00221A7008BD00BF4D
:10249000B05F0020024A13781843107000F0F4B8BF
:1024A000B05F0020034A137823EA0000107000F0A8
:1024B000EBB800BFB05F002020B1012805D1044B6C
:1024C00018787047034B186870470020704700BFAA
:1024D000B15F002020900D4010B5094A002013780C
:1024E00001331370074B197802F074FEBDE81040F9
:1024F000054B06481968064A002302F06FBC00BF6E
:10250000B15F002076710020304200200842002098
:10251000D9242000812810B50C462AD0B0F5807F40
:1025200039D0802839D102F0E9FD1D4B1D4A1870C1
:102530001368002023F00803136052F8203C0321A5
:1025400023F0080342F8203C52F81C3C23F0080317
:1025500042F81C3C52F8183C43F0080342F8183C7F
:10256000042200F02DFC10480021032200F0CAFBD9
:1025700013E00E4B1A6831B142F008021A600020D5
:1025800000F032FB05E022F008021A60084600F075
:1025900037FB204610BD064B1960012010BD00BF5F
:1025A0007671002020940D40B525200010940D4038
:1025B0003042002008B50F4809F05FFAC0B1082189
:1025C0000C4809F048FA0C4B196861B10B4B00221A
:1025D0001A700B4B0B481B681BB90B4A02F0FEFB31
:1025E00001E002F03DFCBDE80840084802F04EBFA3
:1025F00008BD00BF2842002030420020B15F00200B
:1026000020900D4008420020D9242000E8CE200070
:10261000084A136823F00403136052F8203C43F087
:10262000040342F8203C044B00221A60034B0122B1
:102630001A70704720C40D4010C00D40B25F0020DA
:102640000D4A0E49136823F0C003136052F8203C72
:1026500043F0C00342F8203C094B00221A600B688B
:1026600023F010030B6051F8203C43F0100341F8B5
:10267000203C044B1A60704720A40D4020C40D403C
:1026800000A30D4040C00D4000F0020202F0FF0127
:102690000B4B12B1FF221A6000E0196000F0040237
:1026A00002F0FF01074B12B1FF221A6000E019602F
:1026B00010F00100044B1ABFFF221A601860704727
:1026C00000A20D4000A10D4040C00D40044B186811
:1026D000C0F30720030904BF1030C0B2704700BF29
:1026E0001C300D40054B1868C0F3C21001289ABF7A
:1026F000C0F1020040034FF40040704714300D4019
:102700002DE9F04788B0FFF7E1FF174B48251C681B
:10271000AB68074698476B68804698470646FFF7C0
:10272000E1FF054600F0D6FA824600F0DFFA814666
:1027300000F086FAB60AC4F34003AD0A04F00104BF
:1027400002930690009601950394CDF810A0CDF861
:1027500014904146C7F3071207F00F03034801F036
:1027600029FF08B0BDE8F0871C300D4025D12000BE
:10277000F8B500F083F80F4B0024D3E900673A4620
:10278000B04238BF7A1C15460443C3E90045DFF860
:1027900028E0DEE90001821B61EB070312196B419F
:1027A000CEE9002302F014FC18B1BDE8F84002F0B5
:1027B0009FBBF8BDF8410020004200200F4B104A9B
:1027C0001A6053F8042C42F0050243F8042C53F825
:1027D000042C42F0020243F8042C0A4A136843F026
:1027E00001031360084B00221A60042243F80C2CEA
:1027F000012243F8082C0F22DA62704714E000E04F
:1028000047E8010008200D400C000340034BD3E9CA
:102810000023100A40EA0360704700BFF84100201F
:10282000034BD3E90023D00B40EA4340704700BF7D
:1028300000420020054B18601C3B1A6842F0010260
:102840001A601A68D207FCD4704700BF2800034002
:1028500010B5064C236823F001032360FFF788FFBF
:10286000236843F00103236010BD00BF10E000E0C7
:10287000014B1868704700BF34420020074B084ADC
:10288000196804331B681268120442EA0323054ADC
:102890000B43106843EA0060704700BF40500D4092
:1028A00048500D404C500D4010B50446114B1B686C
:1028B000DB07FBD508F0C1FEFFF7E0FF231A062B6C
:1028C000D8BFC41D0C4B220E1A60C4F3074243F854
:1028D000042CC4F3072243F8082CE2B243F80C2C72
:1028E00008F0A7FE054B91201C60BDE8104000F0E9
:1028F0007BB900BF50500D404C500D403442002079
:1029000008B501F0B3F9064B002291201A6000F0DF
:1029100083F9912000F074F9BDE8084002F0B8BCDA
:1029200034420020064B1B681B075FBF054B18682D
:1029300080F00800C0F3C00048BF0020704700BF0F
:1029400018C0004018D00040164A38B52C2303FBAD
:1029500000234FF6BF72DC680546236C62649BB2AD
:1029600013F050020DD0A369DB0609D40E4B53F8C7
:1029700025301BB12068C0B29847F4E72368F2E71E
:1029800038BD13F4D06F0BD04FF440732363FF2393
:102990006360E36AE262E362236B43F00103236353
:1029A00038BD00BFF8CE2000384200202DE9F04F9E
:1029B000012885B0064600F2BF802C244443604BBA
:1029C0001D1995F920A005F12007BAF1000F9946CD
:1029D000C0F2B28095F92230002BC0F2AD80594888
:1029E00001F0B6F9584A59F804301168EC680B4305
:1029F000136051686B6895F921B00B43536091687F
:102A0000AB6895F822800B4393600023C4F8C83F5D
:102A10002B690BEBCA021A6095F823305FFA88FC29
:102A200001939DF80430604619462A7DCDF80CC00C
:102A3000029300F0CFF9029BDDF80CC01946604606
:102A4000082200F0BDF94FFA88F840494FEA0838EB
:102A50009DF9042058F80100012303FA02F2024311
:102A600048F801204FEA0A3A5AF8010003FA0BF23B
:102A700002434AF801205022A263A26B95F8240079
:102A800042F4D062A263022262634FF44072226376
:102A9000AA696262EA69A2627022E26242B2002A14
:102AA0000C4614DB95F92510294D41EAC201296035
:102AB0007979120315594FB2BB402B4313510022B1
:102AC00000F07EF9234A136843F4004313602C237B
:102AD00003FB069393F8265020336FB2002F1CDBC4
:102AE00093F807A0EDB25FFA8AF828464146012222
:102AF0003F0300F06FF94FFA8AFA3A59012303FABB
:102B00000AF313433B5108222846414600F058F986
:102B1000104A136843F4804313602C2303FB06968A
:102B2000F26896F82800136B43F00103136305B0B5
:102B3000BDE8F04F00F058B805B0BDE8F08F00BF19
:102B4000F8CE20002529200028200D4020940D409B
:102B500004410D4030D0004001289CBF014B43F898
:102B60002010704738420020012808D8044B2C223E
:102B700002FB0030C3689A699206FCD41960704762
:102B8000F8CE2000014B00221A60704700500D4023
:102B9000014B08221A60704700500D40024BA022E2
:102BA0001A6050221A60704700500D40074A084BC7
:102BB0001A60084B80321A60074B80321A60074B4C
:102BC00080321A60064B074A1A60704700E100E045
:102BD0004C42002040420020444200204842002055
:102BE00008ED00E000202000044B41091A6800F0C5
:102BF0001F000123834042F8213070474C420020DF
:102C0000044B41091A6800F01F000123834042F879
:102C10002130704740420020044B41091A6800F0FF
:102C20001F000123834042F82130704748420020B2
:102C3000024B1868C0F38150704700BF04200D405C
:102C400008B5FFF7F5FF024B53F8200008BD00BFA1
:102C500050CF200038B5164D164C2B68032023F0BA
:102C600040032B602368062123F0400323600122E8
:102C700000F0A6F82B68012223F080032B60236864
:102C8000032023F080032360072100F099F80A4A0B
:102C90000A4B1A600A4B0B4A19680A40002AF9D1FC
:102CA0001A685101FCD41A685201FCD538BD00BF26
:102CB00020C40D4000C40D400101020000200D4061
:102CC00004200D4000000101014B08221A607047EA
:102CD00074200D40034B04481B6803F007031841A0
:102CE000704700BF04200D400048E801034B044832
:102CF0001B68C3F302231841704700BF04200D4036
:102D00000048E801024B02EBC10243F82200704781
:102D100050420020F8B507460E46094D002405EB49
:102D2000411547FA04F3DB07E1B204D555F8243026
:102D30000BB1304698470134082CF2D1F8BD00BFE2
:102D4000504200202DE9F04780464FEA0837DFF86F
:102D5000409007F1804505F5592500F087FFD5F82B
:102D6000186457F809404FEAC80A24FA0AF446EAF8
:102D70000400E4B2C0B24146F6B204FA0AF4FFF726
:102D8000C9FFC5F81C6447F80940BDE8F08700BFDB
:102D900018970D4002480021802208F025BA00BF94
:102DA00050420020034A044B1A60044B803A1A60D8
:102DB000704700BF80400D40D4420020D042002028
:102DC000034B01EBC0011B6843F82120704700BF93
:102DD000D4420020034B01EBC0011B6843F82120C3
:102DE000704700BFD04200200E2870B50BD1164BA3
:102DF000164E1C6844F002051D60356825F03F033F
:102E000043F001033360124E336823F0FF031A438B
:102E10001143014331600F4B1B681B06FBD50E4B62
:102E20000E4A1B6812680E2803F0FC0343EA0223D3
:102E300008BF064A9BB204BF1560034A9BB208BF95
:102E4000146018B270BD00BF34000144F48608401D
:102E500008700D4000700D400C700D4010700D405A
:102E6000024B1868B0FA80F04009704700B708407C
:102E700010B58F20064CFFF7CFFE8F20FFF7C0FE66
:102E8000206818B102F0E6F90023236010BD00BFEE
:102E9000D8420020064A136843F0020313605368C7
:102EA00043F002035360936843F00203936070475A
:102EB00048200D4007B50C4800F04AFFFFF7EAFF35
:102EC0000A4B1A6842F002021A6000220192019A2B
:102ED0000F2A02DC019A0132F8E71A6822F0020296
:102EE0001A6003B05DF804FB612E200054200D40F1
:102EF000064A136823F002031360536823F00203A9
:102F00005360936823F002039360704748200D409C
:102F1000014B1860704700BFD84200202DE9F047F0
:102F20003E4EA0B034688246884615461F46002CA7
:102F300070D1022916D1AC4216DA1822482302FBBE
:102F400004A14FEA8409DB690DEB4410984709F1AD
:102F5000030920AB03EBC9090022002349E9202320
:102F60000134E8E7012904D06D00B8F1020FEDB299
:102F700005D04823DB69684651462A019847284A0C
:102F80000123032113602748516008323360116028
:102F9000016801F0030444451EBF21F0030148EA23
:102FA0000101016003FA05F01F4C01381F49B840C8
:102FB0000860A4F58064C4F8000423601C4BC3F8C7
:102FC00000D0E3681B0C1B0443EA0515E560194BB0
:102FD0001C68E407FBD51C68002C06DA4FF00043A0
:102FE000136000233360042015E01B6813F0804356
:102FF00006D04FF0804313600023336006200AE0C0
:103000000324146033600B680340834214BF06201E
:10301000002000E0032020B0BDE8F08700B70840A2
:1030200080B7084008B4084000B4084004B4084021
:1030300004B0084090B708402DE9F047434C89465A
:1030400021689C46DDF82880BDF82030BDF82C5062
:10305000DDF830E0002975D13D4901260E603D4E76
:103060000327B2460221376021603B490F603B4F86
:10307000C7F80090D7F80090B9F1000FFADB384F8D
:10308000D7F8009019F0005FB94607D04FF0005311
:103090000B60002323600520BDE8F0874AB1166865
:1030A000304F3E6056687E609668BE60D7682E4A94
:1030B00017602E4A002710F4E02F106055609760CB
:1030C00002F108021BD053600432C3B1A2F25C5279
:1030D00001201060C2F804C0D360D9F800309B070B
:1030E000FBD51F4B1B68002B07DA4FF000430B602A
:1030F000002323600420BDE8F08702230B60012336
:10310000CAF80030BEF1000F08D07046FFF700FF8C
:103110008F20FFF781FD8F20FFF766FD7DB1144AF8
:103120000123136009990C3242F8081C1560B8F1AC
:10313000000F04D053610F4BC3F800809D60002046
:10314000BDE8F0870320BDE8F08700BF00B7084066
:1031500080B7084084B7084088B708400CB40840DE
:1031600090B7084040B508404CB5084050B50840FD
:1031700000B0084024B00840034B1A68034B1A42C1
:1031800014BF01200020704790B70840010000E004
:10319000F8B5204B204F1E684FF060433B6005465A
:1031A0008F200C46FFF72CFD0020FFF7B1FE002218
:1031B0001A4B96421A6027DB710027D4B20027D43D
:1031C00005B9ECB1164B1B685B00FBD55DB1154B27
:1031D0001B682B60144B1B686B60144B1B68AB6047
:1031E000134B1B68EB605CB1124B1B682360124BE6
:1031F0001B686360114B1B68A360114B1B68E36085
:1032000003233B600020F8BD0420F8BD0620F8BD74
:103210000520F8BD90B7084088B7084000B70840BF
:1032200050B5084040B5084044B5084048B508408E
:103230004CB5084070B5084074B5084078B50840F2
:103240007CB5084010B5044B1C68C4F340040CB9AD
:10325000FFF720FE204610BD48200D40084B93F993
:103260000020002A09DB074AED2111601160E321EB
:1032700011601A7862F07F021A700120704700BF57
:10328000B65F0020388808400B4B1A689207FBD4C1
:103290001B685B065FBF094BED221A601A60084B82
:1032A0001B6813B1054BEF221A60064A0120137800
:1032B00003F07F03137070474C860840388808403D
:1032C0002C860840B65F002038B5A0F10B04E3B2AD
:1032D0000F2B054613D80B4B1B6813F03F0302D08E
:1032E000FFF7D2FF012304EB8404074A0B34146078
:1032F0000BB1FFF7B3FF054BE8B21D7000E0FF20F4
:1033000040B238BD488608403C860840EF41002066
:1033100010B50B4B1B68990603D1FFF79FFF0123E4
:1033200000E00023074A1268D207FBD5064A14685A
:10333000C4F300140BB1FFF7A7FF204610BD00BF78
:1033400048860840648608404C860840044B18684C
:1033500000F02200A0F1200358425841704700BFFE
:103360004C860840024B186800F04000704700BFD0
:103370004C86084038B50C46002900F0888010289B
:1033800000F28780DFE800F0090F1A1C233942534E
:10339000586F738585787A7C7F003F4B1B680033BC
:1033A00018BF012370E03D4B05221B6803F07F032B
:1033B0000B3B93FBF2F30B33DBB265E0384B00E0E1
:1033C000384B1A68043B1B6843EA02235CE0002385
:1033D0000B60354B354A1B6803F001030B60126824
:1033E000900644BF43F002030B60314B1B78002B67
:1033F0004BD00B6843F0040346E02E4B00201B78B3
:103400000860002B41D001230B6038BD2A4B1A689D
:103410000023D2B2294901EBC3000079904202D8BF
:1034200051F8333030E001330E2BF3D128E0244B38
:103430001B685BB2493B27E0224B1B68990603D10E
:10344000FFF70CFF012300E000231F4A1268D20798
:10345000FBD51E4A1568493DEDB20BB1FFF714FFCD
:103460006DB2256011E01A4B93F900300CE0194B56
:103470001B7803F07F0307E00B2305E01A2303E02A
:103480006FF0170300E007232360002038BD0220FF
:1034900038BD012038BD00BF2C8608403C8608405E
:1034A000CC850840D4850840008608402486084022
:1034B000B55F0020EE410020408608406CCF200020
:1034C0005886084048860840648608406086084060
:1034D000B45F0020B35F002038B505460C46134B9F
:1034E0001B689B07FBD4124B93F90030002B01DBC8
:1034F000FFF7B4FE0F4BEE221A60691E1A60A21C81
:1035000043F8102C2144022000F03EFB013C0A4904
:1035100024012143022000F049FB022000F050FB6F
:10352000022000F065FB002038BD00BF4C8608403B
:10353000B65F00203888084002C001C0F8B5214BB2
:1035400093F90030002B0DDBFFF798F90446FFF7E5
:1035500085FEFFF793F96FF009031B1BC342F8D4F4
:10356000012600E00026184B1B7823B9174D2B6865
:10357000990604D405E0FFF7CBFE0028F6D102201F
:10358000F8BD134CE923236004272B689A0707D45E
:10359000013F17F0FF0703D00620FFF74BF9F4E7D0
:1035A0002B689B0704D4EE2323602360012403E0EF
:1035B0002C6814F00204FBD10EB1FFF765FE204623
:1035C000F8BD00BFB65F0020EE4100204C860840E9
:1035D00038880840044B1A6810B142F0010201E03B
:1035E00022F001021A607047008608400B280DD1B6
:1035F000082A0DD161B1074B083111F8012D43F8AC
:10360000042F054A9342F8D10020704701207047EB
:1036100002207047A4850840C485084070B5304E2C
:10362000336813F0400308D02E4D2B68DCB21B0624
:1036300005D52D4BED221A601A60002070BD042CB8
:10364000F7D9023C8C42F4DCE4B2032C21D00119FE
:103650000139032000F0A0FA631E24491B01032056
:10366000194300F0A3FA032000F0AAFA032000F0A7
:10367000BFFA032000F0C8FA0028FAD129681C4BD1
:103680004939C9B219702B681A4D18062B70D0D55C
:1036900006E02B6803702B6843702B688370EDE79E
:1036A00049B289B2042006F0F1F92978032001F02B
:1036B0007F0106F0EBF9104B1B7873B933685A069B
:1036C0000BD5074B1B681B0603D50C4801F0C2FD48
:1036D00003E0054BED221A601A60204670BD00BF62
:1036E0004C860840288808403888084002C0010CF1
:1036F000B45F0020B35F0020B55F00205040002081
:103700001E4B1870002831D01D4B1B681B03FBD5C6
:103710001C4B1A6842F002021A601A6842F0010259
:103720001A601A6817495007FBD50A6822F001028F
:103730000A601968134A4907FBD4116841F0020175
:103740001160116841F0010111601A685207FCD53F
:103750000D4A8D20136823F004031360D2F8A831BA
:1037600023F00403C2F8A831FFF74ABA064A8D20B5
:10377000136843F004031360FFF736BAB55F002007
:1037800004200D40048808408C86084010B50C4683
:1037900007285CD8DFE800F0040F1B1F263C4256C8
:1037A000012903D1FFF75AFD002010BD002950D197
:1037B000FFF76AFDF8E7A1F10B030F2B49D8C8B258
:1037C000FFF782FD431C0CBF0320002010BD8CB20C
:1037D000E2B2214B02E08CB2204BE2B2240A1A6022
:1037E0005C60E1E731F0070333D101F00100FFF73E
:1037F000F1FE1B4B14F0020F1A68C4F3800014BFD3
:1038000042F0200222F020021A60FFF779FFCBE796
:1038100031F001001DD1134B197010BD01F11803D7
:103820001F2B16D80D231049DA0051F833008442BB
:1038300004DC8B181A790D4B1A60B5E713F1FF33CE
:10384000F1D2B1E7CCB20A4B49341C60ACE701209D
:1038500010BD022010BD00BFC8850840D0850840BB
:1038600024860840EE4100206CCF200040860840AE
:1038700058860840F8B5294F3D7815F001054AD122
:10388000274B01241C605C609C60A3F59323A3F587
:103890001473F8221A600922C3F89021152270339C
:1038A0001A6003F59B230B2203F59E731A60A3F5A0
:1038B0009B23A3F5F07340221A601A687F2642F01A
:1038C00020021A60D52243F81C5CDE62DA61154BD7
:1038D0001878FFF7F9FC144B8E201E60FFF784F96F
:1038E000022000F079F91149022000F055F9032077
:1038F00000F072F90D49032000F046F90C4B1878DE
:10390000FFF7FEFE0B48294601F08CFC3B78204671
:1039100023433B70F8BD0020F8BD00BFB65F002018
:10392000A8200D40EF4100209486084028880840D8
:10393000B55F00205040002038B503880446CBB165
:1039400040F20342934203D000230380032038BD9A
:10395000194B18781A4628B11B7873B1174B1B788E
:1039600058060AD5822908D1137843B1134B1A7827
:10397000520614D440F203432380012038BD06F0E0
:103980002BF805F0BFFF8021FFF748FE0028EDDD92
:1039900080B205F09BFF0A4B1B699847E6E70022BF
:1039A0001A70084B1D68FFF76FFCFFF763FFAB064B
:1039B000E0D0FFF753FCDDE7B55F0020B65F0020E5
:1039C00068D02000488608400B282DE9F84F8A4629
:1039D00011D1082A40F0828000297FD0414B01F1AB
:1039E000FF3A53F8042D0AF8012F3F4A9342F8D1C9
:1039F0000020BDE8F88F0C286DD1042A6ED1002973
:103A00006CD03A493A480B68DFF8EC9023F0070392
:103A10000B600368DFF8E4B043F008030360DBF8F1
:103A20000040D9F800200B68DFF8D4C0DFF8D4805C
:103A300023F070030B60D8F80050DCF80030E4B2DB
:103A4000120244EA036392B2DFF8BCE01A43EBB21D
:103A500042EA03430024DEF8002044EA03060B6830
:103A6000D5B223F0070343F001030B6003682F4630
:103A700043F008030360DBF80000D9F800200B686E
:103A8000120223F0700343F010030B60D8F80050CB
:103A9000DCF80030C1B241EA036392B21A43EBB2E0
:103AA00042EA0343DEF8002044EA03085FFA82F9A1
:103AB000FEF7E4FEB6EB080667EB0907F9030546D7
:103AC00041EA5641F0030B4A002306F0A9FF281AE9
:103AD000CAF800008CE70120BDE8F88F0220BDE89D
:103AE000F88F00BFC8850840A885084010880840A6
:103AF000048808400048E8011888084014880840F5
:103B000020880840248808401C88084008B5054BD8
:103B10001B7813B9044801F09DFB044B00221A6086
:103B200008BD00BFB55F0020504000203488084029
:103B3000064B07481A68042A1FBF06490A7842F054
:103B400040020A7000221A6001F084BB2C880840F1
:103B500050400020B65F002010B5094C00212046DF
:103B6000402207F041FB074B01221A602E205C60C7
:103B7000FFF73AF8BDE810402F20FFF735B800BF37
:103B80000040002004F00F4003289EBF014B0001BD
:103B9000195070470040002003289EBF024B03EBE2
:103BA00000104160704700BF0040002003289EBF06
:103BB000024B03EB00108160704700BF0040002003
:103BC00003289FBF034901230A6883409CBF134316
:103BD0000B60704728F00F4003289FBF0349012363
:103BE0000A6883409CBF13430B60704720F00F406E
:103BF00003289FBF034901230A6883409CBF1343E6
:103C00000B60704714F00F4003289FBF044B03EB79
:103C10000010806800F0070088BF0020704700BFD8
:103C200000400020024B4FF0FF321A60704700BF87
:103C300004F50F40014B01221A6070474CF00F4011
:103C4000094B1A6812F4801F1A46F9D1043B19680F
:103C500021F4803119601168C903FCD41A6842F458
:103C600000321A60704700BF04200D4010B50A4BA7
:103C70001A681C4612F0030F0CD0084B1A68510149
:103C8000FBD41A685201FCD5FEF7E2FDFFF7D8FF1E
:103C90000023236010BD00BF58200D4004200D40BC
:103CA00038B5254B1C6814F03F0413D1234B53F84F
:103CB000243023B1984768B10134052CF6D1204D4A
:103CC0002B783BB1FEF7D4FD0446FEF7D7FD201A52
:103CD000092801D830BF38BD002CFBD0194B1A6819
:103CE00022F400321A60184A1168C902FBD419681C
:103CF00041F4803119601368DB03FCD5FEF7BEFD8B
:103D0000201A092803D8BDE83840FFF799BF632877
:103D10000E4C02D92B78022B00D00123236001F036
:103D20004FFA20B1FFF78CFF0023236038BDFEF768
:103D30009FFD0028CED1F5E748860840DC420020F0
:103D4000B75F002000200D4004200D4058200D409A
:103D50000023064A52F82310814206D011B942F8D6
:103D6000230070470133052BF3D17047DC4200205C
:103D7000054B00221A60054A136843F004031360E0
:103D8000034B02221A70704758200D4010ED00E0DE
:103D9000B75F002010B59020064CFEF73DFF902045
:103DA000FEF72EFF206818B101F054FA00232360BB
:103DB00010BD00BFF042002030B5184B1A78431EEA
:103DC0003AB9174A1278122A03D1164A12784B2AA6
:103DD00003D001F52011273117E04A0802F1281419
:103DE000B4F1281F04D014F8015D03F8015FF7E770
:103DF00001F5201127310023934205DA11F801590A
:103E00008418E5540133F7E730BD074A914204D0E6
:103E100011F8012903F8012FF7E730BD2B00280026
:103E20002A0028002900280027002800124A70B51F
:103E300015464FF0FF340023B2F9066056B1967A6A
:103E40000C32002E08BF1C460133052BF4D1621C36
:103E500023460FD00C225A43AB1898804FF0FF3006
:103E6000A850CA88DA804A7A1881C2F3C002DA728E
:103E7000184670BD002070BD30430020F0B5224DC3
:103E800006462F468FB00024B5F90630A3B101A82D
:103E9000B5F9041007F0BFFC9DF80D3003F03603B0
:103EA000022B09D130460DF10E0107F0EBF918B9DC
:103EB0000C2000FB047024E00134052C05F10C05F6
:103EC000E2D1002004B2214601A807F0A4FC9DF82D
:103ED0000D5005F03603022B0AD130460DF10E01CC
:103EE00007F0D0F920B9204601A9FFF79FFF08E0AD
:103EF0002046BDF90A102A4607F0C1FC1F28E1DD63
:103F000000200FB0F0BD00BF304300201E4B2DE954
:103F1000F04107464FF6FF7498461E888EB035B2C2
:103F20001F2D0DDC01A8294607F075FC9DF80D201A
:103F300093071CD423B2013306D1EB191F2B02DDEA
:103F40004FF6FF701CE034462846BDF90A1007F012
:103F500096FC23B2DA1982420646E0DCB8F900206A
:103F600020469A4202BF084B3F191F8008E02846AE
:103F7000BDF90A1007F083FC4FF6FF740646CEE742
:103F800000B20EB0BDE8F081DC5C002070B50446E4
:103F90008EB00E4601A82146154607F03CFC9DF860
:103FA0000D3003F00602022A02D04FF0FF3041E04C
:103FB00003F0200202F0FF01002AF6D176B99DF845
:103FC0000D3001A843F0040321468DF80D3007F0B1
:103FD0004EFC194A0023137055B916E01B07EED5A5
:103FE000BDF904000A46FFF7D1FF0028E7DADCE755
:103FF000124A1A44516829B1B1F90410A14204BF10
:10400000002111720C333C2BF2D10D4B03F13C011A
:10401000B3F904200C33A24201BF4FF6FF7223F81C
:10402000082C002203F8022C08BF23F8062C8B4230
:10403000EED100200EB070BDB85F0020F442002029
:10404000304300202DE9F04F95B0019088463AB1F9
:104050004046FFF75BFF411C044640F0D98004E076
:10406000FFF70CFF0028F3D0D0E0794A13780292D2
:10407000002B40F0CB809A46082600230593ADF82C
:104080001830DFF8D4B1734BBAF1000F03D1ABF89D
:1040900000A083F800A01FFA8AF91D784FEAC9072B
:1040A000BFB25DB1BBF800502BB2072B16DD082361
:1040B000ADF81430684B083D1D806BE0BBF8004044
:1040C00023B2072B0BDD0823083CA4B2ADF8163051
:1040D000614BA2B2072C1A805DD95BE00024BBF8CB
:1040E00000303B449BB219B232B291422ADA07A89F
:1040F000039307F090FB5748002202709DF825209B
:10410000039B02F00601022902F0200109D141B906
:1041100001220270BDF82220134415449BB2ADB2B7
:10412000E1E719B101339BB2013406E0520706D52D
:10413000BDF8222013449BB21444A4B2D3E7F31A6F
:104140009BB200E00023A9B2A0B20A18083A1A44B0
:1041500092B20FFA82FEBEF1000FABF80020DFF83A
:10416000F4C00BDD9CF800B0BBF1000F03D0C0F130
:104170000805ADB202E0C1F10804A4B2ADF81830F0
:104180009CF80030ADF81450ADF8164013B9BEF1EC
:10419000070F00DD0022BDF91430002B25DCBDF92E
:1041A0001630002B21DD2D4BB9B2B3F9004008B217
:1041B000844214B2C8BF1980002C13DD07A8002167
:1041C000322207F011F822238DF82530002507F15F
:1041D0000801294407A809B2013507F048FB2BB2B2
:1041E000A342F4DB484607F066FB0AF1010A0836F1
:1041F000BAF1040FB6B27FF440AF4046FFF786FE37
:10420000431C044604D1029A0123137000201BE0D2
:104210000021322207A806F0E7FF24B201992722E5
:104220000DF1260007F098F9022307A82146ADF802
:1042300022808DF8253007F01AFB204607A9FFF7EA
:10424000F5FD08B10023036015B0BDE8F08F00BF95
:10425000B85F0020B95F0020DE5C0020DC5C00203D
:104260002DE9F84381460D460024224F0C2606FB1B
:104270000476337A43B9337273724846FFF7FEFD12
:1042800080467060B0B906E00134052CEDD14FF0E6
:10429000FF30BDE8F88305F00303012BF7D0484653
:1042A00008210122FFF7CEFE70600028EFD0C0F891
:1042B000008008E00368013305D1B0F9040007F07D
:1042C000AEFAC8F800000C2303FB0472117A6343B2
:1042D000294315F00405117218BF5268204618BF13
:1042E0001568FA185268FD50937A01339372BDE84D
:1042F000F88300BFF442002004280CD8064B0C229F
:1043000002FB0030037A33B14168002202728B7ADB
:10431000013B8B7242607047F4420020042870B564
:1043200025D80C244443134B1E19357AFDB142B1F4
:10433000022A02D17268126802E0012A17D11A59C2
:104340001144002913DB0C2202FB00325268B2F93F
:104350000640B1EB042F0ADC14688C4202DAAC0789
:1043600005D511600C2250431950084670BD4FF01E
:10437000FF3070BDF44200200428F8B5064614460C
:1043800034D80C2343431B4DEA18107A02F1080E6F
:1043900060B3C0072AD55768527A52070CD50A195C
:1043A0000C237343EB58541A38682344834209D9C9
:1043B000002302F8013DF3E7EB583A68E018904219
:1043C00088BFD41AFB7ADB070ED40C235E43AA59AC
:1043D000B7F904303232084602EB0322214607F0D7
:1043E000E3FAAB592344AB512046F8BD4FF0FF3000
:1043F000F8BD00BFF44200202DE9F04F9FB0042823
:1044000000AF0646B960144602D94FF0FF30CBE04A
:10441000674D0C2303FB00531A7A002AF5D092074C
:10442000F3D5D3F804805B7A9B0700F19E800C23C0
:104430007343EB58B8F9062032332344B3EB022F11
:1044400040F29380B8F904A007F11000514607F03C
:10445000E2F907F11A000121FFF702FFB0F10008AD
:10446000D3DBB7F9161007F11A00490009B201228F
:10447000FFF7E8FD8346002852D04FF00009BA8AC2
:10448000C7F80CD0002A08BF4FF48072D11D21F06C
:104490000701ADEB010D40466946FFF76DFF031EB6
:1044A0000BDA00210A46BBF90400FFF76FFD404616
:1044B000FFF722FFD7F80CD0A7E70BD0BBF90420F9
:1044C000194609EB0222684632327B6007F005FA92
:1044D0007B689944D7F80CD0002BD0D1344A02F134
:1044E0003C00117A59B15168B1F90410514501BF2E
:1044F000C2F804B09BF80A1001318BF80A100C3294
:104500008242EED1012150460022FFF73FFD0028F4
:10451000BBF9041008DA084600210A46FFF736FD09
:104520004046FFF7E9FE70E707F1440007F073F932
:10453000BA8A07F14400A7F848207A8ABBF9041028
:10454000A7F8462007F093F99BF80B20404622F08D
:1045500001028BF80B20CBF80090FFF7CDFE0C2367
:1045600003FB0653D3F8048061E70C235E43D8F8BD
:104570000030AA59DFF838909A42FFF646AFB8F9F2
:104580000430323202EB0322B868214607F0A5F965
:10459000204659F80630234449F80630D8F8002060
:1045A0009342C8BFC8F800307C37BD46BDE8F08FE5
:1045B000F44200200FB407B504AA52F8041B0448C3
:1045C000019200F021F803B05DF804EB04B07047ED
:1045D0006040002070B505460C46102C07D92B68AA
:1045E000686808491022984750B9103CF5E734B183
:1045F0002B6868682246BDE870400249184720468B
:1046000070BD00BF55D220002DE9F04F80468FB01D
:10461000069107920026069B1B78002B00F05F8313
:10462000069B1C4613F8012B1AB9069B9C4203D12A
:104630000FE0252AF5D1F8E7069BD8F80400E51A23
:104640000699D8F800302A469847002840F02A8377
:104650002E442378002B00F042836378611C002BEA
:1046600000F03D8300240A4611F8013B2B2B11D0AA
:1046700006D8202B11D0232B12D144F00804F2E7E6
:104680002D2B04D0302B0BD144F01004EBE744F079
:104690000104E8E744F00604E5E744F00204E2E739
:1046A000A3F1310108290DD8134600251A4613F845
:1046B000011BA1F13000092811D80A2202FB0515BF
:1046C000303DF3E72A2B09D1079B01321D68191DE4
:1046D000002D0791B8BF44F0010400E000251378D5
:1046E0002E2B1CD15178531CA1F1300009280ED873
:1046F000194600270A780B46A2F13000092801F17B
:1047000001010FD80A2303FB0727303FF2E72A29CC
:1047100006D1931C079A111D0791176802E01346F2
:104720004FF0FF371A786C2A09D15A786C2A02D1D7
:1047300044F080040AE0013344F060040BE0682A8E
:1047400009D15A78682A03D144F02004023302E0E8
:10475000013344F040041A78642A3CD01FD8462A1A
:1047600048D00DD8252A5AD003D8002A00F0B782A5
:1047700057E0412A4AD0452A53D144F4424450E0FC
:10478000582A31D004D8472A4BD144F4A13448E008
:10479000612A38D0632A44D144F4A06441E06E2AEF
:1047A0003AD007D8662A22D027D3672A28D0692A88
:1047B00011D036E0732A2CD006D86F2A11D0702A77
:1047C0002FD144F440742CE0752A07D0782A28D1E0
:1047D00044F4C85425E044F4245422E044F4106422
:1047E0001FE044F488541CE044F4B24419E044F45B
:1047F000007416E044F4844413E044F4024410E0EE
:1048000044F481340DE044F4C1340AE044F4E1346A
:1048100007E044F4806404E044F4E06401E044F41C
:10482000C0640133069304F4E063B3F5806F00F0D5
:10483000AA8116D8B3F5807F2BD0B3F5407F7FF4E3
:10484000EAAE079BA04914F4804F03F104029F488D
:1048500018BF08460DF1330107920F461A6800236E
:10486000C5E1B3F5C06F08D0B3F5E06F00F0318259
:10487000B3F5A06F7FF4CFAE00E2D8F80030D8F8DF
:104880000400934901229847002840F00B8201362A
:10489000C1E6002FACBF24F01004012714F400532C
:1048A000039304F0E00337D0402B17D008D8DBB1D6
:1048B000202B2AD1079B1A1D079293F9002017E09D
:1048C000602B11D0802B20D1079B073323F00703E7
:1048D00003F108020792D3E900230AE0079B1A1D9F
:1048E0000792B3F9002003E0079B1A1D07921A688C
:1048F000D317002A73F1000109DA524263EB430334
:10490000CDE900234FF0010933E000220023CDE977
:1049100000234FF000092CE0402B16D007D8CBB174
:10492000202B20D1079B1A1D07921A78EEE7602BE7
:1049300010D0802B17D1079B073323F0070303F117
:1049400008020792D3E90023E1E7079B1A1D0792AB
:104950001A88DBE7079B00211A1D07921B6818467F
:10496000CDE90001D5E700220023CDE900234FF077
:10497000000904F4C053B3F5805F0CD0B3F5C05FF9
:1049800033D0B3F5006F4FD1DDE900230DF1360AC6
:10499000CDE9042304E0DDE900230DF1360A15E03A
:1049A000DDE9042313433AD0DDE904010A220023A0
:1049B00006F036F8DDE9040130320AF8012D002353
:1049C0000A2206F02DF8CDE90401E9E752EA0301D5
:1049D00025D002F0070130310AF8011DD10841EA63
:1049E0004371D8080A460346F0E7384B14F4804F69
:1049F0000DF1360A344908BF1946DDE9002352EAB1
:104A000003000CD002F00F00085C4FEA131E0AF8F6
:104A1000010D100940EA037002467346EFE70DF1FD
:104A2000360BCAEB0B0B03E00DF1360A4FF0000B0F
:104A300041F6080241F208035F4502EA04028CBF16
:104A4000CBEB070700279A4202D1002F08BF0127AE
:104A500041F608018A4207EB0B030DD1DDE90001A5
:104A600050EA010208D01B4914F4804F1A4A4FF053
:104A7000020C18BF0A4602E04FF0000C6246039990
:104A8000A1B1B9F1000F0AD104F0060102290AD040
:104A90000629124904BF4FF0010C0A4606E04FF008
:104AA000010C0F4A02E00F4A4FF0010C63449D4293
:104AB0008CBFED1A002514F0010922D1E30613D5AD
:104AC0002F444D461DE000BF20D2200031D22000EF
:104AD00053D2200045D2200042D220004AD22000EA
:104AE00048D2200015D1200040462946CDF80CC000
:104AF0000092FFF76FFD009ADDF80CC0002840F02F
:104B0000D180BCF1000F0DD01146D8F800306246BC
:104B1000D8F80400CDF800C09847DDF800C00028A0
:104B200040F0C0803C465E44102CD8F800300DD9CF
:104B3000D8F804006C491022CDF800C0984700282E
:104B400040F0B080103CDDF800C0EDE75CB1D8F873
:104B5000040065492246CDF800C09847DDF800C042
:104B6000002840F09F80D8F80030D8F80400514663
:104B70005A4666449847002840F094803E44B9F174
:104B8000000F79D073E0079BD3F800A01A1D07929D
:104B9000BAF1000F09D05346994699F80020013325
:104BA000002AF9D1CAEB090903E0DFF840A14FF070
:104BB0000609002F02DBB94528BFB9464D458CBF19
:104BC000C9EB0505002514F0010405D1404629462E
:104BD000FFF700FD002865D1D8F80030D8F80400B0
:104BE00051464A46984700285CD14E443EE052EA7E
:104BF000030E0ED002F00F0E10F80EE04FEA131C59
:104C000001F801ED4FEA121E4EEA037E724663463A
:104C1000EDE70B467F1A01BF3022012701F1FF3378
:104C200001F8012C03377822BD4203F8012C4FF024
:104C3000300203F8022C88BFED1B4FF0230298BF0F
:104C4000002514F00104A3F1030903F8032C04D197
:104C500040462946FFF7BEFC20BBD8F80030D8F804
:104C6000040049463A469847E0B93E4424B14046DC
:104C70002946FFF7AFFCA8B92E44CCE4079B012DD1
:104C800003F104021B688CBF05F1FF35002514F009
:104C9000010407928DF8203008D140462946FFF7DD
:104CA00099FC10B14FF0FF301AE02E44D8F80030D4
:104CB000D8F8040008A9012298470028F2D16F1CF7
:104CC0002CB140462946FFF785FC0028EAD13E4436
:104CD000A1E4079B1A1D1B6807921E609BE43046E7
:104CE0000FB0BDE8F08F00BF10D220004CD22000E2
:104CF000F8B50388064615462BB14A2B15D000237C
:104D000003800320F8BD174806F0F3FE04462CB1DB
:104D1000201DA16806F074FE2468F8E7124B0122FA
:104D20001A704A2333800120F8BD8829FBD10D4831
:104D300006F0DFFE0446002CF3D0231D9D420ED169
:104D40000848214606F0DFFE084B62691F681A60BA
:104D5000A2691D460AB1E06990472F60E1E7246827
:104D6000E9E700BF6C430020BA5F002078430020D1
:104D700010B5064B002406481C7006F0B7FE21460D
:104D8000BDE81040034800F04DBA00BFBA5F0020F4
:104D90006C4300206840002070B50446E3610B4B73
:104DA000049D1B786561A26143B1094D094B2E68D2
:104DB000201D2B6006F024FE2E6000E0A16021463D
:104DC000BDE87040044806F0B2BE00BFBA5F0020E4
:104DD00078430020684000206C43002013B5034C4A
:104DE00024680094FFF7D8FF02B010BD784300207C
:104DF00070B5094B05461B783BB1084C084B26683B
:104E00000430236006F005FE26602946BDE87040A8
:104E1000044806F08CBE00BFBA5F00207843002033
:104E2000684000206C43002070B5094B05461B7894
:104E30003BB1084C084B26680430236006F0F2FDB5
:104E400026602946BDE87040044806F070BE00BFE9
:104E5000BA5F002078430020684000206C430020A7
:104E600010B5084B04461B781BB1043000F0B8F8AD
:104E700001E0C36003612146BDE81040024806F02E
:104E800042BE00BFBA5F00206C43002010B504464C
:104E9000FDF7C6FC94E80C001344C01A024B98427C
:104EA0008CBF0020012010BDFEFFFF7F10B50E4C0F
:104EB000236813B90D4A136010BDFDF7A7FC2168E4
:104EC00091E80C001A44131A8A6842B192E8120061
:104ED0002144091A8B4228BF0B469268F5E7184413
:104EE000024B186010BD00BF7043002074430020C7
:104EF000014800F0AFB900BF78400020F8B5038842
:104F000005462BB1592B09D0002303800320F8BD9F
:104F10001E4A136059232B800120F8BD872920D019
:104F20008229F7D1194F00263C68002CF2D0204688
:104F300006F0A3FD90B1E0688821224600F04AF90E
:104F400050B9E060A3680EB1B36000E03B6000239D
:104F5000A360FFF7ABFFE5E7FFF7CAFF2646A468AB
:104F6000E3E70A490B680BB90B60D3E7D8689042B6
:104F700001D19B68F7E70B6099680029CAD0C8681F
:104F800090420ABF89680B469960F5E7704300209C
:104F900010B50446FFF7ACFFE3680B4A4BB113684A
:104FA0003BB1A34203D1094A1268DA6007E09B686B
:104FB000F6E7064B1B68E36013681460A360BDE866
:104FC0001040FFF773BF00BF7043002078430020FC
:104FD000024B1868003018BF012070477043002052
:104FE00010B50B4A04461368984206D183681360D3
:104FF00008E09A68A24203D01346002BF9D103E0DF
:10500000A2689A60FFF752FF0023A360E36010BD1F
:105010007043002038B5836804460D469BB10A48AA
:1050200004600220A07304F10C00984702380128A4
:1050300001D9832D05D120462146BDE8384000F036
:1050400005B80123A37338BD784300202DE9F84348
:105050001C4A0446156889462B4690461A4E376806
:10506000A34204D00BB11B68FAE7BDE8F88334B360
:10507000A37BABB10023A37345B1AC4204D0284657
:105080008721224606F0DFFC2D68F5E7A3683BB1D7
:105090004C4505D0346004F10C0083212A46984722
:1050A000D8F800309C4203D12268064B05E0134635
:1050B00023B11A68A242FAD122681A603760BDE8AB
:1050C000F88300BF7C4300207843002010B5094BD3
:1050D00000221A70084B1C685CB1E37B3BB10123D2
:1050E0000022A373E27320468221FFF793FF246816
:1050F000F2E710BDBD5F00207C430020024B187812
:10510000421C1A70704700BFBE5F0020064B8A2207
:105110001A70064A00231370054A1370054A13607B
:10512000054A1360704700BFBE5F0020BB5F0020D0
:10513000BC5F00207C430020784300202DE9F04133
:105140001A4D2B780BB1FFF7C1FF194C22783AB3F7
:10515000184E0C213378184F5943781817F80180EE
:1051600001334768806803F01F03013A33702270EF
:1051700068B9124B1E689EB12B780BB1FFF7A6FFE2
:10518000304641463A4606F05EFC3668F3E7B8F131
:10519000810F04BF0123837341463A4606F053FC56
:1051A0002B7820781844BDE8F08100BFBD5F002057
:1051B000BC5F0020BB5F0020804300207C430020B8
:1051C000024A034B10781B7818447047BC5F0020DC
:1051D000BD5F0020F0B50B4E3378202B0FD00A4C6A
:1051E0000C252478094F1C4404F01F046C43013340
:1051F0003D19A86039556A6033700020F0BD012068
:10520000F0BD00BFBC5F0020BB5F002080430020DA
:1052100038B5034C256806F016FC256038BD00BF84
:105220007843002010B50A4609490C68234683429A
:105230000DD00BB11B68FAE748B10460086001218A
:10524000817383818121BDE81040FFF7E1BF10BD6C
:105250007C43002038B1837B013B012B9FBF024A76
:105260000123C37313707047BD5F0020024610B561
:10527000064853600468029B11609360026014B991
:105280000846FDF711FB002010BD00BF00450020BF
:1052900010B5084C206858B100232360816843682A
:1052A0009847236823B1BDE810401868FDF7FCBAA1
:1052B00010BD00BF0045002038B505880446672DA5
:1052C00009D0792D2ED0002D32D1FFF717FF1B4BBF
:1052D00018701B4B1D601B4806F0F8FB431C01D1E6
:1052E00067231DE00A28164B07D01A687E2AF2DCD5
:1052F000511C1960144B9854EDE7196800254A1C9D
:105300001A60114A0D4B555428461978FFF762FF71
:105310000E4B852118682A46FFF75CFF20B97923D8
:10532000238009E0852907D1054B00221A60D2E7C6
:1053300000230380032038BD012038BD7B7100208D
:105340000C450020044500204060002078430020E8
:105350000D2810B5014615D00B4C23782BB90B48FE
:1053600006F0A0FB48B9012306E00A2805D107484A
:1053700006F098FB08B1002323700548FFF76AFF89
:10538000012010BD002010BDBF5F0020044500209B
:105390008840002008B505480549802206F07BFBBF
:1053A000BDE8084003480021FFF73CBF044500204A
:1053B000C05F00208840002070B505880446772D26
:1053C00030D07E2D3FD0002D4DD1FFF797FE294BD9
:1053D0001870294B1D601D462B68284A264E52F82E
:1053E00023204AB126480021C15493688020984761
:1053F000336801333360EFE7224A1370772320E0EC
:105400001F4AD256002A12DB1B4A1368013313606D
:10541000194B1C4A1B6812789342F1DB1A4B1B682C
:10542000002BEBD0184A00231360134AEFE7114A10
:1054300000201178114A52F82320FFF7CBFE30B933
:105440007E23238013E00B4B1B788B420FD10A4B3A
:105450000B491A688B5C03F07F038B540A4A13686C
:1054600001331360D0E700230380032070BD0120C7
:1054700070BD00BF7C71002010450020404000201E
:1054800077710020C060002014450020094B1A7875
:105490000023934204DA084951F82310814207D1CE
:1054A00006490748CA5C62F07F02CA54FFF7D2BEC1
:1054B0000133EEE7C06000204040002077710020FB
:1054C00098400020054A136843F004031360044B1E
:1054D0001B68906943EA002080B2704700700D405D
:1054E00014700D40174A136823F00C031360164B19
:1054F00001221A601A68012AFCD1144B08221A6092
:10550000E322C3F8142203F505731946104B1B68F8
:10551000DB07FBD5102000230E4A0138126802F089
:10552000010243EA02034FEA43039BB2F4D1002B8A
:10553000F0D0094A180A03F0FE0310601360EF234D
:105540000B60704700700D40A8200D402486084075
:10555000648608409C86084014700D402DE9FF4188
:105560001F4C204D04F108030FCB8DE80F00297864
:105570006F4694F80780A1B13A23A3711A4B1A8899
:10558000521A92B21A80A2F1280318122C312071FB
:10559000214404F12C002C3A637105F0C1FD002375
:1055A0002B70124806F0A5FA064690B1D6F804C052
:1055B000BCF1000F09D00C4B2A781B8838322C3BE9
:1055C0003846414622449BB2E047304606F0CEFAC8
:1055D000EAE7054B2870188004B0BDE8F08100BFF1
:1055E0005C690020D36000204C6900201845002031
:1055F000F8B52A4B2A4C1B7904F11806E371237E77
:1056000004F10805FF2B08D195E80F0086E80F008C
:105610002846314600F0BEFA1BE02F46B646214A26
:105620003B4603CB7345106051601F4602F10802F0
:10563000F6D196E80F0085E80F001A4B1A4D03F1DA
:1056400010062A4618685968083303C2B342154643
:10565000F7D1164D297899B13A23A371144B1A88C2
:10566000521A92B21A80A2F1280318122C3120711A
:105670006371104821442C3A05F052FD00232B7031
:105680002B7881222833E518E25400236B706B805D
:1056900006F035FBC0436880F8BD00BFE06700201E
:1056A0005C690020E05C002074690020D360002069
:1056B0004C6900208869002038B504460B480D4627
:1056C00006F017FA78B10379A34209D14379AB42C6
:1056D00004D183683BB19847002038BDFF2BF8D038
:1056E00006F044FAEEE7012038BD00BF1C4500205B
:1056F0000146014806F01BBA1C4500202DE9F74F72
:10570000484D81462B7888469246474C43B1283312
:10571000E35C3A2B0BD1454A002313802B707EE0CB
:10572000A3793A2B03D194F92830002BF3DA02F055
:10573000DDFF3F4E3F4AB446934606F1100E334616
:1057400003CB7345106051601E4602F10802F6D18A
:10575000364E2F78338804EB470030339BB2B3F5D5
:10576000A06F88BF4FF4A063338032882E4BD21BCA
:105770001946303A3030CDF804C0009305F0D0FC23
:105780009DE80810602222700022627062803A2236
:1057900017B183F8282000E09A71274A224B12792A
:1057A000E271228972B95A8962B99A8952B9DA8941
:1057B00042B91A8A32B95A8A22B99A8A12B9DB8A4C
:1057C000002BA8D01D4B0FCB8CE80F009BF80030AE
:1057D000FF2B05D1B9F1040F9DD1B8F1020F9AD179
:1057E0001449164800F0D6F92F78504607F12803DF
:1057F000E21804F8039082F8018006F086FA3388F4
:105800002C37283BE0511A1263712B782271283310
:105810001C440023638006F072FAC043608003B02A
:10582000BDE8F08FD36000205C6900204C69002047
:1058300074690020E05C0020E067002064690020BB
:105840002DE9F0411E460F461B4905460C466023D4
:105850000B7000234B704B803A238B71174B904693
:105860001B7900F1100ECB71331D1A120A714B71A6
:1058700001F11802134628686968083503C37545A5
:105880001A46F7D10E482C3600F1100100F082F9CB
:105890000C4B1B782833E518E75400236B8085F800
:1058A000018006F02CFAC043074B68801E80BDE8DB
:1058B000F04102F06BB800BF5C690020E067002097
:1058C00064690020D36000204C69002008B50448BA
:1058D000FFF70EFFBDE808400248FFF709BF00BF11
:1058E000A8400020B44000202DE9F3410446154DA6
:1058F00000910E4690461F4601952346124803210B
:10590000202206F08CF901282B4616D12A6804F1D2
:105910001001107020462A68023250F8044B884269
:1059200042F8044BF9D11868089B86744361099BBF
:1059300080F813800777836100E0002002B0BDE8A3
:10594000F08100BF24450020DC68002070B50646C9
:105950000B4D0C4B2B602C680B4B9C420BD22378CD
:1059600033B1A27CA01C3146D20805F031FB20B136
:1059700020342C60EFE7002070BD012070BD00BF17
:1059800024450020DC6800203C69002013B5084C49
:10599000802203460092019406480321202206F04B
:1059A0003EF908B9206800E0002002B010BD00BF39
:1059B00028450020F867002010B50C4A0C4B1360F6
:1059C00013680C498B420DD2197849B1411C02D0A1
:1059D000997C814204D148F2FE015C888C4202D05D
:1059E0002033ECE70023184610BD00BF28450020F7
:1059F000F86700205868002037B504460F4D802313
:105A00000093019523460E480521122206F007F95E
:105A100001282B460ED12A6804F11001107020468F
:105A20002A68023250F8044B884242F8044BF9D1FC
:105A3000186800E0002003B030BD00BF2045002002
:105A40007C680020F7B50546204C802300930E4665
:105A5000174601941E48032120222B4606F0DFF84A
:105A6000012830D12A46236805F1100118702368F7
:105A7000023352F8040B8A4243F8040BF9D1206830
:105A8000C77416B90123037505E000230375314679
:105A9000183005F0AEFF23680E48012199740223E7
:105AA0004370FF220023027043808380C380038100
:105AB0008372C17202736B7B4373EB89C381FFF7FF
:105AC0009BFF206800E0002003B0F0BD28450020C7
:105AD000F8670020F05C002013B5084C80220346D4
:105AE0000092019406480521122206F098F808B9A0
:105AF000206800E0002002B010BD00BF204500205B
:105B00007C68002038B50546C8B10D480222002443
:105B10004270FF230122C27244808480C4800481C9
:105B2000847203730370EB7B43732B8AC381FFF78B
:105B3000D3FF044A106008B106F095F82C7038BD08
:105B4000F05C00202045002010B50E4B0E4C236069
:105B500020680E4B98420ED203784BB1037D3BB9BF
:105B60001830FFF793F918B1074B1868FFF7CAFF11
:105B700023682033EBE700F0E9FABDE81040044861
:105B800005F047BFF867002028450020586800202E
:105B90003C6900202DE9F84348F2FE030A880546D7
:105BA0009A42884621D00B78FF2B1ED01B4B002435
:105BB000A1461F461A4A1A603E681A4A964218D2EF
:105BC00033787BB1B37C012B0CD148F2FE03728891
:105BD0009A4207D04046B11C06F052F8484524BF0F
:105BE0003446814620363E60E6E70120FFF7E4FEBA
:105BF00004464CB92C806C80AC80EC802C816C818C
:105C0000AC81EC81BDE8F883A31C123453F8042B5B
:105C1000A34245F8042BF9D1BDE8F88328450020BC
:105C2000F86700205868002010B5FFF74BFC0446C9
:105C3000FFF748FC054B24029A68A4B22044B0FB4D
:105C4000F2F302FB130000EB520010BDE0670020EE
:105C500073B52F4C00F098FD00F08EF80021602203
:105C60002C4805F0C1FA00212046F82205F0BCFAC4
:105C7000294B20221A70294B18221A704FF4A06366
:105C80002360274B40262671A360FFF7CDFF42F229
:105C90001073236148F2FE03314640F2FF260025CF
:105CA000E06025751F4C2A46238065802B46A58021
:105CB000E580204600950195FFF716FE20461A491B
:105CC00005F0D5FF294601222046FFF7BBFE4FF421
:105CD00080732046E38126806580A580E58025814C
:105CE0006581A581FFF788FE4FF40073204626806A
:105CF0006580A580E58025816581A581E381FFF729
:105D00007BFE0A480C2102B0BDE8704005F078BE69
:105D1000E0670020DC680020D9680020D8680020F7
:105D2000C0270900F05C0020546900203C69002075
:105D30002DE9F04105460D480F46904605F0D9FE85
:105D4000044688B1012D04D8094805F008FF034630
:105D500001E0084B1B682846666839464246B04752
:105D6000204605F003FFEBE7BDE8F081384700204F
:105D7000704500206C45002008B50B4805F0F9FE81
:105D80000A4805F0B3FE0A4B0A49186803F0A6FC5E
:105D9000094805F0EEFE094805F0A8FEBDE80840F8
:105DA000074805F0A3BE00BFE0400020B445002036
:105DB000DC400020C3BC2000C04000207045002013
:105DC0003847002008B5034640B1054A59681068B5
:105DD00006F079FEBDE8084005F0A1BF08BD00BF90
:105DE000DC400020014805F084BE00BFB44500201F
:105DF00008B505F096FF014638B1044B186806F067
:105E000049FE003018BF012008BD08BDDC4000205D
:105E10002DE9F0418046FFF7E5FF002604463746AE
:105E20009CB194F82450B5420AD3404604F10801CD
:105E3000EA0805F0CDF818B9802D08D02E4627467F
:105E4000204605F03AFF0446EAE73C4667B10848B9
:105E500005F04FFE844207D00548214605F053FE69
:105E60000348214605F072FE2046BDE8F08100BFE0
:105E7000B445002038B5044600283ED04368002BC6
:105E80003BD01E48214605F03EFE6368586805F089
:105E900030FE054630B14368A34207D0284605F0DE
:105EA00065FEF6E704F1080001F0ECFC63682946A2
:105EB000586805F028FE6368586805F01AFE28B98E
:105EC00063680F4A5968106803F0C0FC21460D480A
:105ED00005F073FE29460C4805F06FFE0B4A20467C
:105EE0001368013B1360FFF76DFF04F108010246E0
:105EF000BDE838400320FFF71BBF38BDB445002084
:105F0000DC400020E0400020EC4000206C450020F8
:105F100010B5044680B1406870B105F0EAFD20B1CB
:105F20004068FFF7A7FF6068F7E7044B2146BDE82C
:105F30001040186803F08ABC10BD00BFDC40002090
:105F40002DE9F84F074610468946904605F0E9FED0
:105F5000834610B90020BDE8F88F3846FFF758FF98
:105F6000044660B1FFF72EFF014628B140461022DB
:105F700005F02EF8002859D02046FFF77BFF2D4B67
:105F80001A689A46082AE5D02B4E5946306806F022
:105F900081FD054668B92B4630685946042203F056
:105FA000CBFB05460028D5D000236860036005F0D0
:105FB0009DFD224805F0EDFD04460028CAD020488A
:105FC000214605F0C3FD1F4805F0E3FD834620B9D7
:105FD00021461A4805F0F1FDBCE74460686859465F
:105FE00005F0A5FDDAF80030656001333068294618
:105FF000CAF8003003F040FC3B4604F1080507F105
:1060000010062A4618685968083303C2B342154679
:10601000F7D100210C2284F8249004F1180005F037
:10602000E3F8022039464246FFF782FE2046BDE8EB
:10603000F88F00BF6C450020DC400020E0400020CD
:10604000B4450020EC40002038B505460D4805F069
:1060500050FD0446A0B1AC420ED12146094805F0DE
:1060600052FD2146084805F0A8FD211D01200A46E1
:10607000BDE83840FFF75CBE204605F077FDE8E755
:1060800038BD00BF70450020C040002038B505462F
:10609000084805F02EFD044648B1201D294610226F
:1060A00004F096FF18B1204605F060FDF3E72046A6
:1060B00038BD00BF70450020F8B505460F46FFF714
:1060C000E5FF044640B9134805F063FD0446F0B10E
:1060D0001148214605F03AFD2B46261D05F1100E0C
:1060E000324618685968083303C273451646F7D11B
:1060F00037B104F11400394605F07BFC002300E0C1
:1061000001232377002029462A46FFF711FE204667
:10611000F8BD00BFC04000207045002038B50A48D7
:1061200005F0E7FC044600255CB1251D284600F07B
:106130005FFB08B1437C23B9204605F017FD0446F8
:10614000F2E7284638BD00BF7045002010B50A4868
:1061500005F0CFFC044670B1237F43B904F114006D
:10616000FEF794FE18B12046FFF76EFFEFE72046DA
:1061700005F0FCFCEEE710BD7045002037B5124B72
:10618000124D1C782B796A79C4EB032313449BB21C
:10619000ADF80630BDF8063005F10801184420229C
:1061A00080B205F090FDBDF8062004F128012944D5
:1061B00092B205F088FD10B140BA80B201E04FF60E
:1061C000FF7003B030BD00BFD36000205C690020C9
:1061D0002DE9F041264F274E3D7827482835AB1949
:1061E0005C780223E40007349C423DDBE918721816
:1061F000715CDFF88080012931D002D3632902D09D
:1062000011E001332EE0037018461B4C02F0EEF94A
:10621000D0B13B7822782833134443445B7813444D
:106220000233237021E001F0C001802905D0C0298C
:1062300005D0402913D1037006E0037007E098F8F9
:1062400018200370FF2A02D10120BDE8F08104204C
:106250000221EA18FFF752FA0220BDE8F0815278D5
:1062600002321344DBB2BFE703700020BDE8F081C7
:10627000D36000205C690020D560002008B5FFF7DE
:10628000E7FCFFF723FB05F055FD074B4FF4806259
:106290001A800023054A00211A442033B3F5A07F59
:1062A0001182F7D108BD00BF005D0020906E002074
:1062B0002DE9F041124F3D7805B3DFF84C8005F130
:1062C0002703B8F80040A34203DB0023A8F80030FE
:1062D00013E00C4EA4F1280205F12801641BA4B2BE
:1062E00006F128003144521B04F01AFFA8F80040C0
:1062F000283C23123371747100233B70BDE8F08198
:10630000D36000205C6900204C69002004282DE93E
:10631000F74F9D4E00F0C8819C4C9D4B9D49052830
:1063200023600B60A146884612D19B4A1268128AEC
:10633000002A00F0F6810C3B23600B60974B002293
:1063400097481A80974B0260328008221A70A9E1A0
:1063500013F83C2CA3F13C0402F0F002602A40F058
:10636000E08122796179120230885518854200F364
:10637000D88128310A443280227AFF2A00F0D18164
:10638000894A363B1360894D894B00212970197069
:10639000A17993469A46B9B901238AF80030FFF7EC
:1063A00017FF012800F0BD8103D3022800F0B5815A
:1063B0000AE02B7803F128022244CBF8002052781F
:1063C000083303EBC2032B707A48FFF7DFFA00288B
:1063D00040F08B807748FFF77FFB002840F08580F6
:1063E000227E754BFF2A40D048F2FE00198B814275
:1063F0003BD01989814238D071B9598961B99989DD
:1064000051B9D98941B91B8A33B9618A6A4B19B923
:10641000998A09B9DB8A43B3218B674B79B9598BC8
:1064200069B9998B59B9D98B49B9198C39B9598C32
:1064300029B9998C19B9DB8CB3F5807F15D03388D5
:10644000B3F5A06F04D9022000214FF4A06205E04B
:10645000E379012B05D800210A460320FFF74EF906
:106460005BE1554A013BD37157E148F2FE032189B4
:10647000994240F05681218B4F4B81B9598B71B9AC
:10648000998B61B9D98B51B9198C41B9598C31B9F2
:10649000998C21B9DB8CB3F5807F00F04281FF2A13
:1064A00000F03F814348FFF751FA0246002840F0D0
:1064B000388101200221D1E71FD93B2F00F0318123
:1064C0003C2F22D19AF8003039499F0739D5580618
:1064D0007DD443F040030B70FFF77AFE012800F0F3
:1064E000208131D3022800F01881DBF80020DFF88A
:1064F000B8C017782C2FDFD113E1112F00F089805D
:106500002B2F2DD0002F62D102E03A2F5FD162E015
:106510009AF80030CDF804C0D90758D4244A43F083
:1065200001031370FFF754FE012800F0FA80DDF834
:1065300004C0D7D22B7803F128022244CCF80020E3
:1065400008E043F00203C6E72B7803F12802224457
:10655000CBF800205278083303EBC2032B70C4E75A
:106560009AF8003003F0040000F0FF0178BB104AF5
:1065700043F0040313702A7802F128032344D878E7
:10658000E0B104202A3269E74C6900207C6E0020CB
:106590009869002050690020786E00208C6E0020E1
:1065A000806E0020706E0020746E0020D36000208A
:1065B000D4600020746900205C690020CCF80030B1
:1065C0005B78083202EBC3025B4B1A708DE7042044
:1065D0000121121B42E705F092FB4FF6FF73984230
:1065E00040F09F802B782833E05C01F0A9F92B78EC
:1065F0002833E218E05C5178FFF75EF8012801BF0C
:1066000000234D4A338013703388002B00F08980BB
:1066100083E0FFF74DFEE38DA7714BB9678D002F27
:106620007FD0464B464D2B60464BB3F828A00AE07E
:1066300005F068FB4FF6FF73984272D1EEE7238AAC
:1066400033B920342C602C683F4B9C42F7D315E0C3
:106650009F42F6D1638A0BB19A45F2D123682BB9D8
:1066600063681BB9A3680BB9E3685BB1374821467F
:10667000102204F0ADFC0028E3D103E00120042146
:106680000022EBE63388324A303B32493380002324
:106690000B60C9F800203049C8F800202F4A0220BA
:1066A0000870138001F038FA2C4B1A88002A38D071
:1066B00002F13003234C9BB23380283B19126371E3
:1066C0001F4B08321B6852BA2171197DA285002226
:1066D000E2851A8AE17122855A8A11216285A171A7
:1066E00004F118050FCB85E80F0004F108002946D6
:1066F000FFF750FA1A4B04F13C021A6005F002FB56
:10670000C04380B208B1E08502E04FF6FF73E38535
:10671000602323700023637063800F4B00221A7084
:1067200007E0054A002313700E4A338013700A4AAB
:10673000137003B0BDE8F08FD3600020906E00208E
:10674000786E00205C690020D06F00206469002012
:106750008C690020806E0020706E00208C6E0020FE
:106760007C6E0020D460002010B5044640B102F0D9
:106770008FF8044B2146BDE81040186803F066B856
:1067800010BD00BFF840002008B503F043FA034BEA
:1067900003491868BDE8084002F0A0BFF840002097
:1067A0006967200070B51E460C4B04469DF810200A
:1067B0001868059B02F0C0FF054668B120462B46CD
:1067C00004F1100250F8041B904243F8041BF9D165
:1067D0006E74284602F05CF8284670BDF840002030
:1067E000024B0146186806F06EB900BFF840002061
:1067F00070B50C4D0646286802F084FF044666B961
:10680000002070BD20463146102204F0E1FB38B173
:106810002146286806F01FF90446002CF2D1EFE764
:10682000204670BDF8400020024B0146186806F073
:1068300031B900BFF840002070B5054610200C4665
:1068400003F03EF90849064606F052F958B93046B9
:106850002946224603F07CF9304629462246BDE807
:10686000704001F0EBBF70BDEAD220000C4AB823A3
:1068700003FB0022002330B553821A46094CE1186D
:106880008D782DB11C5D844202BF00248C700132D2
:1068900040F24C5171338B42F0D1104630BD00BFF5
:1068A00058470020E160002008B5064801F042F892
:1068B000054B01221A70FD2100225A709970DA707E
:1068C00008BD00BF116B2000D760002010B5137801
:1068D0000446087A83F0020398421DD1487A53781F
:1068E000984219D1887A9378984215D1C87AD3788A
:1068F000984211D1087B137998420DD1487B537986
:10690000984209D1887B9379984205D1C87BD37985
:10691000984201D103201BE00B890F4A6BB94B89C8
:10692000B3F57F4F09D18B89FE2B06D11368C98936
:10693000022023F8021B13600AE0136851F8080FC5
:10694000083343F8080C486843F8040C136001202E
:10695000A040C0B210BD00BF4447002010B50F4C8E
:106960000220A17903F092F8A379112B01D0062B14
:1069700005D1238D618D9942A8BF194608E03A2BB5
:1069800005BF94F8281094F82930002143EA01212A
:106990000120BDE8104003F079B800BF5C69002019
:1069A00010B5084C01462378012B08D1A01C082201
:1069B00004F00EFB00280CBF2046002010BD002074
:1069C00010BD00BFD760002008B50146102003F0BD
:1069D0006BF8044B04489B6800219847BDE80840C9
:1069E000FCF7DCB888D02000ED69200010B508461F
:1069F0000C461146FFF720FF044B1B6813B19B6840
:106A000020469847024B1C6010BD00BF5447002031
:106A100050470020F8B505460023114A712404FBB5
:106A20000324A278B2B9617002F05AFF26460D4FD6
:106A30000D4A3B7806F8035BC01A1568A0701D4428
:106A400002F04EFF3A782946821A304604F0F2FAF4
:106A5000A078F8BD01330C2BDFD14FF0FF30F8BD2B
:106A6000E16000202D660020484700202DE9F84312
:106A70004FEA1219B9F10F0F80461D4602F00F04BC
:106A80000BD00F2C05D1B9F1000F0AD110242746E5
:106A900019E0B9F1000F09D004E00F2C4FF01009F4
:106AA00000D1102440464A4604F0C4FA09EB04021F
:106AB0000F2A274606DC08EB09000021C2F110026C
:106AC00004F092FBBCB1114DC7F110002E68404498
:106AD0003146224604F0AEFA022C08D1B9F10A0F71
:106AE0009FBFFF2388F80B30FE2388F80C30344416
:106AF0002C60BDE8F883B9F1000F05D04046294667
:106B0000BDE8F84305F0B3B8BDE8F883444700207A
:106B10002DE9F04F8E4E8F4D002387B033702B70D0
:106B2000044602F059FF02F0EDFE8B4A8B4B1268CF
:106B300018608DE8600099460AB1FFF70FFF04A8BE
:106B40000CB9874900E0214605F0CDFF854B864E04
:106B50001A8803933E2A40F20182D9F800B0834D8F
:106B60000BF102032B60009B06F1180093F80080E4
:106B7000002308F102080BF80830FFF711FF20B9D5
:106B800006F10800FFF70CFF20B10BF103032B60A7
:106B9000802400E0044672783178130943EA011337
:106BA000DBB2980840EA8313DBB212F00F0FDEB2BB
:106BB0006E4F01F00F010CD16B48408848B911B9F4
:106BC00012F0F00F1FD03B6803F8016B3B6070269A
:106BD0001AE079B912F0F00F0CD1296823F03F03C5
:106BE0001A43634B0A701B88033121F8023C682664
:106BF000296009E05C4A2B681068186003F8046B90
:106C00002B60602600E07826574B9A790293112A70
:106C100008BF46F0040673075EBF3B6803F8012B0C
:106C20003B60029BDB79402B06D0FF2B07D0012B6A
:106C300008D146F0010609E046F0020606E046F0FB
:106C4000030603E03A6802F8013B3A60029A464BB9
:106C5000128982B95A8972B99A8962B9DA8952B9A4
:106C60001A8A42B95A8A32B99A8A22B9DB8A13B986
:106C700044F0400013E03F48FFF792FE3E4B18609F
:106C800078B142781BF80830042043EA02130BF86D
:106C900008303849394AFFF719FE60F03F00C4B2A6
:106CA00027E0029B30491A8948F2FE039A420CD130
:106CB0004B8B53B98B8B43B9CB8B33B90420083141
:106CC0002E4AFFF703FE2043E9E73A68DFF8A4C045
:106CD00096460CF1100A634603CB5345CEF80000EC
:106CE000CEF804109C460EF1080EF4D11F4B103262
:106CF0001A60DFF874A09AF81830FF2B40F08A80F1
:106D00009AF8192044F0080E022A5FFA8EFE37D155
:106D1000BAF81A30A3BBBAF81C308BBBBAF81E30D5
:106D200073BBBAF820305BBBBAF8223043BBBAF869
:106D300024302BBB9AF8263013BB3B689AF82720E7
:106D400044F00B0003F8012BC4B23B609FE000BF8E
:106D5000D66000202D6600205447002048470020C0
:106D6000EAD220004C6900205C69002044470020E2
:106D70005E690020646900203C47002054690020BF
:106D80009B4B588B194688BB988B78BBD88BA8B97E
:106D9000188C98B9588C88B993F8240070B9296870
:106DA00044F00A00C4B2084600F8012B33F8252F3E
:106DB000043121F8032C9B78837015E0C98B8C4B30
:106DC000A1B9198C91B993F8221079B9296844F0C6
:106DD0000900C4B2084600F8012B53F8232F0631EE
:106DE00041F8052C1B790371296050E0814ADFF8D6
:106DF00018C214680CF110082746634603CB4345BC
:106E0000386079609C4607F10807F6D110341460A9
:106E100074463CE00AF11800FFF7C2FD764B18609B
:106E200050B143781BF8081044F004040B43E4B25B
:106E30000BF8083000200EE048F2FE03BAF81820E4
:106E40009A4210D1BAF81A306BB9BAF81C3053B95B
:106E5000BAF81E303BB90AF1180104AAFFF736FD53
:106E60002043C4B213E0634ADFF89CC117680CF1F9
:106E70001008BE46634603CB4345CEF80000CEF86B
:106E800004109C460EF1080EF4D110371760019AD9
:106E90005749282313708B79112B53D14FF2B0032C
:106EA0000A8D52BA92B222F00F0080B2984217D1E6
:106EB0004B8D5BBA23F00F031B041B0C83420FD1D5
:106EC0002868F32303704B8D02301A0A0B8D1B0ABE
:106ED00002EB031303F5AA6300F8013C286028E0E5
:106EE000029B43495B8D5BBA03F47F43B3F5704F5C
:106EF00009D12B68F1221A700A8DA3F801204A8D5E
:106F0000120ADA700CE002F47F42B2F5704F2B687F
:106F100008D1F2221A700A8D120A5A704A8D5A80CC
:106F2000043305E0F0221A70886A053343F8040C34
:106F30002B60324B1A882B6823F8022B019A2B60A6
:106F400030231370009BD9F800201B78D6541344CB
:106F50005C70284B1B689B1A009A1AE0D9F8002035
:106F600041231370009B06F128051C78631CDBB2DB
:106F70001344324603CAAA4218605960164603F108
:106F80000803F6D1009B29341C70019B019A1B78E1
:106F90002833102013700DEB000102F085FD184B13
:106FA000DFF868801B68984730EA200028BF15206A
:106FB000039BC0F17D051C88019BDFF854A01E785F
:106FC000009BA21B93F800B00E4FCBEB05039A4237
:106FD00040F3CD80C0F17803019302F089FA019B60
:106FE00094FBF3F40134A04214DC0020D1E000BF94
:106FF0005C690020444700203C4700208A6900204B
:1070000040D020002D660020746900204C690020CB
:10701000D6600020D9F800B05F4B3C7800221A609F
:10702000594622460BF10400039304F079F8B8F8AE
:1070300000205A496FEA82426FEA9242C2F3072265
:107040008BF80020B8F8002004348BF801200A885F
:10705000E4B2501C0880110ADFF850C18BF802100E
:107060002D1B9AF8001025F007054D4E61448BF852
:1070700003200BEB04002A46CDF808C03C703560B5
:1070800003F0D8FF281980B202F020FC02F036FA93
:10709000039B04461D460028A7D00DF1100B58464F
:1070A000FFF792FC204602F07FFA204602F060FAD9
:1070B0002B68012B99D0043B012B96D99AF800A09C
:1070C000336853441FFA83FA05233B70354B1A6823
:1070D000B8F800306FEAC3436FEAD343C3F3072322
:1070E0001370B8F800305370019B23F00707376026
:1070F0002D4B1B889A454BD2D9F800204FEADA0174
:1071000011713268CAEB03039342B8BF244AD9F81D
:107110000000B8BF1360009B376893F80080029BA3
:107120003A4603EB0A01404403F084FF08EB0700F2
:1071300080B202F0CBFB02F0E1F9074600283FF4F1
:1071400054AF5846FFF740FC384602F02DFA384657
:1071500002F00EFA124B1B689A442B681FFA8AFA47
:10716000012B3FF442AF043B012BC1D83DE7D9F8D6
:1071700000000E495844314403F05CFFB8F80000A9
:107180005844801B80B202F0A1FB04A8FFF71CFC4E
:10719000012007B0BDE8F08F50470020925D00202D
:1071A0004C470020484700204C6900205C690020C3
:1071B0002DE9F047074688461646002A47D0434C3B
:1071C0000025A146238ABB4215D1638A9BB10F20BB
:1071D00002F076FC0146204605F08AFC58B1ECB27C
:1071E00020463146FFF716FC002827DA0027DFF893
:1071F000E0A0B8460DE0B834002D5DD10125E1E7EF
:10720000A8450BD10AF1B80AB8F1000F10D14FF020
:1072100001083AF8063C002BF4D0F1E7504604F0A0
:107220002CFC0028EED04046FFF720FB0744E9E79E
:10723000002F41DD20463146FFF7ECFB00283BDD07
:10724000B82303FB0595AB8A1844A8823AE0204D89
:10725000FF2435F8063C4FFA84F97BB3284604F046
:107260000CFC10B13046FFF701FBB9F1FF3F03D131
:1072700035F8063C03B9F4B2012E05F1B80501D08A
:107280000126E6E765B26B1C16D0B8235D43DFF834
:107290003C900F2009EB0506A6F81280378202F019
:1072A0000FFC0146304605F01EFC05F1180048446D
:1072B000402104F0D0FB05E0FF2403E0B9F1FF3FDB
:1072C000DAD1D8E760B2BDE8F08700BF58470020A8
:1072D000704700202DE9F04F0F2087B0A54CDFF854
:1072E000CCA202F0EDFB002602F06EFC8AF80060F2
:1072F000267002F007FBA04DA0462860042002F093
:10730000CDFB9E4B2A6800B218605778137847EA85
:10731000032703F0F803C02B02D0E02B19D03AE08A
:1073200090782378D278C7F30A07043342EA002022
:10733000394632462370FFF73BFFB0F1FF3F8146ED
:1073400000F080828E4CB82303FB004401262234D7
:1073500024E01379D17890782278C7F30A070532B0
:10736000227041EA00201A4639460093FFF720FFB9
:10737000B0F1FF3F814600F065828149B82202FBEF
:107380000012958A4FF0010BBD4234BF0025012544
:107390003446009BDFE1B1464F467A4C296898F8A5
:1073A00000504A5D02F0E003602B40F0B681A81C5B
:1073B000084429444D78744B5FFA85FC1CF0800F1B
:1073C00018601CBF0130186012F0100F02F00801A5
:1073D00030D1D1B9196831F8010FA4F801008978CA
:1073E000E170196811F8040B1960830803F00F01AC
:1073F00041F060012170617803F0300343EA8013AB
:1074000001F00F010B43637030E01868602186467D
:1074100021701EF8011B03304FEA910B0BF0300B6B
:1074200001F00F014BEA01016170BEF80010186015
:1074300061801BE001F0FF0E99B919680878C0F36C
:10744000830040F06000207011F801BBA4F802E056
:107450004FEA9B0000F0300040EA8B10607019602A
:1074600004E06023237000236370638002F0040350
:1074700003F0FF0100912BB943490B6813F8010B8E
:10748000A0710B6012F003020BBF3F4A3F4B136821
:107490009B5C09BF13F8011BE3711360E1716B067C
:1074A000C5F3011233D51CF0800F1DBF324998F887
:1074B0000030096800211EBF5B189978090922B9BC
:1074C00004F1080B9AB9114614E0314B18780128E1
:1074D00005D1587888420CBF1946002100E00021F0
:1074E0002C4B19600029EBD1B3460D4632E1294BF4
:1074F00019680231284B0F209A5C0391CDF808C01F
:10750000019202F0DDFA0399034658460BE0234B43
:107510000F209A5CCDF808C0019202F0D1FA204900
:10752000034604F10800019AFFF7A0FA05F00800ED
:10753000DDF808C005F0030200F0FF0105F00403C8
:10754000002835D0002B6BD1164B1B88ADF81430BA
:10755000531E012B9FBF0C490B6813F8010B0B60E6
:10756000114B98BF8DF815009A5C04F1180005A91D
:10757000002353E02D6600204847002040470020AC
:10758000584700205C6900204447002098D2200022
:10759000D76000203C470020B1D220009CD22000C0
:1075A000A0D2200096D22000A2D22000D6600020D7
:1075B00053B31CF0800F1DBFA44998F80030096830
:1075C0000B4618BF5B18A24918BF9D78087818BFF2
:1075D00005F00F03012805D14D789D420CBF0D46E3
:1075E000002500E000259B4B1D60002D00F0AE80C3
:1075F000994B10209A5C019202F062FAA91C034692
:10760000019A04F1180009E0944B10209D5C02F0EF
:1076100057FA2A469249034604F11800FFF726FA62
:107620009AF800008F4900F128038AF80030009B87
:10763000002B53D00B681A7802F0F802F02A4DD1D3
:107640001122A2711A7802F0040502F0F302F03A56
:10765000EDB2032A7CD8DFE802F0020A1622B3F862
:1076600001200533228533F8022C62852CE0B3F823
:1076700001202285DA78A2F5805292B2120242F0FD
:10768000F002628509E05A78A2F5805292B21202A5
:1076900042F0F00222855A886285043314E05A7859
:1076A00002331209A2F5756292B2120242F0F002A0
:1076B000228513F8012C02F00F02A2F5756292B236
:1076C000120242F0F00262850B6025B90B6833F8B4
:1076D000022BE2850B6030308AF800005B4A0B68B1
:1076E00012689B1A88F8003067B902F0F9F85E4B0F
:1076F0001B78C01A9AF800301844283803122371F6
:10770000607104E0A7F128031A1222716371A37952
:10771000112B1DD1A388A3851AE0412A40F0928045
:107720006A1CD2B28B18224603F1280153F8040BCD
:107730008B4242F8040BF9D105F1290388F8003097
:107740009AF8003028338AF8003001E0B34601E0AF
:10775000B34600252B46009302F0C2F898F80020AB
:1077600082426FD802F0BCF83F4A40491278009B31
:10777000C2EB0008C1F8008040F214519AF800A052
:10778000DB009BB2534443448B425BD83CB12F4B4C
:1077900004EB0A0019681144424603F04BFC002F29
:1077A00039D056B132484FFA89F3B82404FB0303A9
:1077B00008EB0A0189B29982198495B3B8224FFA6D
:1077C00089F402FB04F32A492A48CA181146978211
:1077D0002231128C03F02EFC274D05F24C5615F881
:1077E000012C5AB115F8033CA34207D115F8020C3D
:1077F000204B294603EBC00003F01CFC7135B54259
:10780000EDD15FFA89F0FFF731F8BBF1000F0BD033
:107810001A4B1F800CE0BBF1000F05D0002DF7D1F3
:1078200010E0BBF1000F0DD1144BD044A3F8008041
:10783000134C236823B1FFF791F823685B689847DE
:1078400000F092F807B0BDE8F08F00BF4847002075
:10785000D76000203C470020B1D220009CD22000FD
:10786000A0D22000444700202D6600204C47002075
:10787000584700205C690020E46000204C6900202B
:1078800054470020F7B5054628B9224803B0BDE8A3
:10789000F040FCF78FBE0388ABB94488ACB983884D
:1078A000A3B9C4888CB9038983B94FF6FF724189A3
:1078B00091420AD1017B427B837BC07B00901648BA
:1078C000FCF778FE24E0002400E01C462646AB19B5
:1078D0005B78AF5D03EB0727BFB24FB9002C09DB24
:1078E00001D0013411E00D48FCF764FE01240CE0E6
:1078F000002C04DC2EB13A2003F02EFF01E04FF003
:10790000FF3407483946FCF755FE0236102EDED10B
:1079100003B0F0BDB5D22000C4D22000D7D22000E1
:10792000DAD22000024B1B6803B118471846704793
:10793000D8480020014B1860704700BFD84800208D
:1079400007B5074B8DF80700186828B1054B0DF1F6
:1079500007021978FDF75CFC03B05DF804FB00BF7B
:10796000846E00207E71002008B5002204480221A8
:10797000FDF74EFC034A00231380034A137008BD31
:107980000C4100204C690020D360002038B5274D01
:107990002B88002B48D0B3F5A06F26D8244C238B1E
:1079A0006BB9638B5BB9A38B4BB9E38B3BB9238C6E
:1079B0002BB9638C1BB9A38C0BB9E38CABB100F072
:1079C000D3FE90B1237EFF2B0CD01A48FDF7BEFFEB
:1079D00080B11848FEF70CFF08B9288038BDFEF7C3
:1079E000FFFE00E00020FFF79DFF134A00232B80DD
:1079F000137038BD0F48FEF70BFA044620B9FEF7A6
:107A00008DFB0028E6D1F0E7FEF7DCF90028E1D194
:107A1000E36923B11B6A93F8940004F0BDFB204690
:107A2000BDE83840FEF726BA38BD00BF4C690020DB
:107A30005C69002074690020D360002038B5038899
:107A4000054614463BB140F24B32934218D0002316
:107A50000380032038BDFDF751FB274B1870FDF75D
:107A60004DFB264B40211870254803F0C9FFFEF757
:107A700005FC00F03FFF40F24B332B80012038BD66
:107A800002290CD11F4C2388002BF4D00120FEF7D3
:107A90003DFC2388002BEED0FFF778FFEBE709D8F9
:107AA0000129E8D1002CE6D0174B05201C60FEF719
:107AB0002DFCF1E787290BD1144B9A692033A242A0
:107AC00004BF002223F8102C114A9342F5D1D2E7CB
:107AD0008829D0D10A4B9C4202D1204603F0ABFF4B
