:020000040020DA
:10200000985500208D222000FF562000FD5620000C
:10201000FD562000FD562000FD5620000000000067
:10202000000000000000000000000000FD5620003D
:10203000FD56200000000000FD5620005D572000E6
:102040007F572000855720008B5720009157200094
:10205000000000006357200069572000FD56200053
:10206000FD562000000000000000000000000000FD
:102070000000000000000000FD56200000000000ED
:102080000000000000000000FD562000FD5620006A
:10209000FD562000FD562000FD562000FD56200074
:1020A000FD562000FD562000FD562000FD56200064
:1020B000FD562000FD562000FD562000FD56200054
:1020C000FD562000FD562000FD562000FD56200044
:1020D000FD5620000000000000000000000000008D
:1020E00000000000000000000000000000000000F0
:1020F0000000000000000000FD3420000D3520002D
:1021000000000000000000000000000000000000CF
:1021100000000000000000000000000000000000BF
:1021200000000000000000000000000000000000AF
:10213000000000000000000000000000000000009F
:10214000000000000000000000000000000000008F
:10215000000000000000000000000000000000007F
:10216000000000000000000000000000000000006F
:10217000000000000000000000000000000000005F
:10218000000000000000000000000000000000004F
:10219000000000000000000000000000000000003F
:1021A000000000000000000000000000000000002F
:1021B000000000000000000000000000000000001F
:1021C000000000000000000000000000000000000F
:1021D00000000000000000000000000000000000FF
:1021E00000000000000000000000000000000000EF
:1021F00000000000000000000000000000000000DF
:1022000000000000000000000000000000000000CE
:1022100000000000000000000000000000000000BE
:1022200000000000000000000000000000000000AE
:10223000000000000000000000000000000000009E
:10224000000000000000000000000000000000008E
:10225000000000000000000000000000000000007E
:10226000000000000000000000000000000000006E
:10227000FD562000F133200009342000752C200089
:102280006D362000A9272000FD56200008B5094B17
:10229000FF221A600848094A4824E3690849121ACB
:1022A00098470848084AA3690021121A984700F085
:1022B0000DF8FEE7B4200D4040400020F54000201E
:1022C000F4602000F8400020954D002073B500F028
:1022D000C5FB00F069FC00F003FC00F0CDF901F053
:1022E000B3F903F0E2FA00F057FC00F0B1F8202057
:1022F00003F008FA01F06AFF00F09CFB002000F0F8
:10230000ADFA012000F0AAFA3F49002000F07CFB62
:1023100002F0A8F803F02BFA082003F0F3F93B4889
:1023200003F05AFA3A4803F057FA002002F0BCF8DA
:1023300001F07EF83748002101F0EEFF01F0C0FD0A
:1023400003F00AFA00F0B8FC00F0D4FC02F0E0FA66
:102350000821684601F09CF99DF807309DF8065069
:102360002D4C43EA0525BDF806302C48238001F0AA
:10237000C9F92B4E21782B4801F0C4F961782A481D
:1023800001F0C0F9F46A4AF6CD310220A04729468F
:102390000320A0471A210120A04708226946736B39
:1023A0000B209847214801F0ADF9214B186803F044
:1023B00013FA204801F0A6F91F4B186803F00CFA35
:1023C0001E4801F09FF91E4B186803F005FA1D48DE
:1023D000002101F0A1FF1C4B01219B68812098473F
:1023E00003F053FA194803F046FA00F029FB1020D5
:1023F00003F088F900F02AFB01F000FF10F0FF0F56
:10240000F8D101F0B9F8F5E7214420008E5F2000F3
:10241000A85F200078400020504D0020C25F2000BF
:10242000485E2000E05F2000E65F2000EC5F2000B7
:102430002C5F2000F35F2000385F2000FA5F20004F
:102440006C5F200098400020E05D2000645F200069
:1024500008B500F019F8024B00221A7008BD00BF41
:102460001E4C0020024A13781843107000F014B874
:102470001E4C0020034A137823EA0000107000F07D
:102480000BB800BF1E4C0020024A136843F038030B
:102490001360704700C40D40014B1860704700BFC7
:1024A000E0C00D4020B1012805D1044B18787047D9
:1024B000034B186870470020704700BF1F4C002076
:1024C00020900D4010B5094A002013780133137095
:1024D000074B197801F0F4FEBDE81040054B0648A3
:1024E0001968064A002301F021BD00BF1F4C0020DF
:1024F0008E4D00203041002008410020C5242000DE
:10250000812810B50C462AD0B0F5807F39D08028BC
:1025100039D101F053FE1D4B1D4A1870136800207D
:1025200023F00803136052F8203C032123F0080332
:1025300042F8203C52F81C3C23F0080342F81C3CB3
:1025400052F8183C43F0080342F8183C042200F00B
:1025500039FB10480021032200F0D6FA13E00E4B9D
:102560001A6831B142F008021A60002000F094FAB3
:1025700005E022F008021A60084600F099FA2046A9
:1025800010BD064B1960012010BD00BF8E4D00200C
:1025900020940D40A125200010940D4030410020D2
:1025A00008B50F4803F08AF9C0B108210C4803F0C0
:1025B0007EF90C4B196861B10B4B00221A700B4B62
:1025C0000B481B681BB90B4A01F0B0FC01E001F09D
:1025D000B7FCBDE80840084802F00CB808BD00BFD1
:1025E00028410020304100201F4C002020900D4049
:1025F00008410020C5242000E05D2000084A13683F
:1026000023F00403136052F8203C43F0040342F823
:10261000203C044B00221A60034B01221A707047C1
:1026200020C40D4010C00D40204C0020F8B500F033
:1026300079F80F4B0024D3E900673A46B04238BF1F
:102640007A1C15460443C3E90045DFF828E0DEE9BB
:102650000001821B61EB070312196B41CEE90023D5
:1026600001F016FD18B1BDE8F84001F0A1BCF8BDBD
:10267000F8400020004100200F4B104A1A6053F828
:10268000042C42F0050243F8042C53F8042C42F0C9
:10269000020243F8042C0A4A136843F00103136052
:1026A000084B00221A60042243F80C2C012243F844
:1026B000082C0F22DA62704714E000E047E80100BE
:1026C00008200D400C000340034BD3E90023100AFF
:1026D00040EA0360704700BFF8400020054B1860D7
:1026E0001C3B1A6842F001021A601A68D207FCD437
:1026F000704700BF2800034010B5064C236823F044
:1027000001032360FFF792FF236843F00103236076
:1027100010BD00BF10E000E0014B1868704700BF1B
:1027200034410020074B084A196804331B681268BB
:10273000120442EA0323054A0B43106843EA00608F
:10274000704700BF40500D4048500D404C500D4068
:1027500010B50446114B1B68DB07FBD503F00BF8E3
:10276000FFF7E0FF231A062BD8BFC41D0C4B220E27
:102770001A60C4F3074243F8042CC4F3072243F859
:10278000082CE2B243F80C2C02F0F1FF054B91202B
:102790001C60BDE8104000F07FB900BF50500D40F4
:1027A0004C500D403441002008B500F0CBFE064BE4
:1027B000002291201A6000F087F9912000F078F94A
:1027C000BDE8084001F0CCBD344100200023084A98
:1027D0001068084A9958084205D01A44D26890698E
:1027E00010F0800003D02C33582BF0D1012070471B
:1027F00028200D40F05D2000164A38B52C2303FB3D
:1028000000234FF6BF72DC680546236C62649BB2FE
:1028100013F050020DD0A369DB0609D40E4B53F818
:1028200025301BB12068C0B29847F4E72368F2E76F
:1028300038BD13F4D06F0BD04FF440732363FF23E4
:102840006360E36AE262E362236B43F001032363A4
:1028500038BD00BFF05D2000384100202DE9F04F69
:10286000012885B0064600F2BF802C244443604B0B
:102870001D1995F920A005F12007BAF1000F99461E
:10288000C0F2B28095F92230002BC0F2AD805948D9
:1028900000F0CAFE584A59F804301168EC680B433E
:1028A000136051686B6895F921B00B4353609168D0
:1028B000AB6895F822800B4393600023C4F8C83FAF
:1028C0002B690BEBCA021A6095F823305FFA88FC7B
:1028D00001939DF80430604619462A7DCDF80CC05E
:1028E000029300F079F9029BDDF80CC019466046AE
:1028F000082200F067F94FFA88F840494FEA083893
:102900009DF9042058F80100012303FA02F2024362
:1029100048F801204FEA0A3A5AF8010003FA0BF28C
:1029200002434AF801205022A263A26B95F82400CA
:1029300042F4D062A263022262634FF440722263C7
:10294000AA696262EA69A2627022E26242B2002A65
:102950000C4614DB95F92510294D41EAC201296086
:102960007979120315594FB2BB402B431351002202
:1029700000F028F9234A136843F4004313602C2322
:1029800003FB069393F8265020336FB2002F1CDB15
:1029900093F807A0EDB25FFA8AF828464146012273
:1029A0003F0300F019F94FFA8AFA3A59012303FA62
:1029B0000AF313433B5108222846414600F002F92E
:1029C000104A136843F4804313602C2303FB0696DC
:1029D000F26896F82800136B43F00103136305B007
:1029E000BDE8F04F00F058B805B0BDE8F08F00BF6B
:1029F000F05D2000CD27200028200D4020940D40C0
:102A000004410D4030D0004001289CBF014B43F8E9
:102A10002010704738410020012808D8044B2C2290
:102A200002FB0030C3689A699206FCD419607047B3
:102A3000F05D2000014B00221A60704700500D40ED
:102A4000014B08221A60704700500D40024BA02233
:102A50001A6050221A60704700500D40074A084B18
:102A60001A60084B80321A60074B80321A60074B9D
:102A700080321A60064B074A1A60704700E100E096
:102A80004C410020404100204441002048410020AA
:102A900008ED00E000202000044B41091A6800F016
:102AA0001F000123834042F8213070474C41002031
:102AB000044B41091A6800F01F000123834042F8CB
:102AC0002130704740410020044B41091A6800F052
:102AD0001F000123834042F8213070474841002005
:102AE000054A064B1A60064B1A68064B1340B3F1B1
:102AF000807FF8D1704700BF0101020100200D4026
:102B000004200D4000000101024B02EBC10243F81A
:102B10002200704750410020F8B507460E46094D87
:102B2000002405EB411547FA04F3DB07E1B204D5B5
:102B300055F824300BB1304698470134082CF2D1B7
:102B4000F8BD00BF504100202DE9F04780464FEA14
:102B50000837DFF8409007F1804505F5592500F06A
:102B6000F1FCD5F8186457F809404FEAC80A24FA6E
:102B70000AF446EA0400E4B2C0B24146F6B204FAEE
:102B80000AF4FFF7C9FFC5F81C6447F80940BDE81F
:102B9000F08700BF18970D4002480021802202F004
:102BA0005FBD00BF50410020034A044B1A60044B34
:102BB000803A1A60704700BF80400D40D441002029
:102BC000D0410020034B01EBC0011B6843F82120DA
:102BD000704700BFD4410020034B01EBC0011B68CC
:102BE00043F82120704700BFD04100200E2870B567
:102BF0000BD1164B164E1C6844F002051D6035685B
:102C000025F03F0343F001033360124E336823F095
:102C1000FF031A431143014331600F4B1B681B062E
:102C2000FBD50E4B0E4A1B6812680E2803F0FC03FE
:102C300043EA022308BF064A9BB204BF1560034A59
:102C40009BB208BF146018B270BD00BF34000144CD
:102C5000F486084008700D4000700D400C700D4067
:102C600010700D40024B1868B0FA80F040097047B0
:102C700000B7084010B58F20064CFFF725FF8F20C6
:102C8000FFF716FF206818B101F05EFB00232360F8
:102C900010BD00BFD8410020064A136843F002036C
:102CA0001360536843F002035360936843F00203D8
:102CB0009360704748200D4007B50C4800F0B4FC05
:102CC000FFF7EAFF0A4B1A6842F002021A6000227C
:102CD0000192019A0F2A02DC019A0132F8E71A6880
:102CE00022F002021A6003B05DF804FB652C20009C
:102CF00054200D40064A136823F002031360536802
:102D000023F002035360936823F00203936070473B
:102D100048200D40084B93F90020002A09DB074AA0
:102D2000ED2111601160E32111601A7862F07F02D9
:102D30001A700120704700BF214C002038880840DD
:102D4000094B1B689B07FBD4084BED221A601A60E5
:102D5000074A12680AB1EF221A60064A0120137866
:102D600003F07F03137070474C8608403888084092
:102D70002C860840214C002038B5A0F10B04E3B2AA
:102D80000F2B054613D80B4B1B6813F03F0302D0E3
:102D9000FFF7D6FF012304EB8404074A0B341460C9
:102DA0000BB1FFF7B7FF054BE8B21D7000E0FF2045
:102DB00040B238BD488608403C860840F4400020B8
:102DC00010B50B4B1B68990603D1FFF7A3FF012336
:102DD00000E00023074A1268D207FBD5064A1468B0
:102DE000C4F300140BB1FFF7ABFF204610BD00BFCA
:102DF00048860840648608404C860840044B1868A2
:102E000000F02200A0F1200358425841704700BF53
:102E10004C860840024B186800F04000704700BF25
:102E20004C86084038B50C4600296ED010286ED864
:102E3000DFE800F0090F1A1C236D3344496D6D6DF6
:102E40006D6062646900334B1B68003318BF012357
:102E500056E0314B05221B6803F07F030B3B93FBCD
:102E6000F2F30B33DBB24BE02C4B00E02C4B1A6837
:102E7000043B1B6843EA022342E02A4B002008601F
:102E80001A68243302F001020A601B6813F0200361
:102E900037D042F002020A6038BD234B1A68002383
:102EA000D2B2224901EBC3000079904202D851F816
:102EB000333025E001330E2BF3D11FE01C4B1B6890
:102EC0005BB2493B1CE01B4B1B68990603D1FFF723
:102ED00021FF012300E00023174A1268D207FBD527
:102EE000164A1568493DEDB20BB1FFF729FF6DB2E7
:102EF000256006E00B2303E01A2301E06FF01703BF
:102F00002360002038BD0723FAE7022038BD0120E6
:102F100038BD00BF2C8608403C860840CC85084060
:102F2000D48508400086084040860840805E200026
:102F300058860840488608406486084060860840F5
:102F400038B505460C46134B1B689B07FBD4124B48
:102F500093F90030002B01DBFFF7DCFE0F4BEE2274
:102F60001A60691E1A60A21C43F8102C214402202A
:102F700000F076FA013C0A4924012143022000F0C6
:102F800081FA022000F088FA022000F09DFA002069
:102F900038BD00BF4C860840214C002038880840CE
:102FA00002C001C0F8B51F4B93F90030002B0DDBB8
:102FB000FFF7B8FB0446FFF7ADFEFFF7B3FB6FF07A
:102FC00009031B1BC342F8D4012600E00026FFF7CB
:102FD000F7FE18B3144C236899061FD4134DE92348
:102FE0002B60042723689A0707D4013F17F0FF07D7
:102FF00003D00620FFF772FBF4E723689B0704D495
:10300000EE232B6001242B6004E0206810F0020006
:10301000FBD1044626B1FFF793FE01E00220F8BD84
:103020002046F8BD214C00204C86084038880840D6
:10303000044B1A6810B142F0010201E022F00102D3
:103040001A6070470086084038B50C46072855D8E6
:10305000DFE800F0040F1B1F26543B4F012903D16A
:10306000FFF758FE002038BD002949D1FFF768FE60
:10307000F8E7A1F10B030F2B42D8C8B2FFF77CFE93
:10308000431C0CBF0320002038BD8CB2E2B21D4BA4
:1030900002E08CB21C4BE2B2240A1A605C60E1E7E9
:1030A00031F003052CD101F00100FFF7C1FF174BF0
:1030B00014F002001A681BBF284642F0200222F0DA
:1030C00020021A6008BF1A6038BD01F118031F2BD7
:1030D00016D80D230E49DA0051F83300844204DC7F
:1030E0008B181A790B4B1A60BCE713F1FF33F1D23E
:1030F000B8E7CCB2084B49341C60B3E7012038BDB7
:10310000022038BDC8850840D08508402486084084
:10311000805E200040860840588608400B280DD16C
:10312000082A0DD161B1074B013953F8042D01F87C
:10313000012F054A9342F8D10020704701207047C3
:1031400002207047C8850840A88508400B280DD18B
:10315000082A0DD161B1074B083111F8012D43F850
:10316000042F054A9342F8D1002070470120704790
:1031700002207047A4850840C48508402DE9F84323
:10318000444B06461868984610F040007FD0424DE8
:103190002B6818065FFA83F94FD4B9F1040F4CD9A4
:1031A000A9F10200884248DCC4B2032C3ED0311998
:1031B0000320013900F05CF9631E38491B0103202C
:1031C000194300F05FF9032000F066F9032000F0D6
:1031D0007BF9032000F084F90028FAD12B682F68CE
:1031E00039062AD5A3F14905EDB269B289B2FFB219
:1031F000042001F07FFC07F07F01032001F07AFC3E
:1032000000205321FFF708FC00206E21FFF704FC8B
:1032100000206921FFF700FC00206621FFF7FCFB7E
:1032200049460020FFF7F8FBB1460DE02B683370EC
:103230002B6873702B68B370D0E7194BED221A60BE
:103240001A600020BDE8F88319F8011B0020FFF781
:10325000E3FBC6EB0903DBB2A342F5D3002029460A
:10326000FFF7DAFB00203946FFF7D6FBD8F800302D
:103270005A060BD5074B1B681B0603D5094801F0FE
:1032800063F803E0064BED221A601A602046BDE8A1
:10329000F88300BF4C8608402888084002C0010C13
:1032A0003888084050400020F8B52B4E357815F08E
:1032B00001054FD1294B01241C605C609C60A3F583
:1032C0009323A3F51473F8221A600922C3F89021FE
:1032D000152270331A6003F59B230B2203F59E73AE
:1032E0001A60A3F59B234022A3F5F0731A601C4AD1
:1032F0007F27136823F0010313601A4BD5221D604A
:103300009F649A63184B1878FFF736FD174A8D2093
:10331000136843F004031360FFF7BEFB144B8E20C9
:103320001F60FFF7B9FB022000F0C2F8114902202C
:1033300000F09EF8032000F0BBF803200D4900F0D8
:103340008FF80D48294600F0E7FF337820462343E5
:103350003370F8BD0020F8BD214C0020A8200D409E
:103360000086084008860840F44000208C8608400B
:1033700094860840288808405040002038B50388CB
:103380000446E3B140F2B932934203D000230380F4
:10339000032038BD822915D101F080FB01F020FB0C
:1033A0008021FFF7EBFE002805DD80B201F012FB63
:1033B0000C4B1B6998470C4B1A78520604D440F208
:1033C000B9332380012038BD00221A70074B1D68D5
:1033D000FFF7B6FCFFF768FFAB06F0D0FFF79AFCEB
:1033E000EDE700BF6C5F2000214C002048860840BC
:1033F00008B5034800F0A8FF024B00221A6008BD80
:103400005040002034880840064B07481A68042AB8
:103410001FBF06490A7842F040020A7000221A6073
:1034200000F092BF2C88084050400020214C002022
:1034300010B5094C00212046402202F011F9074B3B
:1034400001221A602E205C60FFF726FBBDE81040C9
:103450002F20FFF721BB00BF0040002004F00F40E9
:1034600003289EBF014B0001195070470040002007
:1034700003289EBF024B03EB00104160704700BF62
:103480000040002003289EBF024B03EB0010816028
:10349000704700BF0040002003289FBF034901235D
:1034A0000A6883409CBF13430B60704728F00F40AD
:1034B00003289FBF034901230A6883409CBF13432D
:1034C0000B60704720F00F4003289FBF0349012382
:1034D0000A6883409CBF13430B60704714F00F4091
:1034E00003289FBF044B03EB0010806800F0070027
:1034F00088BF0020704700BF00400020024B4FF003
:10350000FF321A60704700BF04F50F40014B0122E3
:103510001A6070474CF00F40094B1A6812F4801F74
:103520001A46F9D1043B196821F4803119601168F9
:10353000C903FCD41A6842F400321A60704700BF15
:1035400004200D4010B50A4B1A681C4612F0030FF8
:103550000CD0084B1A685101FBD41A685201FCD5F3
:10356000FFF7CAF8FFF7D8FF0023236010BD00BFA4
:1035700058200D4004200D4038B5254B1C6814F030
:103580003F0413D1234B53F8243023B1984768B13B
:103590000134052CF6D1204D2B783BB1FFF7BCF858
:1035A0000446FFF7BFF8201A092801D830BF38BDFC
:1035B000002CFBD0194B1A6822F400321A60184A0A
:1035C0001168C902FBD4196841F48031196013688D
:1035D000DB03FCD5FFF7A6F8201A092803D8BDE8BD
:1035E0003840FFF799BF63280E4C02D92B78022B85
:1035F00000D00123236000F059FE20B1FFF78CFFBB
:103600000023236038BDFFF787F80028CED1F5E707
:1036100048860840DC410020224C002000200D405C
:1036200004200D4058200D400023064A52F8231074
:10363000814206D011B942F8230070470133052BAF
:10364000F3D17047DC410020054B00221A60054A87
:10365000136843F004031360034B02221A7070478F
:1036600058200D4010ED00E0224C002010B59020B5
:10367000064CFFF729FA9020FFF71AFA206818B1D4
:1036800000F062FE0023236010BD00BFF041002067
:1036900030B5184B1A78431E3AB9174A1278122AD5
:1036A00003D1164A12784B2A03D001F52011273195
:1036B00017E04A0802F12814B4F1281F04D014F8C6
:1036C000015D03F8015FF7E701F5201127310023C1
:1036D000934205DA11F801598418E5540133F7E7EC
:1036E00030BD074A914204D011F8012903F8012F97
:1036F000F7E730BD2B0028002A0028002900280009
:10370000270028000FB407B504AA52F8041B044888
:10371000019200F021F803B05DF804EB04B07047AB
:103720006040002070B505460C46102C07D92B6868
:10373000686808491022984750B9103CF5E734B141
:103740002B6868682246BDE8704002491847204649
:1037500070BD00BF776020002DE9F04F80468FB02C
:10376000069107920026069B1B78002B00F05F83D2
:10377000069B1C4613F8012B1AB9069B9C4203D1E9
:103780000FE0252AF5D1F8E7069BD8F80400E51AE2
:103790000699D8F800302A469847002840F02A8336
:1037A0002E442378002B00F042836378611C002BA9
:1037B00000F03D8300240A4611F8013B2B2B11D069
:1037C00006D8202B11D0232B12D144F00804F2E7A5
:1037D0002D2B04D0302B0BD144F01004EBE744F038
:1037E0000104E8E744F00604E5E744F00204E2E7F8
:1037F000A3F1310108290DD8134600251A4613F804
:10380000011BA1F13000092811D80A2202FB05157D
:10381000303DF3E72A2B09D1079B01321D68191DA2
:10382000002D0791B8BF44F0010400E00025137893
:103830002E2B1CD15178531CA1F1300009280ED831
:10384000194600270A780B46A2F13000092801F139
:1038500001010FD80A2303FB0727303FF2E72A298B
:1038600006D1931C079A111D0791176802E01346B1
:103870004FF0FF371A786C2A09D15A786C2A02D196
:1038800044F080040AE0013344F060040BE0682A4D
:1038900009D15A78682A03D144F02004023302E0A7
:1038A000013344F040041A78642A3CD01FD8462AD9
:1038B00048D00DD8252A5AD003D8002A00F0B78264
:1038C00057E0412A4AD0452A53D144F4424450E0BB
:1038D000582A31D004D8472A4BD144F4A13448E0C7
:1038E000612A38D0632A44D144F4A06441E06E2AAE
:1038F0003AD007D8662A22D027D3672A28D0692A47
:1039000011D036E0732A2CD006D86F2A11D0702A35
:103910002FD144F440742CE0752A07D0782A28D19E
:1039200044F4C85425E044F4245422E044F41064E0
:103930001FE044F488541CE044F4B24419E044F419
:10394000007416E044F4844413E044F4024410E0AC
:1039500044F481340DE044F4C1340AE044F4E13429
:1039600007E044F4806404E044F4E06401E044F4DB
:10397000C0640133069304F4E063B3F5806F00F094
:10398000AA8116D8B3F5807F2BD0B3F5407F7FF4A2
:10399000EAAE079BA04914F4804F03F104029F484C
:1039A00018BF08460DF1330107920F461A6800232D
:1039B000C5E1B3F5C06F08D0B3F5E06F00F0318218
:1039C000B3F5A06F7FF4CFAE00E2D8F80030D8F89E
:1039D0000400934901229847002840F00B820136E9
:1039E000C1E6002FACBF24F01004012714F40053EB
:1039F000039304F0E00337D0402B17D008D8DBB195
:103A0000202B2AD1079B1A1D079293F9002017E05B
:103A1000602B11D0802B20D1079B073323F00703A5
:103A200003F108020792D3E900230AE0079B1A1D5D
:103A30000792B3F9002003E0079B1A1D07921A684A
:103A4000D317002A73F1000109DA524263EB4303F2
:103A5000CDE900234FF0010933E000220023CDE936
:103A600000234FF000092CE0402B16D007D8CBB133
:103A7000202B20D1079B1A1D07921A78EEE7602BA6
:103A800010D0802B17D1079B073323F0070303F1D6
:103A900008020792D3E90023E1E7079B1A1D07926A
:103AA0001A88DBE7079B00211A1D07921B6818463E
:103AB000CDE90001D5E700220023CDE900234FF036
:103AC000000904F4C053B3F5805F0CD0B3F5C05FB8
:103AD00033D0B3F5006F4FD1DDE900230DF1360A85
:103AE000CDE9042304E0DDE900230DF1360A15E0F9
:103AF000DDE9042313433AD0DDE904010A2200235F
:103B000001F02EFADDE9040130320AF8012D00231C
:103B10000A2201F025FACDE90401E9E752EA03019E
:103B200025D002F0070130310AF8011DD10841EA21
:103B30004371D8080A460346F0E7384B14F4804F27
:103B40000DF1360A344908BF1946DDE9002352EA6F
:103B500003000CD002F00F00085C4FEA131E0AF8B5
:103B6000010D100940EA037002467346EFE70DF1BC
:103B7000360BCAEB0B0B03E00DF1360A4FF0000BCE
:103B800041F6080241F208035F4502EA04028CBFD5
:103B9000CBEB070700279A4202D1002F08BF01276D
:103BA00041F608018A4207EB0B030DD1DDE9000164
:103BB00050EA010208D01B4914F4804F1A4A4FF012
:103BC000020C18BF0A4602E04FF0000C624603994F
:103BD000A1B1B9F1000F0AD104F0060102290AD0FF
:103BE0000629124904BF4FF0010C0A4606E04FF0C7
:103BF000010C0F4A02E00F4A4FF0010C63449D4252
:103C00008CBFED1A002514F0010922D1E30613D56B
:103C10002F444D461DE000BF42602000536020004D
:103C20007560200067602000646020006C602000E8
:103C30006A602000F85F200040462946CDF80CC09D
:103C40000092FFF76FFD009ADDF80CC0002840F0ED
:103C5000D180BCF1000F0DD01146D8F8003062467B
:103C6000D8F80400CDF800C09847DDF800C000285F
:103C700040F0C0803C465E44102CD8F800300DD98E
:103C8000D8F804006C491022CDF800C098470028ED
:103C900040F0B080103CDDF800C0EDE75CB1D8F832
:103CA000040065492246CDF800C09847DDF800C001
:103CB000002840F09F80D8F80030D8F80400514622
:103CC0005A4666449847002840F094803E44B9F133
:103CD000000F79D073E0079BD3F800A01A1D07925C
:103CE000BAF1000F09D05346994699F800200133E4
:103CF000002AF9D1CAEB090903E0DFF840A14FF02F
:103D00000609002F02DBB94528BFB9464D458CBFD7
:103D1000C9EB0505002514F0010405D140462946EC
:103D2000FFF700FD002865D1D8F80030D8F804006E
:103D300051464A46984700285CD14E443EE052EA3C
:103D4000030E0ED002F00F0E10F80EE04FEA131C17
:103D500001F801ED4FEA121E4EEA037E72466346F9
:103D6000EDE70B467F1A01BF3022012701F1FF3337
:103D700001F8012C03377822BD4203F8012C4FF0E3
:103D8000300203F8022C88BFED1B4FF0230298BFCE
:103D9000002514F00104A3F1030903F8032C04D156
:103DA00040462946FFF7BEFC20BBD8F80030D8F8C3
:103DB000040049463A469847E0B93E4424B140469B
:103DC0002946FFF7AFFCA8B92E44CCE4079B012D90
:103DD00003F104021B688CBF05F1FF35002514F0C8
:103DE000010407928DF8203008D140462946FFF79C
:103DF00099FC10B14FF0FF301AE02E44D8F8003093
:103E0000D8F8040008A9012298470028F2D16F1CB5
:103E10002CB140462946FFF785FC0028EAD13E44F4
:103E2000A1E4079B1A1D1B6807921E609BE43046A5
:103E30000FB0BDE8F08F00BF326020006E60200040
:103E4000F8B50388064615462BB14A2B15D000233A
:103E500003800320F8BD174801F041FD04462CB152
:103E6000201DA16801F012FD2468F8E7124B012221
:103E70001A704A2333800120F8BD8829FBD10D48F0
:103E800001F02DFD0446002CF3D0231D9D420ED1E0
:103E90000848214601F02DFD084B62691F681A6031
:103EA000A2691D460AB1E06990472F60E1E72468E6
:103EB000E9E700BFF4410020234C00200842002025
:103EC00010B5064B002406481C7001F005FD214684
:103ED000BDE81040034800F01FBA00BF234C00208B
:103EE000F44100206840002070B50446E3610B4BAC
:103EF000049D1B786561A26143B1094D094B2E6891
:103F0000201D2B6001F0C2FC2E6000E0A160214664
:103F1000BDE87040044801F000BD00BF234C002004
:103F20000842002068400020F441002013B5034CF3
:103F300024680094FFF7D8FF02B010BD08420020AB
:103F400010B5084B04461B781BB1043000F0A8F8EC
:103F500001E0C36003612146BDE81040024801F062
:103F6000C8BC00BF234C0020F441002010B50E4C0B
:103F7000236813B90D4A136010BDFEF7A5FB216835
:103F800091E80C001A44131A8A6842B192E81200B0
:103F90002144091A8B4228BF0B469268F5E7184462
:103FA000024B186010BD00BFF8410020FC4100200A
:103FB000014800F0C9B900BF78400020F8B5038877
:103FC00005462BB1592B09D0002303800320F8BDEF
:103FD0001E4A136059232B800120F8BD872920D069
:103FE0008229F7D1194F00263C68002CF2D02046D8
:103FF00001F064FC90B1E0688821224600F060F98D
:1040000050B9E060A3680EB1B36000E03B600023EC
:10401000A360FFF7ABFFE5E7FFF7CAFF2646A468FA
:10402000E3E70A490B680BB90B60D3E7D868904205
:1040300001D19B68F7E70B6099680029CAD0C8686E
:1040400090420ABF89680B469960F5E7F841002065
:1040500010B50446FFF7ACFFE3680B4A4BB1136899
:104060003BB1A34203D1094A1268DA6007E09B68BA
:10407000F6E7064B1B68E36013681460A360BDE8B5
:104080001040FFF773BF00BFF84100200842002036
:10409000024B1868003018BF01207047F84100201B
:1040A00010B50B4A04461368984206D18368136022
:1040B00008E09A68A24203D01346002BF9D103E02E
:1040C000A2689A60FFF752FF0023A360E36010BD6F
:1040D000F841002038B5836804460D469BB10A4874
:1040E00004600220A07304F10C00984702380128F4
:1040F00001D9832D05D120462146BDE8384000F086
:1041000005B80123A37338BD084200202DE9F84308
:104110001C4A0446156889462B4690461A4E376855
:10412000A34204D00BB11B68FAE7BDE8F88334B3AF
:10413000A37BABB10023A37345B1AC4204D02846A6
:104140008721224601F0ABFB2D68F5E7A3683BB160
:104150004C4505D0346004F10C0083212A46984771
:10416000D8F800309C4203D12268064B05E0134684
:1041700023B11A68A242FAD122681A603760BDE8FA
:10418000F88300BF104200200842002010B5094B00
:1041900000221A70084B1C685CB1E37B3BB1012321
:1041A0000022A373E27320468221FFF793FF246865
:1041B000F2E710BD264C002010420020024B187878
:1041C000421C1A70704700BF294C0020064B8A22FF
:1041D0001A70064A00231370054A1370054A1360CB
:1041E000054A1360704700BF294C0020244C002072
:1041F000254C002010420020084200202DE9F0410B
:10420000214E33780BB1FFF7C1FF204D2C78002CE5
:1042100034D0DFF88CE00C229EF800301C495A4361
:1042200088181C4F895CDFF87C804268DFF878C012
:104230008068013303F01F03013C3970C8F8002087
:10424000CCF800008EF800302C7088B9124C134B5B
:104250001B68236023688BB133780BB1FFF796FF9F
:1042600020683978D8F8002001F019FB2368EFE7BF
:10427000812904BF0123837301F011FB337828786F
:104280001844BDE8F08100BF264C0020254C0020DA
:1042900014420020284C002004420020104200203C
:1042A000244C00200C42002000420020024A034B14
:1042B00010781B7818447047254C0020264C0020AD
:1042C000F0B50C4E3478202C11D00B4B0B4D1B78D5
:1042D0000B4F234403F01F032B700C256B43013459
:1042E000FD18A860F9546A6034700020F0BD012008
:1042F000F0BD00BF254C0020244C0020274C00209E
:104300001442002038B5034C256801F0C8FA256036
:1043100038BD00BF0842002010B50A4609490C68A4
:10432000234683420DD00BB11B68FAE748B1046005
:1043300008600121817383818121BDE81040FFF76E
:10434000E1BF10BD1042002038B1837B013B012B3F
:104350009FBF024A0123C37313707047264C00208D
:1043600010B5084C206858B1002323608168436869
:104370009847236823B1BDE810401868FEF7E8B9F4
:1043800010BD00BF9443002038B505880446672D52
:1043900009D0792D2ED0002D32D1FFF70FFF1B4B06
:1043A00018701B4B1D601B4801F03CFB431C01D1E6
:1043B00067231DE00A28164B07D01A687E2AF2DC14
:1043C000511C1960144B9854EDE7196800254A1CDC
:1043D0001A60114A0D4B555428461978FFF770FFA3
:1043E0000E4B852118682A46FFF76AFF20B979230A
:1043F000238009E0852907D1054B00221A60D2E706
:1044000000230380032038BD012038BD934D0020D8
:10441000A043002098430020AB4C0020084200201D
:104420000D2810B5014615D00B4C23782BB90B483D
:1044300001F0E4FA48B9012306E00A2805D107484B
:1044400001F0DCFA08B1002323700548FFF77CFF78
:10445000012010BD002010BD2A4C002098430020F0
:104460008840002008B505480549802201F0BFFAC0
:10447000BDE8084003480021FFF74EBF98430020E5
:104480002B4C002088400020054A136843F00403A9
:104490001360044B1B68906943EA002080B27047A8
:1044A00000700D4014700D40174A136823F00C0380
:1044B0001360164B01221A601A68012AFCD1144BB2
:1044C00008221A60E322C3F8142203F50573194683
:1044D000104B1B68DB07FBD5102000230E4A013868
:1044E000126802F0010243EA02034FEA43039BB25F
:1044F000F4D1002BF0D0094A180A03F0FE03106033
:104500001360EF230B60704700700D40A8200D4032
:1045100024860840648608409C86084014700D403C
:1045200070B505880446772D30D07E2D3FD0002D04
:104530004DD1FFF743FE294B1870294B1D601D46D6
:104540002B68284A264E52F823204AB126480021DB
:10455000C154936880209847336801333360EFE794
:10456000224A1370772320E01F4AD256002A12DB1A
:104570001B4A136801331360194B1C4A1B681278DD
:104580009342F1DB1A4B1B68002BEBD0184A002337
:104590001360134AEFE7114A00201178114A52F8CC
:1045A0002320FFF78DFE30B97E23238013E00B4BD1
:1045B0001B788B420FD10A4B0B491A688B5C03F0B6
:1045C0007F038B540A4A136801331360D0E700233A
:1045D0000380032070BD012070BD00BF944D0020FA
:1045E000A4430020404000208F4D00202B4D002090
:1045F000A8430020094B1A780023934204DA0849A3
:1046000051F82310814207D106490748CA5C62F07D
:104610007F02CA54FFF798BE0133EEE72B4D00200E
:10462000404000208F4D00209840002070B5054686
:104630000C46164600F00EF92E612046BDE870408B
:10464000014901F06CBB00BFB8602000014801F0D7
:1046500043B900BFAC430020014B1860704700BF56
:10466000B0430020014801F03AB900BFAC4300203C
:104670002DE9F04106460B480C46174601F02FF98C
:1046800070B18388A34208D185684DB13146224676
:104690003B46AC46BDE8F041604701F05DF9EFE70D
:1046A000BDE8F081AC43002010B50B4C0B4A616EA5
:1046B00004F138000023FFF739FCFFF7E5FE636ED5
:1046C000074AB0FBF3F101FB130104F118000023CA
:1046D000BDE81040FFF72ABCB4430020E5462000A7
:1046E000FD462000044B5A6E196E52008A4294BF58
:1046F0005A665966FFF7D8BFB443002010B500F0E2
:10470000CDF900F06DF9002303800446FFF7AAFFFE
:1047100068B1037B5BB12388818804EB83025180FD
:10472000C18801339180238001F016F9F0E72088D9
:104730008000023080B200F04DF9238823B1BDE83B
:104740001040024800F03CB810BD00BFB443002048
:104750009DF80030012B04D1024B9A6D5A66FFF789
:10476000A3BF7047B4430020F8B586460F461646EF
:104770001D46074C71462046064A00F00FF8A76513
:10478000E66525660448BDE8F840FFF765BF00BF51
:10479000B4430020105F20005147200070B505464B
:1047A0000C461646044AFFF741FF6E612046BDE8FD
:1047B0007040024901F0B3BA185F2000BA602000CF
:1047C00010B5044604491A2000F0A2F92046BDE8BD
:1047D000104001F037B900BF504D002010B54378AC
:1047E000047843EA0420054B88409B5CC2F1080230
:1047F00003EA20201041C0B210BD00BFBE602000FF
:10480000054B10B51B689847044618B10120A188D4
:1048100000F070F9204610BD205F200038B5064B2F
:1048200005465B6898470446A988012000F062F9B4
:10483000201C18BF012038BD205F2000014B9B6861
:10484000184700BF205F2000014801F045B800BFB5
:1048500020440020034681800148194601F05DB8DC
:104860002044002010B50446054801F038F828B16E
:104870008388A34202D001F06FF8F8E710BD00BFB3
:1048800020440020F8B507460A480D46164601F0B8
:1048900026F8044638B1A3680BB12846984720464D
:1048A00001F05AF8F5E7384629463246BDE8F840A7
:1048B00001F0CFB82444002038B5FFF7A1FF05462A
:1048C000094801F00CF8044630B1636803B1984719
:1048D000204601F041F8F6E725B12846BDE838400A
:1048E00001F0B2B838BD00BF2444002010B5044622
:1048F000FFF794FF38B100F015F8034B0348214649
:104900009B689847012010BD545F20008548200017
:1049100010B5034C23689847236ABDE81040184738
:10492000485E200030B5094B18881A4668B1084B1C
:104930001988302330318B4205DA064C2518ED5C9E
:104940001D550133F7E70023138030BD2A460020B0
:10495000284600202C440020F8B50E4B0E4A1B7848
:104960001688C3F13005AC19802C07460EDC0B49C4
:104970002A46194400F0FEFD094A0A4B11681B88BB
:1049800078191944324600F0F5FD00E00024204675
:10499000F8BD00BF2C4D0020284600202C440020EC
:1049A000284400202A46002010B508490B8883427D
:1049B000A1BF074C80B222881218A1BF181A088024
:1049C00022800120B8BF002010BD00BF2846002073
:1049D0002A460020014B1880704700BF284600205F
:1049E000024B1888024B1844704700BF2A4600202B
:1049F0005C440020024B03481B781844704700BFFA
:104A00002C4D00202C440020014B1888704700BF1B
:104A100028460020044B1878C0F1300010F0FF0049
:104A200004BF024B187870472C4D00202A46002006
:104A300008B5FFF7EFFF024B1B88184480B208BD92
:104A40002846002070B5084E05463478844208DBBD
:104A5000FFF7EEFF2844802803DC641B347001203C
:104A600070BD002070BD00BF2C4D002010B500238C
:104A7000074A002422F8134001331A2BF8D10548C5
:104A800005492044023401F06AF9082CF7D110BD21
:104A90005A4D0020524D00208C5F2000064A002312
:104AA0001380064A1380064B30221A70054A064BC3
:104AB0001A60FFF7DBBF00BF2A460020284600200F
:104AC0002C4D00205C4400202844002010B5074BEA
:104AD00003F1340253F8044B934240F8044BF9D1EC
:104AE000034A13680B6053684B6010BD5A4D002099
:104AF000524D0020024B23F810100120704700BFD8
:104B00005A4D0020014B33F8100070475A4D0020D9
:104B100008B5044B1A3803EB400001F020F90120DE
:104B200008BD00BF524D0020024B1A3803EB400075
:104B3000704700BF524D002008B5044800F00FFF39
:104B4000BDE80840024800F00ABF00BFB4400020A2
:104B5000A840002038B50E4800F011FF0446A8B167
:104B60000C4800F00CFF0546206028B92146084893
:104B700000F019FF284638BDFFF7EEFE05F1B6013B
:104B8000A5F8800005F18200FFF7A0FF204638BDA0
:104B9000A8400020B440002010B504460748214634
:104BA00000F017FF48B12168054800F0FCFE2146DF
:104BB000BDE81040014800F0F6BE10BDA84000203E
:104BC000B4400020014BDB68184700BF545F200051
:104BD000014B5B69184700BF6C5F2000014B9B696C
:104BE000184700BF6C5F2000024BD86900B1004736
:104BF000704700BF6C5F200013B5044668B1006BBE
:104C000000F06DFE024640B12146054B0548DB68C9
:104C1000019302B0BDE81040184702B010BD00BFBC
:104C20006C5F20003D4E20002DE9F04107461B201F
:104C30008846FFF779FF4B4B05461A784A4C22B954
:104C400001221A70FFF720FC2080238813B9464BFD
:104C500001221A8021880A204B1C2380FFF74AFF7B
:104C6000424800F03CFE044640B1201D294601F0B8
:104C700079F8E8B9204600F06FFEF4E73C4800F010
:104C80007EFE044650B32946201D01F068F800233B
:104C900004F12C00206384F8283084F8293084F84B
:104CA0002A30E36200F018FE3048214600F035FE5D
:104CB000206B00F04AFE072810DC2E4800F05FFE53
:104CC000054698B9206B00F040FE38B927482146C8
:104CD00000F00FFE2648214600F065FE38464146AA
:104CE000BDE8F0410422012301F050B8224800F051
:104CF00046FEA86078B3FFF72DFF686038B309203F
:104D0000AE68FFF7FFFE10B90323337203E00920FA
:104D1000FFF7F8FE307286E880010D20FFF7F2FE03
:104D200001282946206B02D100F006FE01E000F0C8
:104D3000F4FD206B00F0D3FD854211D104F1080091
:104D40002346BDE8F04100210C4AFFF7EFB80A48BE
:104D5000A96800F028FE2946064800F024FEB1E7C5
:104D6000BDE8F081454D00201C4C00205C45002032
:104D7000CC400020D8400020C0400020F94B20004B
:104D800008B5054800F0EBFD044800F0E8FDBDE87B
:104D90000840034800F0E3BDD8400020C040002098
:104DA000CC40002070B5044615460E46002938D088
:104DB000006B00F09EFD7068FFF7EEFEB1681948C9
:104DC00000F0F1FD3146184800F0EDFD206B00F0D9
:104DD00086FD04F10806B8B1002384F8283084F871
:104DE000293084F82A303DB1104BDB699847002800
:104DF00014BF0146102100E0294630462346BDE895
:104E000070400B4AFFF792B83046FFF799F82146F9
:104E1000084800F06EFD2146BDE87040064800F0ED
:104E2000C2BD70BDC0400020D84000206C5F200093
:104E3000F94B20005C450020CC4000202DE9F14FCB
:104E40000E46044600286ED0032914D8DFE801F08E
:104E50000208020E90F828301A4480F828200AE050
:104E600090F829301A4480F8292004E090F82A307C
:104E70001A4480F82A20206B00F031FD05460028F6
:104E800051D00A21686800F07BFF07460A20FFF72F
:104E900039FE874203D0284600F05EFDEEE7D5F8E4
:104EA0000880B8F1000F3ED0731E012BD8F800B077
:104EB000D8F8049094F8287027D81C4BDB699847E1
:104EC000002814BF82464FF0100AFFF7DDFA94F86D
:104ED000282098F808309A4217D2032FA8BF03273A
:104EE0000123BB4003FB0AF3B0FBF3F203FB120107
:104EF00004F1080051440E4A2346FFF717F868688A
:104F000001B0BDE8F04F00F035BF204629463246DB
:104F1000FFF748FF5846494632463B4601B0BDE8D8
:104F2000F04F00F033BF01B0BDE8F08F6C5F2000A0
:104F3000F94B2000014B9B68184700BF2C5F2000F5
:104F400070B505460C4614200121FFF7D3FD034B35
:104F500028462146BDE870409B681847385F20000E
:104F600053B94AB9002908BF00281CBF4FF0FF31D0
:104F70004FF0FF3000F03CB882B0EC462DE9005015
:104F800000F01EF8DDF804E002B00CBC704700BF72
:104F90002DE9F041069C904606460F461D4600F05E
:104FA00029F808FB01FCA8FB002300FB05C5B21A89
:104FB0002B4467EB03038646C4E90023BDE8F08178
:104FC0002DE9F843089E1746804689461D4600F0A5
:104FD00067F900FB05F3A0FB074507FB0137B8EBBA
:104FE00004043D4469EB0505C6E90045BDE8F883C6
:104FF000704700BF00292DE9F043C0F2A8800026C9
:10500000002BC0F29E8081468E4690469C461746F5
:1050100004460D46002B3DD18A4259D9B2FA82F39B
:105020003BB1C3F120029D4020FA02F29F4015439C
:105030009C40390CB5FBF1F01FFA87FE01FB1055BF
:105040000EFB00F3220C42EA0545AB4209D9ED19EB
:1050500000F1FF3280F00B81AB4240F20881023850
:105060003D44ED1AB5FBF1F301FB13550EFB03FEB6
:10507000A4B244EA0545AE4508D9ED1903F1FF3263
:1050800080F0F780AE4540F2F480023B43EA0043F3
:10509000002203E08B420FD900221346341C18BFB4
:1050A000012460424FF0000565EB45015840514036
:1050B00000196941BDE8F083B3FA83F2002A40F099
:1050C00089808B4202D3804500F2E2800123E5E72C
:1050D00012B90123B3FBF2F7B7FA87F8B8F1000F62
:1050E0003BD1ED1B4FEA174C1FFA87FE0122B5FB9F
:1050F000FCF00CFB10550EFB00F3210C41EA0545BA
:10510000AB4207D9ED1900F1FF3102D2AB4200F2F8
:10511000C3800846ED1AB5FBFCF30CFB13550EFBE0
:1051200003FEA4B244EA0545AE4507D9ED1903F1E3
:10513000FF3102D2AE4500F2AD800B4643EA004398
:10514000ACE752426FEA060663EB43035BE740427B
:1051500061EB41014FF0FF3652E707FA08F7C8F15B
:10516000200225FA02F34FEA174CB3FBFCF11FFAB9
:1051700087FE0CFB113324FA02F205FA08F50EFB48
:1051800001F92A43100C40EA0343994504FA08F454
:1051900007D9DB1901F1FF3078D2994576D9023968
:1051A0003B44C9EB0303B3FBFCF00CFB10330EFBD9
:1051B00000F592B242EA03439D4207D9DB1900F1A0
:1051C000FF325FD29D425DD902383B445D1B40EA0D
:1051D00001428CE7C2F1200328FA03F10CFA02FC29
:1051E00041EA0C0C4FEA1C402EFA03F1B1FBF0F53A
:1051F0001FFA8CF700FB151129FA03F30EFA02FED1
:1052000007FB05F943EA0E0E4FEA1E4343EA01414C
:10521000894508FA02F808D911EB0C0105F1FF33B2
:1052200032D2894530D9023D6144C9EB0101B1FB5D
:10523000F0F300FB131107FB03F71FFA8EFE4EEA93
:10524000014E774508D91EEB0C0E03F1FF3117D242
:10525000774515D9023BE64443EA0543A3FB088999
:10526000C7EB0E0ECE4509D305D0002216E7104637
:10527000F7E613460AE794404445F6D2013BF4E7CB
:105280000B46E9E71046A1E71D46CEE7014688E751
:10529000134603E7023B51E702383D443AE700BFBB
:1052A0002DE9F043002B44D18A42154604464FD9DC
:1052B000B2FA82F70E464FB1C7F12003B94020FA87
:1052C00003F602FA07F50E4300FA07F42F0CB6FBBB
:1052D000F7F01FFA85FE07FB10620EFB00F1260CAB
:1052E00046EA0243994209D95B1900F1FF3280F086
:1052F000EE80994240F2EB8002382B44591AB1FB00
:10530000F7F307FB13110EFB03FEA4B244EA0141BD
:105310008E4508D9491903F1FF3280F0DA808E45B5
:1053200040F2D780023B43EA004000263146BDE808
:10533000F0838B4247D8B3FA83F6002E48D18B42D4
:1053400002D3824200F2CF8001203146BDE8F083D3
:1053500012B90125B5FBF2F5B5FA85FCBCF1000FD9
:1053600078D1491B2F0C1FFA85FE0126B1FBF7F0FF
:1053700007FB10110EFB00F2230C43EA01418A42A5
:1053800007D9491900F1FF3302D28A4200F2BC80EA
:105390001846891AB1FBF7F307FB13110EFB03FE46
:1053A000A4B244EA0142964508D9521903F1FF31EB
:1053B00080F09180964540F28E80023B43EA0040A7
:1053C0003146BDE8F083002630463146BDE8F08323
:1053D000C6F1200422FA04F5B3402B4321FA04F766
:1053E0004FEA1348B7FBF8FC1FFA83F908FB1C7758
:1053F00020FA04FE01FA06F509FB0CF44EEA050555
:105400004FEA154E4EEA0747BC4202FA06F204D9AB
:10541000FF180CF1FF3168D38C463F1BB7FBF8F443
:1054200008FB147709FB04F9ADB245EA0741894549
:1054300004D9C91804F1FF355DD32C4644EA0C4465
:10544000A4FB0223C9EB0101994249D345D0204670
:1054500000266BE7CCF1200405FA0CF521FA04F3E1
:105460002A0CB3FBF2F61FFA85FE02FB163820FA6F
:1054700004F701FA0CF10EFB06F90F433C0C44EA69
:105480000843994500FA0CF407D95B1906F1FF317E
:1054900038D2994536D9023E2B44C9EB0303B3FBFE
:1054A000F2F002FB10330EFB00F1BFB247EA0343F8
:1054B000994207D95B1900F1FF3721D299421FD9D0
:1054C00002382B441746591A40EA06464EE7104662
:1054D00014E7134627E70B4670E7B0409042B6D278
:1054E000601E002622E7304620E7BC4294D9ACF18A
:1054F000020C1F4491E789459FD9023C19449DE75E
:105500003846DFE70E46C8E70238294441E700BFC6
:10551000032A70B426D940EA01039B0711D004780E
:105520000D78AC4222D10244431C05E013F8014B34
:1055300011F8015FAC4219D19342F7D1002070BC41
:1055400070470C4603461E6825681846AE42214641
:1055500003F1040304F1040404D1043A032A1846B5
:105560002146F0D8002ADAD11046E8E7601B70BC6B
:10557000704700BF844641EA000313F0030349D19A
:10558000403A23D30B6803604B6843608B688360A9
:10559000CB68C3600B6903614B6943618B698361AD
:1055A000CB69C3610B6A03624B6A43628B6A836295
:1055B000CB6AC3620B6B03634B6B43638B6B83637D
:1055C000CB6BC36340304031403ADBD230320BD337
:1055D0000B6803604B6843608B688360CB68C36073
:1055E00010301031103AF3D20C3205D351F8043B8D
:1055F00040F8043B043AF9D2043208D0D2071CBF69
:1056000011F8013B00F8013B01D30B880380604691
:10561000704700BF082A13D38B07B1D010F00303E3
:10562000AED0C3F10403D21ADB071CBF11F8013B53
:1056300000F8013BA4D331F8023B20F8023B9FE77E
:10564000043AD9D3013A11F8013B00F8013BF9D2F1
:105650000B7803704B7843708B788370604670478B
:1056600070B4840746D0541E002A41D0CDB2034600
:1056700002E0621EE4B3144603F8015B9A07F8D116
:10568000032C2ED9CDB245EA05250F2C45EA054558
:1056900019D9264603F11002103E0F2E42F8105C75
:1056A00042F80C5C42F8085C42F8045C02F110021B
:1056B000F2D8A4F1100222F00F0204F00F0410320D
:1056C000032C13440DD91E462246043A032A46F8F9
:1056D000045BFAD8221F22F003020432134404F0C0
:1056E00003042CB1C9B21C4403F8011BA342FBD133
:1056F00070BC704714460346C2E700BFFEE708B51A
:10570000FCF7C4FD73B50646002425463046FCF779
:10571000A9FE00230193019BAB4203DA00BF019B6A
:105720000133F7E73046FCF7A5FE00230193019A09
:10573000C5F5C8739A4203DA00BF019B0133F5E750
:105740000134B4F5487F05D0B4F5C87FDDDDC4F57C
:105750004875DBE702B070BDFCF750BFFCF766BFD1
:1057600070470020FDF748B80120FDF745B8EFF37A
:10577000108062B67047EFF3108072B67047002059
:10578000FDF7E2B90120FDF7DFB90220FDF7DCB932
:105790000320FDF7D9B910B50C46FDF7D1FB204623
:1057A000BDE81040FDF7FEBB10B504460020E1B295
:1057B000FDF732F9204610BD70B50546044646187F
:1057C000601B44B1237833B1B44204D0184601348D
:1057D000FFF7EAFFF4E770BD38B50546002415F879
:1057E000010B20B1FFF7E0FF0134002DF7D10A20B3
:1057F000FFF7DAFF204638BD0020704701207047D0
:1058000010B5044600210E203022FDF7EFF984B1D7
:10581000012C0CD142F210730011A0F28E505843AB
:105820002A2390FBF3F000F5C340283010BD4FF061
:10583000004010BD002070470120704710B504469D
:1058400000210F203022FDF7D1F95CB1012C07D1E6
:1058500040F6F253584347F6F07390FBF3F010BD57
:105860004FF0004010BD08B51AB108461146FFF7C9
:10587000A3FF002008BD10B5041F54F8040F18B191
:105880000021FEF749FDF8E710BD704710B504464A
:1058900000F00DF82046BDE81040FEF7D9BB837B31
:1058A000DB0701D5FEF716BC7047FFF759BF10B5EF
:1058B00041600446FCF708FF206010BD10B50446A7
:1058C000FCF702FF2368C3F10103034460689842B8
:1058D0002CBF0020012010BD00230360704700682A
:1058E0007047006800B9704703680BB11846FBE7C2
:1058F0007047036810B57BB100228B4207D10B685B
:105900000AB9036000E0136000230B6010BD1C683F
:105910001A460CB12346F0E710BD38B505460C46D3
:10592000FFF7E7FF002323602846FFF7DAFF08B9F7
:105930002C6038BD046038BD38B504460D46FFF70D
:10594000D8FF23682B60256038BD0368002013B1A1
:1059500001301B68FBE7704700B10068704710B565
:105960000446002162884068FFF77AFE2388628837
:10597000A06800215A43BDE81040FFF771BE10B582
:10598000418800238B420CDA4268D418D25C32B9C9
:10599000012222700188826801FB032010BD0133BF
:1059A000F0E7002010BD30B5826844880023A34290
:1059B0000DDA8A4207D14168CA5C0AB1013ACA5479
:1059C0004268D05C30BD058801332A44EFE7FF20F0
:1059D00030BD8268914208D34388008800FB0320D1
:1059E00081422CBF00200120704700207047002317
:1059F000013A0160027143718371704710B54279B9
:105A000083790479D31A2340A3421FBF03689954B2
:105A100043795A1C1FBF037913404371012008BF0B
:105A2000002010BD837942790179D21A0A421FBF42
:105A30000268D25C01330B401ABF837110464FF0ED
:105A4000FF307047FEF752BF03691B6803B1184768
:105A5000704703695B6803B1184770477047F7B533
:105A60000F46FEF7BDFF03880446ADF80030BDF8D1
:105A70000060FEF7C9FFB300023383420FD802343F
:105A80000025B5420BDA54F8040B01350190BDF83E
:105A900004103846BDF80620FEF7EAFDF1E703B032
:105AA000F0BD43695B6803B11847704713B50446FE
:105AB0001A20FFF739F8014601A800F050F9636990
:105AC0001B6813B1204601A9984702B010BD831C82
:105AD0000020023313F8042C1AB113F8032C1044DD
:105AE000F7E77047072B2DE9F84307468846144629
:105AF0001D4607DC084611461A46FEF76FFE387051
:105B0000BDE8F8834FEAE309AAB1002608EB0600D6
:105B100021460822FEF762FEB85501364E45F5D102
:105B200015F0070216D008EB06002146FEF756FED8
:105B3000B855BDE8F88318F804303B5501344C459E
:105B4000F9D115F0070205D008EB04000021FEF79B
:105B500045FE3855BDE8F8832DE9F341FEF740FFD7
:105B600004460220FEF720FF08B9002044E06078D8
:105B7000237803EB002080B2FEF774FE0546002870
:105B8000F3D0FEF72DFF8046287B10F0070318BFE7
:105B9000012303EBD000FEF707FF0028E5D0AC6837
:105BA0000026023414F8023C2BB3192B14F8017CA4
:105BB00008EBE60106F0070209D901A83B46FFF70A
:105BC00091FF14F8020C01A9FEF7A2FF10E00023D8
:105BD000ADF8043001A83B46FFF784FF9DF805109F
:105BE0009DF8043014F8020C43EA0121FEF782FF0D
:105BF0003E440234D6E7284602B0BDE8F081C1F148
:105C00001001CB1A9A400378C2F307210B430370AB
:105C100043781A4342707047072B2DE9F0478046BE
:105C20000C4617461D4601DC12782BE04FEAE309CB
:105C300009B1002601E0084614E008EB0600BA5D51
:105C4000214608230136FFF7DAFF4E45F5D115F05E
:105C500007031BD0BA5DC3F108002044024108EBE2
:105C600006000DE03B5C08F8003001304845F9D1F2
:105C700015F007030AD03A5CC3F108010A41404419
:105C80000021D2B2BDE8F047FFF7B9BFBDE8F08709
:105C90002DE9F743047B054614F0070318BF0123E1
:105CA00003EBD404A01CFEF7CDFE98B3FEF7A2FED2
:105CB000AB880370AB881B0A4370FEF79BFE871C02
:105CC000224638460021FFF7CBFCAC6800250234A1
:105CD00014F8020CE8B1192814F8016C07EBE50977
:105CE00005F0070805D9FEF71FFF41460246484662
:105CF00009E0FEF707FF8DF80400000A8DF80500A3
:105D00004146484601AA3346FFF786FF3544023430
:105D1000DEE7012003B0BDE8F083FEF795BD38B59E
:105D20000D46FEF79FFD044620B185602846FEF72C
:105D300085FD207338BD10B5FEF7FEFEFEF7AEFE02
:105D4000FEF784FCFFF7E9FFBDE8104002204FF4A6
:105D500000714FF4F0524FF4E123FEF705BD0B88BC
:105D60000380704708B50222FFF7D2FBB0FA80F03B
:105D7000400908BD016801F18200B631FEF7A6BEF8
:105D8000036803EB4101B1F88200704710B5044687
:105D900030B1084611461A462346BDE81040184760
:105DA00010BD7047038813B9038002207047002399
:105DB000038003207047034618B1084601220021E2
:105DC00018477047034618B10846012200211847BA
:105DD0007047704701207047704700207047704738
:105DE00001602000A5242000012520000000000003
:105DF00001000000010000000100000000C00040A0
:105E000000410D4000000000080000002C000000D0
:105E100000000001FFFFFFFF05000000020000007E
:105E2000020000000200000000D0004008410D40C8
:105E300002000000080000002C0000000201020027
:105E4000FFFFFFFF06000000A9322000412F2000C5
:105E5000A52F2000975720007D312000C12D200064
:105E6000FD2D2000152E2000152D2000412D200095
:105E7000252E2000493020001D3120004D3120000A
:105E800007000000FF00000005000000ED0000001A
:105E900003000000D500000001000000C500000064
:105EA00000000000B6000000FFFFFFFFB000000090
:105EB000FDFFFFFFA1000000FBFFFFFF91000000BE
:105EC000F9FFFFFF88000000F7FFFFFF72000000EE
:105ED000F5FFFFFF62000000F3FFFFFF5800000026
:105EE000F1FFFFFF42000000E8FFFFFF000000009D
:105EF0001960200001582000F9572000FD572000AC
:105F00002D6020003D5820003558200039582000D1
:105F10005F5A20005D5A2000AD5A2000A35A20008D
:105F2000595B2000915C2000CF5A2000C760200000
:105F3000375D2000B9482000CC602000814D200052
:105F4000294C2000C54B2000D14B2000DD4B200008
:105F5000E94B2000D1602000A35D2000414F2000CC
:105F6000354F2000E440002000000000E9602000E0
:105F7000DF5D2000B75D2000C55D2000D35D2000FF
:105F8000D55D2000D95D2000DB5D20000000436F5F
:105F90006E74696B692D322E362D333337392D6788
:105FA00038313839336664005A6F6C6572746961D0
:105FB0002052452D4D6F746520706C6174666F7250
:105FC0006D0052696D6520636F6E666967757265F5
:105FD000642077697468206164647265737320005B
:105FE000253032783A00253032780A00204E657428
:105FF0003A2000204D41433A2000205244433A20A9
:1060000000427574746F6E0063633235333820520A
:106010004620647269766572004F6E2D4368697020
:106020002054656D706572617475726500564444E4
:10603000330030303030303030303030303030308D
:1060400030303031323334353637383941424344D9
:106050004546003031323334353637383961626382
:10606000646566003078003058002D002B00286EE3
:10607000756C6C2900250020202020202020202065
:10608000202020202020204374696D6572207072CA
:106090006F63657373004576656E742074696D6512
:1060A000720053657269616C206472697665720072
:1060B00053656E736F72730000001A100000008049
:1060C000C0E0F0F8FCFEFF52696D650043534D419E
:1060D000006E756C6C73656300536E6966666572FD
:1060E0002070726F6365737300737475622D7264D0
:0260F00063004B
:1060F400E05D2000005F2000F05E20000000000052
:1061040000000000086020007D3320000000000033
:106114006758200000000000000000008760200095
:10612400413E2000000000000000000096602000B6
:10613400BD3F20000000000000000000A26020001D
:10614400894320000000000000000000B06020002F
:10615400214520000000000004000800354D002007
:10616400DC440020BE0008002D4D00202C460020F9
:106174000C000800464D0020FC44002034000200BE
:106184004E4D0020C04500200C0008003D4D00206D
:106194006045002000000000D9602000A55D2000BB
:0561A400000000001ADC
:0861AC0048EEFF7F0100000036
:020000040027D3
:10FFD400FFFFFFF30000000000202000FFFFFFFFF1
:10FFE400FFFFFFFFFFFFFFFFFFFFFFFFFFFFFFFF1D
:0CFFF400FFFFFFFFFFFFFFFFFFFFFFFF0D
:040000050027FFD4FD
:00000001FF
