:020000040020DA
:10200000106D00208D22200037C3200035C3200032
:1020100035C3200035C3200035C320000000000078
:1020200000000000000000000000000035C3200098
:1020300035C320000000000035C3200095C32000F8
:10204000B7C32000BDC32000C3C32000C9C3200004
:10205000000000009BC32000A1C3200035C3200066
:1020600035C3200000000000000000000000000058
:10207000000000000000000035C320000000000048
:10208000000000000000000035C3200035C3200020
:1020900035C3200035C3200035C3200035C32000E0
:1020A00035C3200035C3200035C3200035C32000D0
:1020B00035C3200035C3200035C3200035C32000C0
:1020C00035C3200035C3200035C3200035C32000B0
:1020D00035C32000000000000000000000000000E8
:1020E00000000000000000000000000000000000F0
:1020F0000000000000000000453D2000553D20008C
:1021000000000000000000000000000000000000CF
:1021100000000000000000000000000000000000BF
:1021200000000000000000000000000000000000AF
:10213000000000000000000000000000000000009F
:10214000000000000000000000000000000000008F
:10215000000000000000000000000000000000007F
:10216000000000000000000000000000000000006F
:10217000000000000000000000000000000000005F
:10218000000000000000000000000000000000004F
:10219000000000000000000000000000000000003F
:1021A000000000000000000000000000000000002F
:1021B000000000000000000000000000000000001F
:1021C000000000000000000000000000000000000F
:1021D00000000000000000000000000000000000FF
:1021E00000000000000000000000000000000000EF
:1021F00000000000000000000000000000000000DF
:1022000000000000000000000000000000000000CE
:1022100000000000000000000000000000000000BE
:1022200000000000000000000000000000000000AE
:10223000000000000000000000000000000000009E
:10224000000000000000000000000000000000008E
:10225000000000000000000000000000000000007E
:10226000000000000000000000000000000000006E
:1022700035C320002D3C2000513C2000712E200051
:10228000B53E20000129200035C3200008B5094BC8
:10229000FF221A600848094A4824E3690849121ACB
:1022A00098470848084AA3690021121A984700F085
:1022B0000DF8FEE7B4200D40404000203D420020D4
:1022C0005CE42000404200200E650020F7B500F0DD
:1022D0006DFC00F067FD00F0BDFC00F06FFA01F04E
:1022E000D7FD0AF010FA00F055FD00F0C9F8012002
:1022F0000AF024F802F08CFD00F044FC002000F00D
:1023000055FB012000F052FB4949002000F024FC5D
:1023100002F0B0FE0AF047F804200AF00FF8454832
:102320000AF042F944480AF03FF900F0E9F90020C8
:1023300002F048FF01F0A0FC4048002102F0F4FD4B
:1023400002F098FB0AF024F800F0B4FD00F0D0FD94
:1023500008F004F86846082101F0DEFD9DF807301A
:102360009DF80670364C43EA07276B4603CB206086
:102370006160344801F08CFF0025615D3248013511
:1023800001F086FF072D2E4EF7D1304DF179304800
:1023900001F07EFFEC6A4AF6CD310220A0473946B3
:1023A0000320A0471A210120A047694608226B6B31
:1023B0000B209847274801F06BFF274B18680AF05D
:1023C000F3F8264801F064FF254B18680AF0ECF892
:1023D000244801F05DFF244B18680AF0E5F8234A11
:1023E000336813607368536007F0D6FC20480021FF
:1023F00002F09AFD1F48002102F096FD1E4B0121BC
:102400009B68812098470AF04DF91C480AF040F972
:1024100000F0BEFB022009F091FF00F0BFFB02F0CC
:102420000FFD10F0FF0FF8D101F0CAFCF5E700BF77
:102430003150200038DE200052DE2000884000208D
:102440000665002077DE200095DE20005CDD2000A0
:102450009BDE2000A1DE2000B4DD2000A8DE2000ED
:10246000CCDD2000AFDE2000E8DD2000F85E00209B
:102470001C410020A840002064DC200024DE200055
:1024800008B500F0DDF8024B00221A7008BD00BF4D
:102490008A540020024A13781843107000F0F4B8F0
:1024A0008A540020034A137823EA0000107000F0D9
:1024B000EBB800BF8A54002020B1012805D1044B9D
:1024C00018787047034B186870470020704700BFAA
:1024D0008B54002020900D4010B5094A002013783D
:1024E00001331370074B197802F0F6FCBDE8104079
:1024F000054B06481968064A002302F0F1BA00BFEE
:102500008B540020FC6400207842002050420020C0
:10251000D9242000812810B50C462AD0B0F5807F40
:1025200039D0802839D102F06BFC1D4B1D4A187040
:102530001368002023F00803136052F8203C0321A5
:1025400023F0080342F8203C52F81C3C23F0080317
:1025500042F81C3C52F8183C43F0080342F8183C7F
:10256000042200F02DFC10480021032200F0CAFBD9
:1025700013E00E4B1A6831B142F008021A600020D5
:1025800000F032FB05E022F008021A60084600F075
:1025900037FB204610BD064B1960012010BD00BF5F
:1025A000FC64002020940D40B525200010940D40BF
:1025B0007842002008B50F480AF0B9F8C0B10821E8
:1025C0000C480AF0A2F80C4B196861B10B4B0022C1
:1025D0001A700B4B0B481B681BB90B4A02F080FAB0
:1025E00001E002F0BFFABDE80840084802F0BEBDB5
:1025F00008BD00BF70420020784200208B540020AC
:1026000020900D4050420020D924200064DC20009E
:10261000084A136823F00403136052F8203C43F087
:10262000040342F8203C044B00221A60034B0122B1
:102630001A70704720C40D4010C00D408C5400200B
:102640000D4A0E49136823F0C003136052F8203C72
:1026500043F0C00342F8203C094B00221A600B688B
:1026600023F010030B6051F8203C43F0100341F8B5
:10267000203C044B1A60704720A40D4020C40D403C
:1026800000A30D4040C00D4000F0020202F0FF0127
:102690000B4B12B1FF221A6000E0196000F0040237
:1026A00002F0FF01074B12B1FF221A6000E019602F
:1026B00010F00100044B1ABFFF221A601860704727
:1026C00000A20D4000A10D4040C00D40044B186811
:1026D000C0F30720030904BF1030C0B2704700BF29
:1026E0001C300D40054B1868C0F3C21001289ABF7A
:1026F000C0F1020040034FF40040704714300D4019
:102700002DE9F04788B0FFF7E1FF174B48251C681B
:10271000AB68074698476B68804698470646FFF7C0
:10272000E1FF054600F0D6FA824600F0DFFA814666
:1027300000F086FAB60AC4F34003AD0A04F00104BF
:1027400002930690009601950394CDF810A0CDF861
:1027500014904146C7F3071207F00F03034801F036
:1027600097FD08B0BDE8F0871C300D40BDDE2000AD
:10277000F8B500F083F80F4B0024D3E900673A4620
:10278000B04238BF7A1C15460443C3E90045DFF860
:1027900028E0DEE90001821B61EB070312196B419F
:1027A000CEE9002302F096FA18B1BDE8F84002F035
:1027B00021BAF8BD40420020484200200F4B104A89
:1027C0001A6053F8042C42F0050243F8042C53F825
:1027D000042C42F0020243F8042C0A4A136843F026
:1027E00001031360084B00221A60042243F80C2CEA
:1027F000012243F8082C0F22DA62704714E000E04F
:1028000047E8010008200D400C000340034BD3E9CA
:102810000023100A40EA0360704700BF40420020D6
:10282000034BD3E90023D00B40EA4340704700BF7D
:1028300048420020054B18601C3B1A6842F0010218
:102840001A601A68D207FCD4704700BF2800034002
:1028500010B5064C236823F001032360FFF788FFBF
:10286000236843F00103236010BD00BF10E000E0C7
:10287000014B1868704700BF7C420020074B084A94
:10288000196804331B681268120442EA0323054ADC
:102890000B43106843EA0060704700BF40500D4092
:1028A00048500D404C500D4010B50446114B1B686C
:1028B000DB07FBD509F07BFDFFF7E0FF231A062BB2
:1028C000D8BFC41D0C4B220E1A60C4F3074243F854
:1028D000042CC4F3072243F8082CE2B243F80C2C72
:1028E00009F061FD054B91201C60BDE8104000F02F
:1028F0007BB900BF50500D404C500D407C42002031
:1029000008B501F043FA064B002291201A6000F04E
:1029100083F9912000F074F9BDE8084002F028BB6B
:102920007C420020064B1B681B075FBF054B1868E5
:1029300080F00800C0F3C00048BF0020704700BF0F
:1029400018C0004018D00040164A38B52C2303FBAD
:1029500000234FF6BF72DC680546236C62649BB2AD
:1029600013F050020DD0A369DB0609D40E4B53F8C7
:1029700025301BB12068C0B29847F4E72368F2E71E
:1029800038BD13F4D06F0BD04FF440732363FF2393
:102990006360E36AE262E362236B43F00103236353
:1029A00038BD00BF74DC2000804200202DE9F04FCC
:1029B000012885B0064600F2BF802C244443604BBA
:1029C0001D1995F920A005F12007BAF1000F9946CD
:1029D000C0F2B28095F92230002BC0F2AD80594888
:1029E00001F046FA584A59F804301168EC680B4374
:1029F000136051686B6895F921B00B43536091687F
:102A0000AB6895F822800B4393600023C4F8C83F5D
:102A10002B690BEBCA021A6095F823305FFA88FC29
:102A200001939DF80430604619462A7DCDF80CC00C
:102A3000029300F0CFF9029BDDF80CC01946604606
:102A4000082200F0BDF94FFA88F840494FEA0838EB
:102A50009DF9042058F80100012303FA02F2024311
:102A600048F801204FEA0A3A5AF8010003FA0BF23B
:102A700002434AF801205022A263A26B95F8240079
:102A800042F4D062A263022262634FF44072226376
:102A9000AA696262EA69A2627022E26242B2002A14
:102AA0000C4614DB95F92510294D41EAC201296035
:102AB0007979120315594FB2BB402B4313510022B1
:102AC00000F07EF9234A136843F4004313602C237B
:102AD00003FB069393F8265020336FB2002F1CDBC4
:102AE00093F807A0EDB25FFA8AF828464146012222
:102AF0003F0300F06FF94FFA8AFA3A59012303FABB
:102B00000AF313433B5108222846414600F058F986
:102B1000104A136843F4804313602C2303FB06968A
:102B2000F26896F82800136B43F00103136305B0B5
:102B3000BDE8F04F00F058B805B0BDE8F08F00BF19
:102B400074DC20002529200028200D4020940D4011
:102B500004410D4030D0004001289CBF014B43F898
:102B60002010704780420020012808D8044B2C22F6
:102B700002FB0030C3689A699206FCD41960704762
:102B800074DC2000014B00221A60704700500D4099
:102B9000014B08221A60704700500D40024BA022E2
:102BA0001A6050221A60704700500D40074A084BC7
:102BB0001A60084B80321A60074B80321A60074B4C
:102BC00080321A60064B074A1A60704700E100E045
:102BD00094420020884200208C4200209042002035
:102BE00008ED00E000202000044B41091A6800F0C5
:102BF0001F000123834042F8213070479442002097
:102C0000044B41091A6800F01F000123834042F879
:102C10002130704788420020044B41091A6800F0B7
:102C20001F000123834042F821307047904200206A
:102C3000024B1868C0F38150704700BF04200D405C
:102C400008B5FFF7F5FF024B53F8200008BD00BFA1
:102C5000CCDC200038B5164D164C2B68032023F031
:102C600040032B602368062123F0400323600122E8
:102C700000F0A6F82B68012223F080032B60236864
:102C8000032023F080032360072100F099F80A4A0B
:102C90000A4B1A600A4B0B4A19680A40002AF9D1FC
:102CA0001A685101FCD41A685201FCD538BD00BF26
:102CB00020C40D4000C40D400101020000200D4061
:102CC00004200D4000000101014B08221A607047EA
:102CD00074200D40034B04481B6803F007031841A0
:102CE000704700BF04200D400048E801034B044832
:102CF0001B68C3F302231841704700BF04200D4036
:102D00000048E801024B02EBC10243F82200704781
:102D100098420020F8B507460E46094D002405EB01
:102D2000411547FA04F3DB07E1B204D555F8243026
:102D30000BB1304698470134082CF2D1F8BD00BFE2
:102D4000984200202DE9F04780464FEA0837DFF827
:102D5000409007F1804505F5592501F017F8D5F8A1
:102D6000186457F809404FEAC80A24FA0AF446EAF8
:102D70000400E4B2C0B24146F6B204FA0AF4FFF726
:102D8000C9FFC5F81C6447F80940BDE8F08700BFDB
:102D900018970D4002480021802209F073B900BF46
:102DA00098420020034A044B1A60044B803A1A6090
:102DB000704700BF80400D401C4300201843002096
:102DC000034B01EBC0011B6843F82120704700BF93
:102DD0001C430020034B01EBC0011B6843F821207A
:102DE000704700BF184300200E2870B50BD1164B5A
:102DF000164E1C6844F002051D60356825F03F033F
:102E000043F001033360124E336823F0FF031A438B
:102E10001143014331600F4B1B681B06FBD50E4B62
:102E20000E4A1B6812680E2803F0FC0343EA0223D3
:102E300008BF064A9BB204BF1560034A9BB208BF95
:102E4000146018B270BD00BF34000144F48608401D
:102E500008700D4000700D400C700D4010700D405A
:102E6000024B1868B0FA80F04009704700B708407C
:102E700010B58F20064CFFF7CFFE8F20FFF7C0FE66
:102E8000206818B102F068F80023236010BD00BF6D
:102E900020430020064A136843F00203136053687E
:102EA00043F002035360936843F00203936070475A
:102EB00048200D4007B50C4800F0DAFFFFF7EAFFA5
:102EC0000A4B1A6842F002021A6000220192019A2B
:102ED0000F2A02DC019A0132F8E71A6822F0020296
:102EE0001A6003B05DF804FB612E200054200D40F1
:102EF000064A136823F002031360536823F00203A9
:102F00005360936823F002039360704748200D409C
:102F1000014B1860704700BF204300202DE9F047A7
:102F20003E4EA0B034688246884615461F46002CA7
:102F300070D1022916D1AC4216DA1822482302FBBE
:102F400004A14FEA8409DB690DEB4410984709F1AD
:102F5000030920AB03EBC9090022002349E9202320
:102F60000134E8E7012904D06D00B8F1020FEDB299
:102F700005D04823DB69684651462A019847284A0C
:102F80000123032113602748516008323360116028
:102F9000016801F0030444451EBF21F0030148EA23
:102FA0000101016003FA05F01F4C01381F49B840C8
:102FB0000860A4F58064C4F8000423601C4BC3F8C7
:102FC00000D0E3681B0C1B0443EA0515E560194BB0
:102FD0001C68E407FBD51C68002C06DA4FF00043A0
:102FE000136000233360042015E01B6813F0804356
:102FF00006D04FF0804313600023336006200AE0C0
:103000000324146033600B680340834214BF06201E
:10301000002000E0032020B0BDE8F08700B70840A2
:1030200080B7084008B4084000B4084004B4084021
:1030300004B0084090B708402DE9F047434C89465A
:1030400021689C46DDF82880BDF82030BDF82C5062
:10305000DDF830E0002975D13D4901260E603D4E76
:103060000327B2460221376021603B490F603B4F86
:10307000C7F80090D7F80090B9F1000FFADB384F8D
:10308000D7F8009019F0005FB94607D04FF0005311
:103090000B60002323600520BDE8F0874AB1166865
:1030A000304F3E6056687E609668BE60D7682E4A94
:1030B00017602E4A002710F4E02F106055609760CB
:1030C00002F108021BD053600432C3B1A2F25C5279
:1030D00001201060C2F804C0D360D9F800309B070B
:1030E000FBD51F4B1B68002B07DA4FF000430B602A
:1030F000002323600420BDE8F08702230B60012336
:10310000CAF80030BEF1000F08D07046FFF700FF8C
:103110008F20FFF781FD8F20FFF766FD7DB1144AF8
:103120000123136009990C3242F8081C1560B8F1AC
:10313000000F04D053610F4BC3F800809D60002046
:10314000BDE8F0870320BDE8F08700BF00B7084066
:1031500080B7084084B7084088B708400CB40840DE
:1031600090B7084040B508404CB5084050B50840FD
:1031700000B0084024B00840034B1A68034B1A42C1
:1031800014BF01200020704790B70840010000E004
:10319000F8B5204B204F1E684FF060433B6005465A
:1031A0008F200C46FFF72CFD0020FFF7B1FE002218
:1031B0001A4B96421A6027DB710027D4B20027D43D
:1031C00005B9ECB1164B1B685B00FBD55DB1154B27
:1031D0001B682B60144B1B686B60144B1B68AB6047
:1031E000134B1B68EB605CB1124B1B682360124BE6
:1031F0001B686360114B1B68A360114B1B68E36085
:1032000003233B600020F8BD0420F8BD0620F8BD74
:103210000520F8BD90B7084088B7084000B70840BF
:1032200050B5084040B5084044B5084048B508408E
:103230004CB5084070B5084074B5084078B50840F2
:103240007CB5084037B5114B05461C68C4F34004F3
:103250000CB9FFF71FFE10230021009301910120FC
:103260002A462B4609F0B3F808B1FFF72DFD09F007
:10327000C3F8431CFBD008B1FFF726FD24B903B007
:10328000BDE83040FFF734BE03B030BD48200D40EC
:1032900038B50B4B05461C68C4F340040CB9FFF766
:1032A000F9FD012128460A460023FFF737FE08B141
:1032B000FFF70AFD1CB9BDE83840FFF719BE38BD5D
:1032C00048200D40014B1B68184700BFDCDC200084
:1032D0002DE9F04F1646284A89B014688346C4F396
:1032E00040040F469DF84880DDF84CA09DF85050F2
:1032F000DDF854901CB90793FFF7CCFD079B1FFA2C
:1033000088F0B9F1000F1AD000218DE881000296F3
:1033100003970495059102205A4609F0EAF828B16E
:103320003CBB09B0BDE8F04FFFF7E2BDFFF724FF5B
:103330000028FBD05046294609F0F8F8F0E72E4463
:103340008DE88100029603970495CDF81490022031
:1033500049465A4609F0F0F80028E1D1FFF70CFF82
:103360000028FBD03846314652462B4609F09EF8DD
:10337000D6E709B0BDE8F08F48200D40084B93F91F
:103380000020002A09DB074AED2111601160E321CA
:1033900011601A7862F07F021A700120704700BF36
:1033A00090540020388808400B4B1A689207FBD4D1
:1033B0001B685B065FBF094BED221A601A60084B61
:1033C0001B6813B1054BEF221A60064A01201378DF
:1033D00003F07F03137070474C860840388808401C
:1033E0002C8608409054002038B5A0F10B04E3B2BD
:1033F0000F2B054613D80B4B1B6813F03F0302D06D
:10340000FFF7D2FF012304EB8404074A0B34146056
:103410000BB1FFF7B3FF054BE8B21D7000E0FF20D2
:1034200040B238BD488608403C8608402B42002008
:1034300010B50B4B1B68990603D1FFF79FFF0123C3
:1034400000E00023074A1268D207FBD5064A146839
:10345000C4F300140BB1FFF7A7FF204610BD00BF57
:1034600048860840648608404C860840044B18682B
:1034700000F02200A0F1200358425841704700BFDD
:103480004C860840024B186800F04000704700BFAF
:103490004C86084038B50C46002900F0888010287A
:1034A00000F28780DFE800F0090F1A1C233942532D
:1034B000586F738585787A7C7F003F4B1B6800339B
:1034C00018BF012370E03D4B05221B6803F07F030A
:1034D0000B3B93FBF2F30B33DBB265E0384B00E0C0
:1034E000384B1A68043B1B6843EA02235CE0002364
:1034F0000B60354B354A1B6803F001030B60126803
:10350000900644BF43F002030B60314B1B78002B45
:103510004BD00B6843F0040346E02E4B00201B7891
:103520000860002B41D001230B6038BD2A4B1A687C
:103530000023D2B2294901EBC3000079904202D89E
:1035400051F8333030E001330E2BF3D128E0244B17
:103550001B685BB2493B27E0224B1B68990603D1ED
:10356000FFF70CFF012300E000231F4A1268D20777
:10357000FBD51E4A1568493DEDB20BB1FFF714FFAC
:103580006DB2256011E01A4B93F900300CE0194B35
:103590001B7803F07F0307E00B2305E01A2303E009
:1035A0006FF0170300E007232360002038BD0220DE
:1035B00038BD012038BD00BF2C8608403C8608403D
:1035C000CC850840D4850840008608402486084001
:1035D0008F5400202A42002040860840ECDC200066
:1035E000588608404886084064860840608608403F
:1035F0008E5400208D54002038B505460C46134BE0
:103600001B689B07FBD4124B93F90030002B01DBA6
:10361000FFF7B4FE0F4BEE221A60691E1A60A21C5F
:1036200043F8102C2144022000F03EFB013C0A49E3
:1036300024012143022000F049FB022000F050FB4E
:10364000022000F065FB002038BD00BF4C8608401A
:10365000905400203888084002C001C0F8B5214BC2
:1036600093F90030002B0DDBFFF708F90446FFF754
:1036700085FEFFF703F96FF009031B1BC342F8D463
:10368000012600E00026184B1B7823B9174D2B6844
:10369000990604D405E0FFF7CBFE0028F6D10220FE
:1036A000F8BD134CE923236004272B689A0707D43D
:1036B000013F17F0FF0703D00620FFF7BBF8F4E740
:1036C0002B689B0704D4EE2323602360012403E0CE
:1036D0002C6814F00204FBD10EB1FFF765FE204602
:1036E000F8BD00BF905400202A4200204C860840BC
:1036F00038880840044B1A6810B142F0010201E01A
:1037000022F001021A607047008608400B280DD194
:10371000082A0DD161B1074B083111F8012D43F88A
:10372000042F054A9342F8D10020704701207047CA
:1037300002207047A4850840C485084070B5304E0B
:10374000336813F0400308D02E4D2B68DCB21B0603
:1037500005D52D4BED221A601A60002070BD042C97
:10376000F7D9023C8C42F4DCE4B2032C21D00119DD
:103770000139032000F0A0FA631E24491B01032035
:10378000194300F0A3FA032000F0AAFA032000F086
:10379000BFFA032000F0C8FA0028FAD129681C4BB0
:1037A0004939C9B219702B681A4D18062B70D0D53B
:1037B00006E02B6803702B6843702B688370EDE77D
:1037C00049B289B2042006F09FFD2978032001F058
:1037D0007F0106F099FD104B1B7873B933685A06C8
:1037E0000BD5074B1B681B0603D50C4801F0B4FB37
:1037F00003E0054BED221A601A60204670BD00BF41
:103800004C860840288808403888084002C0010CCF
:103810008E5400208D5400208F54002050400020F2
:103820001E4B1870002831D01D4B1B681B03FBD5A5
:103830001C4B1A6842F002021A601A6842F0010238
:103840001A601A6817495007FBD50A6822F001026E
:103850000A601968134A4907FBD4116841F0020154
:103860001160116841F0010111601A685207FCD51E
:103870000D4A8D20136823F004031360D2F8A83199
:1038800023F00403C2F8A831FFF7BAB9064A8D2025
:10389000136843F004031360FFF7A6B98F540020A8
:1038A00004200D40048808408C86084010B50C4662
:1038B00007285CD8DFE800F0040F1B1F263C4256A7
:1038C000012903D1FFF75AFD002010BD002950D176
:1038D000FFF76AFDF8E7A1F10B030F2B49D8C8B237
:1038E000FFF782FD431C0CBF0320002010BD8CB2EB
:1038F000E2B2214B02E08CB2204BE2B2240A1A6001
:103900005C60E1E731F0070333D101F00100FFF71C
:10391000F1FE1B4B14F0020F1A68C4F3800014BFB1
:1039200042F0200222F020021A60FFF779FFCBE775
:1039300031F001001DD1134B197010BD01F11803B6
:103940001F2B16D80D231049DA0051F8330084429A
:1039500004DC8B181A790D4B1A60B5E713F1FF33AD
:10396000F1D2B1E7CCB20A4B49341C60ACE701207C
:1039700010BD022010BD00BFC8850840D08508409A
:10398000248608402A420020ECDC200040860840C3
:1039900058860840F8B5294F3D7815F001054AD101
:1039A000274B01241C605C609C60A3F59323A3F566
:1039B0001473F8221A600922C3F89021152270337B
:1039C0001A6003F59B230B2203F59E731A60A3F57F
:1039D0009B23A3F5F07340221A601A687F2642F0F9
:1039E00020021A60D52243F81C5CDE62DA61154BB6
:1039F0001878FFF7F9FC144B8E201E60FFF7F4F8DF
:103A0000022000F079F91149022000F055F9032055
:103A100000F072F90D49032000F046F90C4B1878BC
:103A2000FFF7FEFE0B48294601F07EFA3B78204660
:103A300023433B70F8BD0020F8BD00BF9054002028
:103A4000A8200D402B42002094860840288808407A
:103A50008F5400205040002038B503880446CBB175
:103A600040F20342934203D000230380032038BD79
:103A7000194B18781A4628B11B7873B1174B1B786D
:103A800058060AD5822908D1137843B1134B1A7806
:103A9000520614D440F203432380012038BD06F0BF
:103AA000DDFB06F071FB8021FFF748FE0028EDDD0D
:103AB00080B206F04DFB0A4B1B699847E6E70022EF
:103AC0001A70084B1D68FFF76FFCFFF763FFAB062A
:103AD000E0D0FFF753FCDDE78F5400209054002026
:103AE000E8DD2000488608400B282DE9F84F8A467B
:103AF00011D1082A40F0828000297FD0414B01F18A
:103B0000FF3A53F8042D0AF8012F3F4A9342F8D1A7
:103B10000020BDE8F88F0C286DD1042A6ED1002951
:103B20006CD03A493A480B68DFF8EC9023F0070371
:103B30000B600368DFF8E4B043F008030360DBF8D0
:103B40000040D9F800200B68DFF8D4C0DFF8D4803B
:103B500023F070030B60D8F80050DCF80030E4B2BA
:103B6000120244EA036392B2DFF8BCE01A43EBB2FC
:103B700042EA03430024DEF8002044EA03060B680F
:103B8000D5B223F0070343F001030B6003682F460F
:103B900043F008030360DBF80000D9F800200B684D
:103BA000120223F0700343F010030B60D8F80050AA
:103BB000DCF80030C1B241EA036392B21A43EBB2BF
:103BC00042EA0343DEF8002044EA03085FFA82F980
:103BD000FEF754FEB6EB080667EB0907F903054646
:103BE00041EA5641F0030B4A002307F067FE281A0A
:103BF000CAF800008CE70120BDE8F88F0220BDE87C
:103C0000F88F00BFC8850840A88508401088084084
:103C1000048808400048E8011888084014880840D3
:103C200020880840248808401C88084008B5054BB7
:103C30001B7813B9044801F08FF9044B00221A6075
:103C400008BD00BF8F540020504000203488084039
:103C5000064B07481A68042A1FBF06490A7842F033
:103C600040020A7000221A6001F076B92C880840E0
:103C7000504000209054002010B5094C00212046EF
:103C8000402208F0FFF9074B01221A602E205C60E9
:103C9000FEF7AAFFBDE810402F20FEF7A5BF00BF2A
:103CA0000040002004F00F4003289EBF014B00019C
:103CB000195070470040002003289EBF024B03EBC1
:103CC00000104160704700BF0040002003289EBFE5
:103CD000024B03EB00108160704700BF00400020E2
:103CE00003289FBF034901230A6883409CBF1343F5
:103CF0000B60704728F00F4003289FBF0349012342
:103D00000A6883409CBF13430B60704720F00F404C
:103D100003289FBF034901230A6883409CBF1343C4
:103D20000B60704714F00F4003289FBF044B03EB58
:103D30000010806800F0070088BF0020704700BFB7
:103D400000400020024B4FF0FF321A60704700BF66
:103D500004F50F40014B01221A6070474CF00F40F0
:103D6000094B1A6812F4801F1A46F9D1043B1968EE
:103D700021F4803119601168C903FCD41A6842F437
:103D800000321A60704700BF04200D4010B50A4B86
:103D90001A681C4612F0030F0CD0084B1A68510128
:103DA000FBD41A685201FCD5FEF752FDFFF7D8FF8D
:103DB0000023236010BD00BF58200D4004200D409B
:103DC00038B5254B1C6814F03F0413D1234B53F82E
:103DD000243023B1984768B10134052CF6D1204D29
:103DE0002B783BB1FEF744FD0446FEF747FD201A51
:103DF000092801D830BF38BD002CFBD0194B1A68F8
:103E000022F400321A60184A1168C902FBD41968FA
:103E100041F4803119601368DB03FCD5FEF72EFDF9
:103E2000201A092803D8BDE83840FFF799BF632856
:103E30000E4C02D92B78022B00D00123236001F015
:103E400041F820B1FFF78CFF0023236038BDFEF757
:103E50000FFD0028CED1F5E7488608402443002016
:103E60009154002000200D4004200D4058200D40AA
:103E70000023064A52F82310814206D011B942F8B5
:103E8000230070470133052BF3D1704724430020F2
:103E9000054B00221A60054A136843F004031360BF
:103EA000034B02221A70704758200D4010ED00E0BD
:103EB0009154002010B59020064CFEF7ADFE9020E6
:103EC000FEF79EFE206818B101F046F8002323603B
:103ED00010BD00BF3843002070B50E4C0546267853
:103EE0004EB93046C021FEF73FFE30460D21FEF7A9
:103EF0003BFE012323700020E9B2FEF735FE0A2DB8
:103F000005D10020C021FEF72FFE00232370284694
:103F100070BD00BF9254002013B56B460A4604469C
:103F200004490868496803C32046991A07F0D0FF7E
:103F300002B010BD8FDF200000200149FEF70CBE4B
:103F4000DD4120002DE9F74F0388064633B1B3F574
:103F5000A57F11D0002303800320EFE0794A13806E
:103F6000794A1380794A1380794B01221A704FF4F1
:103F7000A57333800120E1E082294FF0010AF9D1D5
:103F8000DFF8C8B17348BBF80050734B425D83F84B
:103F900000A0432ADFF8AC81D94607462AD16A4BF4
:103FA0001A88954226D2521B052A23DD00EB050C08
:103FB00060466A490622CDF804C007F057FFDDF8D5
:103FC00004C00446B0B960462146062208F05AF8FB
:103FD0005D4BA8F800401C805D4BABF8004083F8B7
:103FE00000A05F4B185D013408F0EEFA0D2CF8D1FB
:103FF000002497E0B8F800209542F9D002D30023BE
:104000001C462EE000247B5DDB2B04D055490B556C
:104010000134A4B201E0012300E000230135ADB278
:10402000954255D2B4F5807F01D9002450E0002B91
:10403000E9D07B5DDD2B01D1DB2102E0DC2BECD173
:10404000C021484B1955E3E7B4F5807F1DD863B90B
:10405000795DDB2917D0434801550134A4B20135FD
:10406000ADB2B5F5887FEFD310E07B5DDD2B01D1DC
:10407000DB2102E0DC2B04D1C0213A4B195501347D
:10408000A4B20023EBE70123E9E70024002188B272
:1040900090421DD2B4F5807FC7D863B17B5CDD2B25
:1040A00001D1DB2002E0DC2B0DD1C0202D4B1855B7
:1040B0000134A4B207E0785CDB2806D0294D2855EE
:1040C0000134A4B202E0002300E001230131DEE765
:1040D000013292B2B2F5887F04BF0023A8F8003005
:1040E000194B18BFA8F80020B8F8002019888A4298
:1040F00016D0104603468B4212D0F85CC02807D178
:104100001948A8F80030A9F8002000F025FF09E0C0
:1041100001339BB2B3F5887F4FF00000EBD1E9E7A4
:10412000A9F80020114B1C80002C3FF420AF104B4D
:104130001B6803B1984704F06DF818E703B0BDE8B9
:10414000F08F00BF3E5000203C5000204050002027
:1041500093540020945400200165002097DF200034
:104160009EDF2000005F002060400020EC5E002009
:104170003C430020014B1860704700BF3C430020C7
:1041800038B5C02008F020FA114B00241149A2B222
:104190000988914216D93C2A04BF0F4B1B68187836
:1041A0005D1CC02804D1DB2008F00EFADC2004E0FE
:1041B000DB2802D108F008FADD2008F005FA013406
:1041C0002B46E3E7C02008F0FFF9002038BD00BF10
:1041D000005F0020EC5E00200C60002038B5264B0C
:1041E0001A781C46022A06D0032A12D1C02804BF1E
:1041F00001221A703DE000F12402D2B2012A06D950
:1042000003221A701D4B1A881D4B1A8031E00123BE
:1042100002E0DB2801D102232370194B184D1A88C4
:10422000511C89B2B1F5887F08BF0021198015495A
:104230001B8809888B4205D1032323700F4B1B88F1
:104240002B8016E0104B5428985407D15B5C432B0D
:104250000FD10E4800F080FE012038BDC02808D1E3
:10426000064B1888824203D08142F2D11A80F0E7CF
:104270002A80002038BD00BF935400203E5000200B
:104280003C5000204050002094540020604000200A
:104290000FB407B504AA52F8041B0448019200F0B9
:1042A00035F803B05DF804EB04B0704770400020AF
:1042B0001FB5084C8DE80300114602A81A46029467
:1042C000CDF80CD000F022F8009B00221A7004B048
:1042D00010BD00BF4FC6200070B505460C46102C1F
:1042E00007D92B68686808491022984750B9103CD4
:1042F000F5E734B12B6868682246BDE87040024992
:104300001847204670BD00BF14E020002DE9F04F93
:1043100080468FB0069107920026069B1B78002BE3
:1043200000F05F83069B1C4613F8012B1AB9069B0D
:104330009C4203D10FE0252AF5D1F8E7069BD8F877
:104340000400E51A0699D8F800302A469847002854
:1043500040F02A832E442378002B00F042836378B8
:10436000611C002B00F03D8300240A4611F8013B3C
:104370002B2B11D006D8202B11D0232B12D144F097
:104380000804F2E72D2B04D0302B0BD144F010049D
:10439000EBE744F00104E8E744F00604E5E744F005
:1043A0000204E2E7A3F1310108290DD813460025E4
:1043B0001A4613F8011BA1F13000092811D80A226E
:1043C00002FB0515303DF3E72A2B09D1079B01328B
:1043D0001D68191D002D0791B8BF44F0010400E0CD
:1043E000002513782E2B1CD15178531CA1F13000DD
:1043F00009280ED8194600270A780B46A2F130008A
:10440000092801F101010FD80A2303FB0727303FD8
:10441000F2E72A2906D1931C079A111D0791176804
:1044200002E013464FF0FF371A786C2A09D15A7808
:104430006C2A02D144F080040AE0013344F06004A5
:104440000BE0682A09D15A78682A03D144F0200485
:10445000023302E0013344F040041A78642A3CD06D
:104460001FD8462A48D00DD8252A5AD003D8002A6A
:1044700000F0B78257E0412A4AD0452A53D144F48C
:10448000424450E0582A31D004D8472A4BD144F452
:10449000A13448E0612A38D0632A44D144F4A064AE
:1044A00041E06E2A3AD007D8662A22D027D3672A5D
:1044B00028D0692A11D036E0732A2CD006D86F2A6A
:1044C00011D0702A2FD144F440742CE0752A07D003
:1044D000782A28D144F4C85425E044F4245422E036
:1044E00044F410641FE044F488541CE044F4B244E3
:1044F00019E044F4007416E044F4844413E044F4F6
:10450000024410E044F481340DE044F4C1340AE084
:1045100044F4E13407E044F4806404E044F4E064EB
:1045200001E044F4C0640133069304F4E063B3F59E
:10453000806F00F0AA8116D8B3F5807F2BD0B3F539
:10454000407F7FF4EAAE079BA04914F4804F03F14B
:1045500004029F4818BF08460DF1330107920F4629
:104560001A680023C5E1B3F5C06F08D0B3F5E06F5A
:1045700000F03182B3F5A06F7FF4CFAE00E2D8F83F
:104580000030D8F80400934901229847002840F0F1
:104590000B820136C1E6002FACBF24F010040127C6
:1045A00014F40053039304F0E00337D0402B17D0EA
:1045B00008D8DBB1202B2AD1079B1A1D079293F94B
:1045C000002017E0602B11D0802B20D1079B0733F0
:1045D00023F0070303F108020792D3E900230AE05E
:1045E000079B1A1D0792B3F9002003E0079B1A1DD1
:1045F00007921A68D317002A73F1000109DA5242B0
:1046000063EB4303CDE900234FF0010933E00022BF
:104610000023CDE900234FF000092CE0402B16D0F9
:1046200007D8CBB1202B20D1079B1A1D07921A78EF
:10463000EEE7602B10D0802B17D1079B073323F0B8
:10464000070303F108020792D3E90023E1E7079B80
:104650001A1D07921A88DBE7079B00211A1D079293
:104660001B681846CDE90001D5E700220023CDE9FB
:1046700000234FF0000904F4C053B3F5805F0CD061
:10468000B3F5C05F33D0B3F5006F4FD1DDE9002340
:104690000DF1360ACDE9042304E0DDE900230DF134
:1046A000360A15E0DDE9042313433AD0DDE90401BD
:1046B0000A22002307F002F9DDE9040130320AF88A
:1046C000012D00230A2207F0F9F8CDE90401E9E7FA
:1046D00052EA030125D002F0070130310AF8011D2A
:1046E000D10841EA4371D8080A460346F0E7384B3F
:1046F00014F4804F0DF1360A344908BF1946DDE93C
:10470000002352EA03000CD002F00F00085C4FEACD
:10471000131E0AF8010D100940EA037002467346A1
:10472000EFE70DF1360BCAEB0B0B03E00DF1360A88
:104730004FF0000B41F6080241F208035F4502EA20
:1047400004028CBFCBEB070700279A4202D1002F4F
:1047500008BF012741F608018A4207EB0B030DD180
:10476000DDE9000150EA010208D01B4914F4804F32
:104770001A4A4FF0020C18BF0A4602E04FF0000C34
:1047800062460399A1B1B9F1000F0AD104F0060104
:1047900002290AD00629124904BF4FF0010C0A462B
:1047A00006E04FF0010C0F4A02E00F4A4FF0010CF7
:1047B00063449D428CBFED1A002514F0010922D1FB
:1047C000E30613D52F444D461DE000BFE1DF200076
:1047D000F2DF200012E0200006E0200003E02000CD
:1047E00009E02000D9E1200025E1200040462946CB
:1047F000CDF80CC00092FFF76FFD009ADDF80CC0F9
:10480000002840F0D180BCF1000F0DD01146D8F83F
:1048100000306246D8F80400CDF800C09847DDF8B3
:1048200000C0002840F0C0803C465E44102CD8F800
:1048300000300DD9D8F804006C491022CDF800C022
:104840009847002840F0B080103CDDF800C0EDE74C
:104850005CB1D8F8040065492246CDF800C09847FD
:10486000DDF800C0002840F09F80D8F80030D8F86C
:10487000040051465A4666449847002840F0948008
:104880003E44B9F1000F79D073E0079BD3F800A044
:104890001A1D0792BAF1000F09D05346994699F8AC
:1048A00000200133002AF9D1CAEB090903E0DFF83F
:1048B00040A14FF00609002F02DBB94528BFB946D9
:1048C0004D458CBFC9EB0505002514F0010405D149
:1048D00040462946FFF700FD002865D1D8F8003092
:1048E000D8F8040051464A46984700285CD14E4407
:1048F0003EE052EA030E0ED002F00F0E10F80EE06A
:104900004FEA131C01F801ED4FEA121E4EEA037E36
:1049100072466346EDE70B467F1A01BF302201273E
:1049200001F1FF3301F8012C03377822BD4203F86F
:10493000012C4FF0300203F8022C88BFED1B4FF022
:10494000230298BF002514F00104A3F1030903F822
:10495000032C04D140462946FFF7BEFC20BBD8F803
:104960000030D8F8040049463A469847E0B93E443A
:1049700024B140462946FFF7AFFCA8B92E44CCE449
:10498000079B012D03F104021B688CBF05F1FF3565
:10499000002514F0010407928DF8203008D140461C
:1049A0002946FFF799FC10B14FF0FF301AE02E4472
:1049B000D8F80030D8F8040008A901229847002848
:1049C000F2D16F1C2CB140462946FFF785FC002828
:1049D000EAD13E44A1E4079B1A1D1B6807921E60A2
:1049E0009BE430460FB0BDE8F08F00BFD1DF200060
:1049F0000BE02000F8B50388064615462BB14A2B7C
:104A000015D0002303800320F8BD174807F0CBFE24
:104A100004462CB1201DA16807F04CFE2468F8E77D
:104A2000124B01221A704A2333800120F8BD8829D5
:104A3000FBD10D4807F0B7FE0446002CF3D0231D30
:104A40009D420ED10848214607F0B7FE084B626927
:104A50001F681A60A2691D460AB1E06990472F607D
:104A6000E1E72468E9E700BF40430020A4550020A7
:104A70004C43002010B5064B002406481C7007F07C
:104A80008FFE2146BDE81040034800F04DBA00BF3C
:104A9000A4550020404300207840002070B5044613
:104AA000E3610B4B049D1B786561A26143B1094D25
:104AB000094B2E68201D2B6007F0FCFD2E6000E0E6
:104AC000A1602146BDE87040044807F08ABE00BFDF
:104AD000A45500204C430020784000204043002093
:104AE00013B5034C24680094FFF7D8FF02B010BD43
:104AF0004C43002070B5094B05461B783BB1084C70
:104B0000084B26680430236007F0DDFD2660294647
:104B1000BDE87040044807F064BE00BFA455002003
:104B20004C430020784000204043002070B5094BE2
:104B300005461B783BB1084C084B266804302360BF
:104B400007F0CAFD26602946BDE87040044807F01A
:104B500048BE00BFA45500204C43002078400020F0
:104B60004043002010B5084B04461B781BB10430AD
:104B700000F0B8F801E0C36003612146BDE81040D1
:104B8000024807F01ABE00BFA45500204043002091
:104B900010B50446FDF744FE94E80C001344C01A17
:104BA000024B98428CBF0020012010BDFEFFFF7F0A
:104BB00010B50E4C236813B90D4A136010BDFDF7F4
:104BC00025FE216891E80C001A44131A8A6842B144
:104BD00092E812002144091A8B4228BF0B469268C2
:104BE000F5E71844024B186010BD00BF4443002095
:104BF00048430020014800F0AFB900BF88400020C2
:104C0000F8B5038805462BB1592B09D00023038042
:104C10000320F8BD1E4A136059232B800120F8BDE4
:104C2000872920D08229F7D1194F00263C68002C13
:104C3000F2D0204607F07BFD90B1E0688821224643
:104C400000F04AF950B9E060A3680EB1B36000E02B
:104C50003B600023A360FFF7ABFFE5E7FFF7CAFF68
:104C60002646A468E3E70A490B680BB90B60D3E753
:104C7000D868904201D19B68F7E70B6099680029DA
:104C8000CAD0C86890420ABF89680B469960F5E7A8
:104C90004443002010B50446FFF7ACFFE3680B4A1D
:104CA0004BB113683BB1A34203D1094A1268DA60E1
:104CB00007E09B68F6E7064B1B68E3601368146027
:104CC000A360BDE81040FFF773BF00BF444300205E
:104CD0004C430020024B1868003018BF0120704779
:104CE0004443002010B50B4A04461368984206D18D
:104CF0008368136008E09A68A24203D01346002B31
:104D0000F9D103E0A2689A60FFF752FF0023A36085
:104D1000E36010BD4443002038B5836804460D4667
:104D20009BB10A4804600220A07304F10C0098476C
:104D30000238012801D9832D05D120462146BDE83E
:104D4000384000F005B80123A37338BD4C43002060
:104D50002DE9F8431C4A0446156889462B469046BF
:104D60001A4E3768A34204D00BB11B68FAE7BDE8BE
:104D7000F88334B3A37BABB10023A37345B1AC423A
:104D800004D028468721224607F0B7FC2D68F5E7B6
:104D9000A3683BB14C4505D0346004F10C0083217D
:104DA0002A469847D8F800309C4203D12268064B27
:104DB00005E0134623B11A68A242FAD122681A60AC
:104DC0003760BDE8F88300BF504300204C4300200B
:104DD00010B5094B00221A70084B1C685CB1E37BCC
:104DE0003BB101230022A373E27320468221FFF727
:104DF00093FF2468F2E710BDA75500205043002020
:104E0000024B1878421C1A70704700BFA85500204A
:104E1000064B8A221A70064A00231370054A137043
:104E2000054A1360054A1360704700BFA85500206B
:104E3000A5550020A6550020504300204C430020DB
:104E40002DE9F0411A4D2B780BB1FFF7C1FF194C3A
:104E500022783AB3184E0C213378184F59437818FA
:104E600017F8018001334768806803F01F03013A97
:104E70003370227068B9124B1E689EB12B780BB14B
:104E8000FFF7A6FF304641463A4607F036FC366843
:104E9000F3E7B8F1810F04BF0123837341463A461B
:104EA00007F02BFC2B7820781844BDE8F08100BF78
:104EB000A7550020A6550020A555002054430020EA
:104EC00050430020024A034B10781B781844704767
:104ED000A6550020A7550020F0B50B4E3378202BA7
:104EE0000FD00A4C0C252478094F1C4404F01F04F1
:104EF0006C4301333D19A86039556A603370002056
:104F0000F0BD0120F0BD00BFA6550020A555002032
:104F10005443002038B5034C256807F0EEFB2560AC
:104F200038BD00BF4C43002010B50A4609490C6843
:104F3000234683420DD00BB11B68FAE748B10460E9
:104F400008600121817383818121BDE81040FFF752
:104F5000E1BF10BD5043002038B1837B013B012BE2
:104F60009FBF024A0123C37313707047A7550020E7
:104F700010B5084C206858B100232360816843684D
:104F80009847236823B1BDE810401868FDF78CBC32
:104F900010BD00BFD444002038B505880446672DF5
:104FA00009D0792D2ED0002D32D1FFF729FF1B4BD0
:104FB00018701B4B1D601B4807F0E2FB431C01D11E
:104FC00067231DE00A28164B07D01A687E2AF2DCF8
:104FD000511C1960144B9854EDE7196800254A1CC0
:104FE0001A60114A0D4B555428461978FFF774FF83
:104FF0000E4B852118682A46FFF76EFF20B97923EA
:10500000238009E0852907D1054B00221A60D2E7E9
:1050100000230380032038BD012038BD0265002035
:10502000E0440020D84400202A5600204C430020B1
:105030000D2810B5014615D00B4C23782BB90B4821
:1050400007F08AFB48B9012306E00A2805D1074882
:1050500007F082FB08B1002323700548FFF77CFFAF
:10506000012010BD002010BDA9550020D84400200B
:105070009840002008B505480549802207F065FBE7
:10508000BDE8084003480021FFF74EBFD844002088
:10509000AA5500209840002070B505880446772D59
:1050A00030D07E2D3FD0002D4DD1FFF7A9FE294BEA
:1050B0001870294B1D601D462B68284A264E52F851
:1050C00023204AB126480021C15493688020984784
:1050D000336801333360EFE7224A1370772320E00F
:1050E0001F4AD256002A12DB1B4A13680133136091
:1050F000194B1C4A1B6812789342F1DB1A4B1B6850
:10510000002BEBD0184A00231360134AEFE7114A33
:1051100000201178114A52F82320FFF7DDFE30B944
:105120007E23238013E00B4B1B788B420FD10A4B5D
:105130000B491A688B5C03F07F038B540A4A13688F
:1051400001331360D0E700230380032070BD0120EA
:1051500070BD00BF03650020E444002040400020F3
:10516000FD640020AA560020E8440020094B1A786C
:105170000023934204DA084951F82310814207D1F1
:1051800006490748CA5C62F07F02CA54FFF7E4BED2
:105190000133EEE7AA56002040400020FD640020C5
:1051A000A8400020054A136843F004031360044B31
:1051B0001B68906943EA002080B2704700700D4080
:1051C00014700D40174A136823F00C031360164B3C
:1051D00001221A601A68012AFCD1144B08221A60B5
:1051E000E322C3F8142203F505731946104B1B681C
:1051F000DB07FBD5102000230E4A0138126802F0AD
:10520000010243EA02034FEA43039BB2F4D1002BAD
:10521000F0D0094A180A03F0FE0310601360EF2370
:105220000B60704700700D40A8200D402486084098
:10523000648608409C86084014700D402DE9FF41AB
:105240001F4C204D04F108030FCB8DE80F00297887
:105250006F4694F80780A1B13A23A3711A4B1A88BC
:10526000521A92B21A80A2F1280318122C3120711E
:10527000214404F12C002C3A637106F09FFE0023B8
:105280002B70124807F08FFA064690B1D6F804C08A
:10529000BCF1000F09D00C4B2A781B8838322C3B0C
:1052A0003846414622449BB2E047304607F0B8FA00
:1052B000EAE7054B2870188004B0BDE8F08100BF14
:1052C000005F0020CD560020EC5E0020EC44002062
:1052D000F8B52A4B2A4C1B7904F11806E371237E9A
:1052E00004F10805FF2B08D195E80F0086E80F00B0
:1052F0002846314600F0BEFA1BE02F46B646214A4A
:105300003B4603CB7345106051601F4602F1080213
:10531000F6D196E80F0085E80F001A4B1A4D03F1FD
:1053200010062A4618685968083303C2B342154666
:10533000F7D1164D297899B13A23A371144B1A88E5
:10534000521A92B21A80A2F1280318122C3120713D
:105350006371104821442C3A06F030FE00232B7074
:105360002B7881222833E518E25400236B706B8080
:1053700007F01FFBC0436880F8BD00BF805D0020C0
:10538000005F002042500020185F0020CD56002012
:10539000EC5E00202C5F002038B504460B480D461B
:1053A00007F001FA78B10379A34209D14379AB42FE
:1053B00004D183683BB19847002038BDFF2BF8D05B
:1053C00007F02EFAEEE7012038BD00BFF0440020C0
:1053D0000146014807F005BAF04400202DE9F74FD7
:1053E000484D81462B7888469246474C43B1283336
:1053F000E35C3A2B0BD1454A002313802B707EE0EF
:10540000A3793A2B03D194F92830002BF3DA03F077
:10541000EFFE3F4E3F4AB446934606F1100E334628
:1054200003CB7345106051601E4602F10802F6D1AD
:10543000364E2F78338804EB470030339BB2B3F5F8
:10544000A06F88BF4FF4A063338032882E4BD21BED
:105450001946303A3030CDF804C0009306F0AEFD66
:105460009DE80810602222700022627062803A2259
:1054700017B183F8282000E09A71274A224B12794D
:10548000E271228972B95A8962B99A8952B9DA8964
:1054900042B91A8A32B95A8A22B99A8A12B9DB8A6F
:1054A000002BA8D01D4B0FCB8CE80F009BF80030D1
:1054B000FF2B05D1B9F1040F9DD1B8F1020F9AD19C
:1054C0001449164800F0D6F92F78504607F1280302
:1054D000E21804F8039082F8018007F073FA338829
:1054E0002C37283BE0511A1263712B782271283334
:1054F0001C440023638007F05CFAC043608003B063
:10550000BDE8F08FCD560020005F0020EC5E00204B
:10551000185F002042500020805D0020085F0020BE
:105520002DE9F0411E460F461B4905460C466023F7
:105530000B7000234B704B803A238B71174B9046B6
:105540001B7900F1100ECB71331D1A120A714B71C9
:1055500001F11802134628686968083503C37545C8
:105560001A46F7D10E482C3600F1100100F082F9EE
:105570000C4B1B782833E518E75400236B8085F823
:10558000018007F016FAC043074B68801E80BDE813
:10559000F04102F051BE00BF005F0020805D00209E
:1055A000085F0020CD560020EC5E002008B50448BE
:1055B000FFF70EFFBDE808400248FFF709BF00BF34
:1055C000B8400020C44000202DE9F3410446154DA9
:1055D00000910E4690461F4601952346124803212E
:1055E000202207F076F901282B4616D12A6804F10B
:1055F0001001107020462A68023250F8044B88428D
:1056000042F8044BF9D11868089B86744361099BE2
:1056100080F813800777836100E0002002B0BDE8C6
:10562000F08100BFF84400207C5E002070B5064683
:105630000B4D0C4B2B602C680B4B9C420BD22378F0
:1056400033B1A27CA01C3146D20806F00FFC20B179
:1056500020342C60EFE7002070BD012070BD00BF3A
:10566000F84400207C5E0020DC5E002013B5084C6E
:10567000802203460092019406480321202207F06D
:1056800028F908B9206800E0002002B010BD00BF72
:10569000FC440020985D002010B50C4A0C4B1360B0
:1056A00013680C498B420DD2197849B1411C02D0C4
:1056B000997C814204D148F2FE015C888C4202D080
:1056C0002033ECE70023184610BD00BFFC44002047
:1056D000985D0020F85D002037B504460F4D80230B
:1056E0000093019523460E480521122207F0F1F898
:1056F00001282B460ED12A6804F1100110702046B3
:105700002A68023250F8044B884242F8044BF9D11F
:10571000186800E0002003B030BD00BFF444002052
:105720001C5E0020F7B50546204C802300930E46F2
:10573000174601941E48032120222B4607F0C9F882
:10574000012830D12A46236805F11001187023681A
:10575000023352F8040B8A4243F8040BF9D1206853
:10576000C77416B90123037505E00023037531469C
:10577000183006F098FF23680E480121997402231F
:105780004370FF220023027043808380C380038123
:105790008372C17202736B7B4373EB89C381FFF722
:1057A0009BFF206800E0002003B0F0BDFC44002017
:1057B000985D00205250002013B5084C802203460B
:1057C0000092019406480521122207F082F808B9D8
:1057D000206800E0002002B010BD00BFF4440020AB
:1057E0001C5E002038B50546C8B10D4802220024D1
:1057F0004270FF230122C27244808480C4800481ED
:10580000847203730370EB7B43732B8AC381FFF7AE
:10581000D3FF044A106008B107F07FF82C7038BD40
:1058200052500020F444002010B50E4B0E4C236063
:1058300020680E4B98420ED203784BB1037D3BB9E2
:105840001830FFF7A5F918B1074B1868FFF7CAFF22
:1058500023682033EBE700F0E9FABDE81040044884
:1058600006F031BF985D0020FC440020F85D002068
:10587000DC5E00202DE9F84348F2FE030A88054665
:105880009A42884621D00B78FF2B1ED01B4B002458
:10589000A1461F461A4A1A603E681A4A964218D212
:1058A00033787BB1B37C012B0CD148F2FE037288B4
:1058B0009A4207D04046B11C07F03CF8484524BF47
:1058C0003446814620363E60E6E70120FFF7E4FEDD
:1058D00004464CB92C806C80AC80EC802C816C81AF
:1058E000AC81EC81BDE8F883A31C123453F8042B7F
:1058F000A34245F8042BF9D1BDE8F883FC4400200D
:10590000985D0020F85D002010B5FFF74BFC0446C1
:10591000FFF748FC054B24029A68A4B22044B0FB70
:10592000F2F302FB130000EB520010BD805D00207B
:1059300073B52F4C01F0A6FA00F08EF8002160221A
:105940002C4806F09FFB00212046F82206F09AFB27
:10595000294B20221A70294B18221A704FF4A06389
:105960002360274B40262671A360FFF7CDFF42F24C
:105970001073236148F2FE03314640F2FF260025F2
:10598000E06025751F4C2A46238065802B46A58044
:10599000E580204600950195FFF716FE20461A493E
:1059A00006F0BFFF294601222046FFF7BBFE4FF459
:1059B00080732046E38126806580A580E58025816F
:1059C0006581A581FFF788FE4FF40073204626808D
:1059D0006580A580E58025816581A581E381FFF74C
:1059E0007BFE0A480C2102B0BDE8704006F062BEA2
:1059F000805D00207C5E0020795E0020785E0020C3
:105A0000C027090052500020F85E0020DC5E002014
:105A10002DE9F04105460D480F46904606F0C3FEBD
:105A2000044688B1012D04D8094806F0F2FE034669
:105A300001E0084B1B682846666839464246B04775
:105A4000204606F0EDFEEBE7BDE8F081CC480020F3
:105A5000444500204045002008B50B4806F0E3FE11
:105A60000A4806F09DFE0A4B0A49186804F078FAC5
:105A7000094806F0D8FE094806F092FEBDE8084045
:105A8000074806F08DBE00BFF0400020C84500204A
:105A9000EC40002077C92000D04000204445002081
:105AA000CC48002008B5034640B1054A5968106843
:105AB00007F051FEBDE8084006F08EBF08BD00BFEC
:105AC000EC400020014806F06EBE00BFC845002033
:105AD00008B506F083FF014638B1044B186807F09B
:105AE00021FE003018BF012008BD08BDEC40002099
:105AF0002DE9F0418046FFF7E5FF002604463746D2
:105B00009CB194F82450B5420AD3404604F10801F0
:105B1000EA0806F0ABF918B9802D08D02E462746C2
:105B2000204606F024FF0446EAE73C4667B10848F1
:105B300006F039FE844207D00548214606F03DFEB6
:105B40000348214606F05CFE2046BDE8F08100BF18
:105B5000C845002038B5044600283ED04368002BD5
:105B60003BD01E48214606F028FE6368586806F0C0
:105B70001AFE054630B14368A34207D0284606F016
:105B80004FFEF6E704F1080002F0F6F963682946D3
:105B9000586806F012FE6368586806F004FE28B9DB
:105BA00063680F4A5968106804F092FA21460D485C
:105BB00006F05DFE29460C4806F059FE0B4A2046C9
:105BC0001368013B1360FFF76DFF04F10801024603
:105BD000BDE838400320FFF71BBF38BDC845002093
:105BE000EC400020F0400020FC4000204045002018
:105BF00010B5044680B1406870B106F0D4FD20B104
:105C00004068FFF7A7FF6068F7E7044B2146BDE84F
:105C10001040186804F05CBA10BD00BFEC400020D2
:105C20002DE9F84F074610468946904606F0D6FE05
:105C3000834610B90020BDE8F88F3846FFF758FFBB
:105C4000044660B1FFF72EFF014628B140461022FE
:105C500006F00CF9002859D02046FFF77BFF2D4BAA
:105C60001A689A46102AE5D02B4E5946306807F03C
:105C700059FD054668B92B4630685946042204F0A0
:105C80009DF905460028D5D000236860036006F022
:105C900087FD224806F0D7FD04460028CAD02048D8
:105CA000214606F0ADFD1F4806F0CDFD834620B924
:105CB00021461A4806F0DBFDBCE744606868594697
:105CC00006F08FFDDAF80030656001333068294650
:105CD000CAF8003004F012FA3B4604F1080507F157
:105CE00010062A4618685968083303C2B34215469D
:105CF000F7D100210C2284F8249004F1180006F05A
:105D0000C1F9022039464246FFF782FE2046BDE82F
:105D1000F88F00BF40450020EC400020F0400020FC
:105D2000C8450020FC40002038B505460D4806F067
:105D30003AFD0446A0B1AC420ED12146094806F016
:105D40003CFD2146084806F092FD211D01200A462F
:105D5000BDE83840FFF75CBE204606F061FDE8E78D
:105D600038BD00BF44450020D040002038B505466E
:105D7000084806F018FD044648B1201D29461022A7
:105D800006F074F818B1204606F04AFDF3E7204605
:105D900038BD00BF44450020F8B505460F46FFF763
:105DA000E5FF044640B9134806F04DFD0446F0B146
:105DB0001148214606F024FD2B46261D05F1100E44
:105DC000324618685968083303C273451646F7D13E
:105DD00037B104F11400394606F065FC002300E0F9
:105DE00001232377002029462A46FFF711FE20468B
:105DF000F8BD00BFD04000204445002038B50A4817
:105E000006F0D1FC044600255CB1251D284601F0B2
:105E10006DF808B1437C23B9204606F001FD044625
:105E2000F2E7284638BD00BF4445002010B50A48B7
:105E300006F0B9FC044670B1237F43B904F11400A5
:105E4000FEF7A6FE18B12046FFF76EFFEFE72046EB
:105E500006F0E6FCEEE710BD4445002037B5124BD6
:105E6000124D1C782B796A79C4EB032313449BB23F
:105E7000ADF80630BDF8063005F1080118442022BF
:105E800080B206F07AFDBDF8062004F1280129440D
:105E900092B206F072FD10B140BA80B201E04FF646
:105EA000FF7003B030BD00BFCD560020005F002062
:105EB0002DE9F041264F274E3D7827482835AB196C
:105EC0005C780223E40007349C423DDBE918721839
:105ED000715CDFF88080012931D002D3632902D0C0
:105EE00011E001332EE0037018461B4C03F000F95B
:105EF000D0B13B7822782833134443445B78134471
:105F00000233237021E001F0C001802905D0C029AF
:105F100005D0402913D1037006E0037007E098F81C
:105F200018200370FF2A02D10120BDE8F08104206F
:105F30000221EA18FFF752FA0220BDE8F0815278F8
:105F400002321344DBB2BFE703700020BDE8F081EA
:105F5000CD560020005F0020D3560020F0B5C57854
:105F6000124A0D44EDB2D57083780F0A3B44DBB280
:105F700093704478BB4254700678167005D2601C4A
:105F8000C0B2507008B901361670C9B28D420CDA31
:105F90000133DBB2054993703BB94B780133DBB277
:105FA0004B7013B90B7801330B70F0BDF45E002019
:105FB00010B5084C014620681430FFF7CFFF064AA1
:105FC000236811781975517859759178D278997537
:105FD000DA7510BD10600020F45E002008B5FFF7F0
:105FE000A7FCFFF7E3FA06F002FD00230E490022AA
:105FF00021F813200133082BF8D10C490023114458
:106000003032B2F5F07F81F82530F6D1084A4FF4EE
:1060100080611180074A00211A442033B3F5A07F24
:106020001182F7D108BD00BFFC6100201460002080
:1060300062500020106200202DE9F041124F3D789F
:1060400005B3DFF84C8005F12703B8F80040A34200
:1060500003DB0023A8F8003013E00C4EA4F1280263
:1060600005F12801641BA4B206F128003144521B3B
:1060700005F0A4FFA8F80040283C23123371747186
:1060800000233B70BDE8F081CD560020005F00206A
:10609000EC5E00200023064A32F81310814203D13F
:1060A000002122F8131070470133082BF3D17047F9
:1060B000FC6100200023054A32F8131011B922F8C0
:1060C000130070470133082BF5D17047FC610020A5
:1060D0002DE9F74FA24E04283468A24F00F06F82DA
:1060E000A149A24DA24A03280D6015608A4615D128
:1060F00094F8253003F00F03032B08D1A38B002B5A
:1061000040F074869B4B08221A7000F065BD022B8C
:1061100040F06C86002305F8073CB3E302287AD1EF
:10612000954A00231370954A3B801380944AD37894
:106130000133DBB2D37063B993780133DBB2937070
:106140003BB953780133DBB2537013B91378013381
:10615000137094F8253003F0FD02052A0DD194F850
:1061600026300133DBB2782B84F8263040F03E86AF
:10617000002384F8253000F039BE002B00F036866D
:10618000A28B7C48002A3DD094F82620511E84F82A
:106190002610002A40F02A8694F82720082A04D0E6
:1061A000591E01290AD8052A08D1002384F8253070
:1061B0008023037002F08CF900F01CBD042A9CBF00
:1061C0000321914003F00F0394BFC9B23021013283
:1061D000013B84F8261084F82720072B00F206865E
:1061E000DFE813F04C0308000A00C3040406C304EC
:1061F0000406C304002242E30423037002F068F99A
:1062000000F024BD03F00F03032B40F0EF850823BB
:10621000037000F0E1BC052811D15A4B1B681B8AA2
:10622000002B00F0E3850C3D1560544A00231380D9
:1062300033603B804F4B08220D601A70BDE115F8AA
:106240003C3C3C3D03F0F003602B40F0CF852B79C4
:106250006A791B0239889818884200F3C78528326A
:1062600013443B802B7AFF2B00F0C085464EAB1DBC
:106270003360464C404B00221A702270AA7998462F
:10628000BAB901232370FFF713FE012800F0AE8591
:1062900003D3022800F0A6850BE098F8003003F144
:1062A00028022A4432605278083303EBC20388F88C
:1062B00000303748FFF7DAF9002840F0B280344860
:1062C000FFF77AFA002840F0AC802A7E304BFF2A94
:1062D000A3F1180360D048F2FE00198B81425BD015
:1062E0001989814258D079B9598969B9998959B9B7
:1062F000D98949B91B8A3BB9698A264B21B9998A40
:1063000011B9DB8A002B47D0298B224B79B9598BE5
:1063100069B9998B59B9D98B49B9198C39B9598C43
:1063200029B9998C19B9DB8CB3F5807F34D03B88BF
:10633000B3F5A06F04D9022000214FF4A06205E05C
:10634000EB79012B06D800210A460320FFF746F817
:1063500000F048BD0F4A013BD37100F043BD00BFC0
:1063600010600020EC5E00200C6000203C5F0020EC
:10637000F05E002000600020CD5600200C6200205E
:10638000CF5600200860002004600020CE56002078
:10639000185F0020005F002048F2FE03298999421F
:1063A00040F02485298BA14B81B9598B71B9998B08
:1063B00061B9D98B51B9198C41B9598C31B9998CC2
:1063C00021B9DB8CB3F5807F00F01085FF2A00F047
:1063D0000D859748FFF72AF90246002840F0068508
:1063E00001200221B2E725D9B9F13A0F78D02CD992
:1063F000B9F13B0F00F0FA84B9F13C0F6CD123786E
:106400008C4998073BD5580666D443F040030B707F
:10641000FFF74EFD012800F0E98433D3022800F095
:10642000E1843268DFF83CB292F80090B9F12B0FAA
:10643000D9D134E0B9F1060F00F01681B9F1110F8E
:106440006FD0B9F1000F47D104E0B9F12C0F00F083
:10645000CD8441E02378D9073ED4764A43F0010346
:106460001370FFF725FD012800F0C084D6D298F8FC
:10647000003003F128022A44CBF8002008E043F062
:106480000203C4E798F8003003F128022A4432607E
:106490005278083303EBC20388F80030C1E7237851
:1064A00003F0040000F0FF01B0B9624A43F00403B6
:1064B000137098F8002002F128032B44D87810B10B
:1064C00004202A3242E7CBF800305B78083202EB36
:1064D000C302594B1A70A4E704200121521B35E76F
:1064E00006F067FA4FF6FF73984240F07F8498F801
:1064F00000302833E85C01F079FE98F8003028334A
:10650000EA18E85C5178FEF747FF012801BF002335
:10651000494A3B8013703B88002B00F0678400F0F1
:1065200061BCFFF789FDEB8D85F8069053B96E8D40
:10653000002E00F05B84414B414D2B603B4BB3F888
:1065400028800BE006F03BFA4FF6FF73984240F0CC
:106550004D84ECE7238A33B920342C602C68394B06
:106560009C42F7D315E09E42F6D1638A0BB1984561
:10657000F2D123682BB963681BB9A3680BB9E36830
:106580005BB131482146102205F070FC0028E3D1B0
:1065900003E0012004210022D8E63B882B49303B50
:1065A0003B8000230B602A4902202A4A08702A49AE
:1065B000CAF800200A60294A138001F089FF274B9E
:1065C0001A88002A00F0128402F13003174C9BB2A3
:1065D0003B80283B19126371194B08321B6852BA71
:1065E0002171197DA2850022E2851A8AE171228536
:1065F0005A8A11216285A17104F118050FCB85E833
:106600000F0004F108002946FFF734F9144B04F198
:106610003C021A6006F0D3F9C04380B208B1E085AD
:10662000DAE34FF6FF73E385D6E300BF005F002097
:10663000185F0020CE560020CD56002010620020AA
:106640000860002050630020085F002010600020D8
:1066500000600020305F0020F05E00200C6200200F
:106660000C60002004600020FFF7E6FC85F806902F
:1066700006F0A2F94FF6FF739842AE4C40F0B68395
:10668000B4F82AB0BBF1000F00F0B083238D002BCB
:1066900000F0AC83A84EB44696F82590B9F1000FEF
:1066A00011D0328A5A450ED1728A9A420BD1A34830
:1066B000314610228DE8081005F0D8FB9DE808103F
:1066C000002800F0F5809E4A30369642E4D195F8D5
:1066D000352002F03F02022A08D10022994931F800
:1066E0001210594550D00132082AF7D195F83520BB
:1066F000904B520700F17A83142283F835203C2214
:106700003A80502283F8342093F8332093F83140B4
:1067100093F82F0083F82F2093F8322093F82E104F
:1067200093F8306083F82E20013093F82D2083F801
:106730002D4093F82C40C0B283F8321083F83120FA
:1067400083F82C6083F8304083F8330060B901315E
:10675000C9B283F8321039B90132D2B283F831208C
:1067600012B9621C83F830202B8D6A8D734C2A85F8
:106770006B8504F1100594E80F0085E80F002046B2
:106780002946FFF777F812E3002421466A4A92F877
:10679000250018B9302404FB01C413E0072809D1EF
:1067A0003CB192F8266094F82600864288BF1446D1
:1067B00000E0144601310A2902F13002E7D1002C31
:1067C00000F01483604A638214605C4B032284F8F7
:1067D000262084F82420042284F823200FCB84E888
:1067E0000F005A4B01201A78002622765A7884F836
:1067F000250062769A78DB78A276E37695F82C30DD
:10680000A083237595F82D3084F82260637595F880
:106810002E3084F82760A37595F82F30A4F810B0B7
:10682000E375FFF7C5FB95F8343003F0F002502A0A
:1068300024D91A093346053A9200E91891F83C0028
:10684000E0B1012801D1013316E002280FD191F8FF
:106850003D0004280BD191F83E2091F83F3043EAE7
:106860000223402B28BF4023E383238406E0E9185A
:1068700091F83D1011B10B449342DEDB10222D4BF9
:1068800083F835202B4B93F8352042F0020283F831
:106890003520022283F83C20042283F83D20002288
:1068A00083F83E20402283F83F203A80602242E273
:1068B000254B95F835101E60254B11F0040F34461A
:1068C00018709B4603D086F825002022E1E13B8822
:1068D00009F00F09A3F12802164BB9F1020F93F842
:1068E00034304FEA1313A2EB83039BB23B8003D1F6
:1068F00001F03F02122A05E0B9F1010F03D101F0C6
:106900003F02022A26D00BB98B0723D0AA8DB38A67
:106910009A4204D1074BDA8DF38A9A421AD088073B
:1069200040F10282B9F1010FA8D0B9F1020F40F095
:10693000FB81A7E7005F002014600020085F0020B3
:10694000F4610020FC61002010600020CF56002080
:1069500000600020C90654D5B18B002951D006F142
:106960001800FFF7FBFAB24B95F8301093F800E0EF
:10697000B04A8E4545D192F8311093F801C08C454C
:106980003FD192F83200997881423AD192F833207F
:10699000DB78934235D1F37696F8273086F818E005
:1069A00086F819C0B1761BBB96F8243096F82610ED
:1069B00096F82200591AA1EBD001C9B25FFA81FE04
:1069C0001EF0800F96F82330084418BF4942A3EB0D
:1069D000930318BF5FFA81FE03EB0E02C0B2D3B27D
:1069E00086F8233003EBD00386F8220086F82430A3
:1069F000914B01221A7096F8243086F82630002335
:106A0000B38396F82510DFF8309201F00F03013BB5
:106A1000072B00F2EB81DFE813F00800250083006C
:106A2000400162017C018701320199F80020824B0C
:106A3000D2070FD5032286F82520388840221A7005
:106A40000022B283002800F0C48042221A70FFF7AF
:106A5000AFFABEE095F8353003F03F03022B40F06B
:106A6000C5810BE799F80030DB074ED595F8353036
:106A700003F03F03122B48D16E4B93F8343003F0F0
:106A8000F002502A24D91B09053B9B0000202A183C
:106A900092F83C10E1B1012901D1013016E0022940
:106AA0000FD192F83D1004290BD192F83E1092F8C4
:106AB0003F3043EA0123402B28BF4023F383338434
:106AC00006E02A1892F83D2012B110449842DEDB0D
:106AD000032386F8253095F82C300120337595F87E
:106AE0002D30737595F82E30B37595F82F30F375FA
:106AF000FFF75EFA4223514A8BF800300023B3833C
:106B00003B8088F80030138066E020238BF800304B
:106B100001F0DEFC4A4B00221B6883F82520E5E5E6
:106B200095F83530D80725D5CA0623D4B38B002B6A
:106B300040F05C813888013080B2FFF739FA9BF869
:106B4000003043F010028BF800203A881AB13A4A1C
:106B500043F01203137001F0BBFC0123B38308233D
:106B600086F82530002386F827301122314B83F830
:106B70003520DCE098060DD595F83A2095F83B30A5
:106B800043EA0223DAF800201A44CAF800203A88BF
:106B9000D31A3B80388848B1CA0607D499F8003028
:106BA00043F0020389F80030FFF702FA95F8362027
:106BB00095F8373003EB0223328C9BB2934202D814
:106BC000002B18BF1A4699F80030F2839B0700F09B
:106BD0000D811A4B00221A8001F07AFC164B1A78AC
:106BE000164B02F0200000F0FF0128B100221A80AD
:106BF00084F825201422B9E702F0100000F0FF0508
:106C000040B119800123A383042384F8253084F83C
:106C10002710AAE71988B1B1D60748BFA583A28B70
:106C200082B9E28B914288BF1A801B88A3830AE055
:106C3000F45E0020005F0020006000200C62002055
:106C4000106000201A80002384F827306D4B1B68E9
:106C5000CAF800306C4B1B882BB1A38B1BB13C33A3
:106C60003B80182207E0694B1B789D0740F1BE80EE
:106C70003C233B801022664B83F8352059E099F87D
:106C80000030DC0740F1B280002386F825305F4BEE
:106C900010221A7001F01CFCA8E0388808B1FFF738
:106CA00087F995F8353013F001030FD099F80030CB
:106CB000D80745BF072386F825300623002346BFA3
:106CC00086F82630B38386F8253016E099F8002040
:106CD000D1071BD5052286F82520B38386E03888A6
:106CE00008B1FFF765F995F83530DA070ED50723B7
:106CF00086F82530002386F826300120FFF758F962
:106D0000102389F8003001F0E3FB0DE03B885BB90C
:106D10006CE099F80030DB0768D5072386F825304A
:106D2000002386F8263061E0102385F835303C23B7
:106D30003B80374B502283F83420237D344D85F837
:106D40003030637D05F1180685F83130A37D85F874
:106D50003230E37D85F83330237E85F82C30637E36
:106D600085F82D30A37E85F82E30E37E85F82F3010
:106D7000238A2B85638A6B8594E80F0086E80F00D1
:106D800005F108003146FEF775FD94F8253003F053
:106D9000100303F0FF022BB1002385F8373085F88C
:106DA000363004E03C2385F8362085F83730184C1F
:106DB0000623A371174B1B79E3713B88283B1A12FA
:106DC00063710023227184F83B3084F83A302387C2
:106DD00005F0F2FDC04320870D4B60221A7000229F
:106DE0005A705A80094B00221A7007E00A4A0023A1
:106DF00013700A4A3B801370044A137003B0BDE855
:106E0000F08F00BFF05E00200C62002000600020C8
:106E1000005F0020805D0020CD560020CE5600206F
:106E20000C4A0346106828B10B4A121A9142A8BFB7
:106E3000114602E0C429A8BFC421002909DD074A80
:106E40008342118005D08AB200B90548194605F081
:106E50003FB87047F05E0020006000200C62002008
:106E60003C5F002010B5044640B102F093FA044B99
:106E70002146BDE81040186803F02AB910BD00BFD4
:106E80000841002008B503F003FB034B03491868D1
:106E9000BDE8084003F064B808410020656E20009A
:106EA00070B51E460C4B04469DF810201868059BD3
:106EB00003F084F8054668B120462B4604F1100221
:106EC00050F8041B904243F8041BF9D16E74284615
:106ED00002F060FA284670BD08410020024B0146CE
:106EE000186806F038BC00BF0841002070B50C4D92
:106EF0000646286803F048F8044666B9002070BDCD
:106F000020463146102204F0B1FF38B121462868EE
:106F100006F0E9FB0446002CF2D1EFE7204670BDF5
:106F200008410020024B0146186806F0FBBB00BF79
:106F30000841002070B5054613200C4603F0FEF909
:106F40000849064606F01CFC58B930462946224638
:106F500003F03CFA304629462246BDE8704002F074
:106F6000EFB970BDA9E020000C4AB82303FB002252
:106F7000002330B553821A46094CE1188D782DB1A3
:106F80001C5D844202BF00248C70013240F24C51DF
:106F900071338B42F0D1104630BD00BFEC48002069
:106FA000DF56002008B5064801F0FEF8054B012227
:106FB0001A70FD2100225A709970DA7008BD00BF66
:106FC0000D722000D556002010B513780446087ABB
:106FD00083F0020398421DD1487A5378984219D120
:106FE000887A9378984215D1C87AD378984211D18B
:106FF000087B137998420DD1487B5379984209D187
:10700000887B9379984205D1C87BD379984201D186
:1070100003201BE00B890F4A6BB94B89B3F57F4FF7
:1070200009D18B89FE2B06D11368C989022023F868
:10703000021B13600AE0136851F8080F083343F885
:10704000080C486843F8040C13600120A040C0B24B
:1070500010BD00BFD848002010B50F4C0220A17908
:1070600003F052F9A379112B01D0062B05D1238D02
:10707000618D9942A8BF194608E03A2B05BF94F8E4
:10708000281094F82930002143EA01210120BDE8AD
:10709000104003F039B900BF005F002010B5084C64
:1070A00001462378012B08D1A01C082204F0DEFE43
:1070B00000280CBF2046002010BD002010BD00BFDE
:1070C000D556002008B50146132003F02BF9044BD8
:1070D00004489B6800219847BDE80840FBF75EBD67
:1070E00008DE2000E970200010B508460C46114665
:1070F000FFF720FF044B1B6813B19B68204698479D
:10710000024B1C6010BD00BFE8480020E44800208E
:10711000F8B505460023114A712404FB0324A27824
:10712000B2B9617003F01EF826460D4F0D4A3B7848
:1071300006F8035BC01A1568A0701D4403F012F82E
:107140003A782946821A304604F0C2FEA078F8BD8B
:1071500001330C2BDFD14FF0FF30F8BDDF5600209C
:107160002B5C0020DC4800202DE9F8434FEA12197F
:10717000B9F10F0F80461D4602F00F040BD00F2C03
:1071800005D1B9F1000F0AD11024274619E0B9F151
:10719000000F09D004E00F2C4FF0100900D110248B
:1071A00040464A4604F094FE09EB04020F2A2746A3
:1071B00006DC08EB09000021C2F1100204F062FFB6
:1071C000BCB1114DC7F110002E6840443146224633
:1071D00004F07EFE022C08D1B9F10A0F9FBFFF23F5
:1071E00088F80B30FE2388F80C3034442C60BDE85E
:1071F000F883B9F1000F05D040462946BDE8F843B1
:1072000005F08FBBBDE8F883D84800202DE9F04F8A
:107210008E4E8F4D002387B033702B70044603F0E1
:107220001DF802F0B1FF8B4A8B4B126818608DE895
:10723000600099460AB1FFF70FFF04A80CB987490F
:1072400000E0214606F097FA854B864E1A88039394
:107250003E2A40F20182D9F800B0834D0BF10203BF
:107260002B60009B06F1180093F80080002308F1C2
:1072700002080BF80830FFF711FF20B906F10800EB
:10728000FFF70CFF20B10BF103032B60802400E01B
:10729000044672783178130943EA0113DBB2980887
:1072A00040EA8313DBB212F00F0FDEB26E4F01F033
:1072B0000F010CD16B48408848B911B912F0F00F9A
:1072C0001FD03B6803F8016B3B6070261AE079B968
:1072D00012F0F00F0CD1296823F03F031A43634BDF
:1072E0000A701B88033121F8023C6826296009E0F6
:1072F0005C4A2B681068186003F8046B2B606026EA
:1073000000E07826574B9A790293112A08BF46F07D
:10731000040673075EBF3B6803F8012B3B60029BCA
:10732000DB79402B06D0FF2B07D0012B08D146F08C
:10733000010609E046F0020606E046F0030603E017
:107340003A6802F8013B3A60029A464B128982B9C8
:107350005A8972B99A8962B9DA8952B91A8A42B9D4
:107360005A8A32B99A8A22B9DB8A13B944F04000AA
:1073700013E03F48FFF792FE3E4B186078B1427829
:107380001BF80830042043EA02130BF80830384990
:10739000394AFFF719FE60F03F00C4B227E0029BB4
:1073A00030491A8948F2FE039A420CD14B8B53B9EB
:1073B0008B8B43B9CB8B33B9042008312E4AFFF7AE
:1073C00003FE2043E9E73A68DFF8A4C096460CF1D3
:1073D000100A634603CB5345CEF80000CEF80410E4
:1073E0009C460EF1080EF4D11F4B10321A60DFF8E4
:1073F00074A09AF81830FF2B40F08A809AF8192070
:1074000044F0080E022A5FFA8EFE37D1BAF81A301D
:10741000A3BBBAF81C308BBBBAF81E3073BBBAF8EA
:1074200020305BBBBAF8223043BBBAF824302BBB08
:107430009AF8263013BB3B689AF8272044F00B00DB
:1074400003F8012BC4B23B609FE000BFD45600207C
:107450002B5C0020E8480020DC480020A9E0200048
:10746000EC5E0020005F0020D8480020025F002072
:10747000085F0020D0480020F85E00209A4B588B0F
:10748000194688BB988B78BBD88BA8B9188C98B94B
:10749000588C88B993F8240070B9296844F00A0020
:1074A000C4B2084600F8012B33F8252F043121F827
:1074B000032C9B78837015E0C98B8B4BA1B9198C79
:1074C00091B993F8221079B9296844F00900C4B23F
:1074D000084600F8012B53F8232F063141F8052CFC
:1074E0001B790371296050E0804ADFF814C21468E8
:1074F0000CF110082746634603CB4345386079609A
:107500009C4607F10807F6D11034146074463CE03D
:107510000AF11800FFF7C2FD754B186050B14378AF
:107520001BF8081044F004040B43E4B20BF80830D5
:1075300000200EE048F2FE03BAF818209A4210D15B
:10754000BAF81A306BB9BAF81C3053B9BAF81E3011
:107550003BB90AF1180104AAFFF736FD2043C4B273
:1075600013E0624ADFF898C117680CF11008BE46B4
:10757000634603CB4345CEF80000CEF804109C468A
:107580000EF1080EF4D110371760019A56492823DE
:1075900013708B79112B53D14FF2B0030A8D52BA6D
:1075A00092B222F00F0080B2984217D14B8D5BBA95
:1075B00023F00F031B041B0C83420FD12868F32315
:1075C00003704B8D02301A0A0B8D1B0A02EB03135A
:1075D00003F5AA6300F8013C286028E0029B4249B9
:1075E0005B8D5BBA03F47F43B3F5704F09D12B6811
:1075F000F1221A700A8DA3F801204A8D120ADA705E
:107600000CE002F47F42B2F5704F2B6808D1F222F1
:107610001A700A8D120A5A704A8D5A80043305E096
:10762000F0221A70886A053343F8040C2B60314B42
:107630001A882B6823F8022B019A2B6030231370D1
:10764000009BD9F800201B78D65413445C70274B5C
:107650001B689B1A009A1AE0D9F800204123137086
:10766000009B06F128051C78631CDBB213443246EC
:1076700003CAAA4218605960164603F10803F6D1FE
:10768000009B29341C70019B019A1B7828331370CE
:1076900004A9132002F046FE174BDFF868801B6830
:1076A000984730EA200028BF1520039BC0F17D05D4
:1076B0001C88019BDFF850A01E78009BA21B93F84A
:1076C00000B00E4FCBEB05039A4240F3CC80C0F1E3
:1076D0007803019302F06EFB019B94FBF3F40134F9
:1076E000A04213DC0020D0E0005F0020D84800203A
:1076F000D04800202E5F002018DE20002B5C0020E8
:10770000185F0020EC5E0020D4560020D9F800B0AD
:107710005F4B3C7800221A60594622460BF1040068
:10772000039304F04BFCB8F800205A496FEA8242F8
:107730006FEA9242C2F307228BF80020B8F80020CB
:1077400004348BF801200A88E4B2501C0880110A26
:10775000DFF850C18BF802102D1B9AF8001025F0AD
:1077600007054D4E61448BF803200BEB04002A46BD
:10777000CDF808C03C70356004F0AAFB281980B22F
:1077800002F0E6FC02F01CFB039B04461D460028A9
:10779000A8D00DF1100B5846FFF794FC204602F0DC
:1077A00047FB204602F02EFB2B68012B9AD0043BAE
:1077B000012B97D99AF800A0336853441FFA83FA33
:1077C00005233B70354B1A68B8F800306FEAC343A5
:1077D0006FEAD343C3F307231370B8F80030537034
:1077E000019B23F0070737602D4B1B889A454BD22E
:1077F000D9F800204FEADA0111713268CAEB0303AD
:107800009342B8BF244AD9F80000B8BF1360009B68
:10781000376893F80080029B3A4603EB0A01404424
:1078200004F056FB08EB070080B202F091FC02F076
:10783000C7FA074600283FF455AF5846FFF742FC09
:10784000384602F0F5FA384602F0DCFA124B1B68B3
:107850009A442B681FFA8AFA012B3FF443AF043B8A
:10786000012BC1D83EE7D9F800000E4958443144F5
:1078700004F02EFBB8F800005844801B80B202F0E0
:1078800067FC04A8FFF71EFC012007B0BDE8F08FDD
:10789000E448002084510020E0480020DC4800201B
:1078A000EC5E0020005F00202DE9F0470746884687
:1078B0001646002A47D0434C0025A146238ABB42E6
:1078C00015D1638A9BB1122002F038FD0146204693
:1078D00005F056FF58B1ECB220463146FFF718FCD0
:1078E000002827DA0027DFF8E0A0B8460DE0B8341A
:1078F000002D5DD10125E1E7A8450BD10AF1B80AB9
:10790000B8F1000F10D14FF001083AF8063C002BF7
:10791000F4D0F1E7504604F00AFF0028EED04046CC
:10792000FFF722FB0744E9E7002F41DD20463146FF
:10793000FFF7EEFB00283BDDB82303FB0595AB8A80
:107940001844A8823AE0204DFF2435F8063C4FFA4F
:1079500084F97BB3284604F0EAFE10B13046FFF705
:1079600003FBB9F1FF3F03D135F8063C03B9F4B28C
:10797000012E05F1B80501D00126E6E765B26B1CC2
:1079800016D0B8235D43DFF83C90122009EB0506C2
:10799000A6F81280378202F0D1FC0146304605F08D
:1079A000EAFE05F118004844402104F0AEFE05E06F
:1079B000FF2403E0B9F1FF3FDAD1D8E760B2BDE8B8
:1079C000F08700BFEC480020044900202DE9F04F6B
:1079D000122087B0A54CDFF8CCA202F0AFFC002645
:1079E00002F030FD8AF80060267002F0CDFBA04D59
:1079F000A0462860042002F08FFC9E4B2A6800B24B
:107A000018605778137847EA032703F0F803C02B70
:107A100002D0E02B19D03AE090782378D278C7F3DF
:107A20000A07043342EA0020394632462370FFF742
:107A30003BFFB0F1FF3F814600F07F828E4CB823C0
:107A400003FB00440126223424E01379D178907896
:107A50002278C7F30A070532227041EA00201A464D
:107A600039460093FFF720FFB0F1FF3F814600F059
:107A700064828149B82202FB0012958A4FF0010B03
:107A8000BD4234BF002501253446009BDFE1B146ED
:107A90004F467A4C296898F800504A5D02F0E0039E
:107AA000602B40F0B681A81C084429444D78744BE3
:107AB0005FFA85FC1CF0800F18601CBF0130186055
:107AC00012F0100F02F0080130D1D1B9196831F865
:107AD000010FA4F801008978E170196811F8040B0E
