:020000040020DA
:10200000106D00208D222000ABC22000A9C220004C
:10201000A9C22000A9C22000A9C22000000000001F
:10202000000000000000000000000000A9C2200025
:10203000A9C2200000000000A9C2200009C320009E
:102040002BC3200031C3200037C320003DC3200034
:10205000000000000FC3200015C32000A9C220000B
:10206000A9C22000000000000000000000000000E5
:102070000000000000000000A9C2200000000000D5
:102080000000000000000000A9C22000A9C220003A
:10209000A9C22000A9C22000A9C22000A9C2200014
:1020A000A9C22000A9C22000A9C22000A9C2200004
:1020B000A9C22000A9C22000A9C22000A9C22000F4
:1020C000A9C22000A9C22000A9C22000A9C22000E4
:1020D000A9C2200000000000000000000000000075
:1020E00000000000000000000000000000000000F0
:1020F0000000000000000000DD3C2000ED3C20005E
:1021000000000000000000000000000000000000CF
:1021100000000000000000000000000000000000BF
:1021200000000000000000000000000000000000AF
:10213000000000000000000000000000000000009F
:10214000000000000000000000000000000000008F
:10215000000000000000000000000000000000007F
:10216000000000000000000000000000000000006F
:10217000000000000000000000000000000000005F
:10218000000000000000000000000000000000004F
:10219000000000000000000000000000000000003F
:1021A000000000000000000000000000000000002F
:1021B000000000000000000000000000000000001F
:1021C000000000000000000000000000000000000F
:1021D00000000000000000000000000000000000FF
:1021E00000000000000000000000000000000000EF
:1021F00000000000000000000000000000000000DF
:1022000000000000000000000000000000000000CE
:1022100000000000000000000000000000000000BE
:1022200000000000000000000000000000000000AE
:10223000000000000000000000000000000000009E
:10224000000000000000000000000000000000008E
:10225000000000000000000000000000000000007E
:10226000000000000000000000000000000000006E
:10227000A9C22000C53B2000E93B2000712E2000B0
:102280004D3E200001292000A9C2200008B5094BBD
:10229000FF221A600848094A4824E3690849121ACB
:1022A00098470848084AA3690021121A984700F085
:1022B0000DF8FEE7B4200D40404000203D420020D4
:1022C00070E42000404200200E650020F7B500F0C9
:1022D0006DFC00F067FD00F0BDFC00F06FFA01F04E
:1022E000A3FD0AF017FA00F055FD00F0C9F801202F
:1022F00009F0DEFF02F048FD00F044FC002000F091
:1023000055FB012000F052FB4949002000F024FC5D
:1023100002F07CFE0AF001F8042009F0C9FF4548EC
:102320000AF050F944480AF04DF900F0E9F90020AC
:1023300002F08EFE01F06CFC4048002102F0B0FD7E
:1023400002F064FB09F0DEFF00F0B4FD00F0D0FD08
:1023500007F0E2FE6846082101F0AAFD9DF807306B
:102360009DF80670364C43EA07276B4603CB206086
:102370006160344801F058FF0025615D3248013545
:1023800001F052FF072D2E4EF7D1304DF179304834
:1023900001F04AFFEC6A4AF6CD310220A0473946E7
:1023A0000320A0471A210120A047694608226B6B31
:1023B0000B209847274801F037FF274B18680AF091
:1023C00001F9264801F030FF254B18680AF0FAF8A9
:1023D000244801F029FF244B18680AF0F3F8234A37
:1023E000336813607368536007F0CEFF2048002104
:1023F00002F056FD1F48002102F052FD1E4B012144
:102400009B68812098470AF05BF91C480AF04EF956
:1024100000F0BEFB022009F04BFF00F0BFFB02F012
:10242000CBFC10F0FF0FF8D101F096FCF5E700BFF0
:10243000C94F200058DE200068DE200088400020C0
:10244000066500208DDE2000ABDE20007CDD200054
:10245000B1DE2000B7DE2000D4DD2000BEDE20008B
:10246000E0DD2000C5DE200008DE2000845D0020C5
:102470001C410020A840002080DC200044DE200019
:1024800008B500F0DDF8024B00221A7008BD00BF4D
:102490008A540020024A13781843107000F0F4B8F0
:1024A0008A540020034A137823EA0000107000F0D9
:1024B000EBB800BF8A54002020B1012805D1044B9D
:1024C00018787047034B186870470020704700BFAA
:1024D0008B54002020900D4010B5094A002013783D
:1024E00001331370074B197802F0B2FCBDE81040BD
:1024F000054B06481968064A002302F0BDBA00BF22
:102500008B540020FC6400207842002050420020C0
:10251000D9242000812810B50C462AD0B0F5807F40
:1025200039D0802839D102F027FC1D4B1D4A187084
:102530001368002023F00803136052F8203C0321A5
:1025400023F0080342F8203C52F81C3C23F0080317
:1025500042F81C3C52F8183C43F0080342F8183C7F
:10256000042200F02DFC10480021032200F0CAFBD9
:1025700013E00E4B1A6831B142F008021A600020D5
:1025800000F032FB05E022F008021A60084600F075
:1025900037FB204610BD064B1960012010BD00BF5F
:1025A000FC64002020940D40B525200010940D40BF
:1025B0007842002008B50F480AF0C7F8C0B10821DA
:1025C0000C480AF0B0F80C4B196861B10B4B0022B3
:1025D0001A700B4B0B481B681BB90B4A02F04CFAE4
:1025E00001E002F08BFABDE80840084802F0D6BDD1
:1025F00008BD00BF70420020784200208B540020AC
:1026000020900D4050420020D924200080DC200082
:10261000084A136823F00403136052F8203C43F087
:10262000040342F8203C044B00221A60034B0122B1
:102630001A70704720C40D4010C00D408C5400200B
:102640000D4A0E49136823F0C003136052F8203C72
:1026500043F0C00342F8203C094B00221A600B688B
:1026600023F010030B6051F8203C43F0100341F8B5
:10267000203C044B1A60704720A40D4020C40D403C
:1026800000A30D4040C00D4000F0020202F0FF0127
:102690000B4B12B1FF221A6000E0196000F0040237
:1026A00002F0FF01074B12B1FF221A6000E019602F
:1026B00010F00100044B1ABFFF221A601860704727
:1026C00000A20D4000A10D4040C00D40044B186811
:1026D000C0F30720030904BF1030C0B2704700BF29
:1026E0001C300D40054B1868C0F3C21001289ABF7A
:1026F000C0F1020040034FF40040704714300D4019
:102700002DE9F04788B0FFF7E1FF174B48251C681B
:10271000AB68074698476B68804698470646FFF7C0
:10272000E1FF054600F0D6FA824600F0DFFA814666
:1027300000F086FAB60AC4F34003AD0A04F00104BF
:1027400002930690009601950394CDF810A0CDF861
:1027500014904146C7F3071207F00F03034801F036
:1027600063FD08B0BDE8F0871C300D40D3DE2000CB
:10277000F8B500F083F80F4B0024D3E900673A4620
:10278000B04238BF7A1C15460443C3E90045DFF860
:1027900028E0DEE90001821B61EB070312196B419F
:1027A000CEE9002302F052FA18B1BDE8F84002F079
:1027B000DDB9F8BD40420020484200200F4B104ACE
:1027C0001A6053F8042C42F0050243F8042C53F825
:1027D000042C42F0020243F8042C0A4A136843F026
:1027E00001031360084B00221A60042243F80C2CEA
:1027F000012243F8082C0F22DA62704714E000E04F
:1028000047E8010008200D400C000340034BD3E9CA
:102810000023100A40EA0360704700BF40420020D6
:10282000034BD3E90023D00B40EA4340704700BF7D
:1028300048420020054B18601C3B1A6842F0010218
:102840001A601A68D207FCD4704700BF2800034002
:1028500010B5064C236823F001032360FFF788FFBF
:10286000236843F00103236010BD00BF10E000E0C7
:10287000014B1868704700BF7C420020074B084A94
:10288000196804331B681268120442EA0323054ADC
:102890000B43106843EA0060704700BF40500D4092
:1028A00048500D404C500D4010B50446114B1B686C
:1028B000DB07FBD509F035FDFFF7E0FF231A062BF8
:1028C000D8BFC41D0C4B220E1A60C4F3074243F854
:1028D000042CC4F3072243F8082CE2B243F80C2C72
:1028E00009F01BFD054B91201C60BDE8104000F075
:1028F0007BB900BF50500D404C500D407C42002031
:1029000008B501F00FFA064B002291201A6000F082
:1029100083F9912000F074F9BDE8084002F0E4BAB0
:102920007C420020064B1B681B075FBF054B1868E5
:1029300080F00800C0F3C00048BF0020704700BF0F
:1029400018C0004018D00040164A38B52C2303FBAD
:1029500000234FF6BF72DC680546236C62649BB2AD
:1029600013F050020DD0A369DB0609D40E4B53F8C7
:1029700025301BB12068C0B29847F4E72368F2E71E
:1029800038BD13F4D06F0BD04FF440732363FF2393
:102990006360E36AE262E362236B43F00103236353
:1029A00038BD00BF90DC2000804200202DE9F04FB0
:1029B000012885B0064600F2BF802C244443604BBA
:1029C0001D1995F920A005F12007BAF1000F9946CD
:1029D000C0F2B28095F92230002BC0F2AD80594888
:1029E00001F012FA584A59F804301168EC680B43A8
:1029F000136051686B6895F921B00B43536091687F
:102A0000AB6895F822800B4393600023C4F8C83F5D
:102A10002B690BEBCA021A6095F823305FFA88FC29
:102A200001939DF80430604619462A7DCDF80CC00C
:102A3000029300F0CFF9029BDDF80CC01946604606
:102A4000082200F0BDF94FFA88F840494FEA0838EB
:102A50009DF9042058F80100012303FA02F2024311
:102A600048F801204FEA0A3A5AF8010003FA0BF23B
:102A700002434AF801205022A263A26B95F8240079
:102A800042F4D062A263022262634FF44072226376
:102A9000AA696262EA69A2627022E26242B2002A14
:102AA0000C4614DB95F92510294D41EAC201296035
:102AB0007979120315594FB2BB402B4313510022B1
:102AC00000F07EF9234A136843F4004313602C237B
:102AD00003FB069393F8265020336FB2002F1CDBC4
:102AE00093F807A0EDB25FFA8AF828464146012222
:102AF0003F0300F06FF94FFA8AFA3A59012303FABB
:102B00000AF313433B5108222846414600F058F986
:102B1000104A136843F4804313602C2303FB06968A
:102B2000F26896F82800136B43F00103136305B0B5
:102B3000BDE8F04F00F058B805B0BDE8F08F00BF19
:102B400090DC20002529200028200D4020940D40F5
:102B500004410D4030D0004001289CBF014B43F898
:102B60002010704780420020012808D8044B2C22F6
:102B700002FB0030C3689A699206FCD41960704762
:102B800090DC2000014B00221A60704700500D407D
:102B9000014B08221A60704700500D40024BA022E2
:102BA0001A6050221A60704700500D40074A084BC7
:102BB0001A60084B80321A60074B80321A60074B4C
:102BC00080321A60064B074A1A60704700E100E045
:102BD00094420020884200208C4200209042002035
:102BE00008ED00E000202000044B41091A6800F0C5
:102BF0001F000123834042F8213070479442002097
:102C0000044B41091A6800F01F000123834042F879
:102C10002130704788420020044B41091A6800F0B7
:102C20001F000123834042F821307047904200206A
:102C3000024B1868C0F38150704700BF04200D405C
:102C400008B5FFF7F5FF024B53F8200008BD00BFA1
:102C5000E8DC200038B5164D164C2B68032023F015
:102C600040032B602368062123F0400323600122E8
:102C700000F0A6F82B68012223F080032B60236864
:102C8000032023F080032360072100F099F80A4A0B
:102C90000A4B1A600A4B0B4A19680A40002AF9D1FC
:102CA0001A685101FCD41A685201FCD538BD00BF26
:102CB00020C40D4000C40D400101020000200D4061
:102CC00004200D4000000101014B08221A607047EA
:102CD00074200D40034B04481B6803F007031841A0
:102CE000704700BF04200D400048E801034B044832
:102CF0001B68C3F302231841704700BF04200D4036
:102D00000048E801024B02EBC10243F82200704781
:102D100098420020F8B507460E46094D002405EB01
:102D2000411547FA04F3DB07E1B204D555F8243026
:102D30000BB1304698470134082CF2D1F8BD00BFE2
:102D4000984200202DE9F04780464FEA0837DFF827
:102D5000409007F1804505F5592500F0E3FFD5F8CF
:102D6000186457F809404FEAC80A24FA0AF446EAF8
:102D70000400E4B2C0B24146F6B204FA0AF4FFF726
:102D8000C9FFC5F81C6447F80940BDE8F08700BFDB
:102D900018970D4002480021802209F02DB900BF8C
:102DA00098420020034A044B1A60044B803A1A6090
:102DB000704700BF80400D401C4300201843002096
:102DC000034B01EBC0011B6843F82120704700BF93
:102DD0001C430020034B01EBC0011B6843F821207A
:102DE000704700BF184300200E2870B50BD1164B5A
:102DF000164E1C6844F002051D60356825F03F033F
:102E000043F001033360124E336823F0FF031A438B
:102E10001143014331600F4B1B681B06FBD50E4B62
:102E20000E4A1B6812680E2803F0FC0343EA0223D3
:102E300008BF064A9BB204BF1560034A9BB208BF95
:102E4000146018B270BD00BF34000144F48608401D
:102E500008700D4000700D400C700D4010700D405A
:102E6000024B1868B0FA80F04009704700B708407C
:102E700010B58F20064CFFF7CFFE8F20FFF7C0FE66
:102E8000206818B102F024F80023236010BD00BFB1
:102E900020430020064A136843F00203136053687E
:102EA00043F002035360936843F00203936070475A
:102EB00048200D4007B50C4800F0A6FFFFF7EAFFD9
:102EC0000A4B1A6842F002021A6000220192019A2B
:102ED0000F2A02DC019A0132F8E71A6822F0020296
:102EE0001A6003B05DF804FB612E200054200D40F1
:102EF000064A136823F002031360536823F00203A9
:102F00005360936823F002039360704748200D409C
:102F1000014B1860704700BF204300202DE9F047A7
:102F20003E4EA0B034688246884615461F46002CA7
:102F300070D1022916D1AC4216DA1822482302FBBE
:102F400004A14FEA8409DB690DEB4410984709F1AD
:102F5000030920AB03EBC9090022002349E9202320
:102F60000134E8E7012904D06D00B8F1020FEDB299
:102F700005D04823DB69684651462A019847284A0C
:102F80000123032113602748516008323360116028
:102F9000016801F0030444451EBF21F0030148EA23
:102FA0000101016003FA05F01F4C01381F49B840C8
:102FB0000860A4F58064C4F8000423601C4BC3F8C7
:102FC00000D0E3681B0C1B0443EA0515E560194BB0
:102FD0001C68E407FBD51C68002C06DA4FF00043A0
:102FE000136000233360042015E01B6813F0804356
:102FF00006D04FF0804313600023336006200AE0C0
:103000000324146033600B680340834214BF06201E
:10301000002000E0032020B0BDE8F08700B70840A2
:1030200080B7084008B4084000B4084004B4084021
:1030300004B0084090B708402DE9F047434C89465A
:1030400021689C46DDF82880BDF82030BDF82C5062
:10305000DDF830E0002975D13D4901260E603D4E76
:103060000327B2460221376021603B490F603B4F86
:10307000C7F80090D7F80090B9F1000FFADB384F8D
:10308000D7F8009019F0005FB94607D04FF0005311
:103090000B60002323600520BDE8F0874AB1166865
:1030A000304F3E6056687E609668BE60D7682E4A94
:1030B00017602E4A002710F4E02F106055609760CB
:1030C00002F108021BD053600432C3B1A2F25C5279
:1030D00001201060C2F804C0D360D9F800309B070B
:1030E000FBD51F4B1B68002B07DA4FF000430B602A
:1030F000002323600420BDE8F08702230B60012336
:10310000CAF80030BEF1000F08D07046FFF700FF8C
:103110008F20FFF781FD8F20FFF766FD7DB1144AF8
:103120000123136009990C3242F8081C1560B8F1AC
:10313000000F04D053610F4BC3F800809D60002046
:10314000BDE8F0870320BDE8F08700BF00B7084066
:1031500080B7084084B7084088B708400CB40840DE
:1031600090B7084040B508404CB5084050B50840FD
:1031700000B0084024B00840034B1A68034B1A42C1
:1031800014BF01200020704790B70840010000E004
:10319000F8B5204B204F1E684FF060433B6005465A
:1031A0008F200C46FFF72CFD0020FFF7B1FE002218
:1031B0001A4B96421A6027DB710027D4B20027D43D
:1031C00005B9ECB1164B1B685B00FBD55DB1154B27
:1031D0001B682B60144B1B686B60144B1B68AB6047
:1031E000134B1B68EB605CB1124B1B682360124BE6
:1031F0001B686360114B1B68A360114B1B68E36085
:1032000003233B600020F8BD0420F8BD0620F8BD74
:103210000520F8BD90B7084088B7084000B70840BF
:1032200050B5084040B5084044B5084048B508408E
:103230004CB5084070B5084074B5084078B50840F2
:103240007CB5084010B5044B1C68C4F340040CB9AD
:10325000FFF720FE204610BD48200D40014B1B68A3
:10326000184700BFF8DC20002DE9F04F1646284A29
:1032700089B014688346C4F340040F469DF8488023
:10328000DDF84CA09DF85050DDF854901CB9079320
:10329000FFF700FE079B1FFA88F0B9F1000F1AD064
:1032A00000218DE881000296039704950591022084
:1032B0005A4609F0D8F828B13CBB09B0BDE8F04F38
:1032C000FFF716BEFFF758FF0028FBD050462946EF
:1032D00009F0E6F8F0E72E448DE8810002960397A6
:1032E0000495CDF81490022049465A4609F0DEF8BC
:1032F0000028E1D1FFF740FF0028FBD038463146D7
:1033000052462B4609F08CF8D6E709B0BDE8F08F9D
:1033100048200D40084B93F90020002A09DB074A9A
:10332000ED2111601160E32111601A7862F07F02D3
:103330001A700120704700BF905400203888084060
:103340000B4B1A689207FBD41B685B065FBF094BE7
:10335000ED221A601A60084B1B6813B1054BEF226F
:103360001A60064A0120137803F07F031370704738
:103370004C860840388808402C860840905400202D
:1033800038B5A0F10B04E3B20F2B054613D80B4B55
:103390001B6813F03F0302D0FFF7D2FF012304EBB9
:1033A0008404074A0B3414600BB1FFF7B3FF054BDD
:1033B000E8B21D7000E0FF2040B238BD48860840EA
:1033C0003C8608402B42002010B50B4B1B68990629
:1033D00003D1FFF79FFF012300E00023074A126893
:1033E000D207FBD5064A1468C4F300140BB1FFF7EB
:1033F000A7FF204610BD00BF4886084064860840ED
:103400004C860840044B186800F02200A0F120030D
:1034100058425841704700BF4C860840024B18681C
:1034200000F04000704700BF4C86084038B50C469D
:10343000002900F08880102800F28780DFE800F083
:10344000090F1A1C23394253586F738585787A7C8B
:103450007F003F4B1B68003318BF012370E03D4BDA
:1034600005221B6803F07F030B3B93FBF2F30B3346
:10347000DBB265E0384B00E0384B1A68043B1B6850
:1034800043EA02235CE000230B60354B354A1B689E
:1034900003F001030B601268900644BF43F002037F
:1034A0000B60314B1B78002B4BD00B6843F00403AF
:1034B00046E02E4B00201B780860002B41D00123F2
:1034C0000B6038BD2A4B1A680023D2B2294901EBA0
:1034D000C3000079904202D851F8333030E0013314
:1034E0000E2BF3D128E0244B1B685BB2493B27E04D
:1034F000224B1B68990603D1FFF70CFF012300E064
:1035000000231F4A1268D207FBD51E4A1568493DA1
:10351000EDB20BB1FFF714FF6DB2256011E01A4B4D
:1035200093F900300CE0194B1B7803F07F0307E0A0
:103530000B2305E01A2303E06FF0170300E00723D5
:103540002360002038BD022038BD012038BD00BFF7
:103550002C8608403C860840CC850840D48508402D
:1035600000860840248608408F5400202A4200200C
:10357000408608400CDD20005886084048860840F8
:1035800064860840608608408E5400208D540020D8
:1035900038B505460C46134B1B689B07FBD4124BF2
:1035A00093F90030002B01DBFFF7B4FE0F4BEE2246
:1035B0001A60691E1A60A21C43F8102C21440220D4
:1035C00000F03EFB013C0A4924012143022000F0A7
:1035D00049FB022000F050FB022000F065FB0020B8
:1035E00038BD00BF4C860840905400203888084001
:1035F00002C001C0F8B5214B93F90030002B0DDB60
:10360000FFF73CF90446FFF785FEFFF737F96FF047
:1036100009031B1BC342F8D4012600E00026184B07
:103620001B7823B9174D2B68990604D405E0FFF7E2
:10363000CBFE0028F6D10220F8BD134CE92323600D
:1036400004272B689A0707D4013F17F0FF0703D020
:103650000620FFF7EFF8F4E72B689B0704D4EE236E
:1036600023602360012403E02C6814F00204FBD1E2
:103670000EB1FFF765FE2046F8BD00BF9054002054
:103680002A4200204C86084038880840044B1A68BB
:1036900010B142F0010201E022F001021A6070470D
:1036A000008608400B280DD1082A0DD161B1074BC7
:1036B000083111F8012D43F8042F054A9342F8D13F
:1036C000002070470120704702207047A485084001
:1036D000C485084070B5304E336813F0400308D0FD
:1036E0002E4D2B68DCB21B0605D52D4BED221A6042
:1036F0001A60002070BD042CF7D9023C8C42F4DC27
:10370000E4B2032C21D001190139032000F0A0FA02
:10371000631E24491B010320194300F0A3FA032070
:1037200000F0AAFA032000F0BFFA032000F0C8FA64
:103730000028FAD129681C4B4939C9B219702B6885
:103740001A4D18062B70D0D506E02B6803702B6835
:1037500043702B688370EDE749B289B2042006F00C
:10376000E9FD2978032001F07F0106F0E3FD104B0D
:103770001B7873B933685A060BD5074B1B681B06B9
:1037800003D50C4801F0A4FB03E0054BED221A60C1
:103790001A60204670BD00BF4C860840288808404B
:1037A0003888084002C0010C8E5400208D5400203F
:1037B0008F540020504000201E4B1870002831D03C
:1037C0001D4B1B681B03FBD51C4B1A6842F0020201
:1037D0001A601A6842F001021A601A681749500705
:1037E000FBD50A6822F001020A601968134A4907EA
:1037F000FBD4116841F002011160116841F0010130
:1038000011601A685207FCD50D4A8D20136823F009
:1038100004031360D2F8A83123F00403C2F8A831DE
:10382000FFF7EEB9064A8D20136843F004031360D6
:10383000FFF7DAB98F54002004200D4004880840B7
:103840008C86084010B50C4607285CD8DFE800F0ED
:10385000040F1B1F263C4256012903D1FFF75AFDD6
:10386000002010BD002950D1FFF76AFDF8E7A1F153
:103870000B030F2B49D8C8B2FFF782FD431C0CBFC6
:103880000320002010BD8CB2E2B2214B02E08CB2CA
:10389000204BE2B2240A1A605C60E1E731F00703D2
:1038A00033D101F00100FFF7F1FE1B4B14F0020FC2
:1038B0001A68C4F3800014BF42F0200222F02002F4
:1038C0001A60FFF779FFCBE731F001001DD1134BF0
:1038D000197010BD01F118031F2B16D80D231049C4
:1038E000DA0051F83300844204DC8B181A790D4B4E
:1038F0001A60B5E713F1FF33F1D2B1E7CCB20A4B4E
:1039000049341C60ACE7012010BD022010BD00BF8F
:10391000C8850840D0850840248608402A420020F7
:103920000CDD20004086084058860840F8B5294F35
:103930003D7815F001054AD1274B01241C605C60DD
:103940009C60A3F59323A3F51473F8221A6009224F
:10395000C3F89021152270331A6003F59B230B22C4
:1039600003F59E731A60A3F59B23A3F5F073402221
:103970001A601A687F2642F020021A60D52243F8A6
:103980001C5CDE62DA61154B1878FFF7F9FC144B0A
:103990008E201E60FFF728F9022000F079F9114906
:1039A000022000F055F9032000F072F90D490320C0
:1039B00000F046F90C4B1878FFF7FEFE0B4829463D
:1039C00001F06EFA3B78204623433B70F8BD00209F
:1039D000F8BD00BF90540020A8200D402B420020CD
:1039E00094860840288808408F54002050400020CA
:1039F00038B503880446CBB140F20342934203D06A
:103A000000230380032038BD194B18781A4628B1CB
:103A10001B7873B1174B1B7858060AD5822908D139
:103A2000137843B1134B1A78520614D440F203436F
:103A30002380012038BD06F027FC06F0BBFB802167
:103A4000FFF748FE0028EDDD80B206F097FB0A4B39
:103A50001B699847E6E700221A70084B1D68FFF7BC
:103A60006FFCFFF763FFAB06E0D0FFF753FCDDE729
:103A70008F5400209054002008DE20004886084023
:103A80000B282DE9F84F8A4611D1082A40F0828090
:103A900000297FD0414B01F1FF3A53F8042D0AF879
:103AA000012F3F4A9342F8D10020BDE8F88F0C283F
:103AB0006DD1042A6ED100296CD03A493A480B687E
:103AC000DFF8EC9023F007030B600368DFF8E4B045
:103AD00043F008030360DBF80040D9F800200B68CE
:103AE000DFF8D4C0DFF8D48023F070030B60D8F87F
:103AF0000050DCF80030E4B2120244EA036392B2F0
:103B0000DFF8BCE01A43EBB242EA03430024DEF8DC
:103B1000002044EA03060B68D5B223F0070343F004
:103B200001030B6003682F4643F008030360DBF8D2
:103B30000000D9F800200B68120223F0700343F054
:103B400010030B60D8F80050DCF80030C1B241EA35
:103B5000036392B21A43EBB242EA0343DEF8002059
:103B600044EA03085FFA82F9FEF788FEB6EB08061E
:103B700067EB0907F903054641EA5641F0030B4A92
:103B8000002307F055FE281ACAF800008CE7012030
:103B9000BDE8F88F0220BDE8F88F00BFC885084057
:103BA000A885084010880840048808400048E801BB
:103BB0001888084014880840208808402488084055
:103BC0001C88084008B5054B1B7813B9044801F060
:103BD0007FF9044B00221A6008BD00BF8F540020FB
:103BE0005040002034880840064B07481A68042AD1
:103BF0001FBF06490A7842F040020A7000221A608C
:103C000001F066B92C8808405040002090540020F4
:103C100010B5094C00212046402208F0EDF9074B71
:103C200001221A602E205C60FEF7DEFFBDE8104026
:103C30002F20FEF7D9BF00BF0040002004F00F4046
:103C400003289EBF014B000119507047004000201F
:103C500003289EBF024B03EB00104160704700BF7A
:103C60000040002003289EBF024B03EB0010816040
:103C7000704700BF0040002003289FBF0349012375
:103C80000A6883409CBF13430B60704728F00F40C5
:103C900003289FBF034901230A6883409CBF134345
:103CA0000B60704720F00F4003289FBF034901239A
:103CB0000A6883409CBF13430B60704714F00F40A9
:103CC00003289FBF044B03EB0010806800F007003F
:103CD00088BF0020704700BF00400020024B4FF01B
:103CE000FF321A60704700BF04F50F40014B0122FC
:103CF0001A6070474CF00F40094B1A6812F4801F8D
:103D00001A46F9D1043B196821F480311960116811
:103D1000C903FCD41A6842F400321A60704700BF2D
:103D200004200D4010B50A4B1A681C4612F0030F10
:103D30000CD0084B1A685101FBD41A685201FCD50B
:103D4000FEF786FDFFF7D8FF0023236010BD00BFFC
:103D500058200D4004200D4038B5254B1C6814F048
:103D60003F0413D1234B53F8243023B1984768B153
:103D70000134052CF6D1204D2B783BB1FEF778FDB0
:103D80000446FEF77BFD201A092801D830BF38BD54
:103D9000002CFBD0194B1A6822F400321A60184A22
:103DA0001168C902FBD4196841F4803119601368A5
:103DB000DB03FCD5FEF762FD201A092803D8BDE815
:103DC0003840FFF799BF63280E4C02D92B78022B9D
:103DD00000D00123236001F031F820B1FFF78CFF00
:103DE0000023236038BDFEF743FD0028CED1F5E760
:103DF00048860840244300209154002000200D40B4
:103E000004200D4058200D400023064A52F823108C
:103E1000814206D011B942F8230070470133052BC7
:103E2000F3D1704724430020054B00221A60054A55
:103E3000136843F004031360034B02221A707047A7
:103E400058200D4010ED00E09154002010B5902056
:103E5000064CFEF7E1FE9020FEF7D2FE206818B176
:103E600001F036F80023236010BD00BF3843002066
:103E700070B50E4C054626784EB93046C021FEF787
:103E800073FE30460D21FEF76FFE012323700020E4
:103E9000E9B2FEF769FE0A2D05D10020C021FEF728
:103EA00063FE00232370284670BD00BF925400209B
:103EB00013B56B460A46044604490868496803C3BB
:103EC0002046991A07F0BEFF02B010BDA5DF200002
:103ED00000200149FEF740BE754120002DE9F74F53
:103EE0000388064633B1B3F5A57F11D000230380C4
:103EF0000320EFE0794A1380794A1380794A1380CE
:103F0000794B01221A704FF4A57333800120E1E050
:103F100082294FF0010AF9D1DFF8C8B17348BBF824
:103F20000050734B425D83F800A0432ADFF8AC8158
:103F3000D94607462AD16A4B1A88954226D2521B87
:103F4000052A23DD00EB050C60466A490622CDF800
:103F500004C007F045FFDDF804C00446B0B9604670
:103F60002146062208F048F85D4BA8F800401C8066
:103F70005D4BABF8004083F800A05F4B185D013447
:103F800008F030FB0D2CF8D1002497E0B8F80020A1
:103F90009542F9D002D300231C462EE000247B5D1D
:103FA000DB2B04D055490B550134A4B201E00123A9
:103FB00000E000230135ADB2954255D2B4F5807FC3
:103FC00001D9002450E0002BE9D07B5DDD2B01D12D
:103FD000DB2102E0DC2BECD1C021484B1955E3E793
:103FE000B4F5807F1DD863B9795DDB2917D04348CC
:103FF00001550134A4B20135ADB2B5F5887FEFD3D8
:1040000010E07B5DDD2B01D1DB2102E0DC2B04D154
:10401000C0213A4B19550134A4B20023EBE7012328
:10402000E9E70024002188B290421DD2B4F5807FD8
:10403000C7D863B17B5CDD2B01D1DB2002E0DC2B38
:104040000DD1C0202D4B18550134A4B207E0785C87
:10405000DB2806D0294D28550134A4B202E0002304
:1040600000E001230131DEE7013292B2B2F5887F30
:1040700004BF0023A8F80030194B18BFA8F800208F
:10408000B8F8002019888A4216D0104603468B42A1
:1040900012D0F85CC02807D11948A8F80030A9F858
:1040A000002000F015FF09E001339BB2B3F5887FD3
:1040B0004FF00000EBD1E9E7A9F80020114B1C807C
:1040C000002C3FF420AF104B1B6803B1984704F05D
:1040D0001DF818E703B0BDE8F08F00BF3E50002088
:1040E0003C50002040500020935400209454002065
:1040F00001650020ADDF2000B4DF20008C5D0020D2
:1041000060400020785D00203C430020014B186097
:10411000704700BF3C43002038B5C02008F062FA69
:10412000114B00241149A2B20988914216D93C2AA8
:1041300004BF0F4B1B6818785D1CC02804D1DB201E
:1041400008F050FADC2004E0DB2802D108F04AFA3B
:10415000DD2008F047FA01342B46E3E7C02008F0E1
:1041600041FA002038BD00BF8C5D0020785D002042
:10417000985E002038B5264B1A781C46022A06D0D5
:10418000032A12D1C02804BF01221A703DE000F1B9
:104190002402D2B2012A06D903221A701D4B1A88B2
:1041A0001D4B1A8031E0012302E0DB2801D10223FC
:1041B0002370194B184D1A88511C89B2B1F5887FAC
:1041C00008BF0021198015491B8809888B4205D139
:1041D000032323700F4B1B882B8016E0104B5428B1
:1041E000985407D15B5C432B0FD10E4800F070FE52
:1041F000012038BDC02808D1064B1888824203D060
:104200008142F2D11A80F0E72A80002038BD00BF39
:10421000935400203E5000203C500020405000208D
:1042200094540020604000200FB407B504AA52F84F
:10423000041B0448019200F035F803B05DF804EB6C
:1042400004B07047704000201FB5084C8DE8030093
:10425000114602A81A460294CDF80CD000F022F8BC
:10426000009B00221A7004B010BD00BF6BC6200076
:1042700070B505460C46102C07D92B6868680849AC
:104280001022984750B9103CF5E734B12B686868A4
:104290002246BDE8704002491847204670BD00BF65
:1042A0002AE020002DE9F04F80468FB0069107925A
:1042B0000026069B1B78002B00F05F83069B1C46A4
:1042C00013F8012B1AB9069B9C4203D10FE0252A53
:1042D000F5D1F8E7069BD8F80400E51A0699D8F856
:1042E00000302A469847002840F02A832E4423783D
:1042F000002B00F042836378611C002B00F03D83AB
:1043000000240A4611F8013B2B2B11D006D8202B94
:1043100011D0232B12D144F00804F2E72D2B04D046
:10432000302B0BD144F01004EBE744F00104E8E734
:1043300044F00604E5E744F00204E2E7A3F13101AA
:1043400008290DD8134600251A4613F8011BA1F1C0
:104350003000092811D80A2202FB0515303DF3E789
:104360002A2B09D1079B01321D68191D002D0791C9
:10437000B8BF44F0010400E0002513782E2B1CD1B7
:104380005178531CA1F1300009280ED81946002796
:104390000A780B46A2F13000092801F101010FD87B
:1043A0000A2303FB0727303FF2E72A2906D1931C93
:1043B000079A111D0791176802E013464FF0FF3767
:1043C0001A786C2A09D15A786C2A02D144F08004F8
:1043D0000AE0013344F060040BE0682A09D15A78FE
:1043E000682A03D144F02004023302E0013344F090
:1043F00040041A78642A3CD01FD8462A48D00DD8E9
:10440000252A5AD003D8002A00F0B78257E0412A63
:104410004AD0452A53D144F4424450E0582A31D07E
:1044200004D8472A4BD144F4A13448E0612A38D05B
:10443000632A44D144F4A06441E06E2A3AD007D8FC
:10444000662A22D027D3672A28D0692A11D036E0DD
:10445000732A2CD006D86F2A11D0702A2FD144F499
:1044600040742CE0752A07D0782A28D144F4C85427
:1044700025E044F4245422E044F410641FE044F4A2
:1044800088541CE044F4B24419E044F4007416E08B
:1044900044F4844413E044F4024410E044F48134CE
:1044A0000DE044F4C1340AE044F4E13407E044F49C
:1044B000806404E044F4E06401E044F4C064013347
:1044C000069304F4E063B3F5806F00F0AA8116D878
:1044D000B3F5807F2BD0B3F5407F7FF4EAAE079B26
:1044E000A04914F4804F03F104029F4818BF084606
:1044F0000DF1330107920F461A680023C5E1B3F5A9
:10450000C06F08D0B3F5E06F00F03182B3F5A06F53
:104510007FF4CFAE00E2D8F80030D8F80400934919
:1045200001229847002840F00B820136C1E6002F97
:10453000ACBF24F01004012714F40053039304F0DB
:10454000E00337D0402B17D008D8DBB1202B2AD17D
:10455000079B1A1D079293F9002017E0602B11D0DA
:10456000802B20D1079B073323F0070303F10802B8
:104570000792D3E900230AE0079B1A1D0792B3F9BB
:10458000002003E0079B1A1D07921A68D317002A20
:1045900073F1000109DA524263EB4303CDE90023D2
:1045A0004FF0010933E000220023CDE900234FF052
:1045B00000092CE0402B16D007D8CBB1202B20D1FE
:1045C000079B1A1D07921A78EEE7602B10D0802BFC
:1045D00017D1079B073323F0070303F10802079263
:1045E000D3E90023E1E7079B1A1D07921A88DBE74E
:1045F000079B00211A1D07921B681846CDE9000190
:10460000D5E700220023CDE900234FF0000904F490
:10461000C053B3F5805F0CD0B3F5C05F33D0B3F5B2
:10462000006F4FD1DDE900230DF1360ACDE90423F7
:1046300004E0DDE900230DF1360A15E0DDE904238D
:1046400013433AD0DDE904010A22002307F0F0F811
:10465000DDE9040130320AF8012D00230A2207F0B7
:10466000E7F8CDE90401E9E752EA030125D002F0B9
:10467000070130310AF8011DD10841EA4371D80819
:104680000A460346F0E7384B14F4804F0DF1360A22
:10469000344908BF1946DDE9002352EA03000CD073
:1046A00002F00F00085C4FEA131E0AF8010D100912
:1046B00040EA037002467346EFE70DF1360BCAEB92
:1046C0000B0B03E00DF1360A4FF0000B41F6080228
:1046D00041F208035F4502EA04028CBFCBEB0707F7
:1046E00000279A4202D1002F08BF012741F6080196
:1046F0008A4207EB0B030DD1DDE9000150EA01020C
:1047000008D01B4914F4804F1A4A4FF0020C18BF0E
:104710000A4602E04FF0000C62460399A1B1B9F1DC
:10472000000F0AD104F0060102290AD00629124915
:1047300004BF4FF0010C0A4606E04FF0010C0F4A8F
:1047400002E00F4A4FF0010C63449D428CBFED1A0A
:10475000002514F0010922D1E30613D52F444D465C
:104760001DE000BFF7DF200008E0200028E0200067
:104770001CE0200019E020001FE02000EFE12000F5
:104780003BE1200040462946CDF80CC00092FFF7DF
:104790006FFD009ADDF80CC0002840F0D180BCF11C
:1047A000000F0DD01146D8F800306246D8F804004A
:1047B000CDF800C09847DDF800C0002840F0C08068
:1047C0003C465E44102CD8F800300DD9D8F80400CF
:1047D0006C491022CDF800C09847002840F0B08006
:1047E000103CDDF800C0EDE75CB1D8F80400654985
:1047F0002246CDF800C09847DDF800C0002840F000
:104800009F80D8F80030D8F8040051465A466644D4
:104810009847002840F094803E44B9F1000F79D0C9
:1048200073E0079BD3F800A01A1D0792BAF1000F9E
:1048300009D05346994699F800200133002AF9D14E
:10484000CAEB090903E0DFF840A14FF00609002F89
:1048500002DBB94528BFB9464D458CBFC9EB0505FC
:10486000002514F0010405D140462946FFF700FD5C
:10487000002865D1D8F80030D8F8040051464A46DF
:10488000984700285CD14E443EE052EA030E0ED019
:1048900002F00F0E10F80EE04FEA131C01F801EDC4
:1048A0004FEA121E4EEA037E72466346EDE70B4660
:1048B0007F1A01BF3022012701F1FF3301F8012CDB
:1048C00003377822BD4203F8012C4FF0300203F881
:1048D000022C88BFED1B4FF0230298BF002514F077
:1048E0000104A3F1030903F8032C04D1404629462F
:1048F000FFF7BEFC20BBD8F80030D8F804004946CA
:104900003A469847E0B93E4424B140462946FFF76D
:10491000AFFCA8B92E44CCE4079B012D03F104029F
:104920001B688CBF05F1FF35002514F001040792C8
:104930008DF8203008D140462946FFF799FC10B188
:104940004FF0FF301AE02E44D8F80030D8F80400B9
:1049500008A9012298470028F2D16F1C2CB14046CB
:104960002946FFF785FC0028EAD13E44A1E4079BD5
:104970001A1D1B6807921E609BE430460FB0BDE80D
:10498000F08F00BFE7DF200021E02000F8B50388AA
:10499000064615462BB14A2B15D000230380032071
:1049A000F8BD174807F0E2FE04462CB1201DA168AF
:1049B00007F087FE2468F8E7124B01221A704A2399
:1049C00033800120F8BD8829FBD10D4807F0CEFEC9
:1049D0000446002CF3D0231D9D420ED108482146E9
:1049E00007F0CEFE084B62691F681A60A2691D4677
:1049F0000AB1E06990472F60E1E72468E9E700BF6A
:104A000040430020A45500204C43002010B5064B25
:104A1000002406481C7007F0A6FE2146BDE81040A1
:104A2000034800F03DBA00BFA455002040430020D9
:104A30007840002070B50446E3610B4B049D1B7861
:104A40006561A26143B1094D094B2E68201D2B60A1
:104A500007F037FE2E6000E0A1602146BDE87040FF
:104A6000044807F0A1BE00BFA45500204C4300201D
:104A7000784000204043002013B5034C2468009484
:104A8000FFF7D8FF02B010BD4C43002070B5094BB2
:104A900005461B783BB1084C084B26680430236060
:104AA00007F018FE26602946BDE87040044807F06C
:104AB0007BBE00BFA45500204C430020784000205E
:104AC0004043002070B5094B05461B783BB1084CAC
:104AD000084B26680430236007F005FE266029464F
:104AE000BDE87040044807F05FBE00BFA455002039
:104AF0004C430020784000204043002010B5084B74
:104B000004461B781BB1043000F0A8F801E0C36034
:104B100003612146BDE81040024807F031BE00BFE6
:104B2000A45500204043002010B50E4C236813B953
:104B30000D4A136010BDFDF769FE216891E80C0075
:104B40001A44131A8A6842B192E812002144091AE1
:104B50008B4228BF0B469268F5E71844024B186059
:104B600010BD00BF4443002048430020014800F02E
:104B7000AFB900BF88400020F8B5038805462BB1C7
:104B8000592B09D0002303800320F8BD1E4A13606F
:104B900059232B800120F8BD872920D08229F7D105
:104BA000194F00263C68002CF2D0204607F0CDFDBE
:104BB00090B1E0688821224600F04AF950B9E060DF
:104BC000A3680EB1B36000E03B600023A360FFF771
:104BD000ABFFE5E7FFF7CAFF2646A468E3E70A490B
:104BE0000B680BB90B60D3E7D868904201D19B6882
:104BF000F7E70B6099680029CAD0C86890420ABFDD
:104C000089680B469960F5E74443002010B50446D7
:104C1000FFF7ACFFE3680B4A4BB113683BB1A3420B
:104C200003D1094A1268DA6007E09B68F6E7064B91
:104C30001B68E36013681460A360BDE81040FFF7D1
:104C400073BF00BF444300204C430020024B186850
:104C5000003018BF012070474443002010B50B4AB4
:104C600004461368984206D18368136008E09A6886
:104C7000A24203D01346002BF9D103E0A2689A6048
:104C8000FFF752FF0023A360E36010BD4443002000
:104C900038B5836804460D469BB10A48046002207B
:104CA000A07304F10C0098470238012801D9832D24
:104CB00005D120462146BDE8384000F005B8012363
:104CC000A37338BD4C4300202DE9F8431C4A044629
:104CD000156889462B4690461A4E3768A34204D081
:104CE0000BB11B68FAE7BDE8F88334B3A37BABB123
:104CF0000023A37345B1AC4204D028468721224645
:104D000007F002FD2D68F5E7A3683BB14C4505D0DF
:104D1000346004F10C0083212A469847D8F800300B
:104D20009C4203D12268064B05E0134623B11A6862
:104D3000A242FAD122681A603760BDE8F88300BF4A
:104D4000504300204C43002010B5094B00221A703C
:104D5000084B1C685CB1E37B3BB101230022A373C9
:104D6000E27320468221FFF793FF2468F2E710BD2B
:104D7000A755002050430020024B1878421C1A709F
:104D8000704700BFA8550020064B8A221A70064AB9
:104D900000231370054A1370054A1360054A136017
:104DA000704700BFA8550020A5550020A65500203B
:104DB000504300204C4300202DE9F0411A4D2B7840
:104DC0000BB1FFF7C1FF194C22783AB3184E0C21F2
:104DD0003378184F5943781817F801800133476822
:104DE000806803F01F03013A3370227068B9124BD8
:104DF0001E689EB12B780BB1FFF7A6FF30464146E7
:104E00003A4607F081FC3668F3E7B8F1810F04BF3A
:104E10000123837341463A4607F076FC2B782078CD
:104E20001844BDE8F08100BFA7550020A65500201A
:104E3000A55500205443002050430020024A034B54
:104E400010781B7818447047A6550020A7550020FD
:104E5000F0B50B4E3378202B0FD00A4C0C2524785C
:104E6000094F1C4404F01F046C4301333D19A86032
:104E700039556A6033700020F0BD0120F0BD00BFDD
:104E8000A6550020A55500205443002038B5034CFA
:104E9000256807F039FC256038BD00BF4C43002071
:104EA00010B50A4609490C68234683420DD00BB160
:104EB0001B68FAE748B104600860012181738381AF
:104EC0008121BDE81040FFF7E1BF10BD5043002035
:104ED00038B1837B013B012B9FBF024A0123C3737F
:104EE00013707047A755002010B5084C206858B1C2
:104EF00000232360816843689847236823B1BDE895
:104F000010401868FDF7D0BC10BD00BFD44400208D
:104F100010B50446FDF784FC94E80C001344C01A55
:104F2000024B98428CBF0020012010BDFEFFFF7F86
:104F300038B505880446672D09D0792D2ED0002D6F
:104F400032D1FFF719FF1B4B18701B4B1D601B481C
:104F500007F0BDFC431C01D167231DE00A28164B56
:104F600007D01A687E2AF2DC511C1960144B985441
:104F7000EDE7196800254A1C1A60114A0D4B55547B
:104F800028461978FFF764FF0E4B852118682A46DA
:104F9000FFF75EFF20B97923238009E0852907D137
:104FA000054B00221A60D2E700230380032038BD9E
:104FB000012038BD02650020E0440020D8440020D4
:104FC0002A5600204C4300200D2810B5014615D06C
:104FD0000B4C23782BB90B4807F065FC48B901232B
:104FE00006E00A2805D1074807F05DFC08B1002358
:104FF00023700548FFF76CFF012010BD002010BD95
:10500000A9550020D84400209840002008B5054844
:105010000549802207F040FCBDE808400348002114
:10502000FFF73EBFD8440020AA550020984000203A
:10503000054A136843F004031360044B1B6890692E
:1050400043EA002080B2704700700D4014700D409C
:10505000174A136823F00C031360164B01221A60E1
:105060001A68012AFCD1144B08221A60E322C3F803
:10507000142203F505731946104B1B68DB07FBD59B
:10508000102000230E4A0138126802F0010243EAA0
:1050900002034FEA43039BB2F4D1002BF0D0094A3C
:1050A000180A03F0FE0310601360EF230B607047D3
:1050B00000700D40A8200D402486084064860840FA
:1050C0009C86084014700D4070B505880446772D05
:1050D00030D07E2D3FD0002D4DD1FFF74DFE294B16
:1050E0001870294B1D601D462B68284A264E52F821
:1050F00023204AB126480021C15493688020984754
:10510000336801333360EFE7224A1370772320E0DE
:105110001F4AD256002A12DB1B4A13680133136060
:10512000194B1C4A1B6812789342F1DB1A4B1B681F
:10513000002BEBD0184A00231360134AEFE7114A03
:1051400000201178114A52F82320FFF781FE30B970
:105150007E23238013E00B4B1B788B420FD10A4B2D
:105160000B491A688B5C03F07F038B540A4A13685F
:1051700001331360D0E700230380032070BD0120BA
:1051800070BD00BF03650020E444002040400020C3
:10519000FD640020AA560020E8440020094B1A783C
:1051A0000023934204DA084951F82310814207D1C1
:1051B00006490748CA5C62F07F02CA54FFF788BEFE
:1051C0000133EEE7AA56002040400020FD64002095
:1051D000A84000200C4AB82303FB0022002330B56E
:1051E00053821A46094CE1188D782DB11C5D84421A
:1051F00002BF00248C70013240F24C5171338B425B
:10520000F0D1104630BD00BF08450020B656002042
:1052100008B5064802F044FF054B01221A70FD2133
:1052200000225A709970DA7008BD00BF79542000CE
:10523000AC56002010B513780446087A83F00203B8
:1052400098421DD1487A5378984219D1887A937838
:10525000984215D1C87AD378984211D1087B137936
:1052600098420DD1487B5379984209D1887B937934
:10527000984205D1C87BD379984201D103201BE025
:105280000B890F4A6BB94B89B3F57F4F09D18B89D5
:10529000FE2B06D11368C989022023F8021B136074
:1052A0000AE0136851F8080F083343F8080C4868FF
:1052B00043F8040C13600120A040C0B210BD00BF31
:1052C000F444002010B50F4C0220A17905F032F80B
:1052D000A379112B01D0062B05D1238D618D994225
:1052E000A8BF194608E03A2B05BF94F8281094F897
:1052F0002930002143EA01210120BDE8104005F0DA
:1053000019B800BF8C5D002010B5084C0146237809
:10531000012B08D1A01C082206F062FD00280CBF5A
:105320002046002010BD002010BD00BFAC5600205C
:1053300008B50146132005F00BF8044B04489B68A0
:1053400000219847BDE80840FDF728BC28DE200072
:105350005553200010B508460C46114602F0D2F90C
:10536000044B1B6813B19B6820469847024B1C6096
:1053700010BD00BF0445002000450020F8B50546DB
:105380000023114A712404FB0324A278B2B961708E
:1053900004F0FEFE26460D4F0D4A3B7806F8035BEF
:1053A000C01A1568A0701D4404F0F2FE3A78294630
:1053B000821A304606F046FDA078F8BD01330C2B6A
:1053C000DFD14FF0FF30F8BDB6560020025C002060
:1053D000F84400202DE9F8434FEA1219B9F10F0FF4
:1053E00080461D4602F00F040BD00F2C05D1B9F1F9
:1053F000000F0AD11024274619E0B9F1000F09D097
:1054000004E00F2C4FF0100900D1102440464A460A
:1054100006F018FD09EB04020F2A274606DC08EB0C
:1054200009000021C2F1100206F0E6FDBCB1114DE9
:10543000C7F110002E6840443146224606F002FDB6
:10544000022C08D1B9F10A0F9FBFFF2388F80B3057
:10545000FE2388F80C3034442C60BDE8F883B9F1A1
:10546000000F05D040462946BDE8F84307F096BA3C
:10547000BDE8F883F44400202DE9F04F8E4E8F4DA7
:10548000002387B033702B70044604F0FDFE04F057
:1054900091FE8B4A8B4B126818608DE8600099462C
:1054A0000AB1FFF70FFF04A80CB9874900E02146B5
:1054B00008F0EEF8854B864E1A8803933E2A40F298
:1054C0000182D9F800B0834D0BF102032B60009BE1
:1054D00006F1180093F80080002308F102080BF889
:1054E0000830FFF711FF20B906F10800FFF70CFFA5
:1054F00020B10BF103032B60802400E00446727896
:105500003178130943EA0113DBB2980840EA8313A8
:10551000DBB212F00F0FDEB26E4F01F00F010CD1B3
:105520006B48408848B911B912F0F00F1FD03B68A2
:1055300003F8016B3B6070261AE079B912F0F00FA6
:105540000CD1296823F03F031A43634B0A701B8870
:10555000033121F8023C6826296009E05C4A2B6887
:105560001068186003F8046B2B60602600E0782652
:10557000574B9A790293112A08BF46F00406730725
:105580005EBF3B6803F8012B3B60029BDB79402B3D
:1055900006D0FF2B07D0012B08D146F0010609E009
:1055A00046F0020606E046F0030603E03A6802F819
:1055B000013B3A60029A464B128982B95A8972B904
:1055C0009A8962B9DA8952B91A8A42B95A8A32B9C1
:1055D0009A8A22B9DB8A13B944F0400013E03F48AD
:1055E000FFF792FE3E4B186078B142781BF8083006
:1055F000042043EA02130BF808303849394AFFF710
:1056000019FE60F03F00C4B227E0029B30491A89BE
:1056100048F2FE039A420CD14B8B53B98B8B43B9A2
:10562000CB8B33B9042008312E4AFFF703FE204309
:10563000E9E73A68DFF8A4C096460CF1100A634621
:1056400003CB5345CEF80000CEF804109C460EF173
:10565000080EF4D11F4B10321A60DFF874A09AF8CC
:105660001830FF2B40F08A809AF8192044F0080E79
:10567000022A5FFA8EFE37D1BAF81A30A3BBBAF805
:105680001C308BBBBAF81E3073BBBAF820305BBB42
:10569000BAF8223043BBBAF824302BBB9AF8263034
:1056A00013BB3B689AF8272044F00B0003F8012B4A
:1056B000C4B23B609FE000BFAB560020025C0020FC
:1056C00004450020F8440020BFE02000785D002061
:1056D0008C5D0020F44400208E5D0020945D00204D
:1056E000EC440020845D00209A4B588B194688BBFF
:1056F000988B78BBD88BA8B9188C98B9588C88B976
:1057000093F8240070B9296844F00A00C4B208462E
:1057100000F8012B33F8252F043121F8032C9B7856
:10572000837015E0C98B8B4BA1B9198C91B993F893
:10573000221079B9296844F00900C4B2084600F87B
:10574000012B53F8232F063141F8052C1B790371E7
:10575000296050E0804ADFF814C214680CF1100888
:105760002746634603CB4345386079609C4607F182
:105770000807F6D11034146074463CE00AF11800B2
:10578000FFF7C2FD754B186050B143781BF8081045
:1057900044F004040B43E4B20BF8083000200EE0A0
:1057A00048F2FE03BAF818209A4210D1BAF81A301B
:1057B0006BB9BAF81C3053B9BAF81E303BB90AF1CC
:1057C000180104AAFFF736FD2043C4B213E0624A71
:1057D000DFF898C117680CF11008BE46634603CB8A
:1057E0004345CEF80000CEF804109C460EF1080E9A
:1057F000F4D110371760019A5649282313708B791A
:10580000112B53D14FF2B0030A8D52BA92B222F04B
:105810000F0080B2984217D14B8D5BBA23F00F0373
:105820001B041B0C83420FD12868F32303704B8D9C
:1058300002301A0A0B8D1B0A02EB031303F5AA634D
:1058400000F8013C286028E0029B42495B8D5BBA6E
:1058500003F47F43B3F5704F09D12B68F1221A701E
:105860000A8DA3F801204A8D120ADA700CE002F4C6
:105870007F42B2F5704F2B6808D1F2221A700A8D60
:10588000120A5A704A8D5A80043305E0F0221A70C9
:10589000886A053343F8040C2B60314B1A882B6857
:1058A00023F8022B019A2B6030231370009BD9F848
:1058B00000201B78D65413445C70274B1B689B1A3E
:1058C000009A1AE0D9F8002041231370009B06F1DA
:1058D00028051C78631CDBB21344324603CAAA4273
:1058E00018605960164603F10803F6D1009B29346D
:1058F0001C70019B019A1B782833137004A9132094
:1059000004F026FD174BDFF868801B68984730EAE3
:10591000200028BF1520039BC0F17D051C88019B3A
:10592000DFF850A01E78009BA21B93F800B00E4F2A
:10593000CBEB05039A4240F3CC80C0F1780301938E
:1059400004F030FD019B94FBF3F40134A04213DC1E
:105950000020D0E08C5D0020F4440020EC440020C6
:10596000BA5D002038DE2000025C0020A45D00202B
:10597000785D0020AB560020D9F800B05F4B3C7832
:1059800000221A60594622460BF10400039306F0E8
:10599000CFFAB8F800205A496FEA82426FEA924281
:1059A000C2F307228BF80020B8F8002004348BF8EB
:1059B00001200A88E4B2501C0880110ADFF850C1A7
:1059C0008BF802102D1B9AF8001025F007054D4E9C
:1059D00061448BF803200BEB04002A46CDF808C085
:1059E0003C70356006F02EFA281980B204F0C6FB30
:1059F00004F0DEFC039B04461D460028A8D00DF1F0
:105A0000100B5846FFF794FC204604F009FD204691
:105A100004F0F0FC2B68012B9AD0043B012B97D9A2
:105A20009AF800A0336853441FFA83FA05233B70A9
:105A3000354B1A68B8F800306FEAC3436FEAD343B6
:105A4000C3F307231370B8F800305370019B23F0A1
:105A5000070737602D4B1B889A454BD2D9F8002099
:105A60004FEADA0111713268CAEB03039342B8BFFF
:105A7000244AD9F80000B8BF1360009B376893F838
:105A80000080029B3A4603EB0A01404406F0DAF933
:105A900008EB070080B204F071FB04F089FC0746B4
:105AA00000283FF455AF5846FFF742FC384604F053
:105AB000B7FC384604F09EFC124B1B689A442B68D6
:105AC0001FFA8AFA012B3FF443AF043B012BC1D8E4
:105AD0003EE7D9F800000E495844314406F0B2F9C7
:105AE000B8F800005844801B80B204F047FB04A8BB
:105AF000FFF71EFC012007B0BDE8F08F0045002035
:105B000042500020FC440020F8440020785D002032
:105B10008C5D00202DE9F047074688461646002A8E
:105B200047D0434C0025A146238ABB4215D1638A46
:105B30009BB1122004F018FC0146204607F0ADFD91
:105B400058B1ECB220463146FFF718FC002827DA9E
:105B50000027DFF8E0A0B8460DE0B834002D5DD195
:105B60000125E1E7A8450BD10AF1B80AB8F1000F09
:105B700010D14FF001083AF8063C002BF4D0F1E7C1
:105B8000504606F0E2FD0028EED04046FFF722FB2B
:105B90000744E9E7002F41DD20463146FFF7EEFBE1
:105BA00000283BDDB82303FB0595AB8A1844A88287
:105BB0003AE0204DFF2435F8063C4FFA84F97BB3D8
:105BC000284606F0C2FD10B13046FFF703FBB9F1DD
:105BD000FF3F03D135F8063C03B9F4B2012E05F1BD
:105BE000B80501D00126E6E765B26B1C16D0B823D4
:105BF0005D43DFF83C90122009EB0506A6F8128001
:105C0000378204F0B1FB0146304607F041FD05F153
:105C100018004844402106F086FD05E0FF2403E01B
:105C2000B9F1FF3FDAD1D8E760B2BDE8F08700BF35
:105C300008450020204500202DE9F04F122087B0B4
:105C4000A54CDFF8CCA204F08FFB002604F0C8F8C6
:105C50008AF80060267004F0ADFAA04DA0462860D6
:105C6000042004F06FFB9E4B2A6800B2186057783E
:105C7000137847EA032703F0F803C02B02D0E02B88
:105C800019D03AE090782378D278C7F30A07043322
:105C900042EA0020394632462370FFF73BFFB0F15D
:105CA000FF3F814600F07F828E4CB82303FB004407
:105CB0000126223424E01379D17890782278C7F332
:105CC0000A070532227041EA00201A46394600933D
:105CD000FFF720FFB0F1FF3F814600F06482814969
:105CE000B82202FB0012958A4FF0010BBD4234BF6F
:105CF000002501253446009BDFE1B1464F467A4C32
:105D0000296898F800504A5D02F0E003602B40F0EB
:105D1000B681A81C084429444D78744B5FFA85FC71
:105D20001CF0800F18601CBF0130186012F0100FBB
:105D300002F0080130D1D1B9196831F8010FA4F887
:105D400001008978E170196811F8040B1960830863
:105D500003F00F0141F060012170617803F030031E
:105D600043EA801301F00F010B43637030E01868C1
:105D70006021864621701EF8011B03304FEA910B0B
:105D80000BF0300B01F00F014BEA01016170BEF81E
:105D90000010186061801BE001F0FF0E99B91968CE
:105DA0000878C0F3830040F06000207011F801BB58
:105DB000A4F802E04FEA9B0000F0300040EA8B10AC
:105DC0006070196004E060232370002363706380B7
:105DD00002F0040303F0FF0100912BB943490B6863
:105DE00013F8010BA0710B6012F003020BBF3F4AC6
:105DF0003F4B13689B5C09BF13F8011BE3711360F1
:105E0000E1716B06C5F3011233D51CF0800F1DBF85
:105E1000324998F80030096800211EBF5B18997854
:105E2000090922B904F1080B9AB9114614E0314B63
:105E30001878012805D1587888420CBF19460021EE
:105E400000E000212C4B19600029EBD1B3460D4630
:105E500032E1294B19680231284B12209A5C0391D8
:105E6000CDF808C0019204F07FFA03990346584622
:105E70000BE0234B12209A5CCDF808C0019204F08D
:105E800073FA2049034604F10800019AFFF7A2FAC9
:105E900005F00800DDF808C005F0030200F0FF017E
:105EA00005F00403002835D0002B6BD1164B1B885E
:105EB000ADF81430531E012B9FBF0C490B6813F82B
:105EC000010B0B60114B98BF8DF815009A5C04F123
:105ED000180005A9002353E0025C0020F8440020CC
:105EE000F0440020084500208C5D0020F444002090
:105EF0006DE02000AC560020EC44002086E020003D
:105F000071E0200075E020006BE0200077E02000C9
:105F1000AB56002053B31CF0800F1DBFA34998F867
:105F2000003009680B4618BF5B18A14918BF9D785F
:105F3000087818BF05F00F03012805D14D789D4260
:105F40000CBF0D46002500E000259A4B1D60002D7A
:105F500000F0AE80984B13209A5C019204F004FA92
:105F6000A91C0346019A04F1180009E0934B132081
:105F70009D5C04F0F9F92A469149034604F11800A2
:105F8000FFF728FA9AF800008E4900F128038AF8F2
:105F90000030009B002B53D00B681A7802F0F802F7
:105FA000F02A4DD11122A2711A7802F0040502F0F4
:105FB000F302F03AEDB2032A7CD8DFE802F0020ADD
:105FC0001622B3F801200533228533F8022C6285AE
:105FD0002CE0B3F801202285DA78A2F5805292B243
:105FE000120242F0F002628509E05A78A2F580526E
:105FF00092B2120242F0F00222855A88628504337E
:1060000014E05A7802331209A2F5756292B21202B4
:1060100042F0F002228513F8012C02F00F02A2F5E3
:10602000756292B2120242F0F00262850B6025B9ED
:106030000B6833F8022BE2850B6030308AF80000E1
:106040005A4A0B6812689B1A88F8003067B904F046
:106050009FF85D4B1B78C01A9AF800301844283816
:1060600003122371607104E0A7F128031A12227150
:106070006371A379112B1DD1A388A3851AE0412A4E
:1060800040F091806A1CD2B28B18224603F128019D
:1060900053F8040B8B4242F8040BF9D105F12903A4
:1060A00088F800309AF8003028338AF8003001E090
:1060B000B34601E0B34600252B46009304F068F890
:1060C00098F8002082426ED804F062F83E4A009BA5
:1060D00012789AF800A0DB009BB2C2EB0008534490
:1060E0003A494344B3F5807FC1F800805BD83CB1A6
:1060F0002E4B04EB0A0019681144424605F0A2FE3B
:10610000002F39D056B132484FFA89F3B82404FB36
:10611000030308EB0A0189B29982198495B3B82266
:106120004FFA89F402FB04F329492A48CA18114698
:1061300097822231128C05F085FE274D05F24C56D0
:1061400015F8012C5AB115F8033CA34207D115F8F4
:10615000020C204B294603EBC00005F073FE71359D
:10616000B542EDD15FFA89F0FFF734F8BBF1000FCB
:106170000BD01A4B1F800CE0BBF1000F05D0002D97
:10618000F7D110E0BBF1000F0DD1144BD044A3F8B0
:106190000080134C236823B1FFF794F823685B68F1
:1061A000984701F0B3FF07B0BDE8F08FF844002036
:1061B000AC560020EC44002086E0200071E0200076
:1061C00075E02000F4440020025C0020FC44002024
:1061D000084500208C5D0020B9560020785D002025
:1061E0000445002037B5124B124D1C782B796A7983
:1061F000C4EB032313449BB2ADF80630BDF8063060
:1062000005F108011844202280B206F070FBBDF8A9
:10621000062004F12801294492B206F068FB10B16F
:1062200040BA80B201E04FF6FF7003B030BD00BF4E
:10623000035C00208C5D00202DE9F041264F274EA5
:106240003D7827482835AB195C780223E4000734F1
:106250009C423DDBE9187218715CDFF880800129EF
:1062600031D002D3632902D011E001332EE0037054
:1062700018461B4C02F026FDD0B13B78227828331B
:10628000134443445B7813440233237021E001F04C
:10629000C001802905D0C02905D0402913D1037041
:1062A00006E0037007E098F818200370FF2A02D177
:1062B0000120BDE8F08104200221EA1801F032FD3E
:1062C0000220BDE8F081527802321344DBB2BFE70E
:1062D00003700020BDE8F081035C00208C5D00208D
:1062E000095C0020F0B5C578124A0D44EDB2D570B6
:1062F00083780F0A3B44DBB293704478BB425470FE
:106300000678167005D2601CC0B2507008B901360C
:106310001670C9B28D420CDA0133DBB205499370B5
:106320003BB94B780133DBB24B7013B90B780133B7
:106330000B70F0BD805D002010B5084C0146206850
:106340001430FFF7CFFF064A23681178197551788A
:1063500059759178D2789975DA7510BD9C5E0020D8
:10636000805D002008B501F0F5F801F0C3FD06F0EE
:106370004CFB00230E49002221F813200133082B87
:10638000F8D10C49002311443032B2F5F07F81F886
:106390002530F6D1084A4FF480611180074A002168
:1063A0001A442033B3F5A07F1182F7D108BD00BF96
:1063B00088600020A05E0020445000209C600020E7
:1063C0002DE9F041124F3D7805B3DFF84C8005F11F
:1063D0002703B8F80040A34203DB0023A8F80030ED
:1063E00013E00C4EA4F1280205F12801641BA4B2AD
:1063F00006F128003144521B05F09AFDA8F8004030
:10640000283C23123371747100233B70BDE8F08186
:10641000035C00208C5D0020785D00200023064A8C
:1064200032F81310814203D1002122F81310704773
:106430000133082BF3D17047886000200023054A00
:1064400032F8131011B922F8130070470133082BEA
:10645000F5D17047886000202DE9F74FA24E04283F
:106460003468A24F00F06F82A149A24DA24A0328CE
:106470000D6015608A4615D194F8253003F00F039E
:10648000032B08D1A38B002B40F074869B4B082272
:106490001A7000F065BD022B40F06C86002305F8F1
:1064A000073CB3E302287AD1954A00231370954A3A
:1064B0003B801380944AD3780133DBB2D37063B945
:1064C00093780133DBB293703BB953780133DBB27D
:1064D000537013B913780133137094F8253003F017
:1064E000FD02052A0DD194F826300133DBB2782B5A
:1064F00084F8263040F03E86002384F8253000F0F2
:1065000039BE002B00F03686A28B7C48002A3DD095
:1065100094F82620511E84F82610002A40F02A867E
:1065200094F82720082A04D0591E01290AD8052AE0
:1065300008D1002384F825308023037001F044FF44
:1065400000F01CBD042A9CBF0321914003F00F03FF
:1065500094BFC9B230210132013B84F8261084F87F
:106560002720072B00F20686DFE813F04C03080013
:106570000A00C3040406C3040406C304002242E361
:106580000423037001F020FF00F024BD03F00F038B
:10659000032B40F0EF850823037000F0E1BC0528D1
:1065A00011D15A4B1B681B8A002B00F0E3850C3D70
:1065B0001560544A0023138033603B804F4B082200
:1065C0000D601A70BDE115F83C3C3C3D03F0F00352
:1065D000602B40F0CF852B796A791B023988981897
:1065E000884200F3C785283213443B802B7AFF2B67
:1065F00000F0C085464EAB1D3360464C404B002238
:106600001A702270AA799846BAB901232370FFF74D
:1066100013FE012800F0AE8503D3022800F0A68502
:106620000BE098F8003003F128022A4432605278D7
:10663000083303EBC20388F80030374800F028FE27
:10664000002840F0B280344800F0C8FE002840F036
:10665000AC802A7E304BFF2AA3F1180360D048F2A9
:10666000FE00198B81425BD01989814258D079B9DB
:10667000598969B9998959B9D98949B91B8A3BB9E5
:10668000698A264B21B9998A11B9DB8A002B47D038
:10669000298B224B79B9598B69B9998B59B9D98B07
:1066A00049B9198C39B9598C29B9998C19B9DB8C2C
:1066B000B3F5807F34D03B88B3F5A06F04D90220B6
:1066C00000214FF4A06205E0EB79012B06D80021F0
:1066D0000A46032001F026FB00F048BD0F4A013BAB
:1066E000D37100F043BD00BF9C5E0020785D0020A8
:1066F000985E0020C85D00207C5D00208C5E00203C
:10670000035C002098600020055C0020945E00205F
:10671000905E0020045C0020A45D00208C5D0020C1
:1067200048F2FE032989994240F02485298BA14B28
:1067300081B9598B71B9998B61B9D98B51B9198CC0
:1067400041B9598C31B9998C21B9DB8CB3F5807F73
:1067500000F01085FF2A00F00D85974800F078FDC5
:106760000246002840F0068501200221B2E725D923
:10677000B9F13A0F78D02CD9B9F13B0F00F0FA8477
:10678000B9F13C0F6CD123788C4998073BD558065A
:1067900066D443F040030B70FFF74EFD012800F074
:1067A000E98433D3022800F0E1843268DFF83CB298
:1067B00092F80090B9F12B0FD9D134E0B9F1060F5E
:1067C00000F01681B9F1110F6FD0B9F1000F47D168
:1067D00004E0B9F12C0F00F0CD8441E02378D90713
:1067E0003ED4764A43F001031370FFF725FD0128DC
:1067F00000F0C084D6D298F8003003F128022A4471
:10680000CBF8002008E043F00203C4E798F800301A
:1068100003F128022A4432605278083303EBC203A2
:1068200088F80030C1E7237803F0040000F0FF018E
:10683000B0B9624A43F00403137098F8002002F1E3
:1068400028032B44D87810B104202A3242E7CBF831
:1068500000305B78083202EBC302594B1A70A4E790
:1068600004200121521B35E706F05DF84FF6FF7357
:10687000984240F07F8498F800302833E85C01F0BB
:1068800031FC98F800302833EA18E85C517801F0C0
:1068900027FA012801BF0023494A3B8013703B8837
:1068A000002B00F0678400F061BCFFF789FDEB8DE1
:1068B00085F8069053B96E8D002E00F05B84414B35
:1068C000414D2B603B4BB3F828800BE006F031F8CC
:1068D0004FF6FF73984240F04D84ECE7238A33B9BA
:1068E00020342C602C68394B9C42F7D315E09E4233
:1068F000F6D1638A0BB19845F2D123682BB963684E
:106900001BB9A3680BB9E3685BB13148214610227B
:1069100005F066FA0028E3D103E0012004210022FB
:10692000D8E63B882B49303B3B8000230B602A494B
:1069300002202A4A08702A49CAF800200A60294A17
:10694000138001F041FD274B1A88002A00F01284C1
:1069500002F13003174C9BB23B80283B1912637144
:10696000194B08321B6852BA2171197DA285002289
:10697000E2851A8AE17122855A8A11216285A17104
:1069800004F118050FCB85E80F0004F10800294633
:1069900000F082FD144B04F13C021A6005F0C9FFBF
:1069A000C04380B208B1E085DAE34FF6FF73E385B8
:1069B000D6E300BF8C5D0020A45D0020045C0020B5
:1069C000035C00209C600020945E0020DC610020BD
:1069D000945D00209C5E00208C5E0020BC5D002049
:1069E0007C5D002098600020985E0020905E002072
:1069F000FFF7E6FC85F8069005F098FF4FF6FF7369
:106A00009842AE4C40F0B683B4F82AB0BBF1000F08
:106A100000F0B083238D002B00F0AC83A84EB44669
:106A200096F82590B9F1000F11D0328A5A450ED14F
:106A3000728A9A420BD1A348314610228DE8081081
:106A400005F0CEF99DE80810002800F0F5809E4A78
:106A500030369642E4D195F8352002F03F02022A02
:106A600008D10022994931F81210594550D001320D
:106A7000082AF7D195F83520904B520700F17A8318
:106A8000142283F835203C223A80502283F83420A7
:106A900093F8332093F8314093F82F0083F82F2098
:106AA00093F8322093F82E1093F8306083F82E205C
:106AB000013093F82D2083F82D4093F82C40C0B27C
:106AC00083F8321083F8312083F82C6083F830404B
:106AD00083F8330060B90131C9B283F8321039B993
:106AE0000132D2B283F8312012B9621C83F830200F
:106AF0002B8D6A8D734C2A856B8504F1100594E803
:106B00000F0085E80F002046294600F0C5FC12E37F
:106B1000002421466A4A92F8250018B9302404FB63
:106B200001C413E0072809D13CB192F8266094F81B
:106B30002600864288BF144600E0144601310A2927
:106B400002F13002E7D1002C00F01483604A638226
:106B500014605C4B032284F8262084F8242004224D
:106B600084F823200FCB84E80F005A4B01201A78B9
:106B7000002622765A7884F8250062769A78DB78A7
:106B8000A276E37695F82C30A083237595F82D3006
:106B900084F82260637595F82E3084F82760A37519
:106BA00095F82F30A4F810B0E375FFF7C5FB95F802
:106BB000343003F0F002502A24D91A093346053A3A
:106BC0009200E91891F83C00E0B1012801D10133AD
:106BD00016E002280FD191F83D0004280BD191F85E
:106BE0003E2091F83F3043EA0223402B28BF402348
:106BF000E383238406E0E91891F83D1011B10B44BA
:106C00009342DEDB10222D4B83F835202B4B93F87B
:106C1000352042F0020283F83520022283F83C201E
:106C2000042283F83D20002283F83E20402283F88E
:106C30003F203A80602242E2254B95F835101E60D5
:106C4000254B11F0040F344618709B4603D086F88C
:106C500025002022E1E13B8809F00F09A3F1280279
:106C6000164BB9F1020F93F834304FEA1313A2EB2D
:106C700083039BB23B8003D101F03F02122A05E05F
:106C8000B9F1010F03D101F03F02022A26D00BB95E
:106C90008B0723D0AA8DB38A9A4204D1074BDA8D91
:106CA000F38A9A421AD0880740F10282B9F1010FA3
:106CB000A8D0B9F1020F40F0FB81A7E78C5D00205E
:106CC000A05E0020945D002080600020886000208D
:106CD0009C5E0020055C00208C5E0020C90654D517
:106CE000B18B002951D006F11800FFF7FBFAB24B27
:106CF00095F8301093F800E0B04A8E4545D192F8EF
:106D0000311093F801C08C453FD192F83200997848
:106D100081423AD192F83320DB78934235D1F37631
:106D200096F8273086F818E086F819C0B1761BBBB4
:106D300096F8243096F8261096F82200591AA1EBFE
:106D4000D001C9B25FFA81FE1EF0800F96F82330A1
:106D5000084418BF4942A3EB930318BF5FFA81FEB2
:106D600003EB0E02C0B2D3B286F8233003EBD0039C
:106D700086F8220086F82430914B01221A7096F88A
:106D8000243086F826300023B38396F82510DFF8E8
:106D9000309201F00F03013B072B00F2EB81DFE89B
:106DA00013F0080025008300400162017C01870187
:106DB000320199F80020824BD2070FD5032286F8C2
:106DC0002520388840221A700022B283002800F063
:106DD000C48042221A70FFF7AFFABEE095F8353052
:106DE00003F03F03022B40F0C5810BE799F8003018
:106DF000DB074ED595F8353003F03F03122B48D111
:106E00006E4B93F8343003F0F002502A24D91B095A
:106E1000053B9B0000202A1892F83C10E1B10129A3
:106E200001D1013016E002290FD192F83D1004295A
:106E30000BD192F83E1092F83F3043EA0123402BE9
:106E400028BF4023F383338406E02A1892F83D20BC
:106E500012B110449842DEDB032386F8253095F802
:106E60002C300120337595F82D30737595F82E3040
:106E7000B37595F82F30F375FFF75EFA4223514A48
:106E80008BF800300023B3833B8088F800301380F8
:106E900066E020238BF8003001F096FA4A4B00227E
:106EA0001B6883F82520E5E595F83530D80725D50A
:106EB000CA0623D4B38B002B40F05C8138880130A4
:106EC00080B2FFF739FA9BF8003043F010028BF8DC
:106ED00000203A881AB13A4A43F01203137001F0C5
:106EE00073FA0123B383082386F82530002386F83C
:106EF00027301122314B83F83520DCE098060DD580
:106F000095F83A2095F83B3043EA0223DAF800205E
:106F10001A44CAF800203A88D31A3B80388848B10E
:106F2000CA0607D499F8003043F0020389F800300C
:106F3000FFF702FA95F8362095F8373003EB022375
:106F4000328C9BB2934202D8002B18BF1A4699F894
:106F50000030F2839B0700F00D811A4B00221A804B
:106F600001F032FA164B1A78164B02F0200000F0AE
:106F7000FF0128B100221A8084F825201422B9E7E5
:106F800002F0100000F0FF0540B119800123A38337
:106F9000042384F8253084F82710AAE71988B1B1B2
:106FA000D60748BFA583A28B82B9E28B914288BFE6
:106FB0001A801B88A3830AE0805D00208C5D00207E
:106FC0008C5E0020986000209C5E00201A800023C8
:106FD00084F827306D4B1B68CAF800306C4B1B8857
:106FE0002BB1A38B1BB13C333B80182207E0694BCC
:106FF0001B789D0740F1BE803C233B801022664BEE
:1070000083F8352059E099F80030DC0740F1B28070
:10701000002386F825305F4B10221A7001F0D4F956
:10702000A8E0388808B1FFF787F995F8353013F0F4
:1070300001030FD099F80030D80745BF072386F821
:1070400025300623002346BF86F82630B38386F812
:10705000253016E099F80020D1071BD5052286F8C7
:107060002520B38386E0388808B1FFF765F995F8E5
:107070003530DA070ED5072386F82530002386F849
:1070800026300120FFF758F9102389F8003001F06D
:107090009BF90DE03B885BB96CE099F80030DB07A9
:1070A00068D5072386F82530002386F8263061E06E
:1070B000102385F835303C233B80374B502283F832
:1070C0003420237D344D85F83030637D05F118067A
:1070D00085F83130A37D85F83230E37D85F8333093
:1070E000237E85F82C30637E85F82D30A37E85F8CD
:1070F0002E30E37E85F82F30238A2B85638A6B85BB
:1071000094E80F0086E80F0005F10800314600F012
:10711000C3F994F8253003F0100303F0FF022BB1FC
:10712000002385F8373085F8363004E03C2385F8B5
:10713000362085F83730184C0623A371174B1B797E
:10714000E3713B88283B1A1263710023227184F893
:107150003B3084F83A30238705F0E8FBC0432087B2
:107160000D4B60221A7000225A705A80094B00227F
:107170001A7007E00A4A002313700A4A3B80137012
:10718000044A137003B0BDE8F08F00BF7C5D00209F
:10719000986000208C5E00208C5D0020E46100205F
:1071A000035C0020045C00200C4A0346106828B1F0
:1071B0000B4A121A9142A8BF114602E0C429A8BF87
:1071C000C421002909DD074A8342118005D08AB213
:1071D00000B90548194604F035BE70477C5D0020B3
:1071E0008C5E002098600020C85D00202DE9F341EE
:1071F0000446154D00910E4690461F4601952346C4
:1072000012480321202205F0A1FB01282B4616D1AC
:107210002A6804F11001107020462A68023250F8E2
:10722000044B884242F8044BF9D11868089B8674D5
:107230004361099B80F813800777836100E0002099
:1072400002B0BDE8F08100BF7C460020E062002073
:1072500070B506460B4D0C4B2B602C680B4B9C42BB
:107260000BD2237833B1A27CA01C3146D20804F0A3
:10727000B7FD20B120342C60EFE7002070BD012065
:1072800070BD00BF7C460020E0620020406300200B
:1072900013B5084C8022034600920194064803214E
:1072A000202205F053FB08B9206800E0002002B05E
:1072B00010BD00BF80460020FC61002010B50C4AC4
:1072C0000C4B136013680C498B420DD2197849B1ED
:1072D000411C02D0997C814204D148F2FE015C88B5
:1072E0008C4202D02033ECE70023184610BD00BFCB
:1072F00080460020FC6100205C62002037B5044617
:107300000F4D80230093019523460E48052112223C
:1073100005F01CFB01282B460ED12A6804F1100150
:10732000107020462A68023250F8044B884242F816
:10733000044BF9D1186800E0002003B030BD00BF55
:107340007846002080620020F7B50546204C802357
:1073500000930E46174601941E48032120222B4617
:1073600005F0F4FA012830D12A46236805F110010E
:1073700018702368023352F8040B8A4243F8040B56
:10738000F9D12068C77416B90123037505E00023FD
:1073900003753146183005F0BFF923680E48012106
:1073A000997402234370FF2200230270438083807C
:1073B000C38003818372C17202736B7B4373EB8959
:1073C000C381FFF79BFF206800E0002003B0F0BD01
:1073D00080460020FC6100204650002013B5084C78
:1073E000802203460092019406480521122205F0EE
:1073F000ADFA08B9206800E0002002B010BD00BF5F
:10740000784600208062002038B50546C8B10D4896
:10741000022200244270FF230122C2724480848031
:10742000C4800481847203730370EB7B43732B8AE3
:10743000C381FFF7D3FF044A106008B105F0AAFA30
:107440002C7038BD465000207846002010B50E4BF9
:107450000E4C236020680E4B98420ED203784BB13D
:10746000037D3BB91830FDF753FD18B1074B186881
:10747000FFF7CAFF23682033EBE700F06BFBBDE8A2
:107480001040044805F026B9FC6100208046002029
:107490005C620020406300202DE9F84348F2FE03BF
:1074A0000A8805469A42884621D00B78FF2B1ED0C9
:1074B0001B4B0024A1461F461A4A1A603E681A4A0E
:1074C000964218D233787BB1B37C012B0CD148F2B1
:1074D000FE0372889A4207D04046B11C05F067FA55
:1074E000484524BF3446814620363E60E6E7012009
:1074F000FFF7E4FE04464CB92C806C80AC80EC8035
:107500002C816C81AC81EC81BDE8F883A31C123422
:1075100053F8042BA34245F8042BF9D1BDE8F883B6
:1075200080460020FC6100205C62002010B5FDF761
:107530007FFD0446FDF77CFD054B24029A68A4B24A
:107540002044B0FBF2F302FB130000EB520010BD2D
:10755000E461002073B52F4C00F07CF800F010F9C6
:10756000002160222C4804F047FD00212046F8222B
:1075700004F042FD294B20221A70294B18221A7060
:107580004FF4A0632360274B40262671A360FFF7CA
:10759000CDFF42F21073236148F2FE03314640F200
:1075A000FF260025E06025751F4C2A462380658054
:1075B0002B46A580E580204600950195FFF716FE35
:1075C00020461A4905F0EAF9294601222046FFF72C
:1075D000BBFE4FF480732046E38126806580A58042
:1075E000E58025816581A581FFF788FE4FF4007352
:1075F000204626806580A580E58025816581A5815E
:10760000E381FFF77BFE0A480C2102B0BDE8704021
:1076100005F057B8E4610020E0620020DD62002040
:10762000DC620020C027090046500020845D002055
:107630004063002010B5044640B100F0ABFF044B9E
:107640002146BDE81040186802F03CBD10BD00BFE7
:10765000B840002008B502F0E9FB034B0349186865
:10766000BDE8084002F076BCB84000203576200026
:1076700070B51E460C4B04469DF810201868059BFB
:1076800002F096FC054668B120462B4604F1100234
:1076900050F8041B904243F8041BF9D16E7428463D
:1076A00000F078FF284670BDB8400020024B01462C
:1076B000186806F071B800BFB840002070B50C4DD6
:1076C0000646286802F05AFC044666B9002070BDE0
:1076D00020463146102204F083FB38B12146286849
:1076E00006F022F80446002CF2D1EFE7204670BDE8
:1076F000B8400020024B0146186806F034B800BFBD
:10770000B840002070B5054613200C4602F02CFE50
:107710000849064605F0C1FF58B9304629462246B9
:1077200002F022FB304629462246BDE8704000F0B8
:1077300007BF70BDBFE020002DE9F04105460D48B0
:107740000F46904605F012F8044688B1012D04D882
:10775000094805F041F8034601E0084B1B6828463C
:10776000666839464246B047204605F03CF8EBE7EC
:10777000BDE8F081504A0020C8460020C4460020E1
:1077800008B50B4805F032F80A4804F0ECFF0A4B44
:107790000A49186802F0DEFB094805F027F8094895
:1077A00004F0E1FFBDE80840074804F0DCBF00BF7B
:1077B000EC4000204C470020E840002007CA200091
:1077C000CC400020C8460020504A002008B503469F
:1077D00040B1054A5968106805F0DEFFBDE8084071
:1077E00005F002B908BD00BFE8400020014804F0E0
:1077F000BDBF00BF4C47002008B505F0F7F80146B3
:1078000038B1044B186805F0AEFF003018BF0120F6
:1078100008BD08BDE84000202DE9F0418046FFF793
:10782000E5FF0026044637469CB194F82450B54243
:107830000AD3404604F10801EA0804F0D1FA18B965
:10784000802D08D02E462746204605F0D8F804465D
:10785000EAE73C4667B1084804F088FF844207D055
:107860000548214604F08CFF0348214604F0ABFF95
:107870002046BDE8F08100BF4C47002038B50446E3
:1078800000283ED04368002B3BD01E48214604F020
:1078900077FF6368586804F069FF054630B14368B4
:1078A000A34207D0284604F09EFFF6E704F1080043
:1078B00000F0BEFD63682946586804F061FF636804
:1078C000586804F053FF28B963680F4A5968106874
:1078D00002F0F8FB21460D4804F0ACFF29460C48A5
:1078E00004F0A8FF0B4A20461368013B1360FFF722
:1078F0006DFF04F108010246BDE838400320FFF7A0
:107900001BBF38BD4C470020E8400020EC40002061
:10791000F8400020C446002010B5044680B14068FD
:1079200070B104F023FF20B14068FFF7A7FF606843
:10793000F7E7044B2146BDE81040186802F0C2BBCF
:1079400010BD00BFE84000202DE9F84F0746104663
:107950008946904605F04AF8834610B90020BDE8F4
:10796000F88F3846FFF758FF044660B1FFF72EFF47
:10797000014628B14046102204F032FA002859D0BE
:107980002046FFF77BFF2D4B1A689A46102AE5D058
:107990002B4E5946306805F0E6FE054668B92B4681
:1079A00030685946042202F003FB05460028D5D072
:1079B00000236860036004F0D6FE224804F026FF2E
:1079C00004460028CAD02048214604F0FCFE1F4887
:1079D00004F01CFF834620B921461A4804F02AFF10
:1079E000BCE744606868594604F0DEFEDAF800300F
:1079F0006560013330682946CAF8003002F078FB30
:107A00003B4604F1080507F110062A461868596834
:107A1000083303C2B3421546F7D100210C2284F883
:107A2000249004F1180004F0E7FA02203946424697
:107A3000FFF782FE2046BDE8F88F00BFC446002055
:107A4000E8400020EC4000204C470020F840002097
:107A500038B505460D4804F089FE0446A0B1AC4295
:107A60000ED12146094804F08BFE2146084804F057
:107A7000E1FE211D01200A46BDE83840FFF75CBE4B
:107A8000204604F0B0FEE8E738BD00BFC84600203D
:107A9000CC40002038B50546084804F067FE04468F
:107AA00048B1201D2946102204F09AF918B1204649
:107AB00004F099FEF3E7204638BD00BFC846002019
:107AC000F8B505460F46FFF7E5FF044640B91348F1
:107AD00004F09CFE0446F0B11148214604F073FE08
