:020000040020DA
:10200000906C00208D22200047C0200045C0200099
:1020100045C0200045C0200045C020000000000051
:1020200000000000000000000000000045C020008B
:1020300045C020000000000045C02000A5C02000D1
:10204000C7C02000CDC02000D3C02000D9C02000D0
:1020500000000000ABC02000B1C0200045C020003F
:1020600045C020000000000000000000000000004B
:10207000000000000000000045C02000000000003B
:10208000000000000000000045C0200045C0200006
:1020900045C0200045C0200045C0200045C02000AC
:1020A00045C0200045C0200045C0200045C020009C
:1020B00045C0200045C0200045C0200045C020008C
:1020C00045C0200045C0200045C0200045C020007C
:1020D00045C02000000000000000000000000000DB
:1020E00000000000000000000000000000000000F0
:1020F0000000000000000000CD382000DD38200086
:1021000000000000000000000000000000000000CF
:1021100000000000000000000000000000000000BF
:1021200000000000000000000000000000000000AF
:10213000000000000000000000000000000000009F
:10214000000000000000000000000000000000008F
:10215000000000000000000000000000000000007F
:10216000000000000000000000000000000000006F
:10217000000000000000000000000000000000005F
:10218000000000000000000000000000000000004F
:10219000000000000000000000000000000000003F
:1021A000000000000000000000000000000000002F
:1021B000000000000000000000000000000000001F
:1021C000000000000000000000000000000000000F
:1021D00000000000000000000000000000000000FF
:1021E00000000000000000000000000000000000EF
:1021F00000000000000000000000000000000000DF
:1022000000000000000000000000000000000000CE
:1022100000000000000000000000000000000000BE
:1022200000000000000000000000000000000000AE
:10223000000000000000000000000000000000009E
:10224000000000000000000000000000000000008E
:10225000000000000000000000000000000000007E
:10226000000000000000000000000000000000006E
:1022700045C02000B5372000D9372000652E20004A
:102280003D3A20000129200045C0200008B5094B37
:10229000FF221A600848094A4824E3690849121ACB
:1022A00098470848084AA3690021121A984700F085
:1022B0000DF8FEE7B4200D40404000201D420020F4
:1022C000DCDD2000204200208C640020F7B500F007
:1022D0006DFC00F061FD00F0BDFC00F06FFA01F054
:1022E0009BFB09F0C4FF00F04FFD00F0C9F801208E
:1022F00009F0ACFE02F048FB00F044FC002000F0C6
:1023000055FB012000F052FB4949002000F024FC5D
:1023100002F07EFC09F0CFFE042009F097FE45484C
:1023200009F0F6FE444809F0F3FE00F0E9F9002058
:1023300002F016FD01F064FA4048002102F0B0FB03
:1023400002F054F909F0ACFE00F0AEFD00F0CAFD59
:1023500007F0D8FD6846082101F0A2FB9DF8073080
:102360009DF80670364C43EA07276B4603CB206086
:102370006160344801F048FD0025615D3248013557
:1023800001F042FD072D2E4EF7D1304DF179304846
:1023900001F03AFDEC6A4AF6CD310220A0473946F9
:1023A0000320A0471A210120A047694608226B6B31
:1023B0000B209847274801F027FD274B186809F0A4
:1023C000A7FE264801F020FD254B186809F0A0FE65
:1023D000244801F019FD244B186809F099FE234A9E
:1023E000336813607368536007F0A6FA2048002131
:1023F00002F056FB1F48002102F052FB1E4B012148
:102400009B688120984709F001FF1C4809F0F4FE01
:1024100000F0BEFB022009F019FE00F0BFFB02F045
:10242000CBFA10F0FF0FF8D101F08EFAF5E700BFFC
:10243000CD4B2000B4D82000CED82000884000200A
:1024400084640020F3D8200011D92000E4D72000B4
:1024500017D920001DD920003CD8200024D9200005
:1024600054D820002BD9200070D82000F05E002026
:102470001C410020A8400020FCD62000A0D820004D
:1024800008B500F0DDF8024B00221A7008BD00BF4D
:10249000EE540020024A13781843107000F0F4B88C
:1024A000EE540020034A137823EA0000107000F075
:1024B000EBB800BFEE54002020B1012805D1044B39
:1024C00018787047034B186870470020704700BFAA
:1024D000EF54002020900D4010B5094A00201378D9
:1024E00001331370074B197802F0B2FABDE81040BF
:1024F000054B06481968064A002302F0ADB800BF34
:10250000EF5400207A64002058420020304200201E
:10251000D9242000812810B50C462AD0B0F5807F40
:1025200039D0802839D102F027FA1D4B1D4A187086
:102530001368002023F00803136052F8203C0321A5
:1025400023F0080342F8203C52F81C3C23F0080317
:1025500042F81C3C52F8183C43F0080342F8183C7F
:10256000042200F027FC10480021032200F0C4FBE5
:1025700013E00E4B1A6831B142F008021A600020D5
:1025800000F032FB05E022F008021A60084600F075
:1025900037FB204610BD064B1960012010BD00BF5F
:1025A0007A64002020940D40B525200010940D4041
:1025B0005842002008B50F4809F06DFEC0B108214F
:1025C0000C4809F056FE0C4B196861B10B4B002208
:1025D0001A700B4B0B481B681BB90B4A02F03CF8F6
:1025E00001E002F07BF8BDE80840084802F08CBB2F
:1025F00008BD00BF5042002058420020EF54002088
:1026000020900D4030420020D9242000FCD620002C
:10261000084A136823F00403136052F8203C43F087
:10262000040342F8203C044B00221A60034B0122B1
:102630001A70704720C40D4010C00D40F0540020A7
:102640000D4A0E49136823F0C003136052F8203C72
:1026500043F0C00342F8203C094B00221A600B688B
:1026600023F010030B6051F8203C43F0100341F8B5
:10267000203C044B1A60704720A40D4020C40D403C
:1026800000A30D4040C00D4000F0020202F0FF0127
:102690000B4B12B1FF221A6000E0196000F0040237
:1026A00002F0FF01074B12B1FF221A6000E019602F
:1026B00010F00100044B1ABFFF221A601860704727
:1026C00000A20D4000A10D4040C00D40044B186811
:1026D000C0F30720030904BF1030C0B2704700BF29
:1026E0001C300D40054B1868C0F3C21001289ABF7A
:1026F000C0F1020040034FF40040704714300D4019
:102700002DE9F04788B0FFF7E1FF174B48251C681B
:10271000AB68074698476B68804698470646FFF7C0
:10272000E1FF054600F0D0FA824600F0D9FA814672
:1027300000F086FAB60AC4F34003AD0A04F00104BF
:1027400002930690009601950394CDF810A0CDF861
:1027500014904146C7F3071207F00F03034801F036
:1027600053FB08B0BDE8F0871C300D4039D920007C
:10277000F8B500F083F80F4B0024D3E900673A4620
:10278000B04238BF7A1C15460443C3E90045DFF860
:1027900028E0DEE90001821B61EB070312196B419F
:1027A000CEE9002302F052F818B1BDE8F84001F07C
:1027B000DDBFF8BD20420020284200200F4B104A08
:1027C0001A6053F8042C42F0050243F8042C53F825
:1027D000042C42F0020243F8042C0A4A136843F026
:1027E00001031360084B00221A60042243F80C2CEA
:1027F000012243F8082C0F22DA62704714E000E04F
:1028000047E8010008200D400C000340034BD3E9CA
:102810000023100A40EA0360704700BF20420020F6
:10282000034BD3E90023D00B40EA4340704700BF7D
:1028300028420020054B18601C3B1A6842F0010238
:102840001A601A68D207FCD4704700BF2800034002
:1028500010B5064C236823F001032360FFF788FFBF
:10286000236843F00103236010BD00BF10E000E0C7
:10287000014B1868704700BF5C420020074B084AB4
:10288000196804331B681268120442EA0323054ADC
:102890000B43106843EA0060704700BF40500D4092
:1028A00048500D404C500D4010B50446114B1B686C
:1028B000DB07FBD509F003FCFFF7E0FF231A062B2B
:1028C000D8BFC41D0C4B220E1A60C4F3074243F854
:1028D000042CC4F3072243F8082CE2B243F80C2C72
:1028E00009F0E9FB054B91201C60BDE8104000F0A9
:1028F0007BB900BF50500D404C500D405C42002051
:1029000008B501F007F8064B002291201A6000F08C
:1029100083F9912000F074F9BDE8084002F0F6B8A0
:102920005C420020064B1B681B075FBF054B186805
:1029300080F00800C0F3C00048BF0020704700BF0F
:1029400018C0004018D00040164A38B52C2303FBAD
:1029500000234FF6BF72DC680546236C62649BB2AD
:1029600013F050020DD0A369DB0609D40E4B53F8C7
:1029700025301BB12068C0B29847F4E72368F2E71E
:1029800038BD13F4D06F0BD04FF440732363FF2393
:102990006360E36AE262E362236B43F00103236353
:1029A00038BD00BF0CD72000604200202DE9F04F59
:1029B000012885B0064600F2BF802C244443604BBA
:1029C0001D1995F920A005F12007BAF1000F9946CD
:1029D000C0F2B28095F92230002BC0F2AD80594888
:1029E00001F00AF8584A59F804301168EC680B43B2
:1029F000136051686B6895F921B00B43536091687F
:102A0000AB6895F822800B4393600023C4F8C83F5D
:102A10002B690BEBCA021A6095F823305FFA88FC29
:102A200001939DF80430604619462A7DCDF80CC00C
:102A3000029300F0C9F9029BDDF80CC0194660460C
:102A4000082200F0B7F94FFA88F840494FEA0838F1
:102A50009DF9042058F80100012303FA02F2024311
:102A600048F801204FEA0A3A5AF8010003FA0BF23B
:102A700002434AF801205022A263A26B95F8240079
:102A800042F4D062A263022262634FF44072226376
:102A9000AA696262EA69A2627022E26242B2002A14
:102AA0000C4614DB95F92510294D41EAC201296035
:102AB0007979120315594FB2BB402B4313510022B1
:102AC00000F078F9234A136843F4004313602C2381
:102AD00003FB069393F8265020336FB2002F1CDBC4
:102AE00093F807A0EDB25FFA8AF828464146012222
:102AF0003F0300F069F94FFA8AFA3A59012303FAC1
:102B00000AF313433B5108222846414600F052F98C
:102B1000104A136843F4804313602C2303FB06968A
:102B2000F26896F82800136B43F00103136305B0B5
:102B3000BDE8F04F00F058B805B0BDE8F08F00BF19
:102B40000CD720002529200028200D4020940D407E
:102B500004410D4030D0004001289CBF014B43F898
:102B60002010704760420020012808D8044B2C2216
:102B700002FB0030C3689A699206FCD41960704762
:102B80000CD72000014B00221A60704700500D4006
:102B9000014B08221A60704700500D40024BA022E2
:102BA0001A6050221A60704700500D40074A084BC7
:102BB0001A60084B80321A60074B80321A60074B4C
:102BC00080321A60064B074A1A60704700E100E045
:102BD00074420020684200206C42002070420020B5
:102BE00008ED00E000202000044B41091A6800F0C5
:102BF0001F000123834042F82130704774420020B7
:102C0000044B41091A6800F01F000123834042F879
:102C10002130704768420020044B41091A6800F0D7
:102C20001F000123834042F821307047704200208A
:102C3000024B1868C0F38150704700BF04200D405C
:102C400008B5FFF7F5FF024B53F8200008BD00BFA1
:102C500064D7200038B5164D164C2B68032023F09E
:102C600040032B602368062123F0400323600122E8
:102C700000F0A0F82B68012223F080032B6023686A
:102C8000032023F080032360072100F093F80A4A11
:102C90000A4B1A600A4B0B4A19680A40002AF9D1FC
:102CA0001A685101FCD41A685201FCD538BD00BF26
:102CB00020C40D4000C40D400101020000200D4061
:102CC00004200D4000000101034B04481B6803F081
:102CD00007031841704700BF04200D400048E80179
:102CE000034B04481B68C3F302231841704700BF1D
:102CF00004200D400048E801024B02EBC10243F8FA
:102D00002200704778420020F8B507460E46094D6C
:102D1000002405EB411547FA04F3DB07E1B204D5C3
:102D200055F824300BB1304698470134082CF2D1C5
:102D3000F8BD00BF784200202DE9F04780464FEAF9
:102D40000837DFF8409007F1804505F5592500F078
:102D5000E1FDD5F8186457F809404FEAC80A24FA8B
:102D60000AF446EA0400E4B2C0B24146F6B204FAFC
:102D70000AF4FFF7C9FFC5F81C6447F80940BDE82D
:102D8000F08700BF18970D4002480021802209F00B
:102D900001B800BF78420020034A044B1A60044B7C
:102DA000803A1A60704700BF80400D40FC4200200E
:102DB000F8420020034B01EBC0011B6843F82120BF
:102DC000704700BFFC420020034B01EBC0011B68B1
:102DD00043F82120704700BFF84200200E2870B54C
:102DE0000BD1164B164E1C6844F002051D60356869
:102DF00025F03F0343F001033360124E336823F0A4
:102E0000FF031A431143014331600F4B1B681B063C
:102E1000FBD50E4B0E4A1B6812680E2803F0FC030C
:102E200043EA022308BF064A9BB204BF1560034A67
:102E30009BB208BF146018B270BD00BF34000144DB
:102E4000F486084008700D4000700D400C700D4075
:102E500010700D40024B1868B0FA80F040097047BE
:102E600000B7084010B58F20064CFFF7D5FE8F2025
:102E7000FFF7C6FE206818B101F02AFE0023236088
:102E800010BD00BF00430020064A136843F0020350
:102E90001360536843F002035360936843F00203E6
:102EA0009360704748200D4007B50C4800F0A4FD22
:102EB000FFF7EAFF0A4B1A6842F002021A6000228A
:102EC0000192019A0F2A02DC019A0132F8E71A688E
:102ED00022F002021A6003B05DF804FB552E2000B8
:102EE00054200D40064A136823F002031360536810
:102EF00023F002035360936823F00203936070474A
:102F000048200D40084B93F90020002A09DB074AAE
:102F1000ED2111601160E32111601A7862F07F02E7
:102F20001A700120704700BFF45400203888084010
:102F30000B4B1A689207FBD41B685B065FBF094BFB
:102F4000ED221A601A60084B1B6813B1054BEF2283
:102F50001A60064A0120137803F07F03137070474C
:102F60004C860840388808402C860840F4540020DD
:102F700038B5A0F10B04E3B20F2B054613D80B4B69
:102F80001B6813F03F0302D0FFF7D2FF012304EBCD
:102F90008404074A0B3414600BB1FFF7B3FF054BF1
:102FA000E8B21D7000E0FF2040B238BD48860840FE
:102FB0003C8608401B42002010B50B4B1B6899064D
:102FC00003D1FFF79FFF012300E00023074A1268A7
:102FD000D207FBD5064A1468C4F300140BB1FFF7FF
:102FE000A7FF204610BD00BF488608406486084001
:102FF0004C860840044B186800F02200A0F1200322
:1030000058425841704700BF4C860840024B186830
:1030100000F04000704700BF4C86084038B50C46B1
:10302000002900F08880102800F28780DFE800F097
:10303000090F1A1C23394253586F738585787A7C9F
:103040007F003F4B1B68003318BF012370E03D4BEE
:1030500005221B6803F07F030B3B93FBF2F30B335A
:10306000DBB265E0384B00E0384B1A68043B1B6864
:1030700043EA02235CE000230B60354B354A1B68B2
:1030800003F001030B601268900644BF43F0020393
:103090000B60314B1B78002B4BD00B6843F00403C3
:1030A00046E02E4B00201B780860002B41D0012306
:1030B0000B6038BD2A4B1A680023D2B2294901EBB4
:1030C000C3000079904202D851F8333030E0013328
:1030D0000E2BF3D128E0244B1B685BB2493B27E061
:1030E000224B1B68990603D1FFF70CFF012300E078
:1030F00000231F4A1268D207FBD51E4A1568493DB6
:10310000EDB20BB1FFF714FF6DB2256011E01A4B61
:1031100093F900300CE0194B1B7803F07F0307E0B4
:103120000B2305E01A2303E06FF0170300E00723E9
:103130002360002038BD022038BD012038BD00BF0B
:103140002C8608403C860840CC850840D485084041
:103150000086084024860840F35400201A420020CC
:103160004086084074D720005886084048860840AA
:103170006486084060860840F2540020F154002024
:1031800038B505460C46134B1B689B07FBD4124B06
:1031900093F90030002B01DBFFF7B4FE0F4BEE225A
:1031A0001A60691E1A60A21C43F8102C21440220E8
:1031B00000F03EFB013C0A4924012143022000F0BB
:1031C00049FB022000F050FB022000F065FB0020CC
:1031D00038BD00BF4C860840F454002038880840B1
:1031E00002C001C0F8B5214B93F90030002B0DDB74
:1031F000FFF744FB0446FFF785FEFFF73FFB6FF048
:1032000009031B1BC342F8D4012600E00026184B1B
:103210001B7823B9174D2B68990604D405E0FFF7F6
:10322000CBFE0028F6D10220F8BD134CE923236021
:1032300004272B689A0707D4013F17F0FF0703D034
:103240000620FFF7F7FAF4E72B689B0704D4EE2378
:1032500023602360012403E02C6814F00204FBD1F6
:103260000EB1FFF765FE2046F8BD00BFF454002004
:103270001A4200204C86084038880840044B1A68DF
:1032800010B142F0010201E022F001021A60704721
:10329000008608400B280DD1082A0DD161B1074BDB
:1032A000083111F8012D43F8042F054A9342F8D153
:1032B000002070470120704702207047A485084015
:1032C000C485084070B5304E336813F0400308D011
:1032D0002E4D2B68DCB21B0605D52D4BED221A6056
:1032E0001A60002070BD042CF7D9023C8C42F4DC3B
:1032F000E4B2032C21D001190139032000F0A0FA17
:10330000631E24491B010320194300F0A3FA032084
:1033100000F0AAFA032000F0BFFA032000F0C8FA78
:103320000028FAD129681C4B4939C9B219702B6899
:103330001A4D18062B70D0D506E02B6803702B6849
:1033400043702B688370EDE749B289B2042006F020
:10335000AFFD2978032001F07F0106F0A9FD104B95
:103360001B7873B933685A060BD5074B1B681B06CD
:1033700003D50C4801F0ACFB03E0054BED221A60CD
:103380001A60204670BD00BF4C860840288808405F
:103390003888084002C0010CF2540020F15400208B
:1033A000F3540020504000201E4B1870002831D0EC
:1033B0001D4B1B681B03FBD51C4B1A6842F0020215
:1033C0001A601A6842F001021A601A681749500719
:1033D000FBD50A6822F001020A601968134A4907FE
:1033E000FBD4116841F002011160116841F0010144
:1033F00011601A685207FCD50D4A8D20136823F01E
:1034000004031360D2F8A83123F00403C2F8A831F2
:10341000FFF7F6BB064A8D20136843F004031360E0
:10342000FFF7E2BBF354002004200D40048808405D
:103430008C86084010B50C4607285CD8DFE800F001
:10344000040F1B1F263C4256012903D1FFF75AFDEA
:10345000002010BD002950D1FFF76AFDF8E7A1F167
:103460000B030F2B49D8C8B2FFF782FD431C0CBFDA
:103470000320002010BD8CB2E2B2214B02E08CB2DE
:10348000204BE2B2240A1A605C60E1E731F00703E6
:1034900033D101F00100FFF7F1FE1B4B14F0020FD6
:1034A0001A68C4F3800014BF42F0200222F0200208
:1034B0001A60FFF779FFCBE731F001001DD1134B04
:1034C000197010BD01F118031F2B16D80D231049D8
:1034D000DA0051F83300844204DC8B181A790D4B62
:1034E0001A60B5E713F1FF33F1D2B1E7CCB20A4B62
:1034F00049341C60ACE7012010BD022010BD00BFA4
:10350000C8850840D0850840248608401A4200201B
:1035100074D720004086084058860840F8B5294FE7
:103520003D7815F001054AD1274B01241C605C60F1
:103530009C60A3F59323A3F51473F8221A60092263
:10354000C3F89021152270331A6003F59B230B22D8
:1035500003F59E731A60A3F59B23A3F5F073402235
:103560001A601A687F2642F020021A60D52243F8BA
:103570001C5CDE62DA61154B1878FFF7F9FC144B1E
:103580008E201E60FFF730FB022000F079F9114910
:10359000022000F055F9032000F072F90D490320D4
:1035A00000F046F90C4B1878FFF7FEFE0B48294651
:1035B00001F076FA3B78204623433B70F8BD0020AB
:1035C000F8BD00BFF4540020A8200D401B4200208D
:1035D0009486084028880840F3540020504000207A
:1035E00038B503880446CBB140F20342934203D07E
:1035F00000230380032038BD194B18781A4628B1E0
:103600001B7873B1174B1B7858060AD5822908D14D
:10361000137843B1134B1A78520614D440F2034383
:103620002380012038BD06F0E9FB06F07DFB8021F8
:10363000FFF748FE0028EDDD80B206F059FB0A4B8B
:103640001B699847E6E700221A70084B1D68FFF7D0
:103650006FFCFFF763FFAB06E0D0FFF753FCDDE73D
:10366000F3540020F454002070D82000488608400D
:103670000B282DE9F84F8A4611D1082A40F08280A4
:1036800000297FD0414B01F1FF3A53F8042D0AF88D
:10369000012F3F4A9342F8D10020BDE8F88F0C2853
:1036A0006DD1042A6ED100296CD03A493A480B6892
:1036B000DFF8EC9023F007030B600368DFF8E4B059
:1036C00043F008030360DBF80040D9F800200B68E2
:1036D000DFF8D4C0DFF8D48023F070030B60D8F893
:1036E0000050DCF80030E4B2120244EA036392B204
:1036F000DFF8BCE01A43EBB242EA03430024DEF8F1
:10370000002044EA03060B68D5B223F0070343F018
:1037100001030B6003682F4643F008030360DBF8E6
:103720000000D9F800200B68120223F0700343F068
:1037300010030B60D8F80050DCF80030C1B241EA49
:10374000036392B21A43EBB242EA0343DEF800206D
:1037500044EA03085FFA82F9FFF790F8B6EB08062F
:1037600067EB0907F903054641EA5641F0030B4AA6
:10377000002307F02BFF281ACAF800008CE701206D
:10378000BDE8F88F0220BDE8F88F00BFC88508406B
:10379000A885084010880840048808400048E801CF
:1037A0001888084014880840208808402488084069
:1037B0001C88084008B5054B1B7813B9044801F074
:1037C00087F9044B00221A6008BD00BFF3540020A3
:1037D0005040002034880840064B07481A68042AE5
:1037E0001FBF06490A7842F040020A7000221A60A0
:1037F00001F06EB92C88084050400020F45400209D
:1038000010B5094C00212046402208F0C3FA074BAE
:1038100001221A602E205C60FFF7E6F9BDE8104037
:103820002F20FFF7E1B900BF0040002004F00F4057
:1038300003289EBF014B0001195070470040002033
:1038400003289EBF024B03EB00104160704700BF8E
:103850000040002003289EBF024B03EB0010816054
:10386000704700BF0040002003289FBF0349012389
:103870000A6883409CBF13430B60704728F00F40D9
:1038800003289FBF034901230A6883409CBF134359
:103890000B60704720F00F4003289FBF03490123AE
:1038A0000A6883409CBF13430B60704714F00F40BD
:1038B00003289FBF044B03EB0010806800F0070053
:1038C00088BF0020704700BF00400020024B4FF02F
:1038D000FF321A60704700BF04F50F40014B012210
:1038E0001A6070474CF00F40094B1A6812F4801FA1
:1038F0001A46F9D1043B196821F480311960116826
:10390000C903FCD41A6842F400321A60704700BF41
:1039100004200D4010B50A4B1A681C4612F0030F24
:103920000CD0084B1A685101FBD41A685201FCD51F
:10393000FEF78EFFFFF7D8FF0023236010BD00BF06
:1039400058200D4004200D4038B5254B1C6814F05C
:103950003F0413D1234B53F8243023B1984768B167
:103960000134052CF6D1204D2B783BB1FEF780FFBA
:103970000446FEF783FF201A092801D830BF38BD5E
:10398000002CFBD0194B1A6822F400321A60184A36
:103990001168C902FBD4196841F4803119601368B9
:1039A000DB03FCD5FEF76AFF201A092803D8BDE81F
:1039B0003840FFF799BF63280E4C02D92B78022BB1
:1039C00000D00123236001F039F820B1FFF78CFF0C
:1039D0000023236038BDFEF74BFF0028CED1F5E76A
:1039E0004886084004430020F554002000200D4084
:1039F00004200D4058200D400023064A52F82310A1
:103A0000814206D011B942F8230070470133052BDB
:103A1000F3D1704704430020054B00221A60054A89
:103A2000136843F004031360034B02221A707047BB
:103A300058200D4010ED00E0F554002010B5902006
:103A4000064CFFF7E9F89020FFF7DAF8206818B184
:103A500001F03EF80023236010BD00BF1843002092
:103A600070B50E4C054626784EB93046C021FFF79A
:103A70007BF830460D21FFF777F8012323700020F3
:103A8000E9B2FFF771F80A2D05D10020C021FFF738
:103A90006BF800232370284670BD00BFF654002049
:103AA00013B56B460A46044604490868496803C3CF
:103AB0002046991A08F094F802B010BD0BDA2000E5
:103AC00000200149FFF748B8593D20002DE9F74F84
:103AD0000388064633B1B3F5A57F11D000230380D8
:103AE0000320E9E0764A1380764A1380764A1380F1
:103AF000764B01221A704FF4A57333800120DBE06E
:103B000082294FF0010AF9D1DFF8BCB17048BBF847
:103B10000050704B425D83F800A0432ADFF8A0817B
:103B2000D94607462AD1674B1A88954226D2521B9E
:103B3000052A23DD00EB050C604667490622CDF817
:103B400004C008F01BF8DDF804C00446B0B96046B4
:103B50002146062208F01EF95A4BA8F800401C80A6
:103B60005A4BABF8004083F800A05C4B185D013461
:103B700008F0DEFA0D2CF8D1002491E0B8F800200E
:103B80009542F9D002D300231C462CE000247B5D33
:103B9000DB2B04D052490B550134A4B201E00123C0
:103BA00000E000230135ADB2954251D28C2C01D9F1
:103BB00000244DE0002BEAD07B5DDD2B01D1DB2121
:103BC00002E0DC2BEDD1C021454B1955E4E78C2CEC
:103BD0001CD85BB9795DDB2916D041480155013409
:103BE000A4B20135ADB29B2DF1D910E07B5DDD2B88
:103BF00001D1DB2102E0DC2B04D1C021384B195567
:103C00000134A4B20023ECE70123EAE700240021F9
:103C100088B290421CD28C2CCAD863B17B5CDD2B5D
:103C200001D1DB2002E0DC2B0DD1C0202C4B18553C
:103C30000134A4B207E0785CDB2806D0284D285573
:103C40000134A4B202E0002300E001230131DFE7E8
:103C5000013292B29C2A04BF0023A8F80030194B0D
:103C600018BFA8F80020B8F8002019888A4215D09B
:103C7000104603468B4211D0F85CC02807D1194882
:103C8000A8F80030A9F8002000F022FF08E0013376
:103C90009BB29C2B4FF00000ECD1EAE7A9F8002082
:103CA000114B1C80002C3FF426AF104B1B6803B156
:103CB000984704F07FF81EE703B0BDE8F08F00BF1F
:103CC000BA500020B8500020BC500020F75400200B
:103CD000F85400207F64002013DA20001ADA200054
:103CE000F85E002060400020E45E00201C430020BD
:103CF000014B1860704700BF1C43002038B5C0203E
:103D000008F016FA114B00241149A2B20988914219
:103D100016D93C2A04BF0F4B1B6818785D1CC028BD
:103D200004D1DB2008F004FADC2004E0DB2802D117
:103D300008F0FEF9DD2008F0FBF901342B46E3E73B
:103D4000C02008F0F5F9002038BD00BFF85E002063
:103D5000E45E0020905F002038B5254B1A781C46A1
:103D6000022A06D0032A12D1C02804BF01221A70E9
:103D70003CE000F12402D2B2012A06D903221A70D3
:103D80001C4B1A881C4B1A8030E0012302E0DB2810
:103D900001D102232370184B174D1A88511C89B288
:103DA0009C2908BF0021198014491B8809888B426F
:103DB00005D1032323700F4B1B882B8016E0104B7B
:103DC0005428985407D15B5C432B0FD10D4800F069
:103DD0007FFE012038BDC02808D1064B18888242DA
:103DE00003D08142F2D11A80F0E72A80002038BD4A
:103DF000F7540020BA500020B8500020BC500020DA
:103E0000F8540020604000200FB407B504AA52F80F
:103E1000041B0448019200F035F803B05DF804EB90
:103E200004B07047704000201FB5084C8DE80300B7
:103E3000114602A81A460294CDF80CD000F022F8E0
:103E4000009B00221A7004B010BD00BFB7C1200053
:103E500070B505460C46102C07D92B6868680849D0
:103E60001022984750B9103CF5E734B12B686868C8
:103E70002246BDE8704002491847204670BD00BF89
:103E800092DA20002DE9F04F80468FB0069107921C
:103E90000026069B1B78002B00F05F83069B1C46C8
:103EA00013F8012B1AB9069B9C4203D10FE0252A77
:103EB000F5D1F8E7069BD8F80400E51A0699D8F87A
:103EC00000302A469847002840F02A832E44237861
:103ED000002B00F042836378611C002B00F03D83CF
:103EE00000240A4611F8013B2B2B11D006D8202BB9
:103EF00011D0232B12D144F00804F2E72D2B04D06B
:103F0000302B0BD144F01004EBE744F00104E8E758
:103F100044F00604E5E744F00204E2E7A3F13101CE
:103F200008290DD8134600251A4613F8011BA1F1E4
:103F30003000092811D80A2202FB0515303DF3E7AD
:103F40002A2B09D1079B01321D68191D002D0791ED
:103F5000B8BF44F0010400E0002513782E2B1CD1DB
:103F60005178531CA1F1300009280ED819460027BA
:103F70000A780B46A2F13000092801F101010FD89F
:103F80000A2303FB0727303FF2E72A2906D1931CB7
:103F9000079A111D0791176802E013464FF0FF378B
:103FA0001A786C2A09D15A786C2A02D144F080041C
:103FB0000AE0013344F060040BE0682A09D15A7822
:103FC000682A03D144F02004023302E0013344F0B4
:103FD00040041A78642A3CD01FD8462A48D00DD80D
:103FE000252A5AD003D8002A00F0B78257E0412A88
:103FF0004AD0452A53D144F4424450E0582A31D0A3
:1040000004D8472A4BD144F4A13448E0612A38D07F
:10401000632A44D144F4A06441E06E2A3AD007D820
:10402000662A22D027D3672A28D0692A11D036E001
:10403000732A2CD006D86F2A11D0702A2FD144F4BD
:1040400040742CE0752A07D0782A28D144F4C8544B
:1040500025E044F4245422E044F410641FE044F4C6
:1040600088541CE044F4B24419E044F4007416E0AF
:1040700044F4844413E044F4024410E044F48134F2
:104080000DE044F4C1340AE044F4E13407E044F4C0
:10409000806404E044F4E06401E044F4C06401336B
:1040A000069304F4E063B3F5806F00F0AA8116D89C
:1040B000B3F5807F2BD0B3F5407F7FF4EAAE079B4A
:1040C000A04914F4804F03F104029F4818BF08462A
:1040D0000DF1330107920F461A680023C5E1B3F5CD
:1040E000C06F08D0B3F5E06F00F03182B3F5A06F78
:1040F0007FF4CFAE00E2D8F80030D8F8040093493E
:1041000001229847002840F00B820136C1E6002FBB
:10411000ACBF24F01004012714F40053039304F0FF
:10412000E00337D0402B17D008D8DBB1202B2AD1A1
:10413000079B1A1D079293F9002017E0602B11D0FE
:10414000802B20D1079B073323F0070303F10802DC
:104150000792D3E900230AE0079B1A1D0792B3F9DF
:10416000002003E0079B1A1D07921A68D317002A44
:1041700073F1000109DA524263EB4303CDE90023F6
:104180004FF0010933E000220023CDE900234FF076
:1041900000092CE0402B16D007D8CBB1202B20D122
:1041A000079B1A1D07921A78EEE7602B10D0802B20
:1041B00017D1079B073323F0070303F10802079287
:1041C000D3E90023E1E7079B1A1D07921A88DBE772
:1041D000079B00211A1D07921B681846CDE90001B4
:1041E000D5E700220023CDE900234FF0000904F4B5
:1041F000C053B3F5805F0CD0B3F5C05F33D0B3F5D7
:10420000006F4FD1DDE900230DF1360ACDE904231B
:1042100004E0DDE900230DF1360A15E0DDE90423B1
:1042200013433AD0DDE904010A22002307F0CEF956
:10423000DDE9040130320AF8012D00230A2207F0DB
:10424000C5F9CDE90401E9E752EA030125D002F0FE
:10425000070130310AF8011DD10841EA4371D8083D
:104260000A460346F0E7384B14F4804F0DF1360A46
:10427000344908BF1946DDE9002352EA03000CD097
:1042800002F00F00085C4FEA131E0AF8010D100936
:1042900040EA037002467346EFE70DF1360BCAEBB6
:1042A0000B0B03E00DF1360A4FF0000B41F608024C
:1042B00041F208035F4502EA04028CBFCBEB07071B
:1042C00000279A4202D1002F08BF012741F60801BA
:1042D0008A4207EB0B030DD1DDE9000150EA010230
:1042E00008D01B4914F4804F1A4A4FF0020C18BF33
:1042F0000A4602E04FF0000C62460399A1B1B9F101
:10430000000F0AD104F0060102290AD00629124939
:1043100004BF4FF0010C0A4606E04FF0010C0F4AB3
:1043200002E00F4A4FF0010C63449D428CBFED1A2E
:10433000002514F0010922D1E30613D52F444D4680
:104340001DE000BF5DDA20006EDA200090DA200068
:1043500082DA20007FDA200087DA200085DA200068
:1043600029D9200040462946CDF80CC00092FFF71D
:104370006FFD009ADDF80CC0002840F0D180BCF140
:10438000000F0DD01146D8F800306246D8F804006E
:10439000CDF800C09847DDF800C0002840F0C0808C
:1043A0003C465E44102CD8F800300DD9D8F80400F3
:1043B0006C491022CDF800C09847002840F0B0802A
:1043C000103CDDF800C0EDE75CB1D8F804006549A9
:1043D0002246CDF800C09847DDF800C0002840F024
:1043E0009F80D8F80030D8F8040051465A466644F9
:1043F0009847002840F094803E44B9F1000F79D0EE
:1044000073E0079BD3F800A01A1D0792BAF1000FC2
:1044100009D05346994699F800200133002AF9D172
:10442000CAEB090903E0DFF840A14FF00609002FAD
:1044300002DBB94528BFB9464D458CBFC9EB050520
:10444000002514F0010405D140462946FFF700FD80
:10445000002865D1D8F80030D8F8040051464A4603
:10446000984700285CD14E443EE052EA030E0ED03D
:1044700002F00F0E10F80EE04FEA131C01F801EDE8
:104480004FEA121E4EEA037E72466346EDE70B4684
:104490007F1A01BF3022012701F1FF3301F8012CFF
:1044A00003377822BD4203F8012C4FF0300203F8A5
:1044B000022C88BFED1B4FF0230298BF002514F09B
:1044C0000104A3F1030903F8032C04D14046294653
:1044D000FFF7BEFC20BBD8F80030D8F804004946EE
:1044E0003A469847E0B93E4424B140462946FFF792
:1044F000AFFCA8B92E44CCE4079B012D03F10402C4
:104500001B688CBF05F1FF35002514F001040792EC
:104510008DF8203008D140462946FFF799FC10B1AC
:104520004FF0FF301AE02E44D8F80030D8F80400DD
:1045300008A9012298470028F2D16F1C2CB14046EF
:104540002946FFF785FC0028EAD13E44A1E4079BF9
:104550001A1D1B6807921E609BE430460FB0BDE831
:10456000F08F00BF4DDA200089DA2000F8B503880B
:10457000064615462BB14A2B15D000230380032095
:10458000F8BD174807F0C3FE04462CB1201DA168F2
:1045900007F044FE2468F8E7124B01221A704A2300
:1045A00033800120F8BD8829FBD10D4807F0AFFE0C
:1045B0000446002CF3D0231D9D420ED1084821460D
:1045C00007F0AFFE084B62691F681A60A2691D46BA
:1045D0000AB1E06990472F60E1E72468E9E700BF8E
:1045E00020430020945500202C43002010B5064B9A
:1045F000002406481C7007F087FE2146BDE81040E5
:10460000034800F04DBA00BF94550020204300201D
:104610007840002070B50446E3610B4B049D1B7885
:104620006561A26143B1094D094B2E68201D2B60C5
:1046300007F0F4FD2E6000E0A1602146BDE8704067
:10464000044807F082BE00BF945500202C43002090
:10465000784000202043002013B5034C24680094C8
:10466000FFF7D8FF02B010BD2C43002070B5094BF6
:1046700005461B783BB1084C084B26680430236084
:1046800007F0D5FD26602946BDE87040044807F0D4
:104690005CBE00BF945500202C43002078400020D1
:1046A0002043002070B5094B05461B783BB1084CF0
:1046B000084B26680430236007F0C2FD26602946B7
:1046C000BDE87040044807F040BE00BF945500208C
:1046D0002C430020784000202043002010B5084BD8
:1046E00004461B781BB1043000F0B8F801E0C36049
:1046F00003612146BDE81040024807F012BE00BF2A
:10470000945500202043002010B50446FEF788F899
:1047100094E80C001344C01A024B98428CBF00204E
:10472000012010BDFEFFFF7F10B50E4C236813B9AA
:104730000D4A136010BDFEF769F8216891E80C007E
:104740001A44131A8A6842B192E812002144091AE5
:104750008B4228BF0B469268F5E71844024B18605D
:1047600010BD00BF2443002028430020014800F072
:10477000AFB900BF88400020F8B5038805462BB1CB
:10478000592B09D0002303800320F8BD1E4A136073
:1047900059232B800120F8BD872920D08229F7D109
:1047A000194F00263C68002CF2D0204607F073FD1C
:1047B00090B1E0688821224600F04AF950B9E060E3
:1047C000A3680EB1B36000E03B600023A360FFF775
:1047D000ABFFE5E7FFF7CAFF2646A468E3E70A490F
:1047E0000B680BB90B60D3E7D868904201D19B6886
:1047F000F7E70B6099680029CAD0C86890420ABFE1
:1048000089680B469960F5E72443002010B50446FB
:10481000FFF7ACFFE3680B4A4BB113683BB1A3420F
:1048200003D1094A1268DA6007E09B68F6E7064B95
:104830001B68E36013681460A360BDE81040FFF7D5
:1048400073BF00BF244300202C430020024B186894
:10485000003018BF012070472443002010B50B4AD8
:1048600004461368984206D18368136008E09A688A
:10487000A24203D01346002BF9D103E0A2689A604C
:10488000FFF752FF0023A360E36010BD2443002024
:1048900038B5836804460D469BB10A48046002207F
:1048A000A07304F10C0098470238012801D9832D28
:1048B00005D120462146BDE8384000F005B8012367
:1048C000A37338BD2C4300202DE9F8431C4A04464D
:1048D000156889462B4690461A4E3768A34204D085
:1048E0000BB11B68FAE7BDE8F88334B3A37BABB127
:1048F0000023A37345B1AC4204D028468721224649
:1049000007F0AFFC2D68F5E7A3683BB14C4505D037
:10491000346004F10C0083212A469847D8F800300F
:104920009C4203D12268064B05E0134623B11A6866
:10493000A242FAD122681A603760BDE8F88300BF4E
:10494000304300202C43002010B5094B00221A7080
:10495000084B1C685CB1E37B3BB101230022A373CD
:10496000E27320468221FFF793FF2468F2E710BD2F
:104970009755002030430020024B1878421C1A70D3
:10498000704700BF98550020064B8A221A70064ACD
:1049900000231370054A1370054A1360054A13601B
:1049A000704700BF9855002095550020965500206F
:1049B000304300202C4300202DE9F0411A4D2B7884
:1049C0000BB1FFF7C1FF194C22783AB3184E0C21F6
:1049D0003378184F5943781817F801800133476826
:1049E000806803F01F03013A3370227068B9124BDC
:1049F0001E689EB12B780BB1FFF7A6FF30464146EB
:104A00003A4607F02EFC3668F3E7B8F1810F04BF91
:104A10000123837341463A4607F023FC2B78207824
:104A20001844BDE8F08100BF97550020965500203E
:104A3000955500203443002030430020024A034BA8
:104A400010781B7818447047965500209755002021
:104A5000F0B50B4E3378202B0FD00A4C0C25247860
:104A6000094F1C4404F01F046C4301333D19A86036
:104A700039556A6033700020F0BD0120F0BD00BFE1
:104A800096550020955500203443002038B5034C3E
:104A9000256807F0E6FB256038BD00BF2C430020E9
:104AA00010B50A4609490C68234683420DD00BB164
:104AB0001B68FAE748B104600860012181738381B3
:104AC0008121BDE81040FFF7E1BF10BD3043002059
:104AD00038B1837B013B012B9FBF024A0123C37383
:104AE0001370704797550020024610B50648536072
:104AF0000468029B11609360026014B90846FDF7D8
:104B0000D3FE002010BD00BFB444002010B5084CF7
:104B1000206858B100232360816843689847236860
:104B200023B1BDE810401868FDF7BEBE10BD00BF40
:104B3000B444002038B505880446672D09D0792D86
:104B40002ED0002D32D1FFF717FF1B4B18701B4BD7
:104B50001D601B4807F0C8FB431C01D167231DE003
:104B60000A28164B07D01A687E2AF2DC511C1960FD
:104B7000144B9854EDE7196800254A1C1A60114A35
:104B80000D4B555428461978FFF762FF0E4B8521CF
:104B900018682A46FFF75CFF20B97923238009E0D3
:104BA000852907D1054B00221A60D2E70023038034
:104BB000032038BD012038BD80640020C04400209F
:104BC000B84400201A5600202C4300200D2810B5B0
:104BD000014615D00B4C23782BB90B4807F070FB1E
:104BE00048B9012306E00A2805D1074807F068FB09
:104BF00008B1002323700548FFF76AFF012010BDAC
:104C0000002010BD99550020B84400209840002095
:104C100008B505480549802207F04BFBBDE8084070
:104C200003480021FFF73CBFB84400209A550020FC
:104C30009840002070B505880446772D30D07E2D31
:104C40003FD0002D4DD1FFF797FE294B1870294B0F
:104C50001D601D462B68284A264E52F823204AB173
:104C600026480021C1549368802098473368013357
:104C70003360EFE7224A1370772320E01F4AD256B1
:104C8000002A12DB1B4A136801331360194B1C4ABC
:104C90001B6812789342F1DB1A4B1B68002BEBD098
:104CA000184A00231360134AEFE7114A00201178D5
:104CB000114A52F82320FFF7CBFE30B97E23238020
:104CC00013E00B4B1B788B420FD10A4B0B491A6830
:104CD0008B5C03F07F038B540A4A13680133136023
:104CE000D0E700230380032070BD012070BD00BF0A
:104CF00081640020C4440020404000207B640020E8
:104D00009A560020C8440020094B1A780023934289
:104D100004DA084951F82310814207D106490748AF
:104D2000CA5C62F07F02CA54FFF7D2BE0133EEE7DD
:104D30009A560020404000207B640020A8400020BC
:104D4000054A136843F004031360044B1B68906921
:104D500043EA002080B2704700700D4014700D408F
:104D6000174A136823F00C031360164B01221A60D4
:104D70001A68012AFCD1144B08221A60E322C3F8F6
:104D8000142203F505731946104B1B68DB07FBD58E
:104D9000102000230E4A0138126802F0010243EA93
:104DA00002034FEA43039BB2F4D1002BF0D0094A2F
:104DB000180A03F0FE0310601360EF230B607047C6
:104DC00000700D40A8200D402486084064860840ED
:104DD0009C86084014700D402DE9FF411F4C204D6A
:104DE00004F108030FCB8DE80F0029786F4694F883
:104DF0000780A1B13A23A3711A4B1A88521A92B2B2
:104E00001A80A2F1280318122C312071214404F1D8
:104E10002C002C3A637106F059FF00232B701248C6
:104E200007F075FA064690B1D6F804C0BCF1000F41
:104E300009D00C4B2A781B8838322C3B3846414627
:104E400022449BB2E047304607F09EFAEAE7054B62
:104E50002870188004B0BDE8F08100BFF85E002023
:104E6000BD560020E45E0020CC440020F8B52A4B5B
:104E70002A4C1B7904F11806E371237E04F108051E
:104E8000FF2B08D195E80F0086E80F002846314631
:104E900000F0BEFA1BE02F46B646214A3B4603CB44
:104EA0007345106051601F4602F10802F6D196E882
:104EB0000F0085E80F001A4B1A4D03F110062A4621
:104EC00018685968083303C2B3421546F7D1164D26
:104ED000297899B13A23A371144B1A88521A92B2C5
:104EE0001A80A2F1280318122C3120716371104826
:104EF00021442C3A06F0EAFE00232B702B78812205
:104F00002833E518E25400236B706B8007F005FB33
:104F1000C0436880F8BD00BF785D0020F85E0020C7
:104F2000BE500020105F0020BD560020E45E00202F
:104F3000245F002038B504460B480D4607F0E7F91A
:104F400078B10379A34209D14379AB4204D1836894
:104F50003BB19847002038BDFF2BF8D007F014FA7A
:104F6000EEE7012038BD00BFD044002001460148D3
:104F700007F0EBB9D04400202DE9F74F484D8146AA
:104F80002B7888469246474C43B12833E35C3A2B52
:104F90000BD1454A002313802B707EE0A3793A2B76
:104FA00003D194F92830002BF3DA03F0F1FE3F4EE1
:104FB0003F4AB446934606F1100E334603CB734581
:104FC000106051601E4602F10802F6D1364E2F786D
:104FD000338804EB470030339BB2B3F5A06F88BF32
:104FE0004FF4A063338032882E4BD21B1946303ADF
:104FF0003030CDF804C0009306F068FE9DE808103C
:10500000602222700022627062803A2217B183F817
:10501000282000E09A71274A224B1279E2712289F6
:1050200072B95A8962B99A8952B9DA8942B91A8A27
:1050300032B95A8A22B99A8A12B9DB8A002BA8D0CF
:105040001D4B0FCB8CE80F009BF80030FF2B05D1D8
:10505000B9F1040F9DD1B8F1020F9AD11449164845
:1050600000F0D6F92F78504607F12803E21804F82B
:10507000039082F8018007F059FA33882C37283BD7
:10508000E0511A1263712B78227128331C440023DB
:10509000638007F042FAC043608003B0BDE8F08F40
:1050A000BD560020F85E0020E45E0020105F002066
:1050B000BE500020785D0020005F00202DE9F04107
:1050C0001E460F461B4905460C4660230B70002305
:1050D0004B704B803A238B71174B90461B7900F134
:1050E000100ECB71331D1A120A714B7101F11802A7
:1050F000134628686968083503C375451A46F7D111
:105100000E482C3600F1100100F082F90C4B1B7890
:105110002833E518E75400236B8085F8018007F0F9
:10512000FCF9C043074B68801E80BDE8F04102F0E7
:1051300053BE00BFF85E0020785D0020005F0020B5
:10514000BD560020E45E002008B50448FFF70EFFBE
:10515000BDE808400248FFF709BF00BFB840002083
:10516000C44000202DE9F3410446154D00910E4640
:1051700090461F460195234612480321202207F03E
:105180005CF901282B4616D12A6804F11001107031
:1051900020462A68023250F8044B884242F8044BF9
:1051A000F9D11868089B86744361099B80F81380C5
:1051B0000777836100E0002002B0BDE8F08100BF06
:1051C000D8440020745E002070B506460B4D0C4B91
:1051D0002B602C680B4B9C420BD2237833B1A27C02
:1051E000A01C3146D20806F0C9FC20B120342C6046
:1051F000EFE7002070BD012070BD00BFD844002043
:10520000745E0020D45E002013B5084C8022034653
:105210000092019406480321202207F00EF908B9F4
:10522000206800E0002002B010BD00BFDC44002078
:10523000905D002010B50C4A0C4B136013680C49AC
:105240008B420DD2197849B1411C02D0997C814220
:1052500004D148F2FE015C888C4202D02033ECE796
:105260000023184610BD00BFDC440020905D0020E4
:10527000F05D002037B504460F4D80230093019563
:1052800023460E480521122207F0D7F801282B46A5
:105290000ED12A6804F11001107020462A680232EB
:1052A00050F8044B884242F8044BF9D1186800E0EA
:1052B000002003B030BD00BFD4440020145E0020A5
:1052C000F7B50546204C802300930E4617460194FF
:1052D0001E48032120222B4607F0AFF8012830D1C9
:1052E0002A46236805F1100118702368023352F82A
:1052F000040B8A4243F8040BF9D12068C77416B92D
:105300000123037505E0002303753146183006F0CC
:105310007EFF23680E480121997402234370FF2207
:105320000023027043808380C38003818372C17233
:1053300002736B7B4373EB89C381FFF79BFF20688C
:1053400000E0002003B0F0BDDC440020905D0020B0
:10535000CE50002013B5084C8022034600920194E1
:1053600006480521122207F068F808B9206800E015
:10537000002002B010BD00BFD4440020145E002005
:1053800038B50546C8B10D48022200244270FF23FB
:105390000122C27244808480C480048184720373B9
:1053A0000370EB7B43732B8AC381FFF7D3FF044A5F
:1053B000106008B107F065F82C7038BDCE500020A1
:1053C000D444002010B50E4B0E4C236020680E4BC9
:1053D00098420ED203784BB1037D3BB91830FFF7EA
:1053E00093F918B1074B1868FFF7CAFF23682033F9
:1053F000EBE700F0E9FABDE81040044806F017BFFB
:10540000905D0020DC440020F05D0020D45E002090
:105410002DE9F84348F2FE030A8805469A42884679
:1054200021D00B78FF2B1ED01B4B0024A1461F461A
:105430001A4A1A603E681A4A964218D233787BB1EB
:10544000B37C012B0CD148F2FE0372889A4207D03C
:105450004046B11C07F022F8484524BF3446814637
:1054600020363E60E6E70120FFF7E4FE04464CB933
:105470002C806C80AC80EC802C816C81AC81EC81C8
:10548000BDE8F883A31C123453F8042BA34245F85B
:10549000042BF9D1BDE8F883DC440020905D0020A6
:1054A000F05D002010B5FFF74BFC0446FFF748FC09
:1054B000054B24029A68A4B22044B0FBF2F302FB2D
:1054C000130000EB520010BD785D002073B52F4C27
:1054D00001F0A6FA00F08EF8002160222C4806F0B8
:1054E00059FC00212046F82206F054FC294B2022CA
:1054F0001A70294B18221A704FF4A0632360274BAF
:1055000040262671A360FFF7CDFF42F2107323619E
:1055100048F2FE03314640F2FF260025E060257583
:105520001F4C2A46238065802B46A580E5802046B7
:1055300000950195FFF716FE20461A4906F0A5FFD3
:10554000294601222046FFF7BBFE4FF48073204618
:10555000E38126806580A580E58025816581A58120
:10556000FFF788FE4FF40073204626806580A580F3
:10557000E58025816581A581E381FFF77BFE0A48EF
:105580000C2102B0BDE8704006F048BE785D0020F6
:10559000745E0020715E0020705E0020C02709004C
:1055A000CE500020F05E0020D45E00202DE9F041B6
:1055B00005460D480F46904606F0A9FE044688B100
:1055C000012D04D8094806F0D8FE034601E0084B37
:1055D0001B682846666839464246B047204606F0B2
:1055E000D3FEEBE7BDE8F081AC4800202445002065
:1055F0002045002008B50B4806F0C9FE0A4806F011
:1056000083FE0A4B0A49186804F07AFA094806F042
:10561000BEFE094806F078FEBDE80840074806F0DF
:1056200073BE00BFF0400020A8450020EC400020E1
:10563000DFC42000D040002024450020AC480020DA
:1056400008B5034640B1054A5968106807F045FEA1
:10565000BDE8084006F074BF08BD00BFEC40002064
:10566000014806F054BE00BFA845002008B506F06A
:1056700069FF014638B1044B186807F015FE003089
:1056800018BF012008BD08BDEC4000202DE9F04105
:105690008046FFF7E5FF0026044637469CB194F8A4
:1056A0002450B5420AD3404604F10801EA0806F046
:1056B00065FA18B9802D08D02E462746204606F0F8
:1056C0000AFF0446EAE73C4667B1084806F01FFEB9
:1056D000844207D00548214606F023FE03482146B0
:1056E00006F042FE2046BDE8F08100BFA84500203C
:1056F00038B5044600283ED04368002B3BD01E48F6
:10570000214606F00EFE6368586806F000FE054666
:1057100030B14368A34207D0284606F035FEF6E7CD
:1057200004F1080002F0F8F963682946586806F0A9
:10573000F8FD6368586806F0EAFD28B963680F4A07
:105740005968106804F094FA21460D4806F043FEAB
:1057500029460C4806F03FFE0B4A20461368013BE1
:105760001360FFF76DFF04F108010246BDE8384001
:105770000320FFF71BBF38BDA8450020EC400020E8
:10578000F0400020FC4000202045002010B50446D9
:1057900080B1406870B106F0BAFD20B14068FFF7F3
:1057A000A7FF6068F7E7044B2146BDE81040186882
:1057B00004F05EBA10BD00BFEC4000202DE9F84FA8
:1057C000074610468946904606F0BCFE834610B94F
:1057D0000020BDE8F88F3846FFF758FF044660B157
:1057E000FFF72EFF014628B14046102206F0C6F909
:1057F000002859D02046FFF77BFF2D4B1A689A46A8
:10580000102AE5D02B4E5946306807F04DFD05466D
:1058100068B92B4630685946042204F09FF90546C2
:105820000028D5D000236860036006F06DFD224893
:1058300006F0BDFD04460028CAD02048214606F0E7
:1058400093FD1F4806F0B3FD834620B921461A4850
:1058500006F0C1FDBCE744606868594606F075FD76
:10586000DAF800306560013330682946CAF8003044
:1058700004F014FA3B4604F1080507F110062A4625
:1058800018685968083303C2B3421546F7D100219E
:105890000C2284F8249004F1180006F07BFA022010
:1058A00039464246FFF782FE2046BDE8F88F00BF2A
:1058B00020450020EC400020F0400020A8450020BA
:1058C000FC40002038B505460D4806F020FD044692
:1058D000A0B1AC420ED12146094806F022FD214676
:1058E000084806F078FD211D01200A46BDE8384031
:1058F000FFF75CBE204606F047FDE8E738BD00BF75
:1059000024450020D040002038B50546084806F060
:10591000FEFC044648B1201D2946102206F02EF94F
:1059200018B1204606F030FDF3E7204638BD00BF31
:1059300024450020F8B505460F46FFF7E5FF04466D
:1059400040B9134806F033FD0446F0B11148214632
:1059500006F00AFD2B46261D05F1100E324618688A
:105960005968083303C273451646F7D137B104F1BD
:105970001400394606F04BFC002300E00123237796
:10598000002029462A46FFF711FE2046F8BD00BF39
:10599000D04000202445002038B50A4806F0B7FC66
:1059A000044600255CB1251D284601F06DF808B1BC
:1059B000437C23B9204606F0E7FC0446F2E728467C
:1059C00038BD00BF2445002010B50A4806F09FFCF2
:1059D000044670B1237F43B904F11400FEF794FE2E
:1059E00018B12046FFF76EFFEFE7204606F0CCFC2B
:1059F000EEE710BD2445002037B5124B124D1C7840
:105A00002B796A79C4EB032313449BB2ADF80630BB
:105A1000BDF8063005F108011844202280B206F0D6
:105A200060FDBDF8062004F12801294492B206F079
:105A300058FD10B140BA80B201E04FF6FF7003B0DC
:105A400030BD00BFBD560020F85E00202DE9F041BA
:105A5000264F274E3D7827482835AB195C7802231E
:105A6000E40007349C423DDBE9187218715CDFF8F2
:105A70008080012931D002D3632902D011E00133A3
:105A80002EE0037018461B4C03F002F9D0B13B78AE
:105A900022782833134443445B7813440233237041
:105AA00021E001F0C001802905D0C02905D040299E
:105AB00013D1037006E0037007E098F81820037014
:105AC000FF2A02D10120BDE8F08104200221EA185A
:105AD000FFF752FA0220BDE8F081527802321344F7
:105AE000DBB2BFE703700020BDE8F081BD560020A7
:105AF000F85E0020C3560020F0B5C578124A0D4468
:105B0000EDB2D57083780F0A3B44DBB293704478D2
:105B1000BB4254700678167005D2601CC0B250703B
:105B200008B901361670C9B28D420CDA0133DBB206
:105B3000054993703BB94B780133DBB24B7013B915
:105B40000B7801330B70F0BDEC5E002010B5084CF3
:105B5000014620681430FFF7CFFF064A236811780A
:105B60001975517859759178D2789975DA7510BD93
:105B7000945F0020EC5E002008B5FFF7A7FCFFF75C
:105B8000E3FA06F0E8FC00230E49002221F8132076
:105B90000133082BF8D10C49002311443032B2F5FF
:105BA000F07F81F82530F6D1084A4FF480611180EA
:105BB000074A00211A442033B3F5A07F1182F7D1A0
:105BC00008BD00BF80610020985F0020DE500020EB
:105BD000946100202DE9F041124F3D7805B3DFF8C4
:105BE0004C8005F12703B8F80040A34203DB0023F3
:105BF000A8F8003013E00C4EA4F1280205F12801AA
:105C0000641BA4B206F128003144521B06F05EF872
:105C1000A8F80040283C23123371747100233B70B4
:105C2000BDE8F081BD560020F85E0020E45E002053
:105C30000023064A32F81310814203D1002122F8D2
:105C4000131070470133082BF3D170478061002097
:105C50000023054A32F8131011B922F813007047D7
:105C60000133082BF5D17047806100202DE9F74FF3
:105C7000A24E04283468A24F00F06F82A149A24DC1
:105C8000A24A03280D6015608A4615D194F8253084
:105C900003F00F03032B08D1A38B002B40F0748675
:105CA0009B4B08221A7000F065BD022B40F06C86F9
:105CB000002305F8073CB3E302287AD1954A002374
:105CC0001370954A3B801380944AD3780133DBB23A
:105CD000D37063B993780133DBB293703BB95378D7
:105CE0000133DBB2537013B913780133137094F896
:105CF000253003F0FD02052A0DD194F8263001333A
:105D0000DBB2782B84F8263040F03E86002384F8FE
:105D1000253000F039BE002B00F03686A28B7C487F
:105D2000002A3DD094F82620511E84F82610002A1F
:105D300040F02A8694F82720082A04D0591E012909
:105D40000AD8052A08D1002384F82530802303705F
:105D500002F08EF900F01CBD042A9CBF0321914083
:105D600003F00F0394BFC9B230210132013B84F824
:105D7000261084F82720072B00F20686DFE813F0B0
:105D80004C0308000A00C3040406C3040406C30449
:105D9000002242E30423037002F06AF900F024BDFC
:105DA00003F00F03032B40F0EF850823037000F08E
:105DB000E1BC052811D15A4B1B681B8A002B00F04F
:105DC000E3850C3D1560544A0023138033603B800B
:105DD0004F4B08220D601A70BDE115F83C3C3C3D6C
:105DE00003F0F003602B40F0CF852B796A791B021A
:105DF00039889818884200F3C785283213443B80BD
:105E00002B7AFF2B00F0C085464EAB1D3360464C0D
:105E1000404B00221A702270AA799846BAB9012321
:105E20002370FFF713FE012800F0AE8503D302288C
:105E300000F0A6850BE098F8003003F128022A4410
:105E400032605278083303EBC20388F800303748D9
:105E5000FFF7DAF9002840F0B2803448FFF77AFA09
:105E6000002840F0AC802A7E304BFF2AA3F11803B3
:105E700060D048F2FE00198B81425BD019898142C3
:105E800058D079B9598969B9998959B9D98949B91C
:105E90001B8A3BB9698A264B21B9998A11B9DB8AD9
:105EA000002B47D0298B224B79B9598B69B9998B33
:105EB00059B9D98B49B9198C39B9598C29B9998CE7
:105EC00019B9DB8CB3F5807F34D03B88B3F5A06F74
:105ED00004D9022000214FF4A06205E0EB79012BE8
:105EE00006D800210A460320FFF746F800F048BD17
:105EF0000F4A013BD37100F043BD00BF945F002007
:105F0000E45E0020905F0020345F0020E85E002007
:105F1000845F0020BD56002090610020BF56002005
:105F20008C5F0020885F0020BE560020105F00209C
:105F3000F85E002048F2FE032989994240F024854A
:105F4000298BA14B81B9598B71B9998B61B9D98BC7
:105F500051B9198C41B9598C31B9998C21B9DB8C63
:105F6000B3F5807F00F01085FF2A00F00D8597487B
:105F7000FFF72AF90246002840F006850120022199
:105F8000B2E725D9B9F13A0F78D02CD9B9F13B0F46
:105F900000F0FA84B9F13C0F6CD123788C49980752
:105FA0003BD5580666D443F040030B70FFF74EFD17
:105FB000012800F0E98433D3022800F0E18432683C
:105FC000DFF83CB292F80090B9F12B0FD9D134E050
:105FD000B9F1060F00F01681B9F1110F6FD0B9F1C8
:105FE000000F47D104E0B9F12C0F00F0CD8441E05F
:105FF0002378D9073ED4764A43F001031370FFF7A4
:1060000025FD012800F0C084D6D298F8003003F1B5
:1060100028022A44CBF8002008E043F00203C4E73A
:1060200098F8003003F128022A443260527808338D
:1060300003EBC20388F80030C1E7237803F00400C3
:1060400000F0FF01B0B9624A43F00403137098F8FE
:10605000002002F128032B44D87810B104202A3202
:1060600042E7CBF800305B78083202EBC302594BB1
:106070001A70A4E704200121521B35E706F04DFAFF
:106080004FF6FF73984240F07F8498F80030283331
:10609000E85C01F07BFE98F800302833EA18E85CF1
:1060A0005178FEF747FF012801BF0023494A3B8092
:1060B00013703B88002B00F0678400F061BCFFF791
:1060C00089FDEB8D85F8069053B96E8D002E00F09A
:1060D0005B84414B414D2B603B4BB3F828800BE078
:1060E00006F021FA4FF6FF73984240F04D84ECE73A
:1060F000238A33B920342C602C68394B9C42F7D367
:1061000015E09E42F6D1638A0BB19845F2D123681F
:106110002BB963681BB9A3680BB9E3685BB131485D
:106120002146102205F02AFD0028E3D103E00120DA
:1061300004210022D8E63B882B49303B3B800023DA
:106140000B602A4902202A4A08702A49CAF800200E
:106150000A60294A138001F08BFF274B1A88002A16
:1061600000F0128402F13003174C9BB23B80283BB5
:1061700019126371194B08321B6852BA2171197DCB
:10618000A2850022E2851A8AE17122855A8A1121AC
:106190006285A17104F118050FCB85E80F0004F1A9
:1061A00008002946FFF734F9144B04F13C021A6049
:1061B00006F0B9F9C04380B208B1E085DAE34FF6E2
:1061C000FF73E385D6E300BFF85E0020105F002078
:1061D000BE560020BD560020946100208C5F002038
:1061E000D4620020005F0020945F0020845F0020C4
:1061F000285F0020E85E002090610020905F002072
:10620000885F0020FFF7E6FC85F8069006F088F925
:106210004FF6FF739842AE4C40F0B683B4F82AB004
:10622000BBF1000F00F0B083238D002B00F0AC8396
:10623000A84EB44696F82590B9F1000F11D0328AD5
:106240005A450ED1728A9A420BD1A3483146102288
:106250008DE8081005F092FC9DE80810002800F079
:10626000F5809E4A30369642E4D195F8352002F00A
:106270003F02022A08D10022994931F812105945EB
:1062800050D00132082AF7D195F83520904B5207AB
:1062900000F17A83142283F835203C223A80502280
:1062A00083F8342093F8332093F8314093F82F008B
:1062B00083F82F2093F8322093F82E1093F8306053
:1062C00083F82E20013093F82D2083F82D4093F889
:1062D0002C40C0B283F8321083F8312083F82C6050
:1062E00083F8304083F8330060B90131C9B283F8D4
:1062F000321039B90132D2B283F8312012B9621C9E
:1063000083F830202B8D6A8D734C2A856B8504F1C0
:10631000100594E80F0085E80F0020462946FFF796
:1063200077F812E3002421466A4A92F8250018B94A
:10633000302404FB01C413E0072809D13CB192F8D2
:10634000266094F82600864288BF144600E0144672
:1063500001310A2902F13002E7D1002C00F0148348
:10636000604A638214605C4B032284F8262084F820
:106370002420042284F823200FCB84E80F005A4BFA
:1063800001201A78002622765A7884F82500627651
:106390009A78DB78A276E37695F82C30A083237583
:1063A00095F82D3084F82260637595F82E3084F8C6
:1063B0002760A37595F82F30A4F810B0E375FFF7A8
:1063C000C5FB95F8343003F0F002502A24D91A099D
:1063D0003346053A9200E91891F83C00E0B10128F3
:1063E00001D1013316E002280FD191F83D000428B5
:1063F0000BD191F83E2091F83F3043EA0223402B25
:1064000028BF4023E383238406E0E91891F83D1078
:1064100011B10B449342DEDB10222D4B83F8352063
:106420002B4B93F8352042F0020283F835200222EC
:1064300083F83C20042283F83D20002283F83E208C
:10644000402283F83F203A80602242E2254B95F8B3
:1064500035101E60254B11F0040F344618709B4612
:1064600003D086F825002022E1E13B8809F00F09DE
:10647000A3F12802164BB9F1020F93F834304FEA1A
:106480001313A2EB83039BB23B8003D101F03F02C5
:10649000122A05E0B9F1010F03D101F03F02022AEF
:1064A00026D00BB98B0723D0AA8DB38A9A4204D188
:1064B000074BDA8DF38A9A421AD0880740F102829C
:1064C000B9F1010FA8D0B9F1020F40F0FB81A7E7A5
:1064D000F85E0020985F0020005F002078610020B7
:1064E00080610020945F0020BF560020845F002060
:1064F000C90654D5B18B002951D006F11800FFF719
:10650000FBFAB24B95F8301093F800E0B04A8E4594
:1065100045D192F8311093F801C08C453FD192F8E3
:106520003200997881423AD192F83320DB78934255
:1065300035D1F37696F8273086F818E086F819C03A
:10654000B1761BBB96F8243096F8261096F82200F8
:10655000591AA1EBD001C9B25FFA81FE1EF0800F7B
:1065600096F82330084418BF4942A3EB930318BFA1
:106570005FFA81FE03EB0E02C0B2D3B286F823307D
:1065800003EBD00386F8220086F82430914B0122D9
:106590001A7096F8243086F826300023B38396F8D4
:1065A0002510DFF8309201F00F03013B072B00F2BA
:1065B000EB81DFE813F00800250083004001620151
:1065C0007C018701320199F80020824BD2070FD558
:1065D000032286F82520388840221A700022B283D0
:1065E000002800F0C48042221A70FFF7AFFABEE024
:1065F00095F8353003F03F03022B40F0C5810BE7DF
:1066000099F80030DB074ED595F8353003F03F039D
:10661000122B48D16E4B93F8343003F0F002502A1D
:1066200024D91B09053B9B0000202A1892F83C1036
:10663000E1B1012901D1013016E002290FD192F810
:106640003D1004290BD192F83E1092F83F3043EAF6
:106650000123402B28BF4023F383338406E02A180C
:1066600092F83D2012B110449842DEDB032386F8F5
:10667000253095F82C300120337595F82D30737541
:1066800095F82E30B37595F82F30F375FFF75EFA55
:106690004223514A8BF800300023B3833B8088F8B3
:1066A0000030138066E020238BF8003001F0E0FC1E
:1066B0004A4B00221B6883F82520E5E595F8353024
:1066C000D80725D5CA0623D4B38B002B40F05C81B4
:1066D0003888013080B2FFF739FA9BF8003043F078
:1066E00010028BF800203A881AB13A4A43F012039C
:1066F000137001F0BDFC0123B383082386F8253015
:10670000002386F827301122314B83F83520DCE056
:1067100098060DD595F83A2095F83B3043EA0223C8
:10672000DAF800201A44CAF800203A88D31A3B80CD
:10673000388848B1CA0607D499F8003043F00203FC
:1067400089F80030FFF702FA95F8362095F83730CF
:1067500003EB0223328C9BB2934202D8002B18BF6A
:106760001A4699F80030F2839B0700F00D811A4B0E
:1067700000221A8001F07CFC164B1A78164B02F0AE
:10678000200000F0FF0128B100221A8084F82520A3
:106790001422B9E702F0100000F0FF0540B11980A3
:1067A0000123A383042384F8253084F82710AAE763
:1067B0001988B1B1D60748BFA583A28B82B9E28BF5
:1067C000914288BF1A801B88A3830AE0EC5E0020F8
:1067D000F85E0020845F002090610020945F00201C
:1067E0001A80002384F827306D4B1B68CAF80030EC
:1067F0006C4B1B882BB1A38B1BB13C333B80182205
:1068000007E0694B1B789D0740F1BE803C233B802D
:106810001022664B83F8352059E099F80030DC07E8
:1068200040F1B280002386F825305F4B10221A70A9
:1068300001F01EFCA8E0388808B1FFF787F995F849
:10684000353013F001030FD099F80030D80745BF59
:10685000072386F825300623002346BF86F8263016
:10686000B38386F8253016E099F80020D1071BD5B0
:10687000052286F82520B38386E0388808B1FFF723
:1068800065F995F83530DA070ED5072386F82530F7
:10689000002386F826300120FFF758F9102389F8E5
:1068A000003001F0E5FB0DE03B885BB96CE099F846
:1068B0000030DB0768D5072386F82530002386F8EB
:1068C000263061E0102385F835303C233B80374B80
:1068D000502283F83420237D344D85F83030637D99
:1068E00005F1180685F83130A37D85F83230E37D57
:1068F00085F83330237E85F82C30637E85F82D3083
:10690000A37E85F82E30E37E85F82F30238A2B85F1
:10691000638A6B8594E80F0086E80F0005F1080094
:106920003146FEF775FD94F8253003F0100303F0AF
:10693000FF022BB1002385F8373085F8363004E0AC
:106940003C2385F8362085F83730184C0623A37190
:10695000174B1B79E3713B88283B1A1263710023A4
:10696000227184F83B3084F83A30238705F0D8FD53
:10697000C04320870D4B60221A7000225A705A8043
:10698000094B00221A7007E00A4A002313700A4AD2
:106990003B801370044A137003B0BDE8F08F00BF52
:1069A000E85E002090610020845F0020F85E0020F7
:1069B000785D0020BD560020BE5600200C4A0346DC
:1069C000106828B10B4A121A9142A8BF114602E082
:1069D0005029A8BF5021002909DD074A83421180B0
:1069E00005D08AB200B90548194605F0F9B87047D4
:1069F000E85E0020845F002090610020345F00206A
:106A000010B5044640B102F095FA044B2146BDE8AA
:106A10001040186803F02CB910BD00BF08410020D9
:106A200008B503F009FB034B03491868BDE80840AB
:106A300003F066B808410020016A200070B51E46C8
:106A40000C4B04469DF810201868059B03F086F84F
:106A5000054668B120462B4604F1100250F8041B8D
:106A6000904243F8041BF9D16E74284602F062FA92
:106A7000284670BD08410020024B0146186806F008
:106A80002CBC00BF0841002070B50C4D064628689C
:106A900003F04AF8044666B9002070BD204631462E
:106AA000102205F06BF838B12146286806F0DDFBAE
:106AB0000446002CF2D1EFE7204670BD08410020CB
:106AC000024B0146186806F0EFBB00BF08410020EA
:106AD00070B5054610200C4603F004FA0849064636
:106AE00006F010FC58B930462946224603F042FA17
:106AF000304629462246BDE8704002F0F1B970BD2B
:106B000027DB20000C4AB82303FB0022002330B50A
:106B100053821A46094CE1188D782DB11C5D8442D0
:106B200002BF00248C70013240F24C5171338B4211
:106B3000F0D1104630BD00BFCC480020CF56002019
:106B400008B5064801F000F9054B01221A70FD2135
:106B500000225A709970DA7008BD00BFA96D20003C
:106B6000C556002010B513780446087A83F0020356
:106B700098421DD1487A5378984219D1887A9378EF
:106B8000984215D1C87AD378984211D1087B1379ED
:106B900098420DD1487B5379984209D1887B9379EB
:106BA000984205D1C87BD379984201D103201BE0DC
:106BB0000B890F4A6BB94B89B3F57F4F09D18B898C
:106BC000FE2B06D11368C989022023F8021B13602B
:106BD0000AE0136851F8080F083343F8080C4868B6
:106BE00043F8040C13600120A040C0B210BD00BFE8
:106BF000B848002010B50F4C0220A17903F058F9D5
:106C0000A379112B01D0062B05D1238D618D9942DB
:106C1000A8BF194608E03A2B05BF94F8281094F84D
:106C20002930002143EA01210120BDE8104003F092
:106C30003FB900BFF85E002010B5084C014623782C
:106C4000012B08D1A01C082204F098FF00280CBFDB
:106C50002046002010BD002010BD00BFC5560020FA
:106C600008B50146102003F031F9044B04489B6835
:106C700000219847BDE80840FBF790BF90D820005E
:106C8000856C200010B508460C461146FFF720FF22
:106C9000044B1B6813B19B6820469847024B1C604D
:106CA00010BD00BFC8480020C4480020F8B5054604
:106CB0000023114A712404FB0324A278B2B9617045
:106CC00003F020F826460D4F0D4A3B7806F8035B8B
:106CD000C01A1568A0701D4403F014F83A782946CC
:106CE000821A304604F07CFFA078F8BD01330C2BEB
:106CF000DFD14FF0FF30F8BDCF5600201B5C0020E5
:106D0000BC4800202DE9F8434FEA1219B9F10F0FE2
:106D100080461D4602F00F040BD00F2C05D1B9F1AF
:106D2000000F0AD11024274619E0B9F1000F09D04D
:106D300004E00F2C4FF0100900D1102440464A46C1
:106D400004F04EFF09EB04020F2A274606DC08EB8D
:106D500009000021C2F1100205F01CF8BCB1114D70
:106D6000C7F110002E6840443146224604F038FF37
:106D7000022C08D1B9F10A0F9FBFFF2388F80B300E
:106D8000FE2388F80C3034442C60BDE8F883B9F158
:106D9000000F05D040462946BDE8F84305F075BB15
:106DA000BDE8F883B84800202DE9F04F8E4E8F4D96
:106DB000002387B033702B70044603F01FF802F0F5
:106DC000B3FF8B4A8B4B126818608DE860009946C0
:106DD0000AB1FFF70FFF04A80CB9874900E021466C
:106DE00006F08BFA854B864E1A8803933E2A40F2B2
:106DF0000182D9F800B0834D0BF102032B60009B98
:106E000006F1180093F80080002308F102080BF83F
:106E10000830FFF711FF20B906F10800FFF70CFF5B
:106E200020B10BF103032B60802400E0044672784C
:106E30003178130943EA0113DBB2980840EA83135F
:106E4000DBB212F00F0FDEB26E4F01F00F010CD16A
:106E50006B48408848B911B912F0F00F1FD03B6859
:106E600003F8016B3B6070261AE079B912F0F00F5D
:106E70000CD1296823F03F031A43634B0A701B8827
:106E8000033121F8023C6826296009E05C4A2B683E
:106E90001068186003F8046B2B60602600E0782609
:106EA000574B9A790293112A08BF46F004067307DC
:106EB0005EBF3B6803F8012B3B60029BDB79402BF4
:106EC00006D0FF2B07D0012B08D146F0010609E0C0
:106ED00046F0020606E046F0030603E03A6802F8D0
:106EE000013B3A60029A464B128982B95A8972B9BB
:106EF0009A8962B9DA8952B91A8A42B95A8A32B978
:106F00009A8A22B9DB8A13B944F0400013E03F4863
:106F1000FFF792FE3E4B186078B142781BF80830BC
:106F2000042043EA02130BF808303849394AFFF7C6
:106F300019FE60F03F00C4B227E0029B30491A8975
:106F400048F2FE039A420CD14B8B53B98B8B43B959
:106F5000CB8B33B9042008312E4AFFF703FE2043C0
:106F6000E9E73A68DFF8A4C096460CF1100A6346D8
:106F700003CB5345CEF80000CEF804109C460EF12A
:106F8000080EF4D11F4B10321A60DFF874A09AF883
:106F90001830FF2B40F08A809AF8192044F0080E30
:106FA000022A5FFA8EFE37D1BAF81A30A3BBBAF8BC
:106FB0001C308BBBBAF81E3073BBBAF820305BBBF9
:106FC000BAF8223043BBBAF824302BBB9AF82630EB
:106FD00013BB3B689AF8272044F00B0003F8012B01
:106FE000C4B23B609FE000BFC45600201B5C002081
:106FF000C8480020BC48002027DB2000E45E0020B9
:10700000F85E0020B8480020FA5E0020005F0020F3
:10701000B0480020F05E00209B4B588B194688BB7F
:10702000988B78BBD88BA8B9188C98B9588C88B92C
:1070300093F8240070B9296844F00A00C4B20846E5
:1070400000F8012B33F8252F043121F8032C9B780D
:10705000837015E0C98B8C4BA1B9198C91B993F849
:10706000221079B9296844F00900C4B2084600F832
:10707000012B53F8232F063141F8052C1B7903719E
:10708000296050E0814ADFF818C214680CF110083A
:107090002746634603CB4345386079609C4607F139
:1070A0000807F6D11034146074463CE00AF1180069
:1070B000FFF7C2FD764B186050B143781BF80810FB
:1070C00044F004040B43E4B20BF8083000200EE057
:1070D00048F2FE03BAF818209A4210D1BAF81A30D2
:1070E0006BB9BAF81C3053B9BAF81E303BB90AF183
:1070F000180104AAFFF736FD2043C4B213E0634A27
:10710000DFF89CC117680CF11008BE46634603CB3C
:107110004345CEF80000CEF804109C460EF1080E50
:10712000F4D110371760019A5749282313708B79CF
:10713000112B53D14FF2B0030A8D52BA92B222F002
:107140000F0080B2984217D14B8D5BBA23F00F032A
:107150001B041B0C83420FD12868F32303704B8D53
:1071600002301A0A0B8D1B0A02EB031303F5AA6304
:1071700000F8013C286028E0029B43495B8D5BBA24
:1071800003F47F43B3F5704F09D12B68F1221A70D5
:107190000A8DA3F801204A8D120ADA700CE002F47D
:1071A0007F42B2F5704F2B6808D1F2221A700A8D17
:1071B000120A5A704A8D5A80043305E0F0221A7080
:1071C000886A053343F8040C2B60324B1A882B680D
:1071D00023F8022B019A2B6030231370009BD9F8FF
:1071E00000201B78D65413445C70284B1B689B1AF4
:1071F000009A1AE0D9F8002041231370009B06F191
:1072000028051C78631CDBB21344324603CAAA4229
:1072100018605960164603F10803F6D1009B293423
:107220001C70019B019A1B782833102013700DEB02
:10723000000102F04BFE184BDFF868801B6898478E
:1072400030EA200028BF1520039BC0F17D051C8873
:10725000019BDFF854A01E78009BA21B93F800B09E
:107260000E4FCBEB05039A4240F3CD80C0F178037B
:10727000019302F06FFB019B94FBF3F40134A042F5
:1072800014DC0020D1E000BFF85E0020B8480020E8
:10729000B0480020265F002048D820001B5C00205A
:1072A000105F0020E45E0020C4560020D9F800B032
:1072B0005F4B3C7800221A60594622460BF10400CD
:1072C000039304F003FDB8F800205A496FEA8242A4
:1072D0006FEA9242C2F307228BF80020B8F8002030
:1072E00004348BF801200A88E4B2501C0880110A8B
:1072F000DFF850C18BF802102D1B9AF8001025F012
:1073000007054D4E61448BF803200BEB04002A4621
:10731000CDF808C03C70356004F062FC281980B2DA
:1073200002F0E6FC02F01CFB039B04461D4600280D
:10733000A7D00DF1100B5846FFF792FC204602F043
:1073400047FB204602F02EFB2B68012B99D0043B13
:10735000012B96D99AF800A0336853441FFA83FA98
:1073600005233B70354B1A68B8F800306FEAC34309
:107370006FEAD343C3F307231370B8F80030537098
:10738000019B23F0070737602D4B1B889A454BD292
:10739000D9F800204FEADA0111713268CAEB030311
:1073A0009342B8BF244AD9F80000B8BF1360009BCD
:1073B000376893F80080029B3A4603EB0A01404489
:1073C00004F00EFC08EB070080B202F091FC02F022
:1073D000C7FA074600283FF454AF5846FFF740FC71
:1073E000384602F0F5FA384602F0DCFA124B1B6818
:1073F0009A442B681FFA8AFA012B3FF442AF043BF0
:10740000012BC1D83DE7D9F800000E49584431445A
:1074100004F0E6FBB8F800005844801B80B202F08C
:1074200067FC04A8FFF71CFC012007B0BDE8F08F43
:10743000C448002000520020C0480020BC48002062
:10744000E45E0020F85E00202DE9F04707468846FC
:107450001646002A47D0434C0025A146238ABB424A
:1074600015D1638A9BB10F2002F03CFD01462046F6
:1074700005F048FF58B1ECB220463146FFF716FC44
:10748000002827DA0027DFF8E0A0B8460DE0B8347E
:10749000002D5DD10125E1E7A8450BD10AF1B80A1D
:1074A000B8F1000F10D14FF001083AF8063C002B5C
:1074B000F4D0F1E7504604F0EEFE0028EED040464E
:1074C000FFF720FB0744E9E7002F41DD2046314666
:1074D000FFF7ECFB00283BDDB82303FB0595AB8AE7
:1074E0001844A8823AE0204DFF2435F8063C4FFAB4
:1074F00084F97BB3284604F0CEFE10B13046FFF786
:1075000001FBB9F1FF3F03D135F8063C03B9F4B2F2
:10751000012E05F1B80501D00126E6E765B26B1C26
:1075200016D0B8235D43DFF83C900F2009EB050629
:10753000A6F81280378202F0D5FC0146304605F0ED
:10754000DCFE05F118004844402104F092FE05E0FD
:10755000FF2403E0B9F1FF3FDAD1D8E760B2BDE81C
:10756000F08700BFCC480020E44800202DE9F04F10
:107570000F2087B0A54CDFF8CCA202F0B3FC0026A8
:1075800002F034FD8AF80060267002F0CDFBA04DB9
:10759000A0462860042002F093FC9E4B2A6800B2AB
:1075A00018605778137847EA032703F0F803C02BD5
:1075B00002D0E02B19D03AE090782378D278C7F344
:1075C0000A07043342EA0020394632462370FFF7A7
:1075D0003BFFB0F1FF3F814600F07E828E4CB82326
:1075E00003FB00440126223424E01379D1789078FB
:1075F0002278C7F30A070532227041EA00201A46B2
:1076000039460093FFF720FFB0F1FF3F814600F0BD
:1076100063828149B82202FB0012958A4FF0010B68
:10762000BD4234BF002501253446009BDFE1B14651
:107630004F467A4C296898F800504A5D02F0E00302
:10764000602B40F0B681A81C084429444D78744B47
:107650005FFA85FC1CF0800F18601CBF01301860B9
:1076600012F0100F02F0080130D1D1B9196831F8C9
:10767000010FA4F801008978E170196811F8040B72
:107680001960830803F00F0141F0600121706178F7
:1076900003F0300343EA801301F00F010B436370E2
:1076A00030E018686021864621701EF8011B033007
:1076B0004FEA910B0BF0300B01F00F014BEA010187
:1076C0006170BEF80010186061801BE001F0FF0ED1
:1076D00099B919680878C0F3830040F06000207001
:1076E00011F801BBA4F802E04FEA9B0000F0300063
:1076F00040EA8B106070196004E06023237000235F
:107700006370638002F0040303F0FF0100912BB962
:1077100043490B6813F8010BA0710B6012F00302D0
:107720000BBF3F4A3F4B13689B5C09BF13F8011B1B
:10773000E3711360E1716B06C5F3011233D51CF0E0
:10774000800F1DBF324998F80030096800211EBF24
:107750005B189978090922B904F1080B9AB9114606
:1077600014E0314B1878012805D1587888420CBFB5
:107770001946002100E000212C4B19600029EBD1B3
:10778000B3460D4632E1294B19680231284B0F20D0
:107790009A5C0391CDF808C0019202F0A3FB039913
:1077A000034658460BE0234B0F209A5CCDF808C0E7
:1077B000019202F097FB2049034604F10800019A68
:1077C000FFF7A0FA05F00800DDF808C005F0030295
:1077D00000F0FF0105F00403002835D0002B6BD129
:1077E000164B1B88ADF81430531E012B9FBF0C495C
:1077F0000B6813F8010B0B60114B98BF8DF8150047
:107800009A5C04F1180005A9002353E01B5C0020DA
:10781000BC480020B4480020CC480020F85E00207E
:10782000B8480020D5DA2000C5560020B048002016
:10783000EEDA2000D9DA2000DDDA2000D3DA2000E9
:10784000DFDA2000C456002053B31CF0800F1DBFA8
:10785000A34998F8003009680B4618BF5B18A14986
:1078600018BF9D78087818BF05F00F03012805D1CF
:107870004D789D420CBF0D46002500E000259A4B37
:107880001D60002D00F0AE80984B10209A5C019294
:1078900002F028FBA91C0346019A04F1180009E034
:1078A000934B10209D5C02F01DFB2A469149034634
:1078B00004F11800FFF726FA9AF800008E4900F14B
:1078C00028038AF80030009B002B53D00B681A78ED
:1078D00002F0F802F02A4DD11122A2711A7802F0BA
:1078E000040502F0F302F03AEDB2032A7CD8DFE897
:1078F00002F0020A1622B3F801200533228533F87C
:10790000022C62852CE0B3F801202285DA78A2F5FA
:10791000805292B2120242F0F002628509E05A7877
:10792000A2F5805292B2120242F0F00222855A88E9
:107930006285043314E05A7802331209A2F57562A5
:1079400092B2120242F0F002228513F8012C02F0EA
:107950000F02A2F5756292B2120242F0F002628545
:107960000B6025B90B6833F8022BE2850B603030D1
:107970008AF800005A4A0B6812689B1A88F800308F
:1079800067B902F0BFF95D4B1B78C01A9AF8003056
:107990001844283803122371607104E0A7F128030A
:1079A0001A1222716371A379112B1DD1A388A385AB
:1079B0001AE0412A40F090806A1CD2B28B1822460D
:1079C00003F1280153F8040B8B4242F8040BF9D160
:1079D00005F1290388F800309AF8003028338AF836
:1079E000003001E0B34601E0B34600252B4600938A
:1079F00002F088F998F8002082426DD802F082F9EE
:107A00003E4A009B12789AF800A0DB009BB2C2EBC2
:107A1000000853443A4943448C2BC1F800805BD89A
:107A20003CB12F4B04EB0A0019681144424604F0A4
:107A3000D7F8002F39D056B132484FFA89F3B8241D
:107A400004FB030308EB0A0189B29982198495B3F8
:107A5000B8224FFA89F402FB04F32A492A48CA18CB
:107A6000114697822231128C04F0BAF8274D05F2A4
:107A70004C5615F8012C5AB115F8033CA34207D116
:107A800015F8020C204B294603EBC00004F0A8F8BF
:107A90007135B542EDD15FFA89F0FFF733F8BBF1EC
:107AA000000F0BD01A4B1F800CE0BBF1000F05D06C
:107AB000002DF7D110E0BBF1000F0DD1144BD044D5
:107AC000A3F80080134C236823B1FFF793F82368D1
:107AD0005B68984700F06EF907B0BDE8F08F00BF13
