:020000040020DA
:10200000386E00208D22200037B8200035B820001F
:1020100035B8200035B8200035B820000000000099
:1020200000000000000000000000000035B82000A3
:1020300035B820000000000035B8200095B8200019
:10204000B7B82000BDB82000C3B82000C9B8200030
:10205000000000009BB82000A1B8200035B8200087
:1020600035B8200000000000000000000000000063
:10207000000000000000000035B820000000000053
:10208000000000000000000035B8200035B8200036
:1020900035B8200035B8200035B8200035B820000C
:1020A00035B8200035B8200035B8200035B82000FC
:1020B00035B8200035B8200035B8200035B82000EC
:1020C00035B8200035B8200035B8200035B82000DC
:1020D00035B82000000000000000000000000000F3
:1020E00000000000000000000000000000000000F0
:1020F0000000000000000000CD382000DD38200086
:1021000000000000000000000000000000000000CF
:1021100000000000000000000000000000000000BF
:1021200000000000000000000000000000000000AF
:10213000000000000000000000000000000000009F
:10214000000000000000000000000000000000008F
:10215000000000000000000000000000000000007F
:10216000000000000000000000000000000000006F
:10217000000000000000000000000000000000005F
:10218000000000000000000000000000000000004F
:10219000000000000000000000000000000000003F
:1021A000000000000000000000000000000000002F
:1021B000000000000000000000000000000000001F
:1021C000000000000000000000000000000000000F
:1021D00000000000000000000000000000000000FF
:1021E00000000000000000000000000000000000EF
:1021F00000000000000000000000000000000000DF
:1022000000000000000000000000000000000000CE
:1022100000000000000000000000000000000000BE
:1022200000000000000000000000000000000000AE
:10223000000000000000000000000000000000009E
:10224000000000000000000000000000000000008E
:10225000000000000000000000000000000000007E
:10226000000000000000000000000000000000006E
:1022700035B82000B5372000D9372000652E200062
:102280003D3A20000129200035B8200008B5094B4F
:10229000FF221A600848094A4824E3690849121ACB
:1022A00098470848084AA3690021121A984700F085
:1022B0000DF8FEE7B4200D40404000200D42002004
:1022C000DCD520001042002037660020F7B500F072
:1022D0006DFC00F061FD00F0BDFC00F06FFA01F054
:1022E0009BFB09F0B9FB00F04FFD00F0C9F801209D
:1022F00009F0A4FA02F09EF900F044FC002000F07E
:1023000055FB012000F052FB4949002000F024FC5D
:1023100002F0E4FA09F0C7FA042009F08FFA454800
:1023200009F0F6FA444809F0F3FA00F0E9F9002060
:1023300002F0F6FA01F064FA4048002102F006FAD1
:1023400001F0BAFF09F0A4FA00F0AEFD00F0CAFDFA
:1023500007F0A4FA6846082101F082FB9DF80730D7
:102360009DF80670364C43EA07276B4603CB206086
:102370006160344801F0AEFB0025615D32480135F3
:1023800001F0A8FB072D2E4EF7D1304DF1793048E2
:1023900001F0A0FBEC6A4AF6CD310220A047394695
:1023A0000320A0471A210120A047694608226B6B31
:1023B0000B209847274801F08DFB274B186809F040
:1023C000A7FA264801F086FB254B186809F0A0FA09
:1023D000244801F07FFB244B186809F099FA234A3E
:1023E000336813607368536007F094FB2048002142
:1023F00002F0ACF91F48002102F0A8F91E4B0121A0
:102400009B688120984709F0FDFA1C4809F0F0FA12
:1024100000F0BEFB022009F011FA00F0BFFB02F051
:1024200021F910F0FF0FF8D101F08EFAF5E700BFA7
:1024300099482000A4D02000BED020007840002081
:102440002F660020E3D0200001D12000DCCF200047
:1024500007D120000DD1200034D0200014D120005D
:1024600040D020001BD1200068D02000285F002031
:102470000C41002098400020F4CE200098D020008D
:1024800008B500F0DDF8024B00221A7008BD00BF4D
:1024900034570020024A13781843107000F0F4B843
:1024A00034570020034A137823EA0000107000F02C
:1024B000EBB800BF3457002020B1012805D1044BF0
:1024C00018787047034B186870470020704700BFAA
:1024D0003557002020900D4010B5094A0020137890
:1024E00001331370074B197802F008F9BDE810406A
:1024F000054B06481968064A002301F013BF00BFC8
:102500003557002026660020484200202042002047
:10251000D9242000812810B50C462AD0B0F5807F40
:1025200039D0802839D102F07DF81D4B1D4A187032
:102530001368002023F00803136052F8203C0321A5
:1025400023F0080342F8203C52F81C3C23F0080317
:1025500042F81C3C52F8183C43F0080342F8183C7F
:10256000042200F027FC10480021032200F0C4FBE5
:1025700013E00E4B1A6831B142F008021A600020D5
:1025800000F032FB05E022F008021A60084600F075
:1025900037FB204610BD064B1960012010BD00BF5F
:1025A0002666002020940D40B525200010940D4093
:1025B0004842002008B50F4809F069FAC0B1082167
:1025C0000C4809F052FA0C4B196861B10B4B002210
:1025D0001A700B4B0B481B681BB90B4A01F0A2FE8B
:1025E00001E001F0E1FEBDE80840084802F03EBA13
:1025F00008BD00BF4042002048420020355700205F
:1026000020900D4020420020D9242000F4CE20004C
:10261000084A136823F00403136052F8203C43F087
:10262000040342F8203C044B00221A60034B0122B1
:102630001A70704720C40D4010C00D40365700205E
:102640000D4A0E49136823F0C003136052F8203C72
:1026500043F0C00342F8203C094B00221A600B688B
:1026600023F010030B6051F8203C43F0100341F8B5
:10267000203C044B1A60704720A40D4020C40D403C
:1026800000A30D4040C00D4000F0020202F0FF0127
:102690000B4B12B1FF221A6000E0196000F0040237
:1026A00002F0FF01074B12B1FF221A6000E019602F
:1026B00010F00100044B1ABFFF221A601860704727
:1026C00000A20D4000A10D4040C00D40044B186811
:1026D000C0F30720030904BF1030C0B2704700BF29
:1026E0001C300D40054B1868C0F3C21001289ABF7A
:1026F000C0F1020040034FF40040704714300D4019
:102700002DE9F04788B0FFF7E1FF174B48251C681B
:10271000AB68074698476B68804698470646FFF7C0
:10272000E1FF054600F0D0FA824600F0D9FA814672
:1027300000F086FAB60AC4F34003AD0A04F00104BF
:1027400002930690009601950394CDF810A0CDF861
:1027500014904146C7F3071207F00F03034801F036
:10276000B9F908B0BDE8F0871C300D4029D1200030
:10277000F8B500F083F80F4B0024D3E900673A4620
:10278000B04238BF7A1C15460443C3E90045DFF860
:1027900028E0DEE90001821B61EB070312196B419F
:1027A000CEE9002301F0A8FE18B1BDE8F84001F021
:1027B00033BEF8BD10420020184200200F4B104AD3
:1027C0001A6053F8042C42F0050243F8042C53F825
:1027D000042C42F0020243F8042C0A4A136843F026
:1027E00001031360084B00221A60042243F80C2CEA
:1027F000012243F8082C0F22DA62704714E000E04F
:1028000047E8010008200D400C000340034BD3E9CA
:102810000023100A40EA0360704700BF1042002006
:10282000034BD3E90023D00B40EA4340704700BF7D
:1028300018420020054B18601C3B1A6842F0010248
:102840001A601A68D207FCD4704700BF2800034002
:1028500010B5064C236823F001032360FFF788FFBF
:10286000236843F00103236010BD00BF10E000E0C7
:10287000014B1868704700BF4C420020074B084AC4
:10288000196804331B681268120442EA0323054ADC
:102890000B43106843EA0060704700BF40500D4092
:1028A00048500D404C500D4010B50446114B1B686C
:1028B000DB07FBD508F0FBFFFFF7E0FF231A062B31
:1028C000D8BFC41D0C4B220E1A60C4F3074243F854
:1028D000042CC4F3072243F8082CE2B243F80C2C72
:1028E00008F0E1FF054B91201C60BDE8104000F0AE
:1028F0007BB900BF50500D404C500D404C42002061
:1029000008B501F007F8064B002291201A6000F08C
:1029100083F9912000F074F9BDE8084001F04CBF44
:102920004C420020064B1B681B075FBF054B186815
:1029300080F00800C0F3C00048BF0020704700BF0F
:1029400018C0004018D00040164A38B52C2303FBAD
:1029500000234FF6BF72DC680546236C62649BB2AD
:1029600013F050020DD0A369DB0609D40E4B53F8C7
:1029700025301BB12068C0B29847F4E72368F2E71E
:1029800038BD13F4D06F0BD04FF440732363FF2393
:102990006360E36AE262E362236B43F00103236353
:1029A00038BD00BF04CF2000504200202DE9F04F79
:1029B000012885B0064600F2BF802C244443604BBA
:1029C0001D1995F920A005F12007BAF1000F9946CD
:1029D000C0F2B28095F92230002BC0F2AD80594888
:1029E00001F00AF8584A59F804301168EC680B43B2
:1029F000136051686B6895F921B00B43536091687F
:102A0000AB6895F822800B4393600023C4F8C83F5D
:102A10002B690BEBCA021A6095F823305FFA88FC29
:102A200001939DF80430604619462A7DCDF80CC00C
:102A3000029300F0C9F9029BDDF80CC0194660460C
:102A4000082200F0B7F94FFA88F840494FEA0838F1
:102A50009DF9042058F80100012303FA02F2024311
:102A600048F801204FEA0A3A5AF8010003FA0BF23B
:102A700002434AF801205022A263A26B95F8240079
:102A800042F4D062A263022262634FF44072226376
:102A9000AA696262EA69A2627022E26242B2002A14
:102AA0000C4614DB95F92510294D41EAC201296035
:102AB0007979120315594FB2BB402B4313510022B1
:102AC00000F078F9234A136843F4004313602C2381
:102AD00003FB069393F8265020336FB2002F1CDBC4
:102AE00093F807A0EDB25FFA8AF828464146012222
:102AF0003F0300F069F94FFA8AFA3A59012303FAC1
:102B00000AF313433B5108222846414600F052F98C
:102B1000104A136843F4804313602C2303FB06968A
:102B2000F26896F82800136B43F00103136305B0B5
:102B3000BDE8F04F00F058B805B0BDE8F08F00BF19
:102B400004CF20002529200028200D4020940D408E
:102B500004410D4030D0004001289CBF014B43F898
:102B60002010704750420020012808D8044B2C2226
:102B700002FB0030C3689A699206FCD41960704762
:102B800004CF2000014B00221A60704700500D4016
:102B9000014B08221A60704700500D40024BA022E2
:102BA0001A6050221A60704700500D40074A084BC7
:102BB0001A60084B80321A60074B80321A60074B4C
:102BC00080321A60064B074A1A60704700E100E045
:102BD00064420020584200205C42002060420020F5
:102BE00008ED00E000202000044B41091A6800F0C5
:102BF0001F000123834042F82130704764420020C7
:102C0000044B41091A6800F01F000123834042F879
:102C10002130704758420020044B41091A6800F0E7
:102C20001F000123834042F821307047604200209A
:102C3000024B1868C0F38150704700BF04200D405C
:102C400008B5FFF7F5FF024B53F8200008BD00BFA1
:102C50005CCF200038B5164D164C2B68032023F0AE
:102C600040032B602368062123F0400323600122E8
:102C700000F0A0F82B68012223F080032B6023686A
:102C8000032023F080032360072100F093F80A4A11
:102C90000A4B1A600A4B0B4A19680A40002AF9D1FC
:102CA0001A685101FCD41A685201FCD538BD00BF26
:102CB00020C40D4000C40D400101020000200D4061
:102CC00004200D4000000101034B04481B6803F081
:102CD00007031841704700BF04200D400048E80179
:102CE000034B04481B68C3F302231841704700BF1D
:102CF00004200D400048E801024B02EBC10243F8FA
:102D00002200704768420020F8B507460E46094D7C
:102D1000002405EB411547FA04F3DB07E1B204D5C3
:102D200055F824300BB1304698470134082CF2D1C5
:102D3000F8BD00BF684200202DE9F04780464FEA09
:102D40000837DFF8409007F1804505F5592500F078
:102D5000E1FDD5F8186457F809404FEAC80A24FA8B
:102D60000AF446EA0400E4B2C0B24146F6B204FAFC
:102D70000AF4FFF7C9FFC5F81C6447F80940BDE82D
:102D8000F08700BF18970D4002480021802208F00C
:102D900057BC00BF68420020034A044B1A60044B32
:102DA000803A1A60704700BF80400D40EC4200201E
:102DB000E8420020034B01EBC0011B6843F82120CF
:102DC000704700BFEC420020034B01EBC0011B68C1
:102DD00043F82120704700BFE84200200E2870B55C
:102DE0000BD1164B164E1C6844F002051D60356869
:102DF00025F03F0343F001033360124E336823F0A4
:102E0000FF031A431143014331600F4B1B681B063C
:102E1000FBD50E4B0E4A1B6812680E2803F0FC030C
:102E200043EA022308BF064A9BB204BF1560034A67
:102E30009BB208BF146018B270BD00BF34000144DB
:102E4000F486084008700D4000700D400C700D4075
:102E500010700D40024B1868B0FA80F040097047BE
:102E600000B7084010B58F20064CFFF7D5FE8F2025
:102E7000FFF7C6FE206818B101F080FC0023236034
:102E800010BD00BFF0420020064A136843F0020361
:102E90001360536843F002035360936843F00203E6
:102EA0009360704748200D4007B50C4800F0A4FD22
:102EB000FFF7EAFF0A4B1A6842F002021A6000228A
:102EC0000192019A0F2A02DC019A0132F8E71A688E
:102ED00022F002021A6003B05DF804FB552E2000B8
:102EE00054200D40064A136823F002031360536810
:102EF00023F002035360936823F00203936070474A
:102F000048200D40084B93F90020002A09DB074AAE
:102F1000ED2111601160E32111601A7862F07F02E7
:102F20001A700120704700BF3A57002038880840C7
:102F30000B4B1A689207FBD41B685B065FBF094BFB
:102F4000ED221A601A60084B1B6813B1054BEF2283
:102F50001A60064A0120137803F07F03137070474C
:102F60004C860840388808402C8608403A57002094
:102F700038B5A0F10B04E3B20F2B054613D80B4B69
:102F80001B6813F03F0302D0FFF7D2FF012304EBCD
:102F90008404074A0B3414600BB1FFF7B3FF054BF1
:102FA000E8B21D7000E0FF2040B238BD48860840FE
:102FB0003C8608400B42002010B50B4B1B6899065D
:102FC00003D1FFF79FFF012300E00023074A1268A7
:102FD000D207FBD5064A1468C4F300140BB1FFF7FF
:102FE000A7FF204610BD00BF488608406486084001
:102FF0004C860840044B186800F02200A0F1200322
:1030000058425841704700BF4C860840024B186830
:1030100000F04000704700BF4C86084038B50C46B1
:10302000002900F08880102800F28780DFE800F097
:10303000090F1A1C23394253586F738585787A7C9F
:103040007F003F4B1B68003318BF012370E03D4BEE
:1030500005221B6803F07F030B3B93FBF2F30B335A
:10306000DBB265E0384B00E0384B1A68043B1B6864
:1030700043EA02235CE000230B60354B354A1B68B2
:1030800003F001030B601268900644BF43F0020393
:103090000B60314B1B78002B4BD00B6843F00403C3
:1030A00046E02E4B00201B780860002B41D0012306
:1030B0000B6038BD2A4B1A680023D2B2294901EBB4
:1030C000C3000079904202D851F8333030E0013328
:1030D0000E2BF3D128E0244B1B685BB2493B27E061
:1030E000224B1B68990603D1FFF70CFF012300E078
:1030F00000231F4A1268D207FBD51E4A1568493DB6
:10310000EDB20BB1FFF714FF6DB2256011E01A4B61
:1031100093F900300CE0194B1B7803F07F0307E0B4
:103120000B2305E01A2303E06FF0170300E00723E9
:103130002360002038BD022038BD012038BD00BF0B
:103140002C8608403C860840CC850840D485084041
:103150000086084024860840395700200A42002093
:10316000408608406CCF20005886084048860840BA
:103170006486084060860840385700203757002092
:1031800038B505460C46134B1B689B07FBD4124B06
:1031900093F90030002B01DBFFF7B4FE0F4BEE225A
:1031A0001A60691E1A60A21C43F8102C21440220E8
:1031B00000F03EFB013C0A4924012143022000F0BB
:1031C00049FB022000F050FB022000F065FB0020CC
:1031D00038BD00BF4C8608403A5700203888084068
:1031E00002C001C0F8B5214B93F90030002B0DDB74
:1031F000FFF744FB0446FFF785FEFFF73FFB6FF048
:1032000009031B1BC342F8D4012600E00026184B1B
:103210001B7823B9174D2B68990604D405E0FFF7F6
:10322000CBFE0028F6D10220F8BD134CE923236021
:1032300004272B689A0707D4013F17F0FF0703D034
:103240000620FFF7F7FAF4E72B689B0704D4EE2378
:1032500023602360012403E02C6814F00204FBD1F6
:103260000EB1FFF765FE2046F8BD00BF3A570020BB
:103270000A4200204C86084038880840044B1A68EF
:1032800010B142F0010201E022F001021A60704721
:10329000008608400B280DD1082A0DD161B1074BDB
:1032A000083111F8012D43F8042F054A9342F8D153
:1032B000002070470120704702207047A485084015
:1032C000C485084070B5304E336813F0400308D011
:1032D0002E4D2B68DCB21B0605D52D4BED221A6056
:1032E0001A60002070BD042CF7D9023C8C42F4DC3B
:1032F000E4B2032C21D001190139032000F0A0FA17
:10330000631E24491B010320194300F0A3FA032084
:1033100000F0AAFA032000F0BFFA032000F0C8FA78
:103320000028FAD129681C4B4939C9B219702B6899
:103330001A4D18062B70D0D506E02B6803702B6849
:1033400043702B688370EDE749B289B2042006F020
:10335000B7FB2978032001F07F0106F0B1FB104B89
:103360001B7873B933685A060BD5074B1B681B06CD
:1033700003D50C4801F002FA03E0054BED221A6078
:103380001A60204670BD00BF4C860840288808405F
:103390003888084002C0010C3857002037570020F9
:1033A00039570020504000201E4B1870002831D0A3
:1033B0001D4B1B681B03FBD51C4B1A6842F0020215
:1033C0001A601A6842F001021A601A681749500719
:1033D000FBD50A6822F001020A601968134A4907FE
:1033E000FBD4116841F002011160116841F0010144
:1033F00011601A685207FCD50D4A8D20136823F01E
:1034000004031360D2F8A83123F00403C2F8A831F2
:10341000FFF7F6BB064A8D20136843F004031360E0
:10342000FFF7E2BB3957002004200D400488084014
:103430008C86084010B50C4607285CD8DFE800F001
:10344000040F1B1F263C4256012903D1FFF75AFDEA
:10345000002010BD002950D1FFF76AFDF8E7A1F167
:103460000B030F2B49D8C8B2FFF782FD431C0CBFDA
:103470000320002010BD8CB2E2B2214B02E08CB2DE
:10348000204BE2B2240A1A605C60E1E731F00703E6
:1034900033D101F00100FFF7F1FE1B4B14F0020FD6
:1034A0001A68C4F3800014BF42F0200222F0200208
:1034B0001A60FFF779FFCBE731F001001DD1134B04
:1034C000197010BD01F118031F2B16D80D231049D8
:1034D000DA0051F83300844204DC8B181A790D4B62
:1034E0001A60B5E713F1FF33F1D2B1E7CCB20A4B62
:1034F00049341C60ACE7012010BD022010BD00BFA4
:10350000C8850840D0850840248608400A4200202B
:103510006CCF20004086084058860840F8B5294FF7
:103520003D7815F001054AD1274B01241C605C60F1
:103530009C60A3F59323A3F51473F8221A60092263
:10354000C3F89021152270331A6003F59B230B22D8
:1035500003F59E731A60A3F59B23A3F5F073402235
:103560001A601A687F2642F020021A60D52243F8BA
:103570001C5CDE62DA61154B1878FFF7F9FC144B1E
:103580008E201E60FFF730FB022000F079F9114910
:10359000022000F055F9032000F072F90D490320D4
:1035A00000F046F90C4B1878FFF7FEFE0B48294651
:1035B00001F0CCF83B78204623433B70F8BD002057
:1035C000F8BD00BF3A570020A8200D400B42002054
:1035D0009486084028880840395700205040002031
:1035E00038B503880446CBB140F20342934203D07E
:1035F00000230380032038BD194B18781A4628B1E0
:103600001B7873B1174B1B7858060AD5822908D14D
:10361000137843B1134B1A78520614D440F2034383
:103620002380012038BD06F0F1F906F085F98021EC
:10363000FFF748FE0028EDDD80B206F061F90A4B85
:103640001B699847E6E700221A70084B1D68FFF7D0
:103650006FFCFFF763FFAB06E0D0FFF753FCDDE73D
:10366000395700203A57002068D02000488608408B
:103670000B282DE9F84F8A4611D1082A40F08280A4
:1036800000297FD0414B01F1FF3A53F8042D0AF88D
:10369000012F3F4A9342F8D10020BDE8F88F0C2853
:1036A0006DD1042A6ED100296CD03A493A480B6892
:1036B000DFF8EC9023F007030B600368DFF8E4B059
:1036C00043F008030360DBF80040D9F800200B68E2
:1036D000DFF8D4C0DFF8D48023F070030B60D8F893
:1036E0000050DCF80030E4B2120244EA036392B204
:1036F000DFF8BCE01A43EBB242EA03430024DEF8F1
:10370000002044EA03060B68D5B223F0070343F018
:1037100001030B6003682F4643F008030360DBF8E6
:103720000000D9F800200B68120223F0700343F068
:1037300010030B60D8F80050DCF80030C1B241EA49
:10374000036392B21A43EBB242EA0343DEF800206D
:1037500044EA03085FFA82F9FFF790F8B6EB08062F
:1037600067EB0907F903054641EA5641F0030B4AA6
:10377000002307F081FB281ACAF800008CE701201B
:10378000BDE8F88F0220BDE8F88F00BFC88508406B
:10379000A885084010880840048808400048E801CF
:1037A0001888084014880840208808402488084069
:1037B0001C88084008B5054B1B7813B9044800F075
:1037C000DDFF044B00221A6008BD00BF39570020FE
:1037D0005040002034880840064B07481A68042AE5
:1037E0001FBF06490A7842F040020A7000221A60A0
:1037F00000F0C4BF2C880840504000203A570020F9
:1038000010B5094C00212046402207F019FF074B54
:1038100001221A602E205C60FFF7E6F9BDE8104037
:103820002F20FFF7E1B900BF0040002004F00F4057
:1038300003289EBF014B0001195070470040002033
:1038400003289EBF024B03EB00104160704700BF8E
:103850000040002003289EBF024B03EB0010816054
:10386000704700BF0040002003289FBF0349012389
:103870000A6883409CBF13430B60704728F00F40D9
:1038800003289FBF034901230A6883409CBF134359
:103890000B60704720F00F4003289FBF03490123AE
:1038A0000A6883409CBF13430B60704714F00F40BD
:1038B00003289FBF044B03EB0010806800F0070053
:1038C00088BF0020704700BF00400020024B4FF02F
:1038D000FF321A60704700BF04F50F40014B012210
:1038E0001A6070474CF00F40094B1A6812F4801FA1
:1038F0001A46F9D1043B196821F480311960116826
:10390000C903FCD41A6842F400321A60704700BF41
:1039100004200D4010B50A4B1A681C4612F0030F24
:103920000CD0084B1A685101FBD41A685201FCD51F
:10393000FEF78EFFFFF7D8FF0023236010BD00BF06
:1039400058200D4004200D4038B5254B1C6814F05C
:103950003F0413D1234B53F8243023B1984768B167
:103960000134052CF6D1204D2B783BB1FEF780FFBA
:103970000446FEF783FF201A092801D830BF38BD5E
:10398000002CFBD0194B1A6822F400321A60184A36
:103990001168C902FBD4196841F4803119601368B9
:1039A000DB03FCD5FEF76AFF201A092803D8BDE81F
:1039B0003840FFF799BF63280E4C02D92B78022BB1
:1039C00000D00123236000F08FFE20B1FFF78CFFB1
:1039D0000023236038BDFEF74BFF0028CED1F5E76A
:1039E00048860840F44200203B57002000200D404C
:1039F00004200D4058200D400023064A52F82310A1
:103A0000814206D011B942F8230070470133052BDB
:103A1000F3D17047F4420020054B00221A60054A9A
:103A2000136843F004031360034B02221A707047BB
:103A300058200D4010ED00E03B57002010B59020BD
:103A4000064CFFF7E9F89020FFF7DAF8206818B184
:103A500000F094FE0023236010BD00BF0843002047
:103A600030B5184B1A78431E3AB9174A1278122A01
:103A700003D1164A12784B2A03D001F520112731C1
:103A800017E04A0802F12814B4F1281F04D014F8F2
:103A9000015D03F8015FF7E701F5201127310023ED
:103AA000934205DA11F801598418E5540133F7E718
:103AB00030BD074A914204D011F8012903F8012FC3
:103AC000F7E730BD2B0028002A0028002900280035
:103AD000270028000FB407B504AA52F8041B0448B5
:103AE000019200F035F803B05DF804EB04B07047C4
:103AF000604000201FB5084C8DE80300114602A865
:103B00001A460294CDF80CD000F022F8009B002257
:103B10001A7004B010BD00BFAFB9200070B50546E3
:103B20000C46102C07D92B68686808491022984762
:103B300050B9103CF5E734B12B6868682246BDE8FF
:103B4000704002491847204670BD00BF59D220007E
:103B50002DE9F04F80468FB0069107920026069B14
:103B60001B78002B00F05F83069B1C4613F8012B8B
:103B70001AB9069B9C4203D10FE0252AF5D1F8E73C
:103B8000069BD8F80400E51A0699D8F800302A46B2
:103B90009847002840F02A832E442378002B00F019
:103BA00042836378611C002B00F03D8300240A46A9
:103BB00011F8013B2B2B11D006D8202B11D0232B31
:103BC00012D144F00804F2E72D2B04D0302B0BD196
:103BD00044F01004EBE744F00104E8E744F0060485
:103BE000E5E744F00204E2E7A3F1310108290DD82A
:103BF000134600251A4613F8011BA1F130000928CD
:103C000011D80A2202FB0515303DF3E72A2B09D112
:103C1000079B01321D68191D002D0791B8BF44F0A4
:103C2000010400E0002513782E2B1CD15178531C81
:103C3000A1F1300009280ED8194600270A780B4652
:103C4000A2F13000092801F101010FD80A2303FB7A
:103C50000727303FF2E72A2906D1931C079A111D46
:103C60000791176802E013464FF0FF371A786C2A65
:103C700009D15A786C2A02D144F080040AE0013359
:103C800044F060040BE0682A09D15A78682A03D10D
:103C900044F02004023302E0013344F040041A7877
:103CA000642A3CD01FD8462A48D00DD8252A5AD09D
:103CB00003D8002A00F0B78257E0412A4AD0452AAB
:103CC00053D144F4424450E0582A31D004D8472A12
:103CD0004BD144F4A13448E0612A38D0632A44D15E
:103CE00044F4A06441E06E2A3AD007D8662A22D074
:103CF00027D3672A28D0692A11D036E0732A2CD01E
:103D000006D86F2A11D0702A2FD144F440742CE0C9
:103D1000752A07D0782A28D144F4C85425E044F401
:103D2000245422E044F410641FE044F488541CE05E
:103D300044F4B24419E044F4007416E044F48444BA
:103D400013E044F4024410E044F481340DE044F400
:103D5000C1340AE044F4E13407E044F4806404E050
:103D600044F4E06401E044F4C0640133069304F4D5
:103D7000E063B3F5806F00F0AA8116D8B3F5807FB9
:103D80002BD0B3F5407F7FF4EAAE079BA04914F433
:103D9000804F03F104029F4818BF08460DF133011C
:103DA00007920F461A680023C5E1B3F5C06F08D02B
:103DB000B3F5E06F00F03182B3F5A06F7FF4CFAEC2
:103DC00000E2D8F80030D8F804009349012298475F
:103DD000002840F00B820136C1E6002FACBF24F072
:103DE0001004012714F40053039304F0E00337D0C8
:103DF000402B17D008D8DBB1202B2AD1079B1A1DE6
:103E0000079293F9002017E0602B11D0802B20D16E
:103E1000079B073323F0070303F108020792D3E956
:103E200000230AE0079B1A1D0792B3F9002003E064
:103E3000079B1A1D07921A68D317002A73F1000115
:103E400009DA524263EB4303CDE900234FF0010945
:103E500033E000220023CDE900234FF000092CE0DD
:103E6000402B16D007D8CBB1202B20D1079B1A1D91
:103E700007921A78EEE7602B10D0802B17D1079BA2
:103E8000073323F0070303F108020792D3E9002365
:103E9000E1E7079B1A1D07921A88DBE7079B0021C1
:103EA0001A1D07921B681846CDE90001D5E70022CC
:103EB0000023CDE900234FF0000904F4C053B3F50B
:103EC000805F0CD0B3F5C05F33D0B3F5006F4FD136
:103ED000DDE900230DF1360ACDE9042304E0DDE934
:103EE00000230DF1360A15E0DDE9042313433AD02F
:103EF000DDE904010A22002306F0BEFFDDE904012A
:103F000030320AF8012D00230A2206F0B5FFCDE970
:103F10000401E9E752EA030125D002F0070130313C
:103F20000AF8011DD10841EA4371D8080A46034640
:103F3000F0E7384B14F4804F0DF1360A344908BFCE
:103F40001946DDE9002352EA03000CD002F00F000D
:103F5000085C4FEA131E0AF8010D100940EA0370CD
:103F600002467346EFE70DF1360BCAEB0B0B03E08D
:103F70000DF1360A4FF0000B41F6080241F208033A
:103F80005F4502EA04028CBFCBEB070700279A4289
:103F900002D1002F08BF012741F608018A4207EB32
:103FA0000B030DD1DDE9000150EA010208D01B49E5
:103FB00014F4804F1A4A4FF0020C18BF0A4602E070
:103FC0004FF0000C62460399A1B1B9F1000F0AD17C
:103FD00004F0060102290AD00629124904BF4FF055
:103FE000010C0A4606E04FF0010C0F4A02E00F4AAE
:103FF0004FF0010C63449D428CBFED1A002514F074
:10400000010922D1E30613D52F444D461DE000BF20
:1040100024D2200035D2200057D2200049D22000DF
:1040200046D220004ED220004CD2200019D12000D0
:1040300040462946CDF80CC00092FFF76FFD009A6C
:10404000DDF80CC0002840F0D180BCF1000F0DD08D
:104050001146D8F800306246D8F80400CDF800C008
:104060009847DDF800C0002840F0C0803C465E4420
:10407000102CD8F800300DD9D8F804006C49102263
:10408000CDF800C09847002840F0B080103CDDF823
:1040900000C0EDE75CB1D8F8040065492246CDF8D0
:1040A00000C09847DDF800C0002840F09F80D8F895
:1040B0000030D8F8040051465A4666449847002814
:1040C00040F094803E44B9F1000F79D073E0079B33
:1040D000D3F800A01A1D0792BAF1000F09D0534679
:1040E000994699F800200133002AF9D1CAEB090951
:1040F00003E0DFF840A14FF00609002F02DBB945CD
:1041000028BFB9464D458CBFC9EB0505002514F005
:10411000010405D140462946FFF700FD002865D17E
:10412000D8F80030D8F8040051464A46984700288D
:104130005CD14E443EE052EA030E0ED002F00F0E68
:1041400010F80EE04FEA131C01F801ED4FEA121EC1
:104150004EEA037E72466346EDE70B467F1A01BFC7
:104160003022012701F1FF3301F8012C03377822B7
:10417000BD4203F8012C4FF0300203F8022C88BF37
:10418000ED1B4FF0230298BF002514F00104A3F1AA
:10419000030903F8032C04D140462946FFF7BEFC6F
:1041A00020BBD8F80030D8F8040049463A46984772
:1041B000E0B93E4424B140462946FFF7AFFCA8B918
:1041C0002E44CCE4079B012D03F104021B688CBF35
:1041D00005F1FF35002514F0010407928DF8203019
:1041E00008D140462946FFF799FC10B14FF0FF3047
:1041F0001AE02E44D8F80030D8F8040008A90122AB
:1042000098470028F2D16F1C2CB140462946FFF791
:1042100085FC0028EAD13E44A1E4079B1A1D1B68D7
:1042200007921E609BE430460FB0BDE8F08F00BFE0
:1042300014D2200050D22000F8B503880646154657
:104240002BB14A2B15D0002303800320F8BD17485B
:1042500007F02EFC04462CB1201DA16807F0D3FB0B
:104260002468F8E7124B01221A704A233380012098
:10427000F8BD8829FBD10D4807F01AFC0446002C34
:10428000F3D0231D9D420ED10848214607F01AFCA9
:10429000084B62691F681A60A2691D460AB1E0698D
:1042A00090472F60E1E72468E9E700BF0C43002056
:1042B0003C5700201843002010B5064B0024064848
:1042C0001C7007F0F2FB2146BDE81040034800F0E7
:1042D0003DBA00BF3C5700200C430020684000203E
:1042E00070B50446E3610B4B049D1B786561A261C8
:1042F00043B1094D094B2E68201D2B6007F083FB4D
:104300002E6000E0A1602146BDE87040044807F03F
:10431000EDBB00BF3C570020184300206840002040
:104320000C43002013B5034C24680094FFF7D8FF1A
:1043300002B010BD1843002070B5094B05461B782C
:104340003BB1084C084B26680430236007F064FB3F
:1043500026602946BDE87040044807F0C7BB00BF8F
:104360003C57002018430020684000200C430020E8
:1043700070B5094B05461B783BB1084C084B2668C5
:104380000430236007F051FB26602946BDE87040E9
:10439000044807F0ABBB00BF3C5700201843002087
:1043A000684000200C43002010B5084B04461B78E1
:1043B0001BB1043000F0A8F801E0C360036121469E
:1043C000BDE81040024807F07DBB00BF3C5700200D
:1043D0000C43002010B50E4C236813B90D4A13602E
:1043E00010BDFEF713FA216891E80C001A44131A65
:1043F0008A6842B192E812002144091A8B4228BF10
:104400000B469268F5E71844024B186010BD00BFD8
:104410001043002014430020014800F0AFB900BF52
:1044200078400020F8B5038805462BB1592B09D0F8
:10443000002303800320F8BD1E4A136059232B80FC
:104440000120F8BD872920D08229F7D1194F0026F5
:104450003C68002CF2D0204607F019FB90B1E068D0
:104460008821224600F04AF950B9E060A3680EB1F5
:10447000B36000E03B600023A360FFF7ABFFE5E71C
:10448000FFF7CAFF2646A468E3E70A490B680BB9A1
:104490000B60D3E7D868904201D19B68F7E70B60C7
:1044A00099680029CAD0C86890420ABF89680B463B
:1044B0009960F5E71043002010B50446FFF7ACFF04
:1044C000E3680B4A4BB113683BB1A34203D1094ADD
:1044D0001268DA6007E09B68F6E7064B1B68E3604A
:1044E00013681460A360BDE81040FFF773BF00BFFE
:1044F0001043002018430020024B1868003018BFFA
:10450000012070471043002010B50B4A0446136881
:10451000984206D18368136008E09A68A24203D0EB
:104520001346002BF9D103E0A2689A60FFF752FF0F
:104530000023A360E36010BD1043002038B58368FA
:1045400004460D469BB10A4804600220A07304F1A2
:104550000C0098470238012801D9832D05D1204647
:104560002146BDE8384000F005B80123A37338BDEB
:10457000184300202DE9F8431C4A04461568894673
:104580002B4690461A4E3768A34204D00BB11B68E5
:10459000FAE7BDE8F88334B3A37BABB10023A37380
:1045A00045B1AC4204D028468721224607F04EFA96
:1045B0002D68F5E7A3683BB14C4505D0346004F1A4
:1045C0000C0083212A469847D8F800309C4203D13A
:1045D0002268064B05E0134623B11A68A242FAD1BD
:1045E00022681A603760BDE8F88300BF1C430020D2
:1045F0001843002010B5094B00221A70084B1C68A4
:104600005CB1E37B3BB101230022A373E27320463C
:104610008221FFF793FF2468F2E710BD3F57002087
:104620001C430020024B1878421C1A70704700BFD0
:1046300040570020064B8A221A70064A0023137046
:10464000054A1370054A1360054A1360704700BF9E
:10465000405700203D5700203E5700201C430020BB
:10466000184300202DE9F0411A4D2B780BB1FFF7CC
:10467000C1FF194C22783AB3184E0C213378184FE9
:104680005943781817F8018001334768806803F0B0
:104690001F03013A3370227068B9124B1E689EB135
:1046A0002B780BB1FFF7A6FF304641463A4607F09C
:1046B000CDF93668F3E7B8F1810F04BF01238373A6
:1046C00041463A4607F0C2F92B7820781844BDE8F5
:1046D000F08100BF3F5700203E5700203D5700208B
:1046E000204300201C430020024A034B10781B7813
:1046F000184470473E5700203F570020F0B50B4E3E
:104700003378202B0FD00A4C0C252478094F1C44F9
:1047100004F01F046C4301333D19A86039556A60E9
:1047200033700020F0BD0120F0BD00BF3E570020D7
:104730003D5700202043002038B5034C256807F082
:1047400085F9256038BD00BF1843002010B50A4622
:1047500009490C68234683420DD00BB11B68FAE768
:1047600048B1046008600121817383818121BDE823
:104770001040FFF7E1BF10BD1C43002038B1837B20
:10478000013B012B9FBF024A0123C3731370704783
:104790003F570020024610B5064853600468029B4C
:1047A00011609360026014B90846FEF77DF800209E
:1047B00010BD00BFA044002010B5084C206858B1BF
:1047C00000232360816843689847236823B1BDE8CC
:1047D00010401868FEF768B810BD00BFA044002064
:1047E00010B50446FEF71CF894E80C001344C01AF8
:1047F000024B98428CBF0020012010BDFEFFFF7FBE
:1048000038B505880446672D09D0792D2ED0002DA6
:1048100032D1FFF707FF1B4B18701B4B1D601B4865
:1048200007F0F7F9431C01D167231DE00A28164B56
:1048300007D01A687E2AF2DC511C1960144B985478
:10484000EDE7196800254A1C1A60114A0D4B5554B2
:1048500028461978FFF752FF0E4B852118682A4623
:10486000FFF74CFF20B97923238009E0852907D180
:10487000054B00221A60D2E700230380032038BDD5
:10488000012038BD2B660020AC440020A444002049
:10489000C2570020184300200D2810B5014615D03E
:1048A0000B4C23782BB90B4807F09FF948B901232B
:1048B00006E00A2805D1074807F097F908B1002358
:1048C00023700548FFF75AFF012010BD002010BDDE
:1048D00041570020A44400208840002008B5054826
:1048E0000549802207F07AF9BDE808400348002115
:1048F000FFF72CBFA444002042570020884000202E
:10490000054A136843F004031360044B1B68906965
:1049100043EA002080B2704700700D4014700D40D3
:10492000174A136823F00C031360164B01221A6018
:104930001A68012AFCD1144B08221A60E322C3F83A
:10494000142203F505731946104B1B68DB07FBD5D2
:10495000102000230E4A0138126802F0010243EAD7
:1049600002034FEA43039BB2F4D1002BF0D0094A73
:10497000180A03F0FE0310601360EF230B6070470A
:1049800000700D40A8200D40248608406486084031
:104990009C86084014700D4070B505880446772D3C
:1049A00030D07E2D3FD0002D4DD1FFF73BFE294B5F
:1049B0001870294B1D601D462B68284A264E52F858
:1049C00023204AB126480021C1549368802098478B
:1049D000336801333360EFE7224A1370772320E016
:1049E0001F4AD256002A12DB1B4A13680133136098
:1049F000194B1C4A1B6812789342F1DB1A4B1B6857
:104A0000002BEBD0184A00231360134AEFE7114A3A
:104A100000201178114A52F82320FFF76FFE30B9B9
:104A20007E23238013E00B4B1B788B420FD10A4B64
:104A30000B491A688B5C03F07F038B540A4A136896
:104A400001331360D0E700230380032070BD0120F1
:104A500070BD00BF2C660020B04400204040002004
:104A60002766002042580020B4440020094B1A78E1
:104A70000023934204DA084951F82310814207D1F8
:104A800006490748CA5C62F07F02CA54FFF776BE47
:104A90000133EEE742580020404000202766002006
:104AA000984000200C4AB82303FB0022002330B5B5
:104AB00053821A46094CE1188D782DB11C5D844251
:104AC00002BF00248C70013240F24C5171338B4292
:104AD000F0D1104630BD00BFD44400204E58002015
:104AE00008B5064802F046FF054B01221A70FD2169
:104AF00000225A709970DA7008BD00BF494D20003D
:104B00004458002010B513780446087A83F0020355
:104B100098421DD1487A5378984219D1887A93786F
:104B2000984215D1C87AD378984211D1087B13796D
:104B300098420DD1487B5379984209D1887B93796B
:104B4000984205D1C87BD379984201D103201BE05C
:104B50000B890F4A6BB94B89B3F57F4F09D18B890C
:104B6000FE2B06D11368C989022023F8021B1360AB
:104B70000AE0136851F8080F083343F8080C486836
:104B800043F8040C13600120A040C0B210BD00BF68
:104B9000C044002010B50F4C0220A17904F090FF12
:104BA000A379112B01D0062B05D1238D618D99425C
:104BB000A8BF194608E03A2B05BF94F8281094F8CE
:104BC0002930002143EA01210120BDE8104004F012
:104BD00077BF00BF305F002010B5084C0146237836
:104BE000012B08D1A01C082206F01EFC00280CBFD7
:104BF0002046002010BD002010BD00BF44580020FA
:104C000008B50146102004F069FF044B04489B6876
:104C100000219847BDE80840FDF7C0BF88D02000BC
:104C2000254C200010B508460C46114602F0D4F978
:104C3000044B1B6813B19B6820469847024B1C60CD
:104C400010BD00BFD0440020CC440020F8B505467C
:104C50000023114A712404FB0324A278B2B96170C5
:104C600004F058FE26460D4F0D4A3B7806F8035BCC
:104C7000C01A1568A0701D4404F04CFE3A7829460D
:104C8000821A304606F002FCA078F8BD01330C2BE6
:104C9000DFD14FF0FF30F8BD4E5800209A5D002064
:104CA000C44400202DE9F8434FEA1219B9F10F0F5F
:104CB00080461D4602F00F040BD00F2C05D1B9F130
:104CC000000F0AD11024274619E0B9F1000F09D0CE
:104CD00004E00F2C4FF0100900D1102440464A4642
:104CE00006F0D4FB09EB04020F2A274606DC08EB8A
:104CF00009000021C2F1100206F0A2FCBCB1114D66
:104D0000C7F110002E6840443146224606F0BEFB33
:104D1000022C08D1B9F10A0F9FBFFF2388F80B308E
:104D2000FE2388F80C3034442C60BDE8F883B9F1D8
:104D3000000F05D040462946BDE8F84306F0D0BF35
:104D4000BDE8F883C04400202DE9F04F8E4E8F4D12
:104D5000002387B033702B70044604F057FE04F034
:104D6000EBFD8B4A8B4B126818608DE8600099460A
:104D70000AB1FFF70FFF04A80CB9874900E02146EC
:104D800007F028FE854B864E1A8803933E2A40F290
:104D90000182D9F800B0834D0BF102032B60009B18
:104DA00006F1180093F80080002308F102080BF8C0
:104DB0000830FFF711FF20B906F10800FFF70CFFDC
:104DC00020B10BF103032B60802400E004467278CD
:104DD0003178130943EA0113DBB2980840EA8313E0
:104DE000DBB212F00F0FDEB26E4F01F00F010CD1EB
:104DF0006B48408848B911B912F0F00F1FD03B68DA
:104E000003F8016B3B6070261AE079B912F0F00FDD
:104E10000CD1296823F03F031A43634B0A701B88A7
:104E2000033121F8023C6826296009E05C4A2B68BE
:104E30001068186003F8046B2B60602600E0782689
:104E4000574B9A790293112A08BF46F0040673075C
:104E50005EBF3B6803F8012B3B60029BDB79402B74
:104E600006D0FF2B07D0012B08D146F0010609E040
:104E700046F0020606E046F0030603E03A6802F850
:104E8000013B3A60029A464B128982B95A8972B93B
:104E90009A8962B9DA8952B91A8A42B95A8A32B9F8
:104EA0009A8A22B9DB8A13B944F0400013E03F48E4
:104EB000FFF792FE3E4B186078B142781BF808303D
:104EC000042043EA02130BF808303849394AFFF747
:104ED00019FE60F03F00C4B227E0029B30491A89F6
:104EE00048F2FE039A420CD14B8B53B98B8B43B9DA
:104EF000CB8B33B9042008312E4AFFF703FE204341
:104F0000E9E73A68DFF8A4C096460CF1100A634658
:104F100003CB5345CEF80000CEF804109C460EF1AA
:104F2000080EF4D11F4B10321A60DFF874A09AF803
:104F30001830FF2B40F08A809AF8192044F0080EB0
:104F4000022A5FFA8EFE37D1BAF81A30A3BBBAF83C
:104F50001C308BBBBAF81E3073BBBAF820305BBB79
:104F6000BAF8223043BBBAF824302BBB9AF826306B
:104F700013BB3B689AF8272044F00B0003F8012B81
:104F8000C4B23B609FE000BF435800209A5D002000
:104F9000D0440020C4440020EED220001C5F00203A
:104FA000305F0020C0440020325F0020385F0020C6
:104FB000B8440020285F00209B4B588B194688BBC3
:104FC000988B78BBD88BA8B9188C98B9588C88B9AD
:104FD00093F8240070B9296844F00A00C4B2084666
:104FE00000F8012B33F8252F043121F8032C9B788E
:104FF000837015E0C98B8C4BA1B9198C91B993F8CA
:10500000221079B9296844F00900C4B2084600F8B2
:10501000012B53F8232F063141F8052C1B7903711E
:10502000296050E0814ADFF818C214680CF11008BA
:105030002746634603CB4345386079609C4607F1B9
:105040000807F6D11034146074463CE00AF11800E9
:10505000FFF7C2FD764B186050B143781BF808107B
:1050600044F004040B43E4B20BF8083000200EE0D7
:1050700048F2FE03BAF818209A4210D1BAF81A3052
:105080006BB9BAF81C3053B9BAF81E303BB90AF103
:10509000180104AAFFF736FD2043C4B213E0634AA7
:1050A000DFF89CC117680CF11008BE46634603CBBD
:1050B0004345CEF80000CEF804109C460EF1080ED1
:1050C000F4D110371760019A5749282313708B7950
:1050D000112B53D14FF2B0030A8D52BA92B222F083
:1050E0000F0080B2984217D14B8D5BBA23F00F03AB
:1050F0001B041B0C83420FD12868F32303704B8DD4
:1051000002301A0A0B8D1B0A02EB031303F5AA6384
:1051100000F8013C286028E0029B43495B8D5BBAA4
:1051200003F47F43B3F5704F09D12B68F1221A7055
:105130000A8DA3F801204A8D120ADA700CE002F4FD
:105140007F42B2F5704F2B6808D1F2221A700A8D97
:10515000120A5A704A8D5A80043305E0F0221A7000
:10516000886A053343F8040C2B60324B1A882B688D
:1051700023F8022B019A2B6030231370009BD9F87F
:1051800000201B78D65413445C70284B1B689B1A74
:10519000009A1AE0D9F8002041231370009B06F111
:1051A00028051C78631CDBB21344324603CAAA42AA
:1051B00018605960164603F10803F6D1009B2934A4
:1051C0001C70019B019A1B782833102013700DEB83
:1051D000000104F083FC184BDFF868801B689847D7
:1051E00030EA200028BF1520039BC0F17D051C88F4
:1051F000019BDFF854A01E78009BA21B93F800B01F
:105200000E4FCBEB05039A4240F3CD80C0F17803FB
:10521000019304F08DFC019B94FBF3F40134A04254
:1052200014DC0020D1E000BF305F0020C04400202B
:10523000B84400205E5F00205CD020009A5D002012
:10524000485F00201C5F002043580020D9F800B0C0
:105250005F4B3C7800221A60594622460BF104004D
:10526000039306F089F9B8F800205A496FEA8242A0
:105270006FEA9242C2F307228BF80020B8F80020B0
:1052800004348BF801200A88E4B2501C0880110A0B
:10529000DFF850C18BF802102D1B9AF8001025F092
:1052A00007054D4E61448BF803200BEB04002A46A2
:1052B000CDF808C03C70356006F0E8F8281980B2D7
:1052C00004F01EFB04F03AFC039B04461D46002834
:1052D000A7D00DF1100B5846FFF792FC204604F0C2
:1052E00065FC204604F04CFC2B68012B99D0043B54
:1052F000012B96D99AF800A0336853441FFA83FA19
:1053000005233B70354B1A68B8F800306FEAC34389
:105310006FEAD343C3F307231370B8F80030537018
:10532000019B23F0070737602D4B1B889A454BD212
:10533000D9F800204FEADA0111713268CAEB030391
:105340009342B8BF244AD9F80000B8BF1360009B4D
:10535000376893F80080029B3A4603EB0A01404409
:1053600006F094F808EB070080B204F0C9FA04F0E4
:10537000E5FB074600283FF454AF5846FFF740FCD2
:10538000384604F013FC384604F0FAFB124B1B6855
:105390009A442B681FFA8AFA012B3FF442AF043B70
:1053A000012BC1D83DE7D9F800000E4958443144DB
:1053B00006F06CF8B8F800005844801B80B204F086
:1053C0009FFA04A8FFF71CFC012007B0BDE8F08F8E
:1053D000CC44002074520020C8440020C444002063
:1053E0001C5F0020305F00202DE9F047074688460B
:1053F0001646002A47D0434C0025A146238ABB42CB
:1054000015D1638A9BB10F2004F074FB014620463E
:1054100007F0E5FA58B1ECB220463146FFF716FC2A
:10542000002827DA0027DFF8E0A0B8460DE0B834FE
:10543000002D5DD10125E1E7A8450BD10AF1B80A9D
:10544000B8F1000F10D14FF001083AF8063C002BDC
:10545000F4D0F1E7504606F01AFB0028EED04046A3
:10546000FFF720FB0744E9E7002F41DD20463146E6
:10547000FFF7ECFB00283BDDB82303FB0595AB8A67
:105480001844A8823AE0204DFF2435F8063C4FFA34
:1054900084F97BB3284606F0FAFA10B13046FFF7DC
:1054A00001FBB9F1FF3F03D135F8063C03B9F4B273
:1054B000012E05F1B80501D00126E6E765B26B1CA7
:1054C00016D0B8235D43DFF83C900F2009EB0506AA
:1054D000A6F81280378204F00DFB0146304607F033
:1054E00079FA05F118004844402106F0BEFA05E0BB
:1054F000FF2403E0B9F1FF3FDAD1D8E760B2BDE89D
:10550000F08700BFD4440020EC4400202DE9F04F88
:105510000F2087B0A54CDFF8CCA204F0EBFA0026F0
:1055200004F020F88AF80060267004F005FAA04D17
:10553000A0462860042004F0CBFA9E4B2A6800B2F3
:1055400018605778137847EA032703F0F803C02B55
:1055500002D0E02B19D03AE090782378D278C7F3C4
:105560000A07043342EA0020394632462370FFF727
:105570003BFFB0F1FF3F814600F07E828E4CB823A6
:1055800003FB00440126223424E01379D17890787B
:105590002278C7F30A070532227041EA00201A4632
:1055A00039460093FFF720FFB0F1FF3F814600F03E
:1055B00063828149B82202FB0012958A4FF0010BE9
:1055C000BD4234BF002501253446009BDFE1B146D2
:1055D0004F467A4C296898F800504A5D02F0E00383
:1055E000602B40F0B681A81C084429444D78744BC8
:1055F0005FFA85FC1CF0800F18601CBF013018603A
:1056000012F0100F02F0080130D1D1B9196831F849
:10561000010FA4F801008978E170196811F8040BF2
:105620001960830803F00F0141F060012170617877
:1056300003F0300343EA801301F00F010B43637062
:1056400030E018686021864621701EF8011B033087
:105650004FEA910B0BF0300B01F00F014BEA010107
:105660006170BEF80010186061801BE001F0FF0E51
:1056700099B919680878C0F3830040F06000207081
:1056800011F801BBA4F802E04FEA9B0000F03000E3
:1056900040EA8B106070196004E0602323700023DF
:1056A0006370638002F0040303F0FF0100912BB9E3
:1056B00043490B6813F8010BA0710B6012F0030251
:1056C0000BBF3F4A3F4B13689B5C09BF13F8011B9C
:1056D000E3711360E1716B06C5F3011233D51CF061
:1056E000800F1DBF324998F80030096800211EBFA5
:1056F0005B189978090922B904F1080B9AB9114687
:1057000014E0314B1878012805D1587888420CBF35
:105710001946002100E000212C4B19600029EBD133
:10572000B3460D4632E1294B19680231284B0F2050
:105730009A5C0391CDF808C0019204F0DBF903995B
:10574000034658460BE0234B0F209A5CCDF808C067
:10575000019204F0CFF92049034604F10800019AB0
:10576000FFF7A0FA05F00800DDF808C005F0030215
:1057700000F0FF0105F00403002835D0002B6BD1A9
:10578000164B1B88ADF81430531E012B9FBF0C49DC
:105790000B6813F8010B0B60114B98BF8DF81500C7
:1057A0009A5C04F1180005A9002353E09A5D0020DB
:1057B000C4440020BC440020D4440020305F0020BA
:1057C000C04400209CD2200044580020B84400204F
:1057D000B5D22000A0D22000A4D220009AD220006E
:1057E000A6D220004358002053B31CF0800F1DBFE9
:1057F000A34998F8003009680B4618BF5B18A14907
:1058000018BF9D78087818BF05F00F03012805D14F
:105810004D789D420CBF0D46002500E000259A4BB7
:105820001D60002D00F0AE80984B10209A5C019214
:1058300004F060F9A91C0346019A04F1180009E07C
:10584000934B10209D5C04F055F92A46914903467C
:1058500004F11800FFF726FA9AF800008E4900F1CB
:1058600028038AF80030009B002B53D00B681A786D
:1058700002F0F802F02A4DD11122A2711A7802F03A
:10588000040502F0F302F03AEDB2032A7CD8DFE817
:1058900002F0020A1622B3F801200533228533F8FC
:1058A000022C62852CE0B3F801202285DA78A2F57B
:1058B000805292B2120242F0F002628509E05A78F8
:1058C000A2F5805292B2120242F0F00222855A886A
:1058D0006285043314E05A7802331209A2F5756226
:1058E00092B2120242F0F002228513F8012C02F06B
:1058F0000F02A2F5756292B2120242F0F0026285C6
:105900000B6025B90B6833F8022BE2850B60303051
:105910008AF800005A4A0B6812689B1A88F800300F
:1059200067B903F0F7FF5D4B1B78C01A9AF8003097
:105930001844283803122371607104E0A7F128038A
:105940001A1222716371A379112B1DD1A388A3852B
:105950001AE0412A40F090806A1CD2B28B1822468D
:1059600003F1280153F8040B8B4242F8040BF9D1E0
:1059700005F1290388F800309AF8003028338AF8B6
:10598000003001E0B34601E0B34600252B4600930A
:1059900003F0C0FF98F8002082426DD803F0BAFFF0
:1059A0003E4A009B12789AF800A0DB009BB2C2EB43
:1059B000000853443A4943448C2BC1F800805BD81B
:1059C0003CB12F4B04EB0A0019681144424605F024
:1059D0005DFD002F39D056B132484FFA89F3B82413
:1059E00004FB030308EB0A0189B29982198495B379
:1059F000B8224FFA89F402FB04F32A492A48CA184C
:105A0000114697822231128C05F040FD274D05F298
:105A10004C5615F8012C5AB115F8033CA34207D196
:105A200015F8020C204B294603EBC00005F02EFDB3
:105A30007135B542EDD15FFA89F0FFF733F8BBF16C
:105A4000000F0BD01A4B1F800CE0BBF1000F05D0EC
:105A5000002DF7D110E0BBF1000F0DD1144BD04455
:105A6000A3F80080134C236823B1FFF793F8236851
:105A70005B68984701F0B4FF07B0BDE8F08F00BF46
:105A8000C444002044580020B8440020B5D220006F
:105A9000A0D22000A4D22000C04400209A5D0020A3
:105AA000C8440020D4440020305F0020515800201A
:105AB0001C5F0020D044002037B5124B124D1C78DB
:105AC0002B796A79C4EB032313449BB2ADF80630FB
:105AD000BDF8063005F108011844202280B206F016
:105AE000A8F8BDF8062004F12801294492B206F076
:105AF000A0F810B140BA80B201E04FF6FF7003B0D9
:105B000030BD00BF9B5D0020305F00202DE9F041DB
:105B1000264F274E3D7827482835AB195C7802235D
:105B2000E40007349C423DDBE9187218715CDFF831
:105B30008080012931D002D3632902D011E00133E2
:105B40002EE0037018461B4C02F07EFCD0B13B786F
:105B500022782833134443445B7813440233237080
:105B600021E001F0C001802905D0C02905D04029DD
:105B700013D1037006E0037007E098F81820037053
:105B8000FF2A02D10120BDE8F08104200221EA1899
:105B900001F032FD0220BDE8F08152780232134458
:105BA000DBB2BFE703700020BDE8F0819B5D002001
:105BB000305F0020A15D0020F0B5C578124A0D4489
:105BC000EDB2D57083780F0A3B44DBB29370447812
:105BD000BB4254700678167005D2601CC0B250707B
:105BE00008B901361670C9B28D420CDA0133DBB246
:105BF000054993703BB94B780133DBB24B7013B955
:105C00000B7801330B70F0BD245F002010B5084CF9
:105C1000014620681430FFF7CFFF064A2368117849
:105C20001975517859759178D2789975DA7510BDD2
:105C3000CC5F0020245F002008B501F0F5F801F0EA
:105C4000C3FD06F084F800230E49002221F813203A
:105C50000133082BF8D10C49002311443032B2F53E
:105C6000F07F81F82530F6D1084A4FF48061118029
:105C7000074A00211A442033B3F5A07F1182F7D1DF
:105C800008BD00BFB8610020D05F00207652002020
:105C9000CC6100202DE9F041124F3D7805B3DFF8CB
:105CA0004C8005F12703B8F80040A34203DB002332
:105CB000A8F8003013E00C4EA4F1280205F12801E9
:105CC000641BA4B206F128003144521B05F054FCB9
:105CD000A8F80040283C23123371747100233B70F4
:105CE000BDE8F0819B5D0020305F00201C5F00203C
:105CF0000023064A32F81310814203D1002122F812
:105D0000131070470133082BF3D17047B86100209E
:105D10000023054A32F8131011B922F81300704716
:105D20000133082BF5D17047B86100202DE9F74FFA
:105D3000A24E04283468A24F00F06F82A149A24D00
:105D4000A24A03280D6015608A4615D194F82530C3
:105D500003F00F03032B08D1A38B002B40F07486B4
:105D60009B4B08221A7000F065BD022B40F06C8638
:105D7000002305F8073CB3E302287AD1954A0023B3
:105D80001370954A3B801380944AD3780133DBB279
:105D9000D37063B993780133DBB293703BB9537816
:105DA0000133DBB2537013B913780133137094F8D5
:105DB000253003F0FD02052A0DD194F82630013379
:105DC000DBB2782B84F8263040F03E86002384F83E
:105DD000253000F039BE002B00F03686A28B7C48BF
:105DE000002A3DD094F82620511E84F82610002A5F
:105DF00040F02A8694F82720082A04D0591E012949
:105E00000AD8052A08D1002384F82530802303709E
:105E100001F026FF00F01CBD042A9CBF0321914025
:105E200003F00F0394BFC9B230210132013B84F863
:105E3000261084F82720072B00F20686DFE813F0EF
:105E40004C0308000A00C3040406C3040406C30488
:105E5000002242E30423037001F002FF00F024BD9E
:105E600003F00F03032B40F0EF850823037000F0CD
:105E7000E1BC052811D15A4B1B681B8A002B00F08E
:105E8000E3850C3D1560544A0023138033603B804A
:105E90004F4B08220D601A70BDE115F83C3C3C3DAB
:105EA00003F0F003602B40F0CF852B796A791B0259
:105EB00039889818884200F3C785283213443B80FC
:105EC0002B7AFF2B00F0C085464EAB1D3360464C4D
:105ED000404B00221A702270AA799846BAB9012361
:105EE0002370FFF713FE012800F0AE8503D30228CC
:105EF00000F0A6850BE098F8003003F128022A4450
:105F000032605278083303EBC20388F80030374818
:105F100000F028FE002840F0B280344800F0C8FEAF
:105F2000002840F0AC802A7E304BFF2AA3F11803F2
:105F300060D048F2FE00198B81425BD01989814202
:105F400058D079B9598969B9998959B9D98949B95B
:105F50001B8A3BB9698A264B21B9998A11B9DB8A18
:105F6000002B47D0298B224B79B9598B69B9998B72
:105F700059B9D98B49B9198C39B9598C29B9998C26
:105F800019B9DB8CB3F5807F34D03B88B3F5A06FB3
:105F900004D9022000214FF4A06205E0EB79012B27
:105FA00006D800210A46032001F026FB00F048BD78
:105FB0000F4A013BD37100F043BD00BFCC5F00200E
:105FC0001C5F0020C85F00206C5F0020205F002065
:105FD000BC5F00209B5D0020C86100209D5D00200B
:105FE000C45F0020C05F00209C5D0020485F00204F
:105FF000305F002048F2FE032989994240F0248551
:10600000298BA14B81B9598B71B9998B61B9D98B06
:1060100051B9198C41B9598C31B9998C21B9DB8CA2
:10602000B3F5807F00F01085FF2A00F00D859748BA
:1060300000F078FD0246002840F00685012002218C
:10604000B2E725D9B9F13A0F78D02CD9B9F13B0F85
:1060500000F0FA84B9F13C0F6CD123788C49980791
:106060003BD5580666D443F040030B70FFF74EFD56
:10607000012800F0E98433D3022800F0E18432687B
:10608000DFF83CB292F80090B9F12B0FD9D134E08F
:10609000B9F1060F00F01681B9F1110F6FD0B9F107
:1060A000000F47D104E0B9F12C0F00F0CD8441E09E
:1060B0002378D9073ED4764A43F001031370FFF7E3
:1060C00025FD012800F0C084D6D298F8003003F1F5
:1060D00028022A44CBF8002008E043F00203C4E77A
:1060E00098F8003003F128022A44326052780833CD
:1060F00003EBC20388F80030C1E7237803F0040003
:1061000000F0FF01B0B9624A43F00403137098F83D
:10611000002002F128032B44D87810B104202A3241
:1061200042E7CBF800305B78083202EBC302594BF0
:106130001A70A4E704200121521B35E705F095FDF4
:106140004FF6FF73984240F07F8498F80030283370
:10615000E85C01F031FC98F800302833EA18E85C7C
:10616000517801F027FA012801BF0023494A3B80FA
:1061700013703B88002B00F0678400F061BCFFF7D0
:1061800089FDEB8D85F8069053B96E8D002E00F0D9
:106190005B84414B414D2B603B4BB3F828800BE0B7
:1061A00005F069FD4FF6FF73984240F04D84ECE72F
:1061B000238A33B920342C602C68394B9C42F7D3A6
:1061C00015E09E42F6D1638A0BB19845F2D123685F
:1061D0002BB963681BB9A3680BB9E3685BB131489D
:1061E0002146102205F020F90028E3D103E0012028
:1061F00004210022D8E63B882B49303B3B8000231A
:106200000B602A4902202A4A08702A49CAF800204D
:106210000A60294A138001F023FD274B1A88002ABF
:1062200000F0128402F13003174C9BB23B80283BF4
:1062300019126371194B08321B6852BA2171197D0A
:10624000A2850022E2851A8AE17122855A8A1121EB
:106250006285A17104F118050FCB85E80F0004F1E8
:106260000800294600F082FD144B04F13C021A603C
:1062700005F001FDC04380B208B1E085DAE34FF6D6
:10628000FF73E385D6E300BF305F0020485F002046
:106290009C5D00209B5D0020CC610020C45F00203D
:1062A0000C630020385F0020CC5F0020BC5F002022
:1062B000605F0020205F0020C8610020C85F0020D0
:1062C000C05F0020FFF7E6FC85F8069005F0D0FCE3
:1062D0004FF6FF739842AE4C40F0B683B4F82AB044
:1062E000BBF1000F00F0B083238D002B00F0AC83D6
:1062F000A84EB44696F82590B9F1000F11D0328A15
:106300005A450ED1728A9A420BD1A34831461022C7
:106310008DE8081005F088F89DE80810002800F0C6
:10632000F5809E4A30369642E4D195F8352002F049
:106330003F02022A08D10022994931F8121059452A
:1063400050D00132082AF7D195F83520904B5207EA
:1063500000F17A83142283F835203C223A805022BF
:1063600083F8342093F8332093F8314093F82F00CA
:1063700083F82F2093F8322093F82E1093F8306092
:1063800083F82E20013093F82D2083F82D4093F8C8
:106390002C40C0B283F8321083F8312083F82C608F
:1063A00083F8304083F8330060B90131C9B283F813
:1063B000321039B90132D2B283F8312012B9621CDD
:1063C00083F830202B8D6A8D734C2A856B8504F100
:1063D000100594E80F0085E80F002046294600F0DC
:1063E000C5FC12E3002421466A4A92F8250018B938
:1063F000302404FB01C413E0072809D13CB192F812
:10640000266094F82600864288BF144600E01446B1
:1064100001310A2902F13002E7D1002C00F0148387
:10642000604A638214605C4B032284F8262084F85F
:106430002420042284F823200FCB84E80F005A4B39
:1064400001201A78002622765A7884F82500627690
:106450009A78DB78A276E37695F82C30A0832375C2
:1064600095F82D3084F82260637595F82E3084F805
:106470002760A37595F82F30A4F810B0E375FFF7E7
:10648000C5FB95F8343003F0F002502A24D91A09DC
:106490003346053A9200E91891F83C00E0B1012832
:1064A00001D1013316E002280FD191F83D000428F4
:1064B0000BD191F83E2091F83F3043EA0223402B64
:1064C00028BF4023E383238406E0E91891F83D10B8
:1064D00011B10B449342DEDB10222D4B83F83520A3
:1064E0002B4B93F8352042F0020283F8352002222C
:1064F00083F83C20042283F83D20002283F83E20CC
:10650000402283F83F203A80602242E2254B95F8F2
:1065100035101E60254B11F0040F344618709B4651
:1065200003D086F825002022E1E13B8809F00F091D
:10653000A3F12802164BB9F1020F93F834304FEA59
:106540001313A2EB83039BB23B8003D101F03F0204
:10655000122A05E0B9F1010F03D101F03F02022A2E
:1065600026D00BB98B0723D0AA8DB38A9A4204D1C7
:10657000074BDA8DF38A9A421AD0880740F10282DB
:10658000B9F1010FA8D0B9F1020F40F0FB81A7E7E4
:10659000305F0020D05F0020385F0020B061002015
:1065A000B8610020CC5F00209D5D0020BC5F002012
:1065B000C90654D5B18B002951D006F11800FFF758
:1065C000FBFAB24B95F8301093F800E0B04A8E45D4
:1065D00045D192F8311093F801C08C453FD192F823
:1065E0003200997881423AD192F83320DB78934295
:1065F00035D1F37696F8273086F818E086F819C07A
:10660000B1761BBB96F8243096F8261096F8220037
:10661000591AA1EBD001C9B25FFA81FE1EF0800FBA
:1066200096F82330084418BF4942A3EB930318BFE0
:106630005FFA81FE03EB0E02C0B2D3B286F82330BC
:1066400003EBD00386F8220086F82430914B012218
:106650001A7096F8243086F826300023B38396F813
:106660002510DFF8309201F00F03013B072B00F2F9
:10667000EB81DFE813F00800250083004001620190
:106680007C018701320199F80020824BD2070FD597
:10669000032286F82520388840221A700022B2830F
:1066A000002800F0C48042221A70FFF7AFFABEE063
:1066B00095F8353003F03F03022B40F0C5810BE71E
:1066C00099F80030DB074ED595F8353003F03F03DD
:1066D000122B48D16E4B93F8343003F0F002502A5D
:1066E00024D91B09053B9B0000202A1892F83C1076
:1066F000E1B1012901D1013016E002290FD192F850
:106700003D1004290BD192F83E1092F83F3043EA35
:106710000123402B28BF4023F383338406E02A184B
:1067200092F83D2012B110449842DEDB032386F834
:10673000253095F82C300120337595F82D30737580
:1067400095F82E30B37595F82F30F375FFF75EFA94
:106750004223514A8BF800300023B3833B8088F8F2
:106760000030138066E020238BF8003001F078FAC7
:106770004A4B00221B6883F82520E5E595F8353063
:10678000D80725D5CA0623D4B38B002B40F05C81F3
:106790003888013080B2FFF739FA9BF8003043F0B7
:1067A00010028BF800203A881AB13A4A43F01203DB
:1067B000137001F055FA0123B383082386F82530BE
:1067C000002386F827301122314B83F83520DCE096
:1067D00098060DD595F83A2095F83B3043EA022308
:1067E000DAF800201A44CAF800203A88D31A3B800D
:1067F000388848B1CA0607D499F8003043F002033C
:1068000089F80030FFF702FA95F8362095F837300E
:1068100003EB0223328C9BB2934202D8002B18BFA9
:106820001A4699F80030F2839B0700F00D811A4B4D
:1068300000221A8001F014FA164B1A78164B02F057
:10684000200000F0FF0128B100221A8084F82520E2
:106850001422B9E702F0100000F0FF0540B11980E2
:106860000123A383042384F8253084F82710AAE7A2
:106870001988B1B1D60748BFA583A28B82B9E28B34
:10688000914288BF1A801B88A3830AE0245F0020FE
:10689000305F0020BC5F0020C8610020CC5F00207A
:1068A0001A80002384F827306D4B1B68CAF800302B
:1068B0006C4B1B882BB1A38B1BB13C333B80182244
:1068C00007E0694B1B789D0740F1BE803C233B806D
:1068D0001022664B83F8352059E099F80030DC0728
:1068E00040F1B280002386F825305F4B10221A70E9
:1068F00001F0B6F9A8E0388808B1FFF787F995F8F4
:10690000353013F001030FD099F80030D80745BF98
:10691000072386F825300623002346BF86F8263055
:10692000B38386F8253016E099F80020D1071BD5EF
:10693000052286F82520B38386E0388808B1FFF762
:1069400065F995F83530DA070ED5072386F8253036
:10695000002386F826300120FFF758F9102389F824
:10696000003001F07DF90DE03B885BB96CE099F8EF
:106970000030DB0768D5072386F82530002386F82A
:10698000263061E0102385F835303C233B80374BBF
:10699000502283F83420237D344D85F83030637DD8
:1069A00005F1180685F83130A37D85F83230E37D96
:1069B00085F83330237E85F82C30637E85F82D30C2
:1069C000A37E85F82E30E37E85F82F30238A2B8531
:1069D000638A6B8594E80F0086E80F0005F10800D4
:1069E000314600F0C3F994F8253003F0100303F0AA
:1069F000FF022BB1002385F8373085F8363004E0EC
:106A00003C2385F8362085F83730184C0623A371CF
:106A1000174B1B79E3713B88283B1A1263710023E3
:106A2000227184F83B3084F83A30238705F020F94E
:106A3000C04320870D4B60221A7000225A705A8082
:106A4000094B00221A7007E00A4A002313700A4A11
:106A50003B801370044A137003B0BDE8F08F00BF91
:106A6000205F0020C8610020BC5F0020305F002054
:106A7000146300209B5D00209C5D00200C4A0346AF
:106A8000106828B10B4A121A9142A8BF114602E0C1
:106A90005029A8BF5021002909DD074A83421180EF
:106AA00005D08AB200B90548194604F0EFBC70471A
:106AB000205F0020BC5F0020C86100206C5F0020C8
:106AC0002DE9F3410446154D00910E4690461F46B0
:106AD0000195234612480321202205F0D9F8012808
:106AE0002B4616D12A6804F11001107020462A683E
:106AF000023250F8044B884242F8044BF9D118682E
:106B0000089B86744361099B80F813800777836133
:106B100000E0002002B0BDE8F08100BF4846002040
:106B20001064002070B506460B4D0C4B2B602C6892
:106B30000B4B9C420BD2237833B1A27CA01C314674
:106B4000D20804F071FC20B120342C60EFE7002063
:106B500070BD012070BD00BF4846002010640020B9
:106B60007064002013B5084C802203460092019403
:106B700006480321202205F08BF808B9206800E0C0
:106B8000002002B010BD00BF4C4600202C63002046
:106B900010B50C4A0C4B136013680C498B420DD294
:106BA000197849B1411C02D0997C814204D148F244
:106BB000FE015C888C4202D02033ECE700231846AB
:106BC00010BD00BF4C4600202C6300208C630020C9
:106BD00037B504460F4D80230093019523460E4898
:106BE0000521122205F054F801282B460ED12A68FF
:106BF00004F11001107020462A68023250F8044B4C
:106C0000884242F8044BF9D1186800E0002003B034
:106C100030BD00BF44460020B0630020F7B50546F4
:106C2000204C802300930E46174601941E480321F2
:106C300020222B4605F02CF8012830D12A46236863
:106C400005F1100118702368023352F8040B8A42D0
:106C500043F8040BF9D12068C77416B901230375F2
:106C600005E0002303753146183004F0F7FE236871
:106C70000E480121997402234370FF220023027001
:106C800043808380C38003818372C17202736B7BF4
:106C90004373EB89C381FFF79BFF206800E000206E
:106CA00003B0F0BD4C4600202C6300207852002039
:106CB00013B5084C80220346009201940648052132
:106CC000122204F0E5FF08B9206800E0002002B0BD
:106CD00010BD00BF44460020B063002038B5054613
:106CE000C8B10D48022200244270FF230122C27263
:106CF00044808480C4800481847203730370EB7BBE
:106D000043732B8AC381FFF7D3FF044A106008B195
:106D100004F0E2FF2C7038BD785200204446002079
:106D200010B50E4B0E4C236020680E4B98420ED2CD
:106D300003784BB1037D3BB91830FDF751FD18B115
:106D4000074B1868FFF7CAFF23682033EBE700F012
:106D50006BFBBDE81040044804F05EBE2C630020CD
:106D60004C4600208C630020706400202DE9F8431D
:106D700048F2FE030A8805469A42884621D00B78DD
:106D8000FF2B1ED01B4B0024A1461F461A4A1A6037
:106D90003E681A4A964218D233787BB1B37C012BF5
:106DA0000CD148F2FE0372889A4207D04046B11CCB
:106DB00004F09FFF484524BF3446814620363E609C
:106DC000E6E70120FFF7E4FE04464CB92C806C8016
:106DD000AC80EC802C816C81AC81EC81BDE8F883C7
:106DE000A31C123453F8042BA34245F8042BF9D109
:106DF000BDE8F8834C4600202C6300208C63002003
:106E000010B5FDF77DFD0446FDF77AFD054B240224
:106E10009A68A4B22044B0FBF2F302FB130000EB2B
:106E2000520010BD1463002073B52F4C00F07CF8A5
:106E300000F010F9002160222C4804F001FC002130
:106E40002046F82204F0FCFB294B20221A70294B23
:106E500018221A704FF4A0632360274B4026267136
:106E6000A360FFF7CDFF42F21073236148F2FE03E7
:106E7000314640F2FF260025E06025751F4C2A466A
:106E8000238065802B46A580E580204600950195EE
:106E9000FFF716FE20461A4904F022FF2946012278
:106EA0002046FFF7BBFE4FF480732046E381268027
:106EB0006580A580E58025816581A581FFF788FE35
:106EC0004FF40073204626806580A580E5802581EB
:106ED0006581A581E381FFF77BFE0A480C2102B0A2
:106EE000BDE8704004F08FBD1463002010640020E2
:106EF0000D6400200C640020C02709007852002097
:106F0000285F00207064002010B5044640B100F0F6
:106F10008DFF044B2146BDE81040186802F094BC78
:106F200010BD00BFA840002008B502F041FB034B94
:106F300003491868BDE8084002F0CEBBA840002015
:106F4000096F200070B51E460C4B04469DF81020BA
:106F50001868059B02F0EEFB054668B120462B46FB
:106F600004F1100250F8041B904243F8041BF9D1BD
:106F70006E74284600F05AFF284670BDA8400020D5
:106F8000024B0146186805F0A9BD00BFA8400020CB
:106F900070B50C4D0646286802F0B2FB044666B98F
:106FA000002070BD20463146102204F03DFA38B171
:106FB0002146286805F05AFD0446002CF2D1EFE77F
:106FC000204670BDA8400020024B0146186805F01D
:106FD0006CBD00BFA840002070B5054610200C46CF
:106FE00002F088FD0849064605F0F9FC58B930461C
:106FF0002946224602F07AFA304629462246BDE862
:10700000704000F0E9BE70BDEED220002DE9F041E5
:1070100005460D480F46904604F04AFD044688B1E7
:10702000012D04D8094804F079FD034601E0084B1E
:107030001B682846666839464246B047204604F039
:1070400074FDEBE7BDE8F0811C4A00209446002067
:107050009046002008B50B4804F06AFD0A4804F089
:1070600024FD0A4B0A49186802F036FB094804F06F
:107070005FFD094804F019FDBDE80840074804F029
:1070800014BD00BFDC40002018470020D84000207D
:107090004BBD2000BC400020944600201C4A00202C
:1070A00008B5034640B1054A5968106805F016FD59
:1070B000BDE8084004F03ABE08BD00BFD84000203B
:1070C000014804F0F5BC00BF1847002008B504F0E3
:1070D0002FFE014638B1044B186805F0E6FC00307D
:1070E00018BF012008BD08BDD84000202DE9F0419F
:1070F0008046FFF7E5FF0026044637469CB194F82A
:107100002450B5420AD3404604F10801EA0804F0CD
:107110008BF918B9802D08D02E462746204604F05A
:1071200010FE0446EAE73C4667B1084804F0C0FC9C
:10713000844207D00548214604F0C4FC0348214698
:1071400004F0E3FC2046BDE8F08100BF18470020B2
:1071500038B5044600283ED04368002B3BD01E487B
:10716000214604F0AFFC6368586804F0A1FC0546B2
:1071700030B14368A34207D0284604F0D6FCF6E7B6
:1071800004F1080000F0A0FD63682946586804F087
:1071900099FC6368586804F08BFC28B963680F4A4F
:1071A0005968106802F050FB21460D4804F0E4FCD9
:1071B00029460C4804F0E0FC0B4A20461368013BCA
:1071C0001360FFF76DFF04F108010246BDE8384087
:1071D0000320FFF71BBF38BD18470020D840002010
:1071E000DC400020E84000209046002010B5044616
:1071F00080B1406870B104F05BFC20B14068FFF7DB
:10720000A7FF6068F7E7044B2146BDE81040186807
:1072100002F01ABB10BD00BFD84000202DE9F84F86
:10722000074610468946904604F082FD834610B911
:107230000020BDE8F88F3846FFF758FF044660B1DC
:10724000FFF72EFF014628B14046102204F0ECF86B
:10725000002859D02046FFF77BFF2D4B1A689A462D
:10726000102AE5D02B4E5946306805F01EFC054625
:1072700068B92B4630685946042202F05BFA05468D
:107280000028D5D000236860036004F00EFC22487B
:1072900004F05EFC04460028CAD02048214604F0D1
:1072A00034FC1F4804F054FC834620B921461A4898
:1072B00004F062FCBCE744606868594604F016FCC0
:1072C000DAF800306560013330682946CAF80030CA
:1072D00002F0D0FA3B4604F1080507F110062A46F1
:1072E00018685968083303C2B3421546F7D1002124
:1072F0000C2284F8249004F1180004F0A1F9022073
:1073000039464246FFF782FE2046BDE8F88F00BFAF
:1073100090460020D8400020DC4000201847002084
:10732000E840002038B505460D4804F0C1FB04468E
:10733000A0B1AC420ED12146094804F0C3FB21465E
:10734000084804F019FC211D01200A46BDE8384018
:10735000FFF75CBE204604F0E8FBE8E738BD00BF5D
:1073600094460020BC40002038B50546084804F08B
:107370009FFB044648B1201D2946102204F054F812
:1073800018B1204604F0D1FBF3E7204638BD00BF1A
:1073900094460020F8B505460F46FFF7E5FF044682
:1073A00040B9134804F0D4FB0446F0B1114821461B
:1073B00004F0ABFB2B46261D05F1100E3246186873
:1073C0005968083303C273451646F7D137B104F143
:1073D0001400394604F042FB002300E00123237728
:1073E000002029462A46FFF711FE2046F8BD00BFBF
:1073F000BC4000209446002038B50A4804F058FBF1
:10740000044600255CB1251D2846FFF7C1FD08B1E3
:10741000437C23B9204604F088FB0446F2E7284663
:1074200038BD00BF9446002010B50A4804F040FB68
:10743000044670B1237F43B904F11400FDF7D0F97D
:1074400018B12046FFF76EFFEFE7204604F06DFB12
:10745000EEE710BD944600202DE9FF411F4C204D62
:1074600004F108030FCB8DE80F0029786F4694F8DC
:107470000780A1B13A23A3711A4B1A88521A92B20B
:107480001A80A2F1280318122C312071214404F132
:107490002C002C3A637104F06FF800232B70124813
:1074A00004F006FB064690B1D6F804C0BCF1000F0C
:1074B00009D00C4B2A781B8838322C3B3846414681
:1074C00022449BB2E047304604F02FFBEAE7054B2D
:1074D0002870188004B0BDE8F08100BF305F002044
:1074E0009B5D00201C5F0020204A0020F8B52A4B3D
:1074F0002A4C1B7904F11806E371237E04F1080578
:10750000FF2B08D195E80F0086E80F00284631468A
:10751000FFF72CFC1BE02F46B646214A3B4603CB27
:107520007345106051601F4602F10802F6D196E8DB
:107530000F0085E80F001A4B1A4D03F110062A467A
:1075400018685968083303C2B3421546F7D1164D7F
:10755000297899B13A23A371144B1A88521A92B21E
:107560001A80A2F1280318122C312071637110487F
:1075700021442C3A04F000F800232B702B78812250
:107580002833E518E25400236B706B8004F06DFB28
:10759000C0436880F8BD00BF14630020305F002046
:1075A000A8530020485F00209B5D00201C5F002046
:1075B0005C5F002038B504460B480D4604F078FAAD
:1075C00078B10379A34209D14379AB4204D18368EE
:1075D0003BB19847002038BDFF2BF8D004F0A5FA46
:1075E000EEE7012038BD00BF244A002001460148D3
:1075F00004F07CBA244A00202DE9F74F484D81461B
:107600002B7888469246474C43B12833E35C3A2BAB
:107610000BD1454A002313802B707EE0A3793A2BCF
:1076200003D194F92830002BF3DA00F08DFF3F4EA0
:107630003F4AB446934606F1100E334603CB7345DA
:10764000106051601E4602F10802F6D1364E2F78C6
:10765000338804EB470030339BB2B3F5A06F88BF8B
:107660004FF4A063338032882E4BD21B1946303A38
:107670003030CDF804C0009303F07EFF9DE8081081
:10768000602222700022627062803A2217B183F871
:10769000282000E09A71274A224B1279E271228950
:1076A00072B95A8962B99A8952B9DA8942B91A8A81
:1076B00032B95A8A22B99A8A12B9DB8A002BA8D029
:1076C0001D4B0FCB8CE80F009BF80030FF2B05D132
:1076D000B9F1040F9DD1B8F1020F9AD1144916489F
:1076E000FFF744FB2F78504607F12803E21804F80F
:1076F000039082F8018004F0C1FA33882C37283BCC
:10770000E0511A1263712B78227128331C44002334
:10771000638004F0AAFAC043608003B0BDE8F08F34
:107720009B5D0020305F00201C5F0020485F002030
:10773000A853002014630020385F00202DE9F04199
:107740001E460F461B4905460C4660230B7000235E
:107750004B704B803A238B71174B90461B7900F18D
:10776000100ECB71331D1A120A714B7101F1180200
:10777000134628686968083503C375451A46F7D16A
:107780000E482C3600F11001FFF7F0FA0C4B1B7875
:107790002833E518E75400236B8085F8018004F056
:1077A00064FAC043074B68801E80BDE8F04100F0DA
:1077B00029B900BF305F002014630020385F00202B
:1077C0009B5D00201C5F002008B50448FFF70EFFFA
:1077D000BDE808400248FFF709BF00BFF4400020A1
:1077E0000041002038B54388044613B1B72B27D099
:1077F0003AE012B94280022038BD4160028219E0AD
:107800001C4B1B7803F0040202F0FF05E2B9DB0712
:107810002ED5194A238A10686168C28B934283BFB0
:107820009A1A2282C28B5B1887BF8B1863606360D1
:107830002582012384F82030238A9BB1B7236380FB
:1078400094F82030062BDBD00B4A238A126860683C
:10785000D18B8B4298BF1946FFF710F9062384F8A5
:10786000203005E084F8203000236380032038BDF9
:10787000002038BDBC5F0020CC5F0020438A6BB97C
:1078800090F82020022A15BF054B0322187880F8B3
:10789000202014BFC0F340001846704701207047F5
:1078A000BC5F002038B5438804460D461BB1B3F5D4
:1078B000837F09D035E0838BC26803834261638A8A
:1078C0004BBB4FF4837363802046FFF7D7FF00283C
:1078D00034D0022384F82030194B1B68A360194B65
:1078E0001B88638217E0002BE9D0A26863691278D5
:1078F0001A70A368AA4203F10103A360636903F14C
:1079000001036361638A03F1FF336382238B03F115
:10791000FF33238309D0228B638A002AE3D123B962
:10792000CDE700236380032038BD228BA38B9A42CE
:10793000F7D1002084F82000608038BD38BD00BF3A
:10794000C85F00201C5F002008B5054804F076F8E9
:1079500020B1BDE80840024804F067B808BD00BF88
:107960006C4A0020024B1B6803B118471846704749
:107970007C4A0020014B1860704700BF7C4A002001
:1079800000230749CA18595A29B9064B10801B68A9
:107990005360FEF7BDB90833402BF2D1704700BFEA
:1079A000284A002018430020024BC1621B688362F2
:1079B000704700BF1843002007B5074B8DF807003C
:1079C000186828B1054B0DF107021978FCF7B4FED1
:1079D00003B05DF804FB00BFB06100202E660020FC
:1079E00008B5002204480221FCF7A6FE034A002342
:1079F0001380034A137008BD0C4100201C5F002057
:107A00009B5D002038B5274D2B88002B48D0B3F55F
:107A1000A06F26D8244C238B6BB9638B5BB9A38BE7
:107A20004BB9E38B3BB9238C2BB9638C1BB9A38C6B
:107A30000BB9E38CABB100F0C5FD90B1237EFF2BF9
:107A40000CD01A48FFF76EF880B11848FFF7A0FA7B
:107A500008B9288038BDFFF793FA00E00020FFF74F
:107A600081FF134A00232B80137038BD0F48FFF7A6
:107A70003DFB044620B9FFF7BFFC0028E6D1F0E744
:107A8000FFF70EFB0028E1D1E36923B11B6A93F8ED
:107A9000940004F0DCFB2046BDE83840FFF758BBFB
:107AA00038BD00BF1C5F0020305F0020485F002011
:107AB0009B5D0020F8B50388064614463BB140F2B2
:107AC0004B32934222D0002303800320F8BD554A55
:107AD000002122F833100133082BF8D1524B1B68D8
