:020000040020DA
:10200000607800208D2220001BCC200019CC2000FD
:1020100019CC200019CC200019CC200000000000B1
:1020200000000000000000000000000019CC2000AB
:1020300019CC20000000000019CC200021D2200083
:1020400043D2200049D220004FD2200055D2200098
:102050000000000027D220002DD2200019CC200043
:1020600019CC20000000000000000000000000006B
:10207000000000000000000019CC2000000000005B
:10208000000000000000000019CC200019CC200046
:1020900019CC200019CC200019CC200019CC20002C
:1020A00019CC200019CC200019CC200019CC20001C
:1020B00019CC200019CC200019CC200019CC20000C
:1020C00019CC200019CC200019CC200019CC2000FC
:1020D00019CC2000000000000000000000000000FB
:1020E00000000000000000000000000000000000F0
:1020F0000000000000000000ED532000FD53200010
:1021000000000000000000000000000000000000CF
:1021100000000000000000000000000000000000BF
:1021200000000000000000000000000000000000AF
:10213000000000000000000000000000000000009F
:10214000000000000000000000000000000000008F
:10215000000000000000000000000000000000007F
:10216000000000000000000000000000000000006F
:10217000000000000000000000000000000000005F
:10218000000000000000000000000000000000004F
:10219000000000000000000000000000000000003F
:1021A000000000000000000000000000000000002F
:1021B000000000000000000000000000000000001F
:1021C000000000000000000000000000000000000F
:1021D00000000000000000000000000000000000FF
:1021E00000000000000000000000000000000000EF
:1021F00000000000000000000000000000000000DF
:1022000000000000000000000000000000000000CE
:1022100000000000000000000000000000000000BE
:1022200000000000000000000000000000000000AE
:10223000000000000000000000000000000000009E
:10224000000000000000000000000000000000008E
:10225000000000000000000000000000000000007E
:10226000000000000000000000000000000000006E
:1022700019CC2000D5522000F952200081452000C1
:102280005D5520000140200019CC200008B5094B05
:10229000FF221A600848094A4824E3690849121ACB
:1022A00098470848084AA3690021121A984701F084
:1022B00023FBFEE7B4200D404040002029480020C9
:1022C00048FB2000304800205970002008B50AF073
:1022D00051FF034B186004F0E5F9024B188008BD6C
:1022E0008C490020C45C0020024B1888013080B269
:1022F00018807047C45C0020F7B5044601232160B4
:10230000037100230B700E46016800790A7842EAD7
:1023100080120A70206862790178120102F030029E
:102320000A430270A27A206802F00F0102780A4381
:1023300002702268A179517022892168120A8A707C
:1023400022682189D170A279002A00F040812246BA
:1023500052F80A5B0435A17A8B4205D212F8011FAC
:10236000013305F8011BF6E7E37C03F0020303F0F9
:10237000FF015BB194F86A30002100932A460120E6
:1023800004F16B030AF010FD01210544E37C1A07F8
:1023900008D5236C2A4600930320636C0AF004FDE1
:1023A00003210544E37CDB060AD594F824302A4651
:1023B0000093042004F125030AF0F6FC04210544EF
:1023C000E37C9F0606D52A46052000230AF0BCFCC4
:1023D00005210544E37C580606D52A460620636E8F
:1023E0000AF0B2FC0621054494F91330002B07DAF9
:1023F0002A460720B4F850300AF0A6FC072105440D
:10240000237DDA070AD5A36C2A4600932F23019374
:102410000820E36C0AF0D8FC08210544237D1B0743
:102420000AD5E36D2A4600932F2301930B20236ED8
:102430000AF0CAFC0B210544237DDF0606D52A4697
:102440000C20A38B0AF080FC0C210544237D580648
:1024500006D52A460E20236A0AF076FC0E21054492
:1024600094F91430002B0CDAD4F894302A460093F7
:10247000262301930F20D4F898300AF0A5FC0F21F1
:102480000544637D9A0707D52A461120B4F86830C1
:102490000AF05AFC11210544637DDB060AD5636D01
:1024A0002A460093262301931420A36D0AF08CFC86
:1024B0001421054494F91530002B1CDA676F94F849
:1024C00078303F010BB147F00807B4F87A300020AC
:1024D0001B09421C5B0892B201D01046F9E7002AA2
:1024E00018BF024602F00F0317202A463B430AF0AA
:1024F0002BFC17210544A37D1F071DD5D4F8807040
:1025000094F884303F010BB147F00807B4F88630E7
:1025100000201B09421C5B0892B201D01046F9E76B
:10252000002A18BF024602F00F031B202A463B4335
:102530000AF00AFC1B210544A37DD80607D52A46CC
:102540001C20D4F88C300AF0FFFB1C210544E37DED
:102550001A0708D5236B2A4600932320636B0AF0E1
:1025600023FC2321054494F91730002B08DAA36BD0
:102570002A4600932720E36B0AF016FC2721054426
:10258000A37EDB0606D52A463C20D4F890300AF01C
:10259000DBFB05442368EB1A3E2B11DCB4F89E30BC
:1025A00013B1FF2305F8013B2846D4F8A010B4F876
:1025B0009E200AF075F8B4F89E00AD1B284407E091
:1025C000044A054B0025256028461A6000E00420D7
:1025D00003B0F0BD80EF2000684400202DE9F743F0
:1025E0008846064600219146A4220AF0BDF8C6F8A6
:1025F000008098F800309B09337198F80020012B77
:10260000C2F30112727198F8004004F00F07B7721C
:1026100098F80120B27198F8021098F8032042EA65
:102620000122328101D0A14A02E0082F04D9A04A38
:10263000A04B80201A6035E108F1040421463A4697
:1026400006F10B0009F0B6FF06F113000021082285
:102650000AF08AF83C44002708EB09039C4280F00A
:102660002081257805F0F003F02B14D10134C4EB60
:102670000808C1441FFA89F9B9F1800F8ABF802385
:10268000A6F89E90A6F89E30B6F89E300020C6F8B8
:10269000A040E05406E12B090D2B05F00F0503D1F6
:1026A000637802340D330AE00E2B03BFA3786278FF
:1026B00003F20D13013404BF03EB022303340D2D89
:1026C00003D114F8015B0D3508E00E2D01BF6578CC
:1026D00005F20D1214F8025B02EB05251F4406EB10
:1026E000D70107F00703012202FA03F0CB7C0E2F7B
:1026F00043EA0003CB746CD029D8062F00F0AB80DE
:1027000017D8032F00F084800BD8974240F0C08088
:102710002A46082D28BF082286F86A2006F16B0099
:102720006DE0042F5BD0052F40F0B28086F89C202E
:10273000B5E0082F7DD06ED30B2F73D00C2F40F057
:10274000A780204629460AF06BFAB083A7E01B2F2A
:1027500000F0878026D8112F4AD009D80F2F40F0DB
:1027600097802623009306F1980006F1940166E015
:10277000142F69D0172F40F08B80204629460AF08D
:102780004FFAC0F3C00300F0070286F87830102338
:102790009340A6F87A3020F00F0393400009F367C6
:1027A00070677CE0232F2ED008D81C2F70D12046D4
:1027B00029460AF035FAC6F88C0070E0272F22D09F
:1027C0003C2F65D1204629460AF02AFAC6F8900027
:1027D00065E0204629460AF023FA30625FE02A4687
:1027E000082D28BF082286F8242006F1250006E0DF
:1027F000204629460AF014FAA6F868004FE0214660
:1028000009F0D8FE4BE02C4A2A4BA5201A6049E07B
:102810007464356443E0204629460AF001FAA6F8BC
:1028200050003CE02F23009306F1600006F15C01AC
:1028300005E02F23009306F14C0006F148012246E3
:102840002B460AF0F8F92AE02623009306F15800F7
:1028500006F15401F3E7204629460AF0E1F97066D3
:102860001DE0204629460AF0DBF9C0F3C00300F062
:10287000070286F8843010239340A6F8863020F0B3
:102880000F0393400009C6F88830C6F8800006E0C0
:10289000FB0704D5094A074B82201A6002E02C444A
:1028A000DAE6002003B0BDE8F08300BFAFEF200000
:1028B000C6EF200068440020EBEF200012F020005B
:1028C000014B1860704700BF9049002010B5038885
:1028D000044633B1B3F5B07F12D000230380032048
:1028E00010BD0E480E4900F025FF00F0C7F943F275
:1028F0001630FFF7EBFC4FF4B0732380012010BDBE
:10290000084B1B788B4204D1074B18680AF058FC1F
:10291000F1E78829EFD100F057FAECE79444002062
:102920002EF020004F7000208C490020014800212B
:1029300003F0F0BD6C4400202DE9F04FA54D0023BD
:102940002B70A54B87B01B7881469C0740F18A818C
:10295000A24EA34BA34C316820461A88FFF73EFED7
:10296000B04607462870A04E002840F01B81A3798E
:10297000013B032B00F2DF809C4B9D4A1B7802F148
:10298000080128332089D25A00F082F930600028EB
:1029900000F0CB8080234946ADF80A3003970497B6
:1029A00005970AF0CAFB637923B9924802214522B0
:1029B000238905E0FFF798FC03468E480121452254
:1029C0000AF03DFAA27A1AB18A488B490AF06CFAE9
:1029D00004AB0093834803A900220DF10A030AF017
:1029E00036FB40B1BDF80A30802B28BF8023ADF8FC
:1029F0000A30049B0593814BD3F800C0BCF1000F53
:102A000000F08F8032687B4FDFF8D8B105A90091C4
:102A1000BDF80A30584639467832E047BA460028B1
:102A20006ED02B78002B6BD19BF8163018070DD584
:102A300097F90630002B09DBBB7D190706D4654BDF
:102A4000A1221A706E4A6F4B1A6059E094F9153042
:102A5000059A002B41DA049B9A4223D1BAF89E10C2
:102A6000644F8A4205D38223BB71384666490F22E0
:102A700044E0BDF80A308A1A9A4294BF002201222B
:102A8000039938460AF0FCFA0499B7F89E30BDF86D
:102A90000A205B1AD7F8A0E09A423846714428BF52
:102AA0001A462BE001320399BDF80A3006D1BAF874
:102AB0009E209A4294BF0022012200E001224D4F45
:102AC00038460AF0DDFABDF80A20BAF89E30934283
:102AD00016D93846D7F8A01010E08AB1013218BFD5
:102AE00001220021434880230AF0CAFABAF89E2046
:102AF00040487F2ADAF8A01088BF80220AF00EFB37
:102B00002B78002B4ED137683A4807F13A01FFF78E
:102B1000F3FB80B23887002844D12E4BC1221A70B3
:102B200040E0A1232B70394A02E0A323384A2B70DE
:102B3000344B1A6036E0636823F07F4323F0FF03D1
:102B400013B9C3232B700CE06379032B09D1274BF6
:102B5000274A1B7802F108002833D15A228900F055
:102B6000D1F9208900F022F9306040B1076BD0F82C
:102B700034A000F0B5F817B150461A49B847627949
:102B80000023012A3360174B0CD8DA7C520609D592
:102B9000164A174F12784846283207F10801BA5AE8
:102BA00000F08EFC2B780B4F306823B9002859D0E9
:102BB00000F0ACF856E0C22B02D100F091F851E0E1
:102BC00000F08EF83B78C32B24D100233B70032107
:102BD00025E000BFC4630020C86B0020D46B002038
:102BE000B86A002040480020E4480020386A0020ED
:102BF000C86A0020E84800204B4800209049002087
:102C00003FF02000684400204FF020005FF02000DB
:102C100070F02000BF2B84BFA0233B7002212A78D4
:102C2000238912480AF00BF9114B124E1C682046FA
:102C300009F0ACFE214602460C480AF06FFA0E4B32
:102C4000D8F800401B782146283308489F5BFFF7DF
:102C500053FB80B2009006F1080148463A462346ED
:102C60000AF091FA287807B0BDE8F08F40480020BC
:102C700068440020C86A0020386A0020024B1A68A5
:102C8000024B1A60704700BF345000209849002062
:102C9000F8B507460F480D4616460AF047FD0446AC
:102CA000A8B12946002303760B4B87801B6805F1EA
:102CB0001002C36200F11A0351F8040B914243F869
:102CC000040BF9D16685054821460AF0FDFC204633
:102CD000F8BD00BF7C4400208C49002094490020AE
:102CE00010B5044660B1083003F0F2FA21460548F9
:102CF0000AF0D6FC2146BDE8104003480AF02ABD80
:102D000010BD00BF944900207C4400202DE9F34110
:102D10000446038F428D00F11A070093C06A3946BA
:102D200004F13A030AF02FFA94F83A50C5F301156A
:102D300075BB237E032B19D853B903F0B3FCC02312
:102D4000B0FBF3F202FB130000F28110E06002E03E
:102D5000E3685B00E360134D134B2E681B6804F1BE
:102D600008002B600AF04FFC2E6017E0266B3846F7
:102D7000618DD4F8348000F04DF82046FFF7B0FFA5
:102D800066B140462946334602B0BDE8F0411847D7
:102D9000204602B0BDE8F041FFF7A2BF02B0BDE897
:102DA000F08100BF345000209849002010B504463F
:102DB00004480AF06BFC20B18388A34201D000686C
:102DC000F9E710BD9449002010B509480AF05EFCEF
:102DD000044664B104F108000AF01EFC28B1237E09
:102DE000204601332376FFF791FF2468F1E710BDF9
:102DF0009449002010B50446044821460AF0AAFC74
:102E00002146BDE8104002480AF04ABC8844002030
:102E1000884E0020F8B506460C480F460AF036FCEE
:102E2000044600257CB104F11C003146102209F053
:102E30008FFB30B9A38DBB4203D12046FFF7DAFFE9
:102E400001352468EEE72846F8BD00BF884E002013
:102E50002DE9F84307461348884691461E460AF076
:102E600015FC04460025D4B104F11C00394610229B
:102E700009F06EFB88B9A38D43450ED194F82E302E
:102E8000B3420AD104F12F004946324609F060FBF3
:102E900018B92046FFF7AEFF01352468E3E728465E
:102EA000BDE8F883884E00202DE9F8430746144812
:102EB000894690460AF0EAFB04460025E4B14FB18A
:102EC00004F11C003946102209F042FB90B9A38D91
:102ED0004B450FD1261D464508D0304609F056FD1A
:102EE00041460246304609F033FB18B92046FFF749
:102EF00081FF01352468E1E72846BDE8F88300BF7B
:102F0000884E00202DE9F04106460F480F469046B6
:102F10000AF0BCFB0446002594B104F11C003146C4
:102F2000102209F015FB48B9A38DBB4206D1238FAF
:102F3000434503D12046FFF75DFF01352468EBE7E9
:102F40002846BDE8F08100BF884E00202DE9F04101
:102F50004668DAB0804630460D4609F017FD044653
:102F6000314603A8132209F089FD122C07DC35B184
:102F700003AB18192946C4F1130209F07FFD0024A0
:102F8000234608A8012145228DF81F4009F057FF6C
:102F900023460122214631A809F051FF03A931A897
:102FA00009F0F7FF03A809F0F1FC06462F480AF0E4
:102FB0006DFB0446002C56D0251D284609F0E6FC82
:102FC000B04208D04DDD98F80830DB0649D5A3198A
:102FD0001B792F2B45D103A82946324609F004FD61
:102FE00000283ED1FFF780F904F11C01A28DFFF704
:102FF0004FFE0546002834D0A1690AF09EF8E16B27
:10300000142391FBF3F203FB12130BB98DF8253057
:10301000AB8831A82387AB88D8F81070ADF828307A
:103020000023009308A9802305F17802B8479DF991
:103030002630002B05DBE16B08A84B1CE36309F08D
:10304000FFFF04F12F0194F82E2008A809F02CFFAF
:1030500008A805F13A01FFF74FF928872846FFF73E
:1030600055FE2468A6E75AB0BDE8F081884E0020DE
:103070002DE9F74F92468A790B46012A71D19AF9C8
:103080000620002A6DDBCA7C52066AD54E6E002EE1
:103090004BD1354A354D1278D1F860C0283232F81C
:1030A00005808F7AD1F85CB0624601F10B0905F119
:1030B00008004146CDF804C0FFF7F6FE2C480AF0A0
:1030C00035FB0446002841D0BBF1130FDDF804C0E6
:1030D000A8BF4FF0130B61465A46043009F06AFA54
:1030E000244BA3441B688BF8046004F11C0EA361FD
:1030F00005F108030FCB8EE80F0049463A46A4F8C5
:103100002C8084F82E7004F12F0009F053FA214628
:10311000268719480AF0D8FA5046E16B4B1CE36346
:1031200003B0BDE8F04F09F08BBF012E19D10E4A54
:103130001249127801F108002832895A03F10B0272
:103140009B7A03B0BDE8F04FFFF782BE50460C49B2
:10315000A32310228AF8063003B0BDE8F04F09F02F
:10316000DDBF03B0BDE8F08F386A0020C86A0020D8
:10317000884400208C490020884E0020C86A002026
:1031800094F02000034BA3221A70034A034B1A60E9
:10319000704700BFC4630020A5F0200068440020F1
:1031A0002DE9F0470546ACB000890C46FFF7FEFD5F
:1031B0000646002853D06A79E2B903A802212B8978
:1031C00009F03DFE294BDFF8B0801B7803A82833B7
:1031D00033F80890264BD6F82CA01F683946FFF725
:1031E0008BF880B2009008F1080150464A463B46F1
:1031F00009F0C9FF274606F11A0306F12A0E3A46DE
:1032000018685968083303C273451746F7D1738DA0
:103210002382F36A63616B79003318BF012323763D
:10322000FFF762F8608305F10B0104F11D00AA7A33
:1032300009F0C0F9AB7A2377D5F88030A362B5F8EE
:103240008630A3856B6F2363B5F87A301BB1802B72
:1032500028BF802300E08023A386C22200E0A022B2
:10326000044B1A702CB0BDE8F08700BF386A00200C
:10327000D46B0020C4630020C86A00202DE9F74FFA
:103280000C9F8B4690461E4600F06EFA0AF0FEF93F
:10329000002481462546B9F1000F7ED04DB13B6830
:1032A0009D4205D3B4423EBF2C2308F804300134BC
:1032B00001353B689D4205D3B4423EBF3C2308F82C
:1032C000043001343A686B1C934205D3B4423EBFCC
:1032D0002F2308F804300134D9F804C002356046C1
:1032E000CDF804C009F052FB3B6800EB050A9A4593
:1032F000DDF804C00FD9711C5B1B08EB0400091B2F
:10330000002BACBF63440CF10003354A0AF051F9BD
:103310000444B44241D23B689A4505D3B4423EBF0F
:103320003E2308F804300134D9F80C300AF10105C5
:1033300053B31B7843B33B2B26D03B689D4205D348
:10334000B4423EBF3B2308F804300134D9F80C30B6
:103350000AF1020A1846019309F018FB3A6800EBDB
:103360000A059542019B0FD9CAEB020A711C08EBB2
:103370000400091BBAF1000FA8BF5344184A0AF011
:1033800018F90444B44204E0B44203D93A682B1B50
:10339000934203D8D9F800907DE74CB14146584696
:1033A000224609F0BBFE5846282109F094FD09E0A9
:1033B00045B18221584609F071FD584609490F224E
:1033C00009F0ACFEB9F1000F03D14FF0FF333B60C1
:1033D00002E03B681E443E6003B0BDE8F08F00BFD2
:1033E0009CF720004FF0200038B50C46054620B968
:1033F0000E480AF07BF8042038BD0D480AF076F834
:10340000AB79413B3E2B04D90A480AF06FF8032000
:1034100038BDEB7C5B0604D407480AF067F802204D
:1034200038BDB4FA84F0400938BD00BFB8F02000C0
:10343000C4F02000D3F02000E7F020002DE9F04197
:1034400004460D4D884621460C4C17461E4628461C
:10345000BDF81830002209F0F2FC21682846FEF77A
:103460004BFF80B206903946404632462368BDE89D
:10347000F04109F088BE00BF904E0020D46B0020C0
:1034800070B505460C480E460AF000F9044684B1B2
:103490000A4829786A7802F001FA237FB34206D1FC
:1034A00004F11D002946324609F052F808B124689B
:1034B000EDE7204670BD00BF8C4E002057F1200084
:1034C0002DE9FF411C46804624480F4616460AF067
:1034D0000DF8A57A22480AF009F80DB9214831E023
:1034E00021480AF003F8294604F10B00FFF7C8FF52
:1034F000054658B91D4809F0F9FF238903200093B8
:1035000041463A463346FFF799FF24E063793BB9D9
:1035100023890220009341463A463346FFF78EFF47
:10352000EB6AC3B120460021FFF75EFF0128064683
:103530000CD1204603A909F077FD039B2A6B934227
:1035400003D10B4809F0D2FF05E02B63EB6A284654
:1035500021463246984704B0BDE8F081D2F1200000
:10356000EDF12000FBF120003FF2200055F2200099
:103570009DF2200070B502880546C02A09D0D02AE5
:1035800021D082B91B4B8521186802F09BFFC02314
:1035900007E085290BD118480AF078F8044644B9A9
:1035A000D0232B8003E000230380032070BD012083
:1035B00070BDE3692BB1A16819B104F10C000AF0E8
:1035C00010F82468EBE78829EAD10B480AF05EF886
:1035D0000446002CE4D0A36853B104F10C06304635
:1035E0000AF01AF820B1E369984730460AF002F869
:1035F0002468EEE734500020344F00202DE9F04FCE
:103600003A4D87B00E46994606A9002341F8043D7D
:10361000EB6890460746DDF840A098470290344892
:103620000AF034F80446DDF814B0002C51D0636879
:103630001846039309F0AAF9029B02468342039BB2
:1036400007D044DD217AC90641D51BF800102F2987
:103650003DD11846594609F0C7F9002837D12B69E2
:1036600038469847C20704D5D4F810C0BCF1000F03
:1036700014D1830704D5D4F814C0BCF1000F0DD1C8
:10368000410704D5D4F818C0BCF1000F06D10207D9
:1036900015D5D4F81CC0BCF1000F10D04B46CDF8A6
:1036A00000A0384631464246E047237A5B0617D5EC
:1036B00020462B6E394632469847012005E06B695B
:1036C0003046D5F88C109847002001240AE0246881
:1036D000ABE76B693046D5F888109847012001E0C8
:1036E00001200446204007B0BDE8F08F80EB2000A9
:1036F000384F002038B50A4B1C7884B9094D012297
:1037000009481A7009F0BFFFAB68084898476B6812
:1037100098472146BDE83840054802F0FBBE38BD59
:10372000CC63002080EB2000384F0020FD352000C6
:10373000B844002010B5044641600948214609F00C
:10374000C3FF94F90830002B09DA216ACB6933B141
:103750008B6823B1BDE81040024809F0B5BF10BD29
:10376000384F0020344F002000487047384F002069
:10377000813801289ABF024B18780020704700BF9B
:10378000CD63002008B501F035FF4020E72101F0AE
:10379000C1FF28B940200449012202F035F808B1E0
:1037A0004FF0FF3008BD00BFCE63002030B5812848
:1037B00085B004460D4606D0012813D0022825D036
:1037C0004FF0FF303DE069B11F4B022000930146EE
:1037D0000246032301F024FFFFF7D4FF10B91B4B6F
:1037E0001D702EE004ACFE2304F8043D01F002FF3E
:1037F00021464020012201F0BDFF04460028DFD110
:1038000043F6982000F096FB20461AE021F0800352
:10381000012BD5D80E4B197801F07E012943C9B28E
:103820001970E6238DF80C308DF80D1001F0E2FED2
:10383000402003A9224601F09DFF003018BF01205F
:10384000404205B030BD00BFA0860100CD6300201E
:10385000CE63002013B5264B1B7813B94FF0FF3011
:1038600043E0E3280CD0E5280AD00128F6D1FFF781
:1038700089FF0028F2D11F4B1878C0F3801034E084
:10388000C4B2E32C01D0E52CE8D101F0B3FE402016
:10389000214601F03FFF0028E0D1402001A902228B
:1038A00001F0B2FF0028D9D19DF804009DF8053041
:1038B000E32C03EB002080B220F0030007D144F298
:1038C000A4435843000CA0F592500D380BE043F28E
:1038D000D403584342F21073000CA0F5167000B2E6
:1038E0009842A8BF184680B280B202B010BD00BF97
:1038F000CD630020CE630020F7B500F0D7FC00F0C8
:10390000D1FD00F027FD00F0D9FA01F015FE09F015
:1039100091FE00F0BFFD00F0C9F8012009F052FC53
:1039200002F06CFD00F0AEFC002000F0BFFB0120B7
:1039300000F0BCFB4949002000F08EFC02F0A0FE24
:1039400009F077FC042009F03DFC454809F0CEFD64
:10395000444809F0CBFD00F053FA002002F0B2FE1B
:1039600001F0DEFC4048002102F0D4FD02F088FBAB
:1039700009F054FC00F026FE00F042FE07F058F873
:103980006846082101F0FCFD9DF807309DF806709F
:10399000364C43EA07276B4603CB2060616034480E
:1039A00001F07CFF0025615D3248013501F076FFB2
:1039B000072D2E4EF7D1304DF179304801F06EFFD2
:1039C000EC6A4AF6CD310220A04739460320A047D1
:1039D0001A210120A047694608226B6B0B209847EB
:1039E000274801F05BFF274B186809F07FFD264848
:1039F00001F054FF254B186809F078FD244801F0C8
:103A00004DFF244B186809F071FD234A3368136099
:103A10007368536007F044F92048002102F07AFDF2
:103A20001F48002102F076FD1E4B01219B6881207A
:103A3000984709F0D5FD1C4809F0C8FD00F028FCA6
:103A4000022009F0BFFB00F029FC02F0EFFC10F0AF
:103A5000FF0FF8D101F008FDF5E700BF3D6620003B
:103A600020F3200030F3200000450020517000209A
:103A700055F3200073F32000A8ED200079F3200017
:103A80007FF3200000EE200086F320000CEE2000E3
:103A90008DF3200034EE2000C06A00209445002001
:103AA00020450020ACEC200070EE200008B500F0AE
:103AB00047F9024B00221A7008BD00BFCF630020F7
:103AC000024A13781843107000F05EB9CF630020EB
:103AD000034A137823EA0000107000F055B900BFC4
:103AE000CF630020024A13785840107000F04CB9A0
:103AF000CF63002008B50B4B1B78184203D0202859
:103B000004D0042804D04FF0004008BD052000E098
:103B10000220054B80211A7800F0EEFC20EAE070CC
:103B200000B208BDD1630020D0630020802810B50A
:103B30000C4603D0B0F5807F25D031E08B1E222BC0
:103B40002ED8C943184B1A680A401A60174A1368DE
:103B50000B401360A20604D500200521012200F0CD
:103B6000AFFC630704D500200221012200F0A8FC6D
:103B700000F0BAFC0E4B30221A700E4B1878044439
:103B80001C70002010BDC8B2102806D001D820B18A
:103B900006E0202801D0302802D1054B187010BD56
:103BA0004FF0004010BD00BF20940D4000940D4028
:103BB000D0630020D163002020B1012805D1044B3F
:103BC00018787047034B186870470020704700BF93
:103BD000D263002020900D4010B5094A00201378D0
:103BE00001331370074B197802F06CFCBDE81040EC
:103BF000054B06481968064A002302F077BA00BF51
:103C0000D263002048700020644F00203C4F002009
:103C1000D93B2000812810B50C462AD0B0F5807F12
:103C200039D0802839D102F0E1FB1D4B1D4A1870B4
:103C30001368002023F00803136052F8203C03218E
:103C400023F0080342F8203C52F81C3C23F0080300
:103C500042F81C3C52F8183C43F0080342F8183C68
:103C6000042200F02DFC10480021032200F0CAFBC2
:103C700013E00E4B1A6831B142F008021A600020BE
:103C800000F032FB05E022F008021A60084600F05E
:103C900037FB204610BD064B1960012010BD00BF48
:103CA0004870002020940D40B53C200010940D4039
:103CB000644F002008B50F4809F0D7FCC0B10821B7
:103CC0000C4809F0C0FC0C4B196861B10B4B002289
:103CD0001A700B4B0B481B681BB90B4A02F006FA13
:103CE00001E002F045FABDE80840084802F090BD46
:103CF00008BD00BF5C4F0020644F0020D26300204D
:103D000020900D403C4F0020D93B2000ACEC20001F
:103D1000084A136823F00403136052F8203C43F070
:103D2000040342F8203C044B00221A60034B01229A
:103D30001A70704720C40D4010C00D40D36300209E
:103D40000D4A0E49136823F0C003136052F8203C5B
:103D500043F0C00342F8203C094B00221A600B6874
:103D600023F010030B6051F8203C43F0100341F89E
:103D7000203C044B1A60704720A40D4020C40D4025
:103D800000A30D4040C00D4000F0020202F0FF0110
:103D90000B4B12B1FF221A6000E0196000F0040220
:103DA00002F0FF01074B12B1FF221A6000E0196018
:103DB00010F00100044B1ABFFF221A601860704710
:103DC00000A20D4000A10D4040C00D40044B1868FA
:103DD000C0F30720030904BF1030C0B2704700BF12
:103DE0001C300D40054B1868C0F3C21001289ABF63
:103DF000C0F1020040034FF40040704714300D4002
:103E00002DE9F04788B0FFF7E1FF174B48251C6804
:103E1000AB68074698476B68804698470646FFF7A9
:103E2000E1FF054600F0D6FA824600F0DFFA81464F
:103E300000F086FAB60AC4F34003AD0A04F00104A8
:103E400002930690009601950394CDF810A0CDF84A
:103E500014904146C7F3071207F00F03034801F01F
:103E60001DFD08B0BDE8F0871C300D40B0F3200008
:103E7000F8B500F083F80F4B0024D3E900673A4609
:103E8000B04238BF7A1C15460443C3E90045DFF849
:103E900028E0DEE90001821B61EB070312196B4188
:103EA000CEE9002302F00CFA18B1BDE8F84002F0A8
:103EB00097B9F8BD30480020384800200F4B104A11
:103EC0001A6053F8042C42F0050243F8042C53F80E
:103ED000042C42F0020243F8042C0A4A136843F00F
:103EE00001031360084B00221A60042243F80C2CD3
:103EF000012243F8082C0F22DA62704714E000E038
:103F000047E8010008200D400C000340034BD3E9B3
:103F10000023100A40EA0360704700BF30480020C9
:103F2000034BD3E90023D00B40EA4340704700BF66
:103F300038480020054B18601C3B1A6842F001020B
:103F40001A601A68D207FCD4704700BF28000340EB
:103F500010B5064C236823F001032360FFF788FFA8
:103F6000236843F00103236010BD00BF10E000E0B0
:103F7000014B1868704700BF684F0020074B084A84
:103F8000196804331B681268120442EA0323054AC5
:103F90000B43106843EA0060704700BF40500D407B
:103FA00048500D404C500D4010B50446114B1B6855
:103FB000DB07FBD509F041F9FFF7E0FF231A062BD9
:103FC000D8BFC41D0C4B220E1A60C4F3074243F83D
:103FD000042CC4F3072243F8082CE2B243F80C2C5B
:103FE00009F027F9054B91201C60BDE8104000F056
:103FF0007BB900BF50500D404C500D40684F002021
:1040000008B501F017FA064B002291201A6000F063
:1040100083F9912000F074F9BDE8084002F09EBADF
:10402000684F0020064B1B681B075FBF054B1868D5
:1040300080F00800C0F3C00048BF0020704700BFF8
:1040400018C0004018D00040164A38B52C2303FB96
:1040500000234FF6BF72DC680546236C62649BB296
:1040600013F050020DD0A369DB0609D40E4B53F8B0
:1040700025301BB12068C0B29847F4E72368F2E707
:1040800038BD13F4D06F0BD04FF440732363FF237C
:104090006360E36AE262E362236B43F0010323633C
:1040A00038BD00BFBCEC20006C4F00202DE9F04F64
:1040B000012885B0064600F2BF802C244443604BA3
:1040C0001D1995F920A005F12007BAF1000F9946B6
:1040D000C0F2B28095F92230002BC0F2AD80594871
:1040E00001F01AFA584A59F804301168EC680B4389
:1040F000136051686B6895F921B00B435360916868
:10410000AB6895F822800B4393600023C4F8C83F46
:104110002B690BEBCA021A6095F823305FFA88FC12
:1041200001939DF80430604619462A7DCDF80CC0F5
:10413000029300F0CFF9029BDDF80CC019466046EF
:10414000082200F0BDF94FFA88F840494FEA0838D4
:104150009DF9042058F80100012303FA02F20243FA
:1041600048F801204FEA0A3A5AF8010003FA0BF224
:1041700002434AF801205022A263A26B95F8240062
:1041800042F4D062A263022262634FF4407222635F
:10419000AA696262EA69A2627022E26242B2002AFD
:1041A0000C4614DB95F92510294D41EAC20129601E
:1041B0007979120315594FB2BB402B43135100229A
:1041C00000F07EF9234A136843F4004313602C2364
:1041D00003FB069393F8265020336FB2002F1CDBAD
:1041E00093F807A0EDB25FFA8AF82846414601220B
:1041F0003F0300F06FF94FFA8AFA3A59012303FAA4
:104200000AF313433B5108222846414600F058F96F
:10421000104A136843F4804313602C2303FB069673
:10422000F26896F82800136B43F00103136305B09E
:10423000BDE8F04F00F058B805B0BDE8F08F00BF02
:10424000BCEC20002540200028200D4020940D408B
:1042500004410D4030D0004001289CBF014B43F881
:10426000201070476C4F0020012808D8044B2C22E6
:1042700002FB0030C3689A699206FCD4196070474B
:10428000BCEC2000014B00221A60704700500D402A
:10429000014B08221A60704700500D40024BA022CB
:1042A0001A6050221A60704700500D40074A084BB0
:1042B0001A60084B80321A60074B80321A60074B35
:1042C00080321A60064B074A1A60704700E100E02E
:1042D000804F0020744F0020784F00207C4F00203A
:1042E00008ED00E000202000044B41091A6800F0AE
:1042F0001F000123834042F821307047804F002087
:10430000044B41091A6800F01F000123834042F862
:1043100021307047744F0020044B41091A6800F0A7
:104320001F000123834042F8213070477C4F00205A
:10433000024B1868C0F38150704700BF04200D4045
:1043400008B5FFF7F5FF024B53F8200008BD00BF8A
:1043500014ED200038B5164D164C2B68032023F0C1
:1043600040032B602368062123F0400323600122D1
:1043700000F0A6F82B68012223F080032B6023684D
:10438000032023F080032360072100F099F80A4AF4
:104390000A4B1A600A4B0B4A19680A40002AF9D1E5
:1043A0001A685101FCD41A685201FCD538BD00BF0F
:1043B00020C40D4000C40D400101020000200D404A
:1043C00004200D4000000101014B08221A607047D3
:1043D00074200D40034B04481B6803F00703184189
:1043E000704700BF04200D400048E801034B04481B
:1043F0001B68C3F302231841704700BF04200D401F
:104400000048E801024B02EBC10243F8220070476A
:10441000844F0020F8B507460E46094D002405EBF1
:10442000411547FA04F3DB07E1B204D555F824300F
:104430000BB1304698470134082CF2D1F8BD00BFCB
:10444000844F00202DE9F04780464FEA0837DFF817
:10445000409007F1804505F5592500F0EBFFD5F8B0
:10446000186457F809404FEAC80A24FA0AF446EAE1
:104470000400E4B2C0B24146F6B204FA0AF4FFF70F
:10448000C9FFC5F81C6447F80940BDE8F08700BFC4
:1044900018970D4002480021802208F065B900BF3E
:1044A000844F0020034A044B1A60044B803A1A6080
:1044B000704700BF80400D4008500020045000208D
:1044C000034B01EBC0011B6843F82120704700BF7C
:1044D00008500020034B01EBC0011B6843F821206A
:1044E000704700BF04500020024A136843F03003B5
:1044F0001360704700700D400E2870B50BD1164B3D
:10450000164E1C6844F002051D60356825F03F0317
:1045100043F001033360124E336823F0FF031A4364
:104520001143014331600F4B1B681B06FBD50E4B3B
:104530000E4A1B6812680E2803F0FC0343EA0223AC
:1045400008BF064A9BB204BF1560034A9BB208BF6E
:10455000146018B270BD00BF34000144F4860840F6
:1045600008700D4000700D400C700D4010700D4033
:10457000024B1868B0FA80F04009704700B7084055
:1045800010B58F20064CFFF7C7FE8F20FFF7B8FE4F
:10459000206818B101F0D6FF0023236010BD00BFD2
:1045A0000C500020064A136843F00203136053685E
:1045B00043F002035360936843F002039360704733
:1045C00048200D4007B50C4800F0A6FFFFF7EAFFB2
:1045D0000A4B1A6842F002021A6000220192019A04
:1045E0000F2A02DC019A0132F8E71A6822F002026F
:1045F0001A6003B05DF804FB7145200054200D40A3
:10460000064A136823F002031360536823F0020381
:104610005360936823F002039360704748200D4075
:10462000014B1860704700BF0C5000202DE9F04787
:104630003E4EA0B034688246884615461F46002C80
:1046400070D1022916D1AC4216DA1822482302FB97
:1046500004A14FEA8409DB690DEB4410984709F186
:10466000030920AB03EBC9090022002349E92023F9
:104670000134E8E7012904D06D00B8F1020FEDB272
:1046800005D04823DB69684651462A019847284AE5
:104690000123032113602748516008323360116001
:1046A000016801F0030444451EBF21F0030148EAFC
:1046B0000101016003FA05F01F4C01381F49B840A1
:1046C0000860A4F58064C4F8000423601C4BC3F8A0
:1046D00000D0E3681B0C1B0443EA0515E560194B89
:1046E0001C68E407FBD51C68002C06DA4FF0004379
:1046F000136000233360042015E01B6813F080432F
:1047000006D04FF0804313600023336006200AE098
:104710000324146033600B680340834214BF0620F7
:10472000002000E0032020B0BDE8F08700B708407B
:1047300080B7084008B4084000B4084004B40840FA
:1047400004B0084090B708402DE9F047434C894633
:1047500021689C46DDF82880BDF82030BDF82C503B
:10476000DDF830E0002975D13D4901260E603D4E4F
:104770000327B2460221376021603B490F603B4F5F
:10478000C7F80090D7F80090B9F1000FFADB384F66
:10479000D7F8009019F0005FB94607D04FF00053EA
:1047A0000B60002323600520BDE8F0874AB116683E
:1047B000304F3E6056687E609668BE60D7682E4A6D
:1047C00017602E4A002710F4E02F106055609760A4
:1047D00002F108021BD053600432C3B1A2F25C5252
:1047E00001201060C2F804C0D360D9F800309B07E4
:1047F000FBD51F4B1B68002B07DA4FF000430B6003
:10480000002323600420BDE8F08702230B6001230E
:10481000CAF80030BEF1000F08D07046FFF700FF65
:104820008F20FFF779FD8F20FFF75EFD7DB1144AE1
:104830000123136009990C3242F8081C1560B8F185
:10484000000F04D053610F4BC3F800809D6000201F
:10485000BDE8F0870320BDE8F08700BF00B708403F
:1048600080B7084084B7084088B708400CB40840B7
:1048700090B7084040B508404CB5084050B50840D6
:1048800000B0084024B00840034B1A68034B1A429A
:1048900014BF01200020704790B70840010000E0DD
:1048A000F8B5204B204F1E684FF060433B60054633
:1048B0008F200C46FFF724FD0020FFF7B1FE0022F9
:1048C0001A4B96421A6027DB710027D4B20027D416
:1048D00005B9ECB1164B1B685B00FBD55DB1154B00
:1048E0001B682B60144B1B686B60144B1B68AB6020
:1048F000134B1B68EB605CB1124B1B682360124BBF
:104900001B686360114B1B68A360114B1B68E3605D
:1049100003233B600020F8BD0420F8BD0620F8BD4D
:104920000520F8BD90B7084088B7084000B7084098
:1049300050B5084040B5084044B5084048B5084067
:104940004CB5084070B5084074B5084078B50840CB
:104950007CB5084010B5044B1C68C4F340040CB986
:10496000FFF720FE204610BD48200D40014B1B687C
:10497000184700BF24ED20002DE9F04F1646284AC5
:1049800089B014688346C4F340040F469DF84880FC
:10499000DDF84CA09DF85050DDF854901CB90793F9
:1049A000FFF700FE079B1FFA88F0B9F1000F1AD03D
:1049B00000218DE88100029603970495059102205D
:1049C0005A4608F0DCFC28B13CBB09B0BDE8F04F0A
:1049D000FFF716BEFFF758FF0028FBD050462946C8
:1049E00008F0EAFCF0E72E448DE881000296039778
:1049F0000495CDF81490022049465A4608F0E2FC8E
:104A00000028E1D1FFF740FF0028FBD038463146AF
:104A100052462B4608F090FCD6E709B0BDE8F08F6F
:104A200048200D40084B93F90020002A09DB074A73
:104A3000ED2111601160E32111601A7862F07F02AC
:104A40001A700120704700BFD763002038880840E3
:104A50000B4B1A689207FBD41B685B065FBF094BC0
:104A6000ED221A601A60084B1B6813B1054BEF2248
:104A70001A60064A0120137803F07F031370704711
:104A80004C860840388808402C860840D7630020B0
:104A900038B5A0F10B04E3B20F2B054613D80B4B2E
:104AA0001B6813F03F0302D0FFF7D2FF012304EB92
:104AB0008404074A0B3414600BB1FFF7B3FF054BB6
:104AC000E8B21D7000E0FF2040B238BD48860840C3
:104AD0003C8608401748002010B50B4B1B68990610
:104AE00003D1FFF79FFF012300E00023074A12686C
:104AF000D207FBD5064A1468C4F300140BB1FFF7C4
:104B0000A7FF204610BD00BF4886084064860840C5
:104B10004C860840044B186800F02200A0F12003E6
:104B200058425841704700BF4C860840024B1868F5
:104B300000F04000704700BF4C86084038B50C4676
:104B4000002900F08880102800F28780DFE800F05C
:104B5000090F1A1C23394253586F738585787A7C64
:104B60007F003F4B1B68003318BF012370E03D4BB3
:104B700005221B6803F07F030B3B93FBF2F30B331F
:104B8000DBB265E0384B00E0384B1A68043B1B6829
:104B900043EA02235CE000230B60354B354A1B6877
:104BA00003F001030B601268900644BF43F0020358
:104BB0000B60314B1B78002B4BD00B6843F0040388
:104BC00046E02E4B00201B780860002B41D00123CB
:104BD0000B6038BD2A4B1A680023D2B2294901EB79
:104BE000C3000079904202D851F8333030E00133ED
:104BF0000E2BF3D128E0244B1B685BB2493B27E026
:104C0000224B1B68990603D1FFF70CFF012300E03C
:104C100000231F4A1268D207FBD51E4A1568493D7A
:104C2000EDB20BB1FFF714FF6DB2256011E01A4B26
:104C300093F900300CE0194B1B7803F07F0307E079
:104C40000B2305E01A2303E06FF0170300E00723AE
:104C50002360002038BD022038BD012038BD00BFD0
:104C60002C8608403C860840CC850840D485084006
:104C70000086084024860840D6630020164800209D
:104C80004086084038ED2000588608404886084095
:104C90006486084060860840D5630020D463002005
:104CA00038B505460C46134B1B689B07FBD4124BCB
:104CB00093F90030002B01DBFFF7B4FE0F4BEE221F
:104CC0001A60691E1A60A21C43F8102C21440220AD
:104CD00000F03EFB013C0A4924012143022000F080
:104CE00049FB022000F050FB022000F065FB002091
:104CF00038BD00BF4C860840D76300203888084084
:104D000002C001C0F8B5214B93F90030002B0DDB38
:104D1000FFF734F90446FFF785FEFFF72FF96FF030
:104D200009031B1BC342F8D4012600E00026184BE0
:104D30001B7823B9174D2B68990604D405E0FFF7BB
:104D4000CBFE0028F6D10220F8BD134CE9232360E6
:104D500004272B689A0707D4013F17F0FF0703D0F9
:104D60000620FFF7E7F8F4E72B689B0704D4EE234F
:104D700023602360012403E02C6814F00204FBD1BB
:104D80000EB1FFF765FE2046F8BD00BFD7630020D7
:104D9000164800204C86084038880840044B1A68A2
:104DA00010B142F0010201E022F001021A607047E6
:104DB000008608400B280DD1082A0DD161B1074BA0
:104DC000083111F8012D43F8042F054A9342F8D118
:104DD000002070470120704702207047A4850840DA
:104DE000C485084070B5304E336813F0400308D0D6
:104DF0002E4D2B68DCB21B0605D52D4BED221A601B
:104E00001A60002070BD042CF7D9023C8C42F4DCFF
:104E1000E4B2032C21D001190139032000F0A0FADB
:104E2000631E24491B010320194300F0A3FA032049
:104E300000F0AAFA032000F0BFFA032000F0C8FA3D
:104E40000028FAD129681C4B4939C9B219702B685E
:104E50001A4D18062B70D0D506E02B6803702B680E
:104E600043702B688370EDE749B289B2042005F0E6
:104E7000EDFE2978032001F07F0105F0E7FE104BDD
:104E80001B7873B933685A060BD5074B1B681B0692
:104E900003D50C4801F056FB03E0054BED221A60E8
:104EA0001A60204670BD00BF4C8608402888084024
:104EB0003888084002C0010CD5630020D46300206C
:104EC000D6630020D84400201E4B1870002831D033
:104ED0001D4B1B681B03FBD51C4B1A6842F00202DA
:104EE0001A601A6842F001021A601A6817495007DE
:104EF000FBD50A6822F001020A601968134A4907C3
:104F0000FBD4116841F002011160116841F0010108
:104F100011601A685207FCD50D4A8D20136823F0E2
:104F200004031360D2F8A83123F00403C2F8A831B7
:104F3000FFF7E6B9064A8D20136843F004031360B7
:104F4000FFF7D2B9D663002004200D400488084042
:104F50008C86084010B50C4607285CD8DFE800F0C6
:104F6000040F1B1F263C4256012903D1FFF75AFDAF
:104F7000002010BD002950D1FFF76AFDF8E7A1F12C
:104F80000B030F2B49D8C8B2FFF782FD431C0CBF9F
:104F90000320002010BD8CB2E2B2214B02E08CB2A3
:104FA000204BE2B2240A1A605C60E1E731F00703AB
:104FB00033D101F00100FFF7F1FE1B4B14F0020F9B
:104FC0001A68C4F3800014BF42F0200222F02002CD
:104FD0001A60FFF779FFCBE731F001001DD1134BC9
:104FE000197010BD01F118031F2B16D80D2310499D
:104FF000DA0051F83300844204DC8B181A790D4B27
:105000001A60B5E713F1FF33F1D2B1E7CCB20A4B26
:1050100049341C60ACE7012010BD022010BD00BF68
:10502000C8850840D08508402486084016480020DE
:1050300038ED20004086084058860840F8B5294FD2
:105040003D7815F001054AD1274B01241C605C60B6
:105050009C60A3F59323A3F51473F8221A60092228
:10506000C3F89021152270331A6003F59B230B229D
:1050700003F59E731A60A3F59B23A3F5F0734022FA
:105080001A601A687F2642F020021A60D52243F87F
:105090001C5CDE62DA61154B1878FFF7F9FC144BE3
:1050A0008E201E60FFF720F9022000F079F91149E7
:1050B000022000F055F9032000F072F90D49032099
:1050C00000F046F90C4B1878FFF7FEFE0B48294616
:1050D00001F020FA3B78204623433B70F8BD0020C6
:1050E000F8BD00BFD7630020A8200D40174800205E
:1050F0009486084028880840D6630020D8440020C1
:1051000038B503880446CBB140F20342934203D042
:1051100000230380032038BD194B18781A4628B1A4
:105120001B7873B1174B1B7858060AD5822908D112
:10513000137843B1134B1A78520614D440F2034348
:105140002380012038BD05F02BFD05F0BFFC802138
:10515000FFF748FE0028EDDD80B205F09BFC0A4B0E
:105160001B699847E6E700221A70084B1D68FFF795
:105170006FFCFFF763FFAB06E0D0FFF753FCDDE702
:10518000D6630020D763002034EE20004886084014
:105190000B282DE9F84F8A4611D1082A40F0828069
:1051A00000297FD0414B01F1FF3A53F8042D0AF852
:1051B000012F3F4A9342F8D10020BDE8F88F0C2818
:1051C0006DD1042A6ED100296CD03A493A480B6857
:1051D000DFF8EC9023F007030B600368DFF8E4B01E
:1051E00043F008030360DBF80040D9F800200B68A7
:1051F000DFF8D4C0DFF8D48023F070030B60D8F858
:105200000050DCF80030E4B2120244EA036392B2C8
:10521000DFF8BCE01A43EBB242EA03430024DEF8B5
:10522000002044EA03060B68D5B223F0070343F0DD
:1052300001030B6003682F4643F008030360DBF8AB
:105240000000D9F800200B68120223F0700343F02D
:1052500010030B60D8F80050DCF80030C1B241EA0E
:10526000036392B21A43EBB242EA0343DEF8002032
:1052700044EA03085FFA82F9FEF780FEB6EB0806FF
:1052800067EB0907F903054641EA5641F0030B4A6B
:10529000002306F037FE281ACAF800008CE7012028
:1052A000BDE8F88F0220BDE8F88F00BFC885084030
:1052B000A885084010880840048808400048E80194
:1052C000188808401488084020880840248808402E
:1052D0001C88084008B5054B1B7813B9044801F039
:1052E00031F9044B00221A6008BD00BFD6630020CC
:1052F000D844002034880840064B07481A68042A1E
:105300001FBF06490A7842F040020A7000221A6064
:1053100001F018B92C880840D8440020D763002039
:1053200010B5094C00212046402207F01DFA074B1A
:1053300001221A602E205C60FEF7D6FFBDE8104007
:105340002F20FEF7D1BF00BF0040002004F00F4027
:1053500003289EBF014B00011950704700400020F8
:1053600003289EBF024B03EB00104160704700BF53
:105370000040002003289EBF024B03EB0010816019
:10538000704700BF0040002003289FBF034901234E
:105390000A6883409CBF13430B60704728F00F409E
:1053A00003289FBF034901230A6883409CBF13431E
:1053B0000B60704720F00F4003289FBF0349012373
:1053C0000A6883409CBF13430B60704714F00F4082
:1053D00003289FBF044B03EB0010806800F0070018
:1053E00088BF0020704700BF00400020024B4FF0F4
:1053F000FF321A60704700BF04F50F40014B0122D5
:105400001A6070474CF00F40094B1A6812F4801F65
:105410001A46F9D1043B196821F4803119601168EA
:10542000C903FCD41A6842F400321A60704700BF06
:1054300004200D4010B50A4B1A681C4612F0030FE9
:105440000CD0084B1A685101FBD41A685201FCD5E4
:10545000FEF77EFDFFF7D8FF0023236010BD00BFDD
:1054600058200D4004200D4038B5254B1C6814F021
:105470003F0413D1234B53F8243023B1984768B12C
:105480000134052CF6D1204D2B783BB1FEF770FD91
:105490000446FEF773FD201A092801D830BF38BD35
:1054A000002CFBD0194B1A6822F400321A60184AFB
:1054B0001168C902FBD4196841F48031196013687E
:1054C000DB03FCD5FEF75AFD201A092803D8BDE8F6
:1054D0003840FFF799BF63280E4C02D92B78022B76
:1054E00000D00123236000F0E3FF20B1FFF78CFF21
:1054F0000023236038BDFEF73BFD0028CED1F5E741
:105500004886084010500020D863002000200D403D
:1055100004200D4058200D400023064A52F8231065
:10552000814206D011B942F8230070470133052BA0
:10553000F3D1704710500020054B00221A60054A35
:10554000136843F004031360034B02221A70704780
:1055500058200D4010ED00E0D863002010B59020D9
:10556000064CFEF7D9FE9020FEF7CAFE206818B15F
:1055700000F0E8FF0023236010BD00BF245000208E
:1055800030B5184B1A78431E3AB9174A1278122AC6
:1055900003D1164A12784B2A03D001F52011273186
:1055A00017E04A0802F12814B4F1281F04D014F8B7
:1055B000015D03F8015FF7E701F5201127310023B2
:1055C000934205DA11F801598418E5540133F7E7DD
:1055D00030BD074A914204D011F8012903F8012F88
:1055E000F7E730BD2B0028002A00280029002800FA
:1055F00027002800024A136843F010031360704725
:105600002000024014235843034B044A0344B3FBD5
:10561000F0F3013B13607047FF23F4000C000240DD
:105620002DE9F84307460E4615461C462A4ADFF880
:10563000B4901368DDF8208043F001031360D9F8BB
:105640000030322043F00103C9F80030FEF772FC4D
:10565000D9F80030214A23F00103C9F8003038039B
:105660008158012303FA06FE21EA0E018150290325
:1056700051F802C0A3402CEA030C41F802C02032CA
:1056800050F802C04CEA0E0E40F802E0885803437E
:105690008B50384631460022FEF712FF284621463D
:1056A0000022FEF70DFF0E4B46EAC7021A6044EADD
:1056B000C5025A60384631460B22FEF70BFF2846DA
:1056C00021460C22FEF706FFFFF794FF4046BDE897
:1056D000F843FFF797BF00BF38200D4000940D40FE
:1056E0002C410D4044200D40024B18600120FEF774
:1056F00021BC00BF04000240054B1868C0B2C307BC
:1057000004D410F0120F08BF00207047002070472B
:105710000400024008B5074B40001860996007205C
:10572000FFF7E2FF044B1B68DB07FBD4BDE8084032
:10573000FFF7E2BF000002400400024040000A4BB5
:1057400040F0010010B5186007200C46FFF7CCFFB1
:10575000064B1B68DB07FBD4FFF7CEFF10B9044BE9
:105760001B68237010BD00BF00000240040002400F
:10577000080002402DE9F0410F461446002A39D0B6
:10578000002937D0012A04D1BDE8F0410978FFF79C
:10579000C1BF1A4A430013600B78194D03202B60D8
:1057A000FFF7A2FFA846174E3368D907FBD4FFF7CF
:1057B000A3FF18B1BDE8F041FFF79EBF0125631EAE
:1057C000AB420BDD7B5D0120C8F80030FFF78CFF9A
:1057D0003368DA07FCD40135EDB2F0E73C4414F845
:1057E000013C0520C8F80030FFF77EFF3368DB0777
:1057F000FCD4DFE78020BDE8F08100BF000002405C
:1058000008000240040002402DE9F0410F46144612
:10581000002A3AD0002938D0012A03D1BDE8F0414E
:10582000FFF78CBF43001A4A43F0010313600B20BB
:10583000FFF75AFF174B1A68984612F0010FF9D17B
:10584000FFF75AFFE8B9144E012533683B70631E19
:10585000AB420BDD0920FFF747FFD8F80030DA072D
:10586000FBD433687B550135EDB2F0E70520FFF737
:105870003BFFD8F80030DB07FBD433683C4404F826
:10588000013CBDE8F041FFF737BF8020BDE8F08163
:105890000000024004000240080002400FB407B5B7
:1058A00004AA52F8041B0448019200F035F803B032
:1058B0005DF804EB04B07047E84400201FB5084CC5
:1058C0008DE80300114602A81A460294CDF80CD0C8
:1058D00000F022F8009B00221A7004B010BD00BF37
:1058E0008BD5200070B505460C46102C07D92B68C7
:1058F000686808491022984750B9103CF5E734B160
:105900002B6868682246BDE8704002491847204667
:1059100070BD00BFE0F420002DE9F04F80468FB04D
:10592000069107920026069B1B78002B00F05F83F0
:10593000069B1C4613F8012B1AB9069B9C4203D107
:105940000FE0252AF5D1F8E7069BD8F80400E51A00
:105950000699D8F800302A469847002840F02A8354
:105960002E442378002B00F042836378611C002BC7
:1059700000F03D8300240A4611F8013B2B2B11D087
:1059800006D8202B11D0232B12D144F00804F2E7C3
:105990002D2B04D0302B0BD144F01004EBE744F056
:1059A0000104E8E744F00604E5E744F00204E2E716
:1059B000A3F1310108290DD8134600251A4613F822
:1059C000011BA1F13000092811D80A2202FB05159C
:1059D000303DF3E72A2B09D1079B01321D68191DC1
:1059E000002D0791B8BF44F0010400E000251378B2
:1059F0002E2B1CD15178531CA1F1300009280ED850
:105A0000194600270A780B46A2F13000092801F157
:105A100001010FD80A2303FB0727303FF2E72A29A9
:105A200006D1931C079A111D0791176802E01346CF
:105A30004FF0FF371A786C2A09D15A786C2A02D1B4
:105A400044F080040AE0013344F060040BE0682A6B
:105A500009D15A78682A03D144F02004023302E0C5
:105A6000013344F040041A78642A3CD01FD8462AF7
:105A700048D00DD8252A5AD003D8002A00F0B78282
:105A800057E0412A4AD0452A53D144F4424450E0D9
:105A9000582A31D004D8472A4BD144F4A13448E0E5
:105AA000612A38D0632A44D144F4A06441E06E2ACC
:105AB0003AD007D8662A22D027D3672A28D0692A65
:105AC00011D036E0732A2CD006D86F2A11D0702A54
:105AD0002FD144F440742CE0752A07D0782A28D1BD
:105AE00044F4C85425E044F4245422E044F41064FF
:105AF0001FE044F488541CE044F4B24419E044F438
:105B0000007416E044F4844413E044F4024410E0CA
:105B100044F481340DE044F4C1340AE044F4E13447
:105B200007E044F4806404E044F4E06401E044F4F9
:105B3000C0640133069304F4E063B3F5806F00F0B2
:105B4000AA8116D8B3F5807F2BD0B3F5407F7FF4C0
:105B5000EAAE079BA04914F4804F03F104029F486A
:105B600018BF08460DF1330107920F461A6800234B
:105B7000C5E1B3F5C06F08D0B3F5E06F00F0318236
:105B8000B3F5A06F7FF4CFAE00E2D8F80030D8F8BC
:105B90000400934901229847002840F00B82013607
:105BA000C1E6002FACBF24F01004012714F4005309
:105BB000039304F0E00337D0402B17D008D8DBB1B3
:105BC000202B2AD1079B1A1D079293F9002017E07A
:105BD000602B11D0802B20D1079B073323F00703C4
:105BE00003F108020792D3E900230AE0079B1A1D7C
:105BF0000792B3F9002003E0079B1A1D07921A6869
:105C0000D317002A73F1000109DA524263EB430310
:105C1000CDE900234FF0010933E000220023CDE954
:105C200000234FF000092CE0402B16D007D8CBB151
:105C3000202B20D1079B1A1D07921A78EEE7602BC4
:105C400010D0802B17D1079B073323F0070303F1F4
:105C500008020792D3E90023E1E7079B1A1D079288
:105C60001A88DBE7079B00211A1D07921B6818465C
:105C7000CDE90001D5E700220023CDE900234FF054
:105C8000000904F4C053B3F5805F0CD0B3F5C05FD6
:105C900033D0B3F5006F4FD1DDE900230DF1360AA3
:105CA000CDE9042304E0DDE900230DF1360A15E017
:105CB000DDE9042313433AD0DDE904010A2200237D
:105CC00006F020F9DDE9040130320AF8012D002345
:105CD0000A2206F017F9CDE90401E9E752EA0301C7
:105CE00025D002F0070130310AF8011DD10841EA40
:105CF0004371D8080A460346F0E7384B14F4804F46
:105D00000DF1360A344908BF1946DDE9002352EA8D
:105D100003000CD002F00F00085C4FEA131E0AF8D3
:105D2000010D100940EA037002467346EFE70DF1DA
:105D3000360BCAEB0B0B03E00DF1360A4FF0000BEC
:105D400041F6080241F208035F4502EA04028CBFF3
:105D5000CBEB070700279A4202D1002F08BF01278B
:105D600041F608018A4207EB0B030DD1DDE9000182
:105D700050EA010208D01B4914F4804F1A4A4FF030
:105D8000020C18BF0A4602E04FF0000C624603996D
:105D9000A1B1B9F1000F0AD104F0060102290AD01D
:105DA0000629124904BF4FF0010C0A4606E04FF0E5
:105DB000010C0F4A02E00F4A4FF0010C63449D4270
:105DC0008CBFED1A002514F0010922D1E30613D58A
:105DD0002F444D461DE000BFABF42000BCF4200072
:105DE000DEF42000D0F42000CDF42000D5F4200013
:105DF000D3F4200085F6200040462946CDF80CC09B
:105E00000092FFF76FFD009ADDF80CC0002840F00B
:105E1000D180BCF1000F0DD01146D8F80030624699
:105E2000D8F80400CDF800C09847DDF800C000287D
:105E300040F0C0803C465E44102CD8F800300DD9AC
:105E4000D8F804006C491022CDF800C0984700280B
:105E500040F0B080103CDDF800C0EDE75CB1D8F850
:105E6000040065492246CDF800C09847DDF800C01F
:105E7000002840F09F80D8F80030D8F80400514640
:105E80005A4666449847002840F094803E44B9F151
:105E9000000F79D073E0079BD3F800A01A1D07927A
:105EA000BAF1000F09D05346994699F80020013302
:105EB000002AF9D1CAEB090903E0DFF840A14FF04D
:105EC0000609002F02DBB94528BFB9464D458CBFF6
:105ED000C9EB0505002514F0010405D1404629460B
:105EE000FFF700FD002865D1D8F80030D8F804008D
:105EF00051464A46984700285CD14E443EE052EA5B
:105F0000030E0ED002F00F0E10F80EE04FEA131C35
:105F100001F801ED4FEA121E4EEA037E7246634617
:105F2000EDE70B467F1A01BF3022012701F1FF3355
:105F300001F8012C03377822BD4203F8012C4FF001
:105F4000300203F8022C88BFED1B4FF0230298BFEC
:105F5000002514F00104A3F1030903F8032C04D174
:105F600040462946FFF7BEFC20BBD8F80030D8F8E1
:105F7000040049463A469847E0B93E4424B14046B9
:105F80002946FFF7AFFCA8B92E44CCE4079B012DAE
:105F900003F104021B688CBF05F1FF35002514F0E6
:105FA000010407928DF8203008D140462946FFF7BA
:105FB00099FC10B14FF0FF301AE02E44D8F80030B1
:105FC000D8F8040008A9012298470028F2D16F1CD4
:105FD0002CB140462946FFF785FC0028EAD13E4413
:105FE000A1E4079B1A1D1B6807921E609BE43046C4
:105FF0000FB0BDE8F08F00BF9BF42000D7F4200065
:10600000F8B50388064615462BB14A2B15D0002358
:1060100003800320F8BD174807F038FB04462CB175
:10602000201DA16807F0DDFA2468F8E7124B012271
:106030001A704A2333800120F8BD8829FBD10D480E
:1060400007F024FB0446002CF3D0231D9D420ED103
:106050000848214607F024FB084B62691F681A6054
:10606000A2691D460AB1E06990472F60E1E7246804
:10607000E9E700BF28500020D963002034500020F9
:1060800010B5064B002406481C7007F0FCFA2146A8
:10609000BDE81040034800F03DBA00BFD9630020BE
:1060A00028500020F044002070B50446E3610B4BFB
:1060B000049D1B786561A26143B1094D094B2E68AF
:1060C000201D2B6007F08DFA2E6000E0A1602146B4
:1060D000BDE87040044807F0F7BA00BFD96300205C
:1060E00034500020F04400202850002013B5034C09
:1060F00024680094FFF7D8FF02B010BD3450002090
:1061000070B5094B05461B783BB1084C084B266817
:106110000430236007F06EFA26602946BDE870401F
:10612000044807F0D1BA00BFD963002034500020E2
:10613000F04400202850002070B5094B05461B781C
:106140003BB1084C084B26680430236007F05BFA2B
:1061500026602946BDE87040044807F0B5BA00BF84
:10616000D963002034500020F04400202850002043
:1061700010B5084B04461B781BB1043000F0A8F89A
:1061800001E0C36003612146BDE81040024807F00A
:1061900087BA00BFD96300202850002010B50E4CEC
:1061A000236813B90D4A136010BDFDF7AFFE2168D7
:1061B00091E80C001A44131A8A6842B192E812005E
:1061C0002144091A8B4228BF0B469268F5E7184410
:1061D000024B186010BD00BF2C5000203050002032
:1061E000014800F0AFB900BF00450020F8B50388B2
:1061F00005462BB1592B09D0002303800320F8BD9D
:106200001E4A136059232B800120F8BD872920D016
:106210008229F7D1194F00263C68002CF2D0204685
:1062200007F023FA90B1E0688821224600F04AF98D
:1062300050B9E060A3680EB1B36000E03B6000239A
:10624000A360FFF7ABFFE5E7FFF7CAFF2646A468A8
:10625000E3E70A490B680BB90B60D3E7D8689042B3
:1062600001D19B68F7E70B6099680029CAD0C8681C
:1062700090420ABF89680B469960F5E72C500020D0
:1062800010B50446FFF7ACFFE3680B4A4BB1136847
:106290003BB1A34203D1094A1268DA6007E09B6868
:1062A000F6E7064B1B68E36013681460A360BDE863
:1062B0001040FFF773BF00BF2C5000203450002067
:1062C000024B1868003018BF012070472C50002086
:1062D00010B50B4A04461368984206D183681360D0
:1062E00008E09A68A24203D01346002BF9D103E0DC
:1062F000A2689A60FFF752FF0023A360E36010BD1D
:106300002C50002038B5836804460D469BB10A48DE
:1063100004600220A07304F10C00984702380128A1
:1063200001D9832D05D120462146BDE8384000F033
:1063300005B80123A37338BD345000202DE9F8437C
:106340001C4A0446156889462B4690461A4E376803
:10635000A34204D00BB11B68FAE7BDE8F88334B35D
:10636000A37BABB10023A37345B1AC4204D0284654
:106370008721224607F058F92D68F5E7A3683BB15D
:106380004C4505D0346004F10C0083212A4698471F
:10639000D8F800309C4203D12268064B05E0134632
:1063A00023B11A68A242FAD122681A603760BDE8A8
:1063B000F88300BF385000203450002010B5094B3E
:1063C00000221A70084B1C685CB1E37B3BB10123CF
:1063D0000022A373E27320468221FFF793FF246813
:1063E000F2E710BDDC63002038500020024B187823
:1063F000421C1A70704700BFDD630020064B8A22E2
:106400001A70064A00231370054A1370054A136078
:10641000054A1360704700BFDD630020DA63002087
:10642000DB63002038500020345000202DE9F0417B
:106430001A4D2B780BB1FFF7C1FF194C22783AB3F4
:10644000184E0C213378184F5943781817F80180EB
:1064500001334768806803F01F03013A33702270EC
:1064600068B9124B1E689EB12B780BB1FFF7A6FFDF
:10647000304641463A4607F0D7F83668F3E7B8F1B8
:10648000810F04BF0123837341463A4607F0CCF8DD
:106490002B7820781844BDE8F08100BFDC63002031
:1064A000DB630020DA6300203C50002038500020DD
:1064B000024A034B10781B7818447047DB630020B6
:1064C000DC630020F0B50B4E3378202B0FD00A4C44
:1064D0000C252478094F1C4404F01F046C4301333D
:1064E0003D19A86039556A6033700020F0BD012065
:1064F000F0BD00BFDB630020DA6300203C500020C9
:1065000038B5034C256807F08FF8256038BD00BF0B
:106510003450002010B50A4609490C6823468342CE
:106520000DD00BB11B68FAE748B104600860012187
:10653000817383818121BDE81040FFF7E1BF10BD69
:106540003850002038B1837B013B012B9FBF024AAA
:106550000123C37313707047DC63002010B5084C2F
:10656000206858B1002323608168436898472368F6
:1065700023B1BDE810401868FDF716BD10BD00BF7F
:10658000BC51002010B50446FDF7CAFC94E80C008D
:106590001344C01A024B98428CBF0020012010BD4A
:1065A000FEFFFF7F38B505880446672D09D0792D99
:1065B0002ED0002D32D1FFF719FF1B4B18701B4B4B
:1065C0001D601B4807F013F9431C01D167231DE030
:1065D0000A28164B07D01A687E2AF2DC511C196073
:1065E000144B9854EDE7196800254A1C1A60114AAB
:1065F0000D4B555428461978FFF764FF0E4B852143
:1066000018682A46FFF75EFF20B97923238009E046
:10661000852907D1054B00221A60D2E700230380A9
:10662000032038BD012038BD4D700020C851002026
:10663000C05100205F640020345000200D2810B5A8
:10664000014615D00B4C23782BB90B4807F0BBF84B
:1066500048B9012306E00A2805D1074807F0B3F836
:1066600008B1002323700548FFF76CFF012010BD1F
:10667000002010BDDE630020C05100201045002026
:1066800008B505480549802207F096F8BDE808409E
:1066900003480021FFF73EBFC0510020DF63002008
:1066A00010450020054A136843F004031360044BAF
:1066B0001B68906943EA002080B2704700700D406B
:1066C00014700D40174A136823F00C031360164B27
:1066D00001221A601A68012AFCD1144B08221A60A0
:1066E000E322C3F8142203F505731946104B1B6807
:1066F000DB07FBD5102000230E4A0138126802F098
:10670000010243EA02034FEA43039BB2F4D1002B98
:10671000F0D0094A180A03F0FE0310601360EF235B
:106720000B60704700700D40A8200D402486084083
:10673000648608409C86084014700D4070B505883A
:106740000446772D30D07E2D3FD0002D4DD1FFF760
:106750004DFE294B1870294B1D601D462B68284A99
:10676000264E52F823204AB126480021C15493688E
:1067700080209847336801333360EFE7224A137073
:10678000772320E01F4AD256002A12DB1B4A1368E7
:1067900001331360194B1C4A1B6812789342F1DBDA
:1067A0001A4B1B68002BEBD0184A00231360134AC6
:1067B000EFE7114A00201178114A52F82320FFF721
:1067C00081FE30B97E23238013E00B4B1B788B4274
:1067D0000FD10A4B0B491A688B5C03F07F038B5473
:1067E0000A4A136801331360D0E7002303800320B3
:1067F00070BD012070BD00BF4E700020CC51002044
:10680000C844002049700020DF640020D0510020DF
:10681000094B1A780023934204DA084951F82310EF
:10682000814207D106490748CA5C62F07F02CA5418
:10683000FFF788BE0133EEE7DF640020C844002084
:1068400049700020204500200C4AB82303FB002299
:10685000002330B553821A46094CE1188D782DB1CA
:106860001C5D844202BF00248C70013240F24C5106
:1068700071338B42F0D1104630BD00BFF051002083
:10688000EB64002008B5064802F0BAF9054B012276
:106890001A70FD2100225A709970DA7008BD00BF8D
:1068A000ED6A2000E164002010B513780446087AF0
:1068B00083F0020398421DD1487A5378984219D147
:1068C000887A9378984215D1C87AD378984211D1B2
:1068D000087B137998420DD1487B5379984209D1AE
:1068E000887B9379984205D1C87BD379984201D1AE
:1068F00003201BE00B890F4A6BB94B89B3F57F4F1F
:1069000009D18B89FE2B06D11368C989022023F88F
:10691000021B13600AE0136851F8080F083343F8AC
:10692000080C486843F8040C13600120A040C0B272
:1069300010BD00BFDC51002010B50F4C0220A17922
:1069400004F084F9A379112B01D0062B05D1238DF6
:10695000618D9942A8BF194608E03A2B05BF94F80B
:10696000281094F82930002143EA01210120BDE8D4
:10697000104004F06BB900BFC86A002010B5084C85
:1069800001462378012B08D1A01C082205F0E0FD68
:1069900000280CBF2046002010BD002010BD00BF05
:1069A000E164002008B50146132004F05DF9044BB2
:1069B00004489B6800219847BDE80840FDF76EBC7D
:1069C00054EE2000C969200010B508460C46114657
:1069D00001F008FD044B1B6813B19B6820469847E3
:1069E000024B1C6010BD00BFEC510020E85100209C
:1069F000F8B505460023114A712404FB0324A2784C
:106A0000B2B9617004F050F826460D4F0D4A3B783C
:106A100006F8035BC01A1568A0701D4404F044F822
:106A20003A782946821A304605F0C4FDA078F8BDB0
:106A300001330C2BDFD14FF0FF30F8BDEB640020A9
:106A4000376A0020E05100202DE9F8434FEA12197F
:106A5000B9F10F0F80461D4602F00F040BD00F2C2A
:106A600005D1B9F1000F0AD11024274619E0B9F178
:106A7000000F09D004E00F2C4FF0100900D11024B2
:106A800040464A4605F096FD09EB04020F2A2746C8
:106A900006DC08EB09000021C2F1100205F064FEDB
:106AA000BCB1114DC7F110002E684044314622465A
:106AB00005F080FD022C08D1B9F10A0F9FBFFF231A
:106AC00088F80B30FE2388F80C3034442C60BDE885
:106AD000F883B9F1000F05D040462946BDE8F843D8
:106AE00006F0E9BEBDE8F883DC5100202DE9F04F47
:106AF0008E4E8F4D002387B033702B70044604F008
:106B00004FF803F0E3FF8B4A8B4B126818608DE857
:106B1000600099460AB1FFF70FFF04A80CB9874936
:106B200000E0214607F031FD854B864E1A8803931D
:106B30003E2A40F20182D9F800B0834D0BF10203E6
:106B40002B60009B06F1180093F80080002308F1E9
:106B500002080BF80830FFF711FF20B906F1080012
:106B6000FFF70CFF20B10BF103032B60802400E042
:106B7000044672783178130943EA0113DBB29808AE
:106B800040EA8313DBB212F00F0FDEB26E4F01F05A
:106B90000F010CD16B48408848B911B912F0F00FC1
:106BA0001FD03B6803F8016B3B6070261AE079B98F
:106BB00012F0F00F0CD1296823F03F031A43634B06
:106BC0000A701B88033121F8023C6826296009E01D
:106BD0005C4A2B681068186003F8046B2B60602611
:106BE00000E07826574B9A790293112A08BF46F0A5
:106BF000040673075EBF3B6803F8012B3B60029BF2
:106C0000DB79402B06D0FF2B07D0012B08D146F0B3
:106C1000010609E046F0020606E046F0030603E03E
:106C20003A6802F8013B3A60029A464B128982B9EF
:106C30005A8972B99A8962B9DA8952B91A8A42B9FB
:106C40005A8A32B99A8A22B9DB8A13B944F04000D1
:106C500013E03F48FFF792FE3E4B186078B1427850
:106C60001BF80830042043EA02130BF808303849B7
:106C7000394AFFF719FE60F03F00C4B227E0029BDB
:106C800030491A8948F2FE039A420CD14B8B53B912
:106C90008B8B43B9CB8B33B9042008312E4AFFF7D5
:106CA00003FE2043E9E73A68DFF8A4C096460CF1FA
:106CB000100A634603CB5345CEF80000CEF804100B
:106CC0009C460EF1080EF4D11F4B10321A60DFF80B
:106CD00074A09AF81830FF2B40F08A809AF8192097
:106CE00044F0080E022A5FFA8EFE37D1BAF81A3045
:106CF000A3BBBAF81C308BBBBAF81E3073BBBAF812
:106D000020305BBBBAF8223043BBBAF824302BBB2F
:106D10009AF8263013BB3B689AF8272044F00B0002
:106D200003F8012BC4B23B609FE000BFE064002089
:106D3000376A0020EC510020E051002075F520005A
:106D4000B86A0020C86A0020DC510020CA6A00200E
:106D5000D06A0020D4510020C06A00209A4B588B82
:106D6000194688BB988B78BBD88BA8B9188C98B972
:106D7000588C88B993F8240070B9296844F00A0047
:106D8000C4B2084600F8012B33F8252F043121F84E
:106D9000032C9B78837015E0C98B8B4BA1B9198CA0
:106DA00091B993F8221079B9296844F00900C4B266
:106DB000084600F8012B53F8232F063141F8052C23
:106DC0001B790371296050E0804ADFF814C214680F
:106DD0000CF110082746634603CB434538607960C1
:106DE0009C4607F10807F6D11034146074463CE065
:106DF0000AF11800FFF7C2FD754B186050B14378D7
:106E00001BF8081044F004040B43E4B20BF80830FC
:106E100000200EE048F2FE03BAF818209A4210D182
:106E2000BAF81A306BB9BAF81C3053B9BAF81E3038
:106E30003BB90AF1180104AAFFF736FD2043C4B29A
:106E400013E0624ADFF898C117680CF11008BE46DB
:106E5000634603CB4345CEF80000CEF804109C46B1
:106E60000EF1080EF4D110371760019A5649282305
:106E700013708B79112B53D14FF2B0030A8D52BA94
:106E800092B222F00F0080B2984217D14B8D5BBABC
:106E900023F00F031B041B0C83420FD12868F3233C
:106EA00003704B8D02301A0A0B8D1B0A02EB031381
:106EB00003F5AA6300F8013C286028E0029B4249E0
:106EC0005B8D5BBA03F47F43B3F5704F09D12B6838
:106ED000F1221A700A8DA3F801204A8D120ADA7085
:106EE0000CE002F47F42B2F5704F2B6808D1F22219
:106EF0001A700A8D120A5A704A8D5A80043305E0BE
:106F0000F0221A70886A053343F8040C2B60314B69
:106F10001A882B6823F8022B019A2B6030231370F8
:106F2000009BD9F800201B78D65413445C70274B83
:106F30001B689B1A009A1AE0D9F8002041231370AD
:106F4000009B06F128051C78631CDBB21344324613
:106F500003CAAA4218605960164603F10803F6D125
:106F6000009B29341C70019B019A1B7828331370F5
:106F700004A9132003F078FE174BDFF868801B6824
:106F8000984730EA200028BF1520039BC0F17D05FB
:106F90001C88019BDFF850A01E78009BA21B93F871
:106FA00000B00E4FCBEB05039A4240F3CC80C0F10A
:106FB0007803019303F082FE019B94FBF3F4013408
:106FC000A04213DC0020D0E0C86A0020DC51002081
:106FD000D4510020F66A002064EE2000376A0020B9
:106FE000E06A0020B86A0020E0640020D9F800B010
:106FF0005F4B3C7800221A60594622460BF1040090
:10700000039305F04DFBB8F800205A496FEA82421D
:107010006FEA9242C2F307228BF80020B8F80020F2
:1070200004348BF801200A88E4B2501C0880110A4D
:10703000DFF850C18BF802102D1B9AF8001025F0D4
:1070400007054D4E61448BF803200BEB04002A46E4
:10705000CDF808C03C70356005F0ACFA281980B254
:1070600003F018FD03F030FE039B04461D46002884
:10707000A8D00DF1100B5846FFF794FC204603F002
:107080005BFE204603F042FE2B68012B9AD0043BA6
:10709000012B97D99AF800A0336853441FFA83FA5A
:1070A00005233B70354B1A68B8F800306FEAC343CC
:1070B0006FEAD343C3F307231370B8F8003053705B
:1070C000019B23F0070737602D4B1B889A454BD255
:1070D000D9F800204FEADA0111713268CAEB0303D4
:1070E0009342B8BF244AD9F80000B8BF1360009B90
:1070F000376893F80080029B3A4603EB0A0140444C
:1071000005F058FA08EB070080B203F0C3FC03F067
:10711000DBFD074600283FF455AF5846FFF742FC19
:10712000384603F009FE384603F0F0FD124B1B68A9
:107130009A442B681FFA8AFA012B3FF443AF043BB1
:10714000012BC1D83EE7D9F800000E49584431441C
:1071500005F030FAB8F800005844801B80B203F004
:1071600099FC04A8FFF71EFC012007B0BDE8F08FD2
:10717000E8510020C65C0020E4510020E0510020CE
:10718000B86A0020C86A00202DE9F0470746884603
:107190001646002A47D0434C0025A146238ABB420D
:1071A00015D1638A9BB1122003F06AFD0146204687
:1071B00007F0F0F958B1ECB220463146FFF718FC61
:1071C000002827DA0027DFF8E0A0B8460DE0B83441
:1071D000002D5DD10125E1E7A8450BD10AF1B80AE0
:1071E000B8F1000F10D14FF001083AF8063C002B1F
:1071F000F4D0F1E7504606F038FA0028EED04046C9
:10720000FFF722FB0744E9E7002F41DD2046314626
:10721000FFF7EEFB00283BDDB82303FB0595AB8AA7
:107220001844A8823AE0204DFF2435F8063C4FFA76
:1072300084F97BB3284606F018FA10B13046FFF700
:1072400003FBB9F1FF3F03D135F8063C03B9F4B2B3
:10725000012E05F1B80501D00126E6E765B26B1CE9
:1072600016D0B8235D43DFF83C90122009EB0506E9
:10727000A6F81280378203F003FD0146304607F07E
:1072800084F905F118004844402106F0DCF905E0D6
:10729000FF2403E0B9F1FF3FDAD1D8E760B2BDE8DF
:1072A000F08700BFF0510020085200202DE9F04F78
:1072B000122087B0A54CDFF8CCA203F0E1FC002639
:1072C00003F01AFA8AF80060267003F0FFFBA04D65
:1072D000A0462860042003F0C1FC9E4B2A6800B23F
:1072E00018605778137847EA032703F0F803C02B98
:1072F00002D0E02B19D03AE090782378D278C7F307
:107300000A07043342EA0020394632462370FFF769
:107310003BFFB0F1FF3F814600F07F828E4CB823E7
:1073200003FB00440126223424E01379D1789078BD
:107330002278C7F30A070532227041EA00201A4674
:1073400039460093FFF720FFB0F1FF3F814600F080
:1073500064828149B82202FB0012958A4FF0010B2A
:10736000BD4234BF002501253446009BDFE1B14614
:107370004F467A4C296898F800504A5D02F0E003C5
:10738000602B40F0B681A81C084429444D78744B0A
:107390005FFA85FC1CF0800F18601CBF013018607C
:1073A00012F0100F02F0080130D1D1B9196831F88C
:1073B000010FA4F801008978E170196811F8040B35
:1073C0001960830803F00F0141F0600121706178BA
:1073D00003F0300343EA801301F00F010B436370A5
:1073E00030E018686021864621701EF8011B0330CA
:1073F0004FEA910B0BF0300B01F00F014BEA01014A
:107400006170BEF80010186061801BE001F0FF0E93
:1074100099B919680878C0F3830040F060002070C3
:1074200011F801BBA4F802E04FEA9B0000F0300025
:1074300040EA8B106070196004E060232370002321
:107440006370638002F0040303F0FF0100912BB925
:1074500043490B6813F8010BA0710B6012F0030293
:107460000BBF3F4A3F4B13689B5C09BF13F8011BDE
:10747000E3711360E1716B06C5F3011233D51CF0A3
:10748000800F1DBF324998F80030096800211EBFE7
:107490005B189978090922B904F1080B9AB91146C9
:1074A00014E0314B1878012805D1587888420CBF78
:1074B0001946002100E000212C4B19600029EBD176
:1074C000B3460D4632E1294B19680231284B122090
:1074D0009A5C0391CDF808C0019203F0D1FB0399A7
:1074E000034658460BE0234B12209A5CCDF808C0A7
:1074F000019203F0C5FB2049034604F10800019AFC
:10750000FFF7A2FA05F00800DDF808C005F0030255
:1075100000F0FF0105F00403002835D0002B6BD1EB
:10752000164B1B88ADF81430531E012B9FBF0C491E
:107530000B6813F8010B0B60114B98BF8DF8150009
:107540009A5C04F1180005A9002353E0376A002073
:10755000E0510020D8510020F0510020C86A0020DE
:10756000DC51002023F52000E1640020D4510020EC
:107570003CF5200027F520002BF5200021F5200008
:107580002DF52000E064002053B31CF0800F1DBFD8
:10759000A34998F8003009680B4618BF5B18A14949
:1075A00018BF9D78087818BF05F00F03012805D192
:1075B0004D789D420CBF0D46002500E000259A4BFA
:1075C0001D60002D00F0AE80984B13209A5C019254
:1075D00003F056FBA91C0346019A04F1180009E0C8
:1075E000934B13209D5C03F04BFB2A4691490346C5
:1075F00004F11800FFF728FA9AF800008E4900F10C
:1076000028038AF80030009B002B53D00B681A78AF
:1076100002F0F802F02A4DD11122A2711A7802F07C
:10762000040502F0F302F03AEDB2032A7CD8DFE859
:1076300002F0020A1622B3F801200533228533F83E
:10764000022C62852CE0B3F801202285DA78A2F5BD
:10765000805292B2120242F0F002628509E05A783A
:10766000A2F5805292B2120242F0F00222855A88AC
:107670006285043314E05A7802331209A2F5756268
:1076800092B2120242F0F002228513F8012C02F0AD
:107690000F02A2F5756292B2120242F0F002628508
:1076A0000B6025B90B6833F8022BE2850B60303094
:1076B0008AF800005A4A0B6812689B1A88F8003052
:1076C00067B903F0F1F95D4B1B78C01A9AF80030E6
:1076D0001844283803122371607104E0A7F12803CD
:1076E0001A1222716371A379112B1DD1A388A3856E
:1076F0001AE0412A40F091806A1CD2B28B182246CF
:1077000003F1280153F8040B8B4242F8040BF9D122
:1077100005F1290388F800309AF8003028338AF8F8
:10772000003001E0B34601E0B34600252B4600934C
:1077300003F0BAF998F8002082426ED803F0B4F949
:107740003E4A009B12789AF800A0DB009BB2C2EB85
:10775000000853443A494344B3F5807FC1F80080A0
:107760005BD83CB12E4B04EB0A0019681144424629
:1077700004F020FF002F39D056B132484FFA89F378
:10778000B82404FB030308EB0A0189B29982198427
:1077900095B3B8224FFA89F402FB04F329492A4829
:1077A000CA18114697822231128C04F003FF274D2C
:1077B00005F24C5615F8012C5AB115F8033CA342BA
:1077C00007D115F8020C204B294603EBC00004F04A
:1077D000F1FE7135B542EDD15FFA89F0FFF734F86B
:1077E000BBF1000F0BD01A4B1F800CE0BBF1000F58
:1077F00005D0002DF7D110E0BBF1000F0DD1144BD7
:10780000D044A3F80080134C236823B1FFF794F809
:1078100023685B68984701F019FA07B0BDE8F08F5C
:10782000E0510020E1640020D45100203CF520000C
:1078300027F520002BF52000DC510020376A0020BE
:10784000E4510020F0510020C86A0020EE640020BE
:10785000B86A0020EC51002037B5124B124D1C784D
:107860002B796A79C4EB032313449BB2ADF806303D
:10787000BDF8063005F108011844202280B205F059
:10788000C6FFBDF8062004F12801294492B205F094
:10789000BEFF10B140BA80B201E04FF6FF7003B0F6
:1078A00030BD00BF386A0020C86A00202DE9F041D1
:1078B000264F274E3D7827482835AB195C780223A0
:1078C000E40007349C423DDBE9187218715CDFF874
:1078D0008080012931D002D3632902D011E0013325
:1078E0002EE0037018461B4C01F078FED0B13B78B7
:1078F00022782833134443445B78134402332370C3
:1079000021E001F0C001802905D0C02905D040291F
:1079100013D1037006E0037007E098F81820037095
:10792000FF2A02D10120BDE8F08104200221EA18DB
:1079300001F068F80220BDE8F08152780232134469
:10794000DBB2BFE703700020BDE8F081386A002099
:10795000C86A00203A6A002008B500F06BFC01F00C
:1079600039F905F0DFFF074B4FF480621A800023DE
:10797000054A00211A442033B3F5A07F1182F7D1C4
:1079800008BD00BFC85C0020E86B00202DE9F04175
:10799000124F3D7805B3DFF84C8005F12703B8F8A6
:1079A0000040A34203DB0023A8F8003013E00C4E94
:1079B000A4F1280205F12801641BA4B206F12800F5
:1079C0003144521B04F06CFEA8F80040283C2312FE
:1079D0003371747100233B70BDE8F081386A002078
:1079E000C86A0020B86A0020F8B503461D4804465E
:1079F0000288013292B2B2F5FA4F28BF4FF480529A
:107A000050BA80B20026184D77193F8A8742F0D0CD
:107A10002036B6F5A07FF6D1228000225601AC199F
:107A2000278A47B92082618253B92046194610221D
:107A300004F09AFE0FE001320A2AEFD10020F8BDCF
:107A4000274603F1100E3A4618685968083303C2F6
:107A500073451746F7D1054B35441B7920462B75E6
:107A6000F8BD00BFC85C0020E86B0020306D00202E
:107A700004282DE9F74F9D4E00F0C8819C4C9D4B8A
:107A80009D49052823600B60A146884612D19B4A78
:107A90001268128A002A00F0F6810C3B23600B600A
:107AA000974B002297481A80974B02603280082239
:107AB0001A70A9E113F83C2CA3F13C0402F0F00287
:107AC000602A40F0E08122796179120230885518ED
:107AD000854200F3D88128310A443280227AFF2A75
