:020000040020DA
:10200000E879002045282000DFE42000DDE42000FE
:10201000DDE42000DDE42000DDE42000000000001D
:10202000000000000000000000000000DDE42000CF
:10203000DDE4200000000000DDE42000E5EA2000EF
:1020400007EB20000DEB200013EB200019EB200024
:1020500000000000EBEA2000F1EA2000DDE42000AF
:10206000DDE420000000000000000000000000008F
:102070000000000000000000DDE42000000000007F
:102080000000000000000000DDE42000DDE420008E
:10209000DDE42000DDE42000DDE42000DDE42000BC
:1020A000DDE42000DDE42000DDE42000DDE42000AC
:1020B000DDE42000DDE42000DDE42000DDE420009C
:1020C000DDE42000DDE42000DDE42000DDE420008C
:1020D000DDE420000000000000000000000000001F
:1020E00000000000000000000000000000000000F0
:1020F0000000000000000000B9592000C95920006C
:1021000000000000000000000000000000000000CF
:1021100000000000000000000000000000000000BF
:1021200000000000000000000000000000000000AF
:10213000000000000000000000000000000000009F
:10214000000000000000000000000000000000008F
:10215000000000000000000000000000000000007F
:10216000000000000000000000000000000000006F
:10217000000000000000000000000000000000005F
:10218000000000000000000000000000000000004F
:10219000000000000000000000000000000000003F
:1021A000000000000000000000000000000000002F
:1021B000000000000000000000000000000000001F
:1021C000000000000000000000000000000000000F
:1021D00000000000000000000000000000000000FF
:1021E00000000000000000000000000000000000EF
:1021F00000000000000000000000000000000000DF
:1022000000000000000000000000000000000000CE
:1022100000000000000000000000000000000000BE
:1022200000000000000000000000000000000000AE
:10223000000000000000000000000000000000009E
:10224000000000000000000000000000000000008E
:10225000000000000000000000000000000000007E
:10226000000000000000000000000000000000006E
:10227000DDE42000A1582000C55820004D4B20006F
:10228000295B2000B9452000DDE4200000000000AB
:10229000234BF7B55B68032014460F469847214B44
:1022A000214E18600BF000F80AF0F8FD1AA3D3E9EC
:1022B00000230BF05FF800221C4B0BF05BF80022B0
:1022C0001B4B0BF057F80AF099FD194B00220BF04D
:1022D0007BF90BF0E9FA174D60280ABF4FF0FF3386
:1022E00030603360D5F80411EB693846984733689D
:1022F0008021114A20460CF0BEFD20460CF042F829
:10230000214602463846EB6C019303B0BDE8F0402D
:10231000184700BFAFF30080B3B5BE4868CBDB3FC2
:1023200040072100185E0020145E002000003440A9
:1023300000002440C004210016112100000000000C
:102340002DE9F0478846404BDFF8209188B09B6824
:102350003E4C0121812017469847D9F808500121A9
:102360008120A847A36802210320984741F2B85171
:102370000120A847364DDFF8F8A0364EEB69D5F8B6
:102380000411404698475146304604F089FD431CED
:10239000234604BF3060CAF800005B6803209847FA
:1023A0002D4B2C4618600AF07FFF0AF077FD24A31E
:1023B000D3E900230AF0DEFF0022284B0AF0DAFFFF
:1023C0000022274B0AF0D6FF0AF018FD244B00220A
:1023D0000BF0FAF80BF068FA55466028DFF894A085
:1023E0000ABF4FF0FF33CAF80000CAF800300120DE
:1023F000D9F8043098472D6836681A4B0A211860BE
:1024000095FBF1F296FBF1F3019201FB136601FBE0
:10241000125200960292DAF8002080210392049072
:10242000114A38460CF027FD38460BF0ABFF394611
:1024300002464046E36C079308B0BDE8F0471847F2
:10244000B3B5BE4868CBDB3F5007210040072100F1
:10245000C0042100285E0020345E002000003440CB
:10246000000024402C5E0020C111210060072100E3
:10247000305E0020245E00202DE9F04FB1F5801F72
:1024800085B006460F460B465ADA024621F0004454
:10249000224300F0F5800029C0F271810022DE4B5A
:1024A0000AF068FF0B460F46DC4906468B426FF088
:1024B000350249DCC3F3130505F5152404F66474ED
:1024C00004F4801E8EF07F5181F440111B15A3F29D
:1024D000FF3341EA05079C1830460022D04B3946AD
:1024E00004EB1E540AF092FDAB1CC3F31303022B42
:1024F00082468B464FF000022FDC00230BF0A2F93E
:10250000002800F0C680002C00F0428120460AF02E
:10251000CBFEADA3D3E9002306460F460AF02AFFFF
:10252000ABA3D3E9002304460D46304639460AF0F2
:1025300021FF02460B46204629460AF069FD09E0C4
:10254000B64900228B42B5DD3046394632463B461D
:102550000AF05EFD05B0BDE8F08F4FF080430AF051
:1025600057FD02460B46504659460BF02DF80646DD
:102570000F462046CDE900670AF096FE3246CDE9C7
:1025800002013B46304639460AF0F4FE02460B464D
:10259000804689460AF0EEFE8FA3D3E90023064663
:1025A0000F460AF0E7FE8EA3D3E900230AF030FDC0
:1025B00032463B460AF0DEFE8BA3D3E900230AF045
:1025C00027FD32463B460AF0D5FE89A3D3E9002316
:1025D0000AF01EFD42464B460AF0CCFE86A3D3E924
:1025E000002380468946304639460AF0C3FE84A35C
:1025F000D3E900230AF00CFD32463B460AF0BAFE4E
:1026000081A3D3E900230AF003FD32463B460AF0DA
:10261000B1FE0B460246494640460AF0F9FCA5F5D4
:10262000C223C5F5D725A3F27A4351351D43002DAA
:1026300006460F4653DD00227A4B504659460AF0B3
:1026400099FE52465B460AF095FE80468946002C6C
:1026500060D132463B460AF0DBFCDDE900230AF09C
:1026600089FE02460B46404649460AF0CFFC024628
:102670000B46504659460AF0C9FC05B0BDE8F08F3C
:1026800000220023002068490AF09EFF05B0BDE843
:10269000F08F52465B46504659460AF06BFE5CA3EB
:1026A000D3E9002306460F46504659460AF062FE1B
:1026B00002460B4600205B490AF0A8FC02460B4686
:1026C000304639460AF056FE06460F46002C62D1C7
:1026D0005046594632463B460AF098FC3AE7002CF1
:1026E00000F0A48038A3D3E90023DDE90289404645
:1026F00049460AF03FFE32463B4604460D465046E8
:1027000059460AF083FCDDE900230AF033FE064651
:102710000F464CE02CA3D3E90023DDE902010AF0C7
:1027200029FE32463B4604460D46404649460AF0DD
:102730006FFCDDE900230AF01DFE25A3D3E9002389
:1027400006460F46DDE902010AF014FE02460B467A
:10275000304639460AF05CFC02460B464046494684
:102760000AF054FC52465B460AF050FC02460B4607
:10277000204629460AF04AFC05B0BDE8F08F024623
:102780000B460AF043FC002200230AF01DFFE1E69D
:1027900000200021DEE620460AF086FD0AA3D3E9E8
:1027A0000023804689460AF0E5FD04460D4608A34D
:1027B000D3E90023404649460AF0DCFD02460B46B9
:1027C00030463946CCE700BF0000E0FE422EE63F2F
:1027D000763C7935EF39EA3D44523EDF12F1C23F93
:1027E000DE03CB966446C73F599322942449D23FD7
:1027F000935555555555E53F9FC678D0099AC33F27
:10280000AF788E1DC571CC3F04FA97999999D93F3D
:10281000555555555555D53F00005043FFFFEF7FA7
:102820000000F03F0000E03F000050C302460B46AE
:10283000504659460AF0EAFBDDE900230AF09AFD0A
:1028400015E700BF08B5094BFF221A600848094A7E
:102850004824E3690849121A98470848084AA369B6
:102860000021121A984701F023FBFEE7B4200D4027
:102870004040002056490020A01421005849002063
:10288000E171002008B50CF0D7F8034B186004F094
:1028900093FD024B188008BDB44A0020405E002022
:1028A000024B1888013080B218807047405E0020CB
:1028B000F7B5044601232160037100230B700E4617
:1028C000016800790A7842EA80120A702068627909
:1028D0000178120102F030020A430270A27A2068E5
:1028E00002F00F0102780A4302702268A179517048
:1028F00022892168120A8A7022682189D170A279FE
:10290000002A00F04081224652F80A5B0435A17A81
:102910008B4205D212F8011F013305F8011BF6E7BF
:10292000E37C03F0020303F0FF015BB194F86A302B
:10293000002100932A46012004F16B030BF096FE60
:1029400001210544E37C1A0708D5236C2A4600932D
:102950000320636C0BF08AFE03210544E37CDB0655
:102960000AD594F824302A460093042004F1250364
:102970000BF07CFE04210544E37C9F0606D52A4625
:10298000052000230BF042FE05210544E37C580698
:1029900006D52A460620636E0BF038FE0621054454
:1029A00094F91330002B07DA2A460720B4F8503088
:1029B0000BF02CFE07210544237DDA070AD5A36C12
:1029C0002A4600932F2301930820E36C0BF05EFE50
:1029D00008210544237D1B070AD5E36D2A46009391
:1029E0002F2301930B20236E0BF050FE0B21054487
:1029F000237DDF0606D52A460C20A38B0BF006FEAE
:102A00000C210544237D580606D52A460E20236A4C
:102A10000BF0FCFD0E21054494F91430002B0CDA68
:102A2000D4F894302A460093262301930F20D4F83B
:102A300098300BF02BFE0F210544637D9A0707D5D4
:102A40002A461120B4F868300BF0E0FD112105444E
:102A5000637DDB060AD5636D2A4600932623019326
:102A60001420A36D0BF012FE1421054494F91530C7
:102A7000002B1CDA676F94F878303F010BB147F0F8
:102A80000807B4F87A3000201B09421C5B0892B298
:102A900001D01046F9E7002A18BF024602F00F03E2
:102AA00017202A463B430BF0B1FD17210544A37DB7
:102AB0001F071DD5D4F8807094F884303F010BB106
:102AC00047F00807B4F8863000201B09421C5B0859
:102AD00092B201D01046F9E7002A18BF024602F070
:102AE0000F031B202A463B430BF090FD1B2105449E
:102AF000A37DD80607D52A461C20D4F88C300BF0CD
:102B000085FD1C210544E37D1A0708D5236B2A4661
:102B100000932320636B0BF0A9FD2321054494F956
:102B20001730002B08DAA36B2A4600932720E36BAB
:102B30000BF09CFD27210544A37EDB0606D52A4623
:102B40003C20D4F890300BF061FD05442368EB1A6B
:102B50003E2B11DCB4F89E3013B1FF2305F8013B86
:102B60002846D4F8A010B4F89E200BF095FAB4F8DB
:102B70009E00AD1B284407E0044A054B0025256054
:102B800028461A6000E0042003B0F0BDFA072100D7
:102B9000684400202DE9F743884606460021914607
:102BA000A4220BF0DDFAC6F8008098F800309B09EB
:102BB000337198F80020012BC2F30112727198F85A
:102BC000004004F00F07B77298F80120B27198F82E
:102BD000021098F8032042EA0122328101D0A14A72
:102BE00002E0082F04D9A04AA04B80201A6035E1EA
:102BF00008F1040421463A4606F10B000BF0D6F921
:102C000006F11300002108220BF0AAFA3C44002729
:102C100008EB09039C4280F02081257805F0F00341
:102C2000F02B14D10134C4EB0808C1441FFA89F910
:102C3000B9F1800F8ABF8023A6F89E90A6F89E3037
:102C4000B6F89E300020C6F8A040E05406E12B09FB
:102C50000D2B05F00F0503D1637802340D330AE024
:102C60000E2B03BFA378627803F20D13013404BF67
:102C700003EB022303340D2D03D114F8015B0D3552
:102C800008E00E2D01BF657805F20D1214F8025B05
:102C900002EB05251F4406EBD70107F007030122CD
:102CA00002FA03F0CB7C0E2F43EA0003CB746CD006
:102CB00029D8062F00F0AB8017D8032F00F08480AE
:102CC0000BD8974240F0C0802A46082D28BF082222
:102CD00086F86A2006F16B006DE0042F5BD0052FAB
:102CE00040F0B28086F89C20B5E0082F7DD06ED3EE
:102CF0000B2F73D00C2F40F0A780204629460BF0F5
:102D0000F1FBB083A7E01B2F00F0878026D8112F9E
:102D10004AD009D80F2F40F097802623009306F160
:102D2000980006F1940166E0142F69D0172F40F047
:102D30008B80204629460BF0D5FBC0F3C00300F082
:102D4000070286F8783010239340A6F87A3020F0F6
:102D50000F0393400009F36770677CE0232F2ED0A8
:102D600008D81C2F70D1204629460BF0BBFBC6F8B3
:102D70008C0070E0272F22D03C2F65D120462946B9
:102D80000BF0B0FBC6F8900065E0204629460BF03A
:102D9000A9FB30625FE02A46082D28BF082286F88A
:102DA000242006F1250006E0204629460BF09AFB78
:102DB000A6F868004FE021460BF0F8F84BE02C4AEB
:102DC0002A4BA5201A6049E07464356443E020462C
:102DD00029460BF087FBA6F850003CE02F23009318
:102DE00006F1600006F15C0105E02F23009306F177
:102DF0004C0006F1480122462B460BF07EFB2AE0F0
:102E00002623009306F1580006F15401F3E720460B
:102E100029460BF067FB70661DE0204629460BF043
:102E200061FBC0F3C00300F0070286F88430102372
:102E30009340A6F8863020F00F0393400009C6F8AF
:102E40008830C6F8800006E0FB0704D5094A074B26
:102E500082201A6002E02C44DAE6002003B0BDE8CC
:102E6000F08300BF290821004008210068440020A9
:102E7000650821008C082100014B1860704700BFD5
:102E8000B84A002010B50388044633B1B3F5B07FCB
:102E900012D000230380032010BD0E480E4900F01D
:102EA00025FF00F0C7F943F21630FFF7EBFC4FF4B3
:102EB000B0732380012010BD084B1B788B4204D1D6
:102EC000074B18680BF0DEFDF1E78829EFD100F021
:102ED00057FAECE794440020A8082100D77100209D
:102EE000B44A00200148002103F002BE6C440020D7
:102EF0002DE9F04FA54D00232B70A54B87B01B7813
:102F000081469C0740F18A81A24EA34BA34C3168B5
:102F100020461A88FFF73EFEB04607462870A04EAE
:102F2000002840F01B81A379013B032B00F2DF80D6
:102F30009C4B9D4A1B7802F1080128332089D25A04
:102F400000F082F93060002800F0CB8080234946F1
:102F5000ADF80A300397049705970BF050FD63799D
:102F600023B9924802214522238905E0FFF798FC06
:102F700003468E48012145220BF0C3FBA27A1AB109
:102F80008A488B490BF0F2FB04AB0093834803A9FA
:102F900000220DF10A030BF0BCFC40B1BDF80A3071
:102FA000802B28BF8023ADF80A30049B0593814B0A
:102FB000D3F800C0BCF1000F00F08F8032687B4F67
:102FC000DFF8D8B105A90091BDF80A305846394656
:102FD0007832E047BA4600286ED02B78002B6BD1B0
:102FE0009BF8163018070DD597F90630002B09DB32
:102FF000BB7D190706D4654BA1221A706E4A6F4B30
:103000001A6059E094F91530059A002B41DA049BB7
:103010009A4223D1BAF89E10644F8A4205D3822384
:10302000BB71384666490F2244E0BDF80A308A1A5F
:103030009A4294BF00220122039938460BF082FC89
:103040000499B7F89E30BDF80A205B1AD7F8A0E0C3
:103050009A423846714428BF1A462BE00132039940
:10306000BDF80A3006D1BAF89E209A4294BF0022D9
:10307000012200E001224D4F38460BF063FCBDF801
:103080000A20BAF89E30934216D93846D7F8A010D5
:1030900010E08AB1013218BF012200214348802389
:1030A0000BF050FCBAF89E2040487F2ADAF8A010B6
:1030B00088BF80220BF094FC2B78002B4ED1376810
:1030C0003A4807F13A01FFF7F3FB80B2388700284E
:1030D00044D12E4BC1221A7040E0A1232B70394AF3
:1030E00002E0A323384A2B70344B1A6036E0636841
:1030F00023F07F4323F0FF0313B9C3232B700CE0AD
:103100006379032B09D1274B274A1B7802F108006A
:103110002833D15A228900F0D1F9208900F022F910
:10312000306040B1076BD0F834A000F0B5F817B1AB
:1031300050461A49B84762790023012A3360174B79
:103140000CD8DA7C520609D5164A174F1278484631
:10315000283207F10801BA5A00F08EFC2B780B4F89
:10316000306823B9002859D000F0ACF856E0C22BE3
:1031700002D100F091F851E000F08EF83B78C32BBB
:1031800024D100233B70032125E000BF40650020CF
:10319000506D00205C6D0020406C002068490020CC
:1031A0000C4A0020BE6B0020506C0020104A00200A
:1031B00073490020B84A0020B90821006844002063
:1031C000C9082100D9082100EA082100BF2B84BFCB
:1031D000A0233B7002212A78238912480BF091FA30
:1031E000114B124E1C6820460BF0CCF821460246CB
:1031F0000C480BF0F5FB0E4BD8F800401B7821462D
:10320000283308489F5BFFF753FB80B2009006F11C
:10321000080148463A4623460BF017FC287807B0C9
:10322000BDE8F08F6849002068440020506C002001
:10323000BE6B0020024B1A68024B1A60704700BF39
:103240005C510020C04A0020F8B507460F480D46E3
:1032500016460BF00CFF0446A8B12946002303765E
:103260000B4B87801B6805F11002C36200F11A0343
:1032700051F8040B914243F8040BF9D166850548D7
:1032800021460BF0C2FE2046F8BD00BF7C44002062
:10329000B44A0020BC4A002010B5044660B1083092
:1032A00003F004FB214605480BF09BFE2146BDE8D8
:1032B000104003480BF0EFBE10BD00BFBC4A002019
:1032C0007C4400202DE9F3410446038F428D00F138
:1032D0001A070093C06A394604F13A030BF0B5FBB4
:1032E00094F83A50C5F3011575BB237E032B19D80A
:1032F00053B904F061F8C023B0FBF3F202FB1300F2
:1033000000F28110E06002E0E3685B00E360134DCF
:10331000134B2E681B6804F108002B600BF0D5FDE1
:103320002E6017E0266B3846618DD4F8348000F0AB
:103330004DF82046FFF7B0FF66B1404629463346B8
:1033400002B0BDE8F0411847204602B0BDE8F041A8
:10335000FFF7A2BF02B0BDE8F08100BF5C510020C2
:10336000C04A002010B5044604480BF030FE20B1DE
:103370008388A34201D00068F9E710BDBC4A002051
:1033800010B509480BF023FE044664B104F10800AF
:103390000BF0A4FD28B1237E204601332376FFF7EE
:1033A00091FF2468F1E710BDBC4A002010B5044627
:1033B000044821460BF06FFE2146BDE8104002484C
:1033C0000BF00FBE88440020B04F0020F8B5064631
:1033D0000C480F460BF0FBFD044600257CB104F1C0
:1033E0001C00314610220AF0AFFD30B9A38DBB425C
:1033F00003D12046FFF7DAFF01352468EEE72846BF
:10340000F8BD00BFB04F00202DE9F8430746134830
:10341000884691461E460BF0DAFD04460025D4B1DD
:1034200004F11C00394610220AF08EFD88B9A38DE4
:1034300043450ED194F82E30B3420AD104F12F0047
:10344000494632460AF080FD18B92046FFF7AEFF24
:1034500001352468E3E72846BDE8F883B04F002033
:103460002DE9F84307461448894690460BF0AFFD16
:1034700004460025E4B14FB104F11C003946102286
:103480000AF062FD90B9A38D4B450FD1261D46452C
:1034900008D030460AF076FF4146024630460AF030
:1034A00053FD18B92046FFF781FF01352468E1E795
:1034B0002846BDE8F88300BFB04F00202DE9F04159
:1034C00006460F480F4690460BF081FD0446002546
:1034D00094B104F11C00314610220AF035FD48B9C0
:1034E000A38DBB4206D1238F434503D12046FFF76E
:1034F0005DFF01352468EBE72846BDE8F08100BF99
:10350000B04F00202DE9F0414668DAB080463046E1
:103510000D460AF037FF0446314603A813220AF08D
:10352000A9FF122C07DC35B103AB18192946C4F1E9
:1035300013020AF09FFF0024234608A80121452218
:103540008DF81F400BF0DDF823460122214631A8FB
:103550000BF0D7F803A931A80BF07DF903A80AF006
:1035600011FF06462F480BF032FD0446002C56D0C2
:10357000251D28460AF006FFB04208D04DDD98F818
:103580000830DB0649D5A3191B792F2B45D103A899
:10359000294632460AF024FF00283ED1FFF780F981
:1035A00004F11C01A28DFFF74FFE0546002834D020
:1035B000A1690BF024FAE16B142391FBF3F203FBF6
:1035C00012130BB98DF82530AB8831A82387AB884F
:1035D000D8F81070ADF828300023009308A9802394
:1035E00005F17802B8479DF92630002B05DBE16B29
:1035F00008A84B1CE3630BF085F904F12F0194F844
:103600002E2008A80BF0B2F808A805F13A01FFF740
:103610004FF928872846FFF755FE2468A6E75AB0D9
:10362000BDE8F081B04F00202DE9F74F92468A792E
:103630000B46012A71D19AF90620002A6DDBCA7C5B
:1036400052066AD54E6E002E4BD1354A354D127852
:10365000D1F860C0283232F805808F7AD1F85CB09A
:10366000624601F10B0905F108004146CDF804C09E
:10367000FFF7F6FE2C480BF0FAFC0446002841D078
:10368000BBF1130FDDF804C0A8BF4FF0130B614668
:103690005A4604300AF08AFC244BA3441B688BF87A
:1036A000046004F11C0EA36105F108030FCB8EE842
:1036B0000F0049463A46A4F82C8084F82E7004F195
:1036C0002F000AF073FC2146268719480BF09DFC59
:1036D0005046E16B4B1CE36303B0BDE8F04F0BF0C9
:1036E00011B9012E19D10E4A1249127801F10800C0
:1036F0002832895A03F10B029B7A03B0BDE8F04FE0
:10370000FFF782BE50460C49A32310228AF80630E8
:1037100003B0BDE8F04F0BF063B903B0BDE8F08F24
:10372000BE6B0020506C002088440020B44A00206A
:10373000B04F0020506C00200E092100034BA32243
:103740001A70034A034B1A60704700BF406500209F
:103750001F092100684400202DE9F0470546ACB060
:1037600000890C46FFF7FEFD0646002853D06A7913
:10377000E2B903A802212B890AF0C3FF294BDFF825
:10378000B0801B7803A8283333F80890264BD6F86E
:103790002CA01F683946FFF78BF880B2009008F123
:1037A000080150464A463B460BF04FF9274606F1C2
:1037B0001A0306F12A0E3A4618685968083303C2FC
:1037C00073451746F7D1738D2382F36A63616B7972
:1037D000003318BF01232376FFF762F8608305F1F9
:1037E0000B0104F11D00AA7A0AF0E0FBAB7A237703
:1037F000D5F88030A362B5F88630A3856B6F23635C
:10380000B5F87A301BB1802B28BF802300E08023DD
:10381000A386C22200E0A022044B1A702CB0BDE89F
:10382000F08700BFBE6B00205C6D0020406500206B
:10383000506C00202DE9F74F0C9F8B4690461E469A
:1038400000F06EFA0BF0C3FB002481462546B9F167
:10385000000F7ED04DB13B689D4205D3B4423EBFC0
:103860002C2308F80430013401353B689D4205D310
:10387000B4423EBF3C2308F8043001343A686B1C64
:10388000934205D3B4423EBF2F2308F804300134DD
:10389000D9F804C002356046CDF804C00AF072FDC4
:1038A0003B6800EB050A9A45DDF804C00FD9711C8E
:1038B0005B1B08EB0400091B002BACBF63440CF13D
:1038C0000003354A0BF0D7FA0444B44241D23B68B6
:1038D0009A4505D3B4423EBF3E2308F80430013474
:1038E000D9F80C300AF1010553B31B7843B33B2BD5
:1038F00026D03B689D4205D3B4423EBF3B2308F827
:1039000004300134D9F80C300AF1020A1846019348
:103910000AF038FD3A6800EB0A059542019B0FD981
:10392000CAEB020A711C08EB0400091BBAF1000F74
:10393000A8BF5344184A0BF09EFA0444B44204E072
:10394000B44203D93A682B1B934203D8D9F80090AC
:103950007DE74CB14146584622460BF041F85846A7
:1039600028210AF01AFF09E045B1822158460AF0E1
:10397000F7FE584609490F220BF032F8B9F1000F53
:1039800003D14FF0FF333B6002E03B681E443E60D2
:1039900003B0BDE8F08F00BF60112100C90821000D
:1039A00038B50C46054620B90E480BF001FA042044
:1039B00038BD0D480BF0FCF9AB79413B3E2B04D9E7
:1039C0000A480BF0F5F9032038BDEB7C5B0604D404
:1039D00007480BF0EDF9022038BDB4FA84F0400935
:1039E00038BD00BF320921003E0921004D092100E8
:1039F000610921002DE9F04104460D4D884621461C
:103A00000C4C17461E462846BDF8183000220AF016
:103A100078FE21682846FEF74BFF80B206903946B3
:103A2000404632462368BDE8F0410BF00EB800BFB7
:103A3000B84F00205C6D002070B505460C480E465E
:103A40000BF0C5FA044684B10A4829786A7802F076
:103A500013FA237FB34206D104F11D0029463246F2
:103A60000AF072FA08B12468EDE7204670BD00BF85
:103A7000B44F0020D10921002DE9FF411C468046AA
:103A800024480F4616460BF093F9A57A22480BF00E
:103A90008FF90DB9214831E021480BF089F9294609
:103AA00004F10B00FFF7C8FF054658B91D480BF09D
:103AB0007FF923890320009341463A463346FFF7B6
:103AC00099FF24E063793BB92389022000934146A2
:103AD0003A463346FFF78EFFEB6AC3B1204600211A
:103AE000FFF75EFF012806460CD1204603A90AF025
:103AF000FDFE039B2A6B934203D10B480BF058F950
:103B000005E02B63EB6A284621463246984704B00D
:103B1000BDE8F0814C0A2100670A2100750A2100E6
:103B2000B90A2100CF0A2100170B210070B50288C5
:103B30000546C02A09D0D02A21D082B91B4B852145
:103B4000186802F0ADFFC02307E085290BD11848A3
:103B50000BF03DFA044644B9D0232B8003E0002348
:103B60000380032070BD012070BDE3692BB1A16803
:103B700019B104F10C000BF096F92468EBE78829E1
:103B8000EAD10B480BF023FA0446002CE4D0A368DA
:103B900053B104F10C0630460BF0A0F920B1E369F3
:103BA000984730460BF088F92468EEE75C51002016
:103BB0005C5000202DE9F04F3A4D87B00E469946F3
:103BC00006A9002341F8043DEB6890460746DDF85E
:103BD00040A09847029034480BF0F9F90446DDF80C
:103BE00014B0002C51D06368184603930AF0CAFB46
:103BF000029B02468342039B07D044DD217AC9061B
:103C000041D51BF800102F293DD1184659460AF01E
:103C1000E7FB002837D12B6938469847C20704D5FF
:103C2000D4F810C0BCF1000F14D1830704D5D4F828
:103C300014C0BCF1000F0DD1410704D5D4F818C051
:103C4000BCF1000F06D1020715D5D4F81CC0BCF199
:103C5000000F10D04B46CDF800A038463146424602
:103C6000E047237A5B0617D520462B6E394632464D
:103C70009847012005E06B693046D5F88C109847CD
:103C8000002001240AE02468ABE76B693046D5F8D0
:103C900088109847012001E001200446204007B029
:103CA000BDE8F08FC00421006050002038B50A4BF9
:103CB0001C7884B9094D012209481A700BF084F967
:103CC000AB68084898476B6898472146BDE838407C
:103CD000054802F00DBF38BD48650020C004210032
:103CE00060500020B53B2000B844002010B50446C9
:103CF0004160094821460BF088F994F90830002BFF
:103D000009DA216ACB6933B18B6823B1BDE8104071
:103D100002480BF07AB910BD605000205C500020C2
:103D20000048704760500020813801289ABF024B3C
:103D300018780020704700BF4965002008B501F0E1
:103D40003FFF4020E72101F0D3FF28B9402004497C
:103D5000012202F047F808B14FF0FF3008BD00BF64
:103D60004A65002030B5812885B004460D4606D04E
:103D7000012813D0022825D04FF0FF303DE069B173
:103D80001F4B0220009301460246032301F02EFF41
:103D9000FFF7D4FF10B91B4B1D702EE004ACFE23BF
:103DA00004F8043D01F00CFF21464020012201F0FF
:103DB000CFFF04460028DFD143F6982000F096FBA1
:103DC00020461AE021F08003012BD5D80E4B19783C
:103DD00001F07E012943C9B21970E6238DF80C3039
:103DE0008DF80D1001F0ECFE402003A9224601F0F1
:103DF000AFFF003018BF0120404205B030BD00BF0A
:103E0000A0860100496500204A65002013B5264BB5
:103E10001B7813B94FF0FF3043E0E3280CD0E528BE
:103E20000AD00128F6D1FFF789FF0028F2D11F4BF5
:103E30001878C0F3801034E0C4B2E32C01D0E52C34
:103E4000E8D101F0BDFE4020214601F051FF0028DD
:103E5000E0D1402001A9022201F0C4FF0028D9D1FD
:103E60009DF804009DF80530E32C03EB002080B2A0
:103E700020F0030007D144F2A4435843000CA0F5FE
:103E800092500D380BE043F2D403584342F21073C2
:103E9000000CA0F5167000B29842A8BF184680B278
:103EA00080B202B010BD00BF496500204A65002005
:103EB000F7B500F0E1FC00F0DBFD00F031FD00F0B3
:103EC000D9FA01F01FFE0BF017F800F0C9FD00F061
:103ED000C9F801200AF0D8FD02F07EFD00F0AEFC2A
:103EE000002000F0BFFB012000F0BCFB494900208E
:103EF00000F08EFC03F066F80AF0FDFD04200AF0E5
:103F0000C3FD45480AF054FF44480AF051FF00F051
:103F100053FA002003F060FA01F0E8FC4048002169
:103F200002F0E6FD02F09AFB0AF0DAFD00F030FE46
:103F300000F04CFE07F006FC6846082101F006FE82
:103F40009DF807309DF80670364C43EA07276B460C
:103F500003CB20606160344801F08EFF0025615D75
:103F60003248013501F088FF072D2E4EF7D1304D34
:103F7000F179304801F080FFEC6A4AF6CD31022039
:103F8000A04739460320A0471A210120A0476946CF
:103F900008226B6B0B209847274801F06DFF274BD9
:103FA00018680AF005FF264801F066FF254B1868DF
:103FB0000AF0FEFE244801F05FFF244B18680AF067
:103FC000F7FE234A336813607368536007F0F2FC0E
:103FD0002048002102F08CFD1F48002102F088FDDE
:103FE0001E4B01219B68812098470AF05BFF1C480B
:103FF0000AF04EFF00F028FC02200AF045FD00F018
:1040000029FC02F001FD10F0FF0FF8D101F012FDC4
:10401000F5E700BF816F20009A0B2100AA0B210059
:1040200000450020D9710020CF0B2100ED0B2100AD
:10403000E8062100F30B2100F90B21007007210095
:10404000000C21007C072100070C2100A40721009F
:10405000486C0020A445002030450020EC052100DC
:10406000E007210008B500F047F9024B00221A7062
:1040700008BD00BF4B650020024A1378184310703A
:1040800000F05EB94B650020034A137823EA000074
:10409000107000F055B900BF4B650020024A13783C
:1040A0005840107000F04CB94B65002008B50B4B20
:1040B0001B78184203D0202804D0042804D04FF0E5
:1040C000004008BD052000E00220054B80211A7841
:1040D00000F0F8FC20EAE07000B208BD4D65002059
:1040E0004C650020802810B50C4603D0B0F5807FC9
:1040F00025D031E08B1E222B2ED8C943184B1A68CD
:104100000A401A60174A13680B401360A20604D5D0
:1041100000200521012200F0B9FC630704D500202E
:104120000221012200F0B2FC00F0C4FC0E4B302250
:104130001A700E4B187804441C70002010BDC8B2D1
:10414000102806D001D820B106E0202801D0302860
:1041500002D1054B187010BD4FF0004010BD00BFDC
:1041600020940D4000940D404C6500204D650020CA
:1041700020B1012805D1044B18787047034B18680B
:1041800070470020704700BF4E65002020900D4012
:1041900010B5094A0020137801331370074B1978C2
:1041A00002F07EFCBDE81040054B06481968064A3F
:1041B000002302F089BA00BF4E650020D0710020B4
:1041C0008C5000206450002091412000812810B5BF
:1041D0000C462AD0B0F5807F39D0802839D102F042
:1041E000F3FB1D4B1D4A18701368002023F00803D1
:1041F000136052F8203C032123F0080342F8203CCE
:1042000052F81C3C23F0080342F81C3C52F8183CBE
:1042100043F0080342F8183C042200F037FC104831
:104220000021032200F0D4FB13E00E4B1A6831B1D9
:1042300042F008021A60002000F03CFB05E022F08A
:1042400008021A60084600F041FB204610BD064BEC
:104250001960012010BD00BFD071002020940D40D6
:104260006D42200010940D408C50002008B50F487E
:104270000AF05DFEC0B108210C480AF046FE0C4B66
:10428000196861B10B4B00221A700B4B0B481B686D
:104290001BB90B4A02F018FA01E002F057FABDE828
:1042A0000840084803F03EB908BD00BF8450002014
:1042B0008C5000204E65002020900D40645000205E
:1042C00091412000EC052100084A136823F0040303
:1042D000136052F8203C43F0040342F8203C044BA6
:1042E00000221A60034B01221A70704720C40D404F
:1042F00010C00D404F6500200D4A0E49136823F091
:10430000C003136052F8203C43F0C00342F8203C45
:10431000094B00221A600B6823F010030B6051F860
:10432000203C43F0100341F8203C044B1A607047D6
:1043300020A40D4020C40D4000A30D4040C00D40FE
:1043400000F0020202F0FF010B4B12B1FF221A60D3
:1043500000E0196000F0040202F0FF01074B12B107
:10436000FF221A6000E0196010F00100044B1ABF30
:10437000FF221A601860704700A20D4000A10D4096
:1043800040C00D40044B1868C0F30720030904BF68
:104390001030C0B2704700BF1C300D40054B18688C
:1043A000C0F3C21001289ABFC0F1020040034FF4CD
:1043B0000040704714300D402DE9F04788B0FFF7FA
:1043C000E1FF174B48251C68AB68074698476B68A8
:1043D000804698470646FFF7E1FF054600F0E0FA01
:1043E000824600F0E9FA814600F090FAB60AC4F37A
:1043F0004003AD0A04F00104029306900096019573
:104400000394CDF810A0CDF814904146C7F30712DD
:1044100007F00F03034801F02FFD08B0BDE8F08757
:104420001C300D402A0C2100F8B500F083F80F4B2A
:104430000024D3E900673A46B04238BF7A1C1546DB
:104440000443C3E90045DFF828E0DEE90001821BF0
:1044500061EB070312196B41CEE9002302F01EFA4B
:1044600018B1BDE8F84002F0A9B9F8BD58490020DC
:10447000604900200F4B104A1A6053F8042C42F098
:10448000050243F8042C53F8042C42F0020243F8CE
:10449000042C0A4A136843F001031360084B0022FE
:1044A0001A60042243F80C2C012243F8082C0F2236
:1044B000DA62704714E000E047E8010008200D4090
:1044C0000C000340034BD3E90023100A40EA0360C9
:1044D000704700BF58490020034BD3E90023D00B9D
:1044E00040EA4340704700BF60490020054B186018
:1044F0001C3B1A6842F001021A601A68D207FCD409
:10450000704700BF2800034010B5064C236823F015
:1045100001032360FFF788FF236843F00103236052
:1045200010BD00BF10E000E0014B1868704700BFED
:1045300090500020074B084A196804331B68126822
:10454000120442EA0323054A0B43106843EA006061
:10455000704700BF40500D4048500D404C500D403A
:1045600010B50446114B1B68DB07FBD50AF0C7FAF0
:10457000FFF7E0FF231A062BD8BFC41D0C4B220EF9
:104580001A60C4F3074243F8042CC4F3072243F82B
:10459000082CE2B243F80C2C0AF0ADFA054B91203E
:1045A0001C60BDE8104000F085B900BF50500D40C0
:1045B0004C500D409050002008B501F021FA064BF8
:1045C000002291201A6000F08DF9912000F07EF910
:1045D000BDE8084002F0B0BA90500020064B1B68BE
:1045E0001B075FBF054B186880F00800C0F3C000D0
:1045F00048BF0020704700BF18C0004018D00040DE
:10460000164A38B52C2303FB00234FF6BF72DC6833
:104610000546236C62649BB213F050020DD0A3696F
:10462000DB0609D40E4B53F825301BB12068C0B20D
:104630009847F4E72368F2E738BD13F4D06F0BD046
:104640004FF440732363FF236360E36AE262E36233
:10465000236B43F00103236338BD00BFFC05210039
:10466000945000202DE9F04F012885B0064600F255
:10467000BF802C244443604B1D1995F920A005F1FF
:104680002007BAF1000F9946C0F2B28095F92230A6
:10469000002BC0F2AD80594801F024FA584A59F86D
:1046A00004301168EC680B43136051686B6895F92E
:1046B00021B00B4353609168AB6895F822800B439F
:1046C00093600023C4F8C83F2B690BEBCA021A6041
:1046D00095F823305FFA88FC01939DF8043060461A
:1046E00019462A7DCDF80CC0029300F0D9F9029B3F
:1046F000DDF80CC019466046082200F0C7F94FFAF1
:1047000088F840494FEA08389DF9042058F801001C
:10471000012303FA02F2024348F801204FEA0A3A61
:104720005AF8010003FA0BF202434AF80120502222
:10473000A263A26B95F8240042F4D062A263022225
:1047400062634FF440722263AA696262EA69A262FC
:104750007022E26242B2002A0C4614DB95F9251061
:10476000294D41EAC20129607979120315594FB2E6
:10477000BB402B431351002200F088F9234A1368F1
:1047800043F4004313602C2303FB069393F8265055
:1047900020336FB2002F1CDB93F807A0EDB25FFA55
:1047A0008AF82846414601223F0300F079F94FFA82
:1047B0008AFA3A59012303FA0AF313433B510822B8
:1047C0002846414600F062F9104A136843F48043DA
:1047D00013602C2303FB0696F26896F82800136BEF
:1047E00043F00103136305B0BDE8F04F00F062B879
:1047F00005B0BDE8F08F00BFFC052100DD452000BD
:1048000028200D4020940D4004410D4030D0004040
:1048100001289CBF014B43F82010704794500020A2
:10482000012808D8044B2C2202FB0030C3689A6987
:104830009206FCD419607047FC052100014B002250
:104840001A60704700500D40014B08221A607047F3
:1048500000500D40024BA0221A6050221A6070478F
:1048600000500D4008B50AF04AF9024B0B221A60BD
:10487000FEE700BF00500D40074A084B1A60084B86
:1048800080321A60074B80321A60074B80321A6000
:10489000064B074A1A60704700E100E0A85000206C
:1048A0009C500020A0500020A450002008ED00E003
:1048B00000202000044B41091A6800F01F0001236A
:1048C000834042F821307047A8500020044B410932
:1048D0001A6800F01F000123834042F8213070471E
:1048E0009C500020044B41091A6800F01F0001236E
:1048F000834042F821307047A4500020024B1868D2
:10490000C0F38150704700BF04200D4008B5FFF789
:10491000F5FF024B53F8200008BD00BF54062100EC
:1049200038B5164D164C2B68032023F040032B603E
:104930002368062123F040032360012200F0A6F83B
:104940002B68012223F080032B602368032023F0CF
:1049500080032360072100F099F80A4A0A4B1A6085
:104960000A4B0B4A19680A40002AF9D11A6851010A
:10497000FCD41A685201FCD538BD00BF20C40D40DC
:1049800000C40D400101020000200D4004200D4034
:1049900000000101014B08221A60704774200D408D
:1049A000034B04481B6803F007031841704700BF1E
:1049B00004200D400048E801034B04481B68C3F382
:1049C00002231841704700BF04200D400048E80151
:1049D000024B02EBC10243F822007047AC500020AA
:1049E000F8B507460E46094D002405EB411547FA78
:1049F00004F3DB07E1B204D555F824300BB130469F
:104A000098470134082CF2D1F8BD00BFAC5000200B
:104A10002DE9F04780464FEA0837DFF8409007F16C
:104A2000804505F5592500F0EBFFD5F8186457F8D7
:104A300009404FEAC80A24FA0AF446EA0400E4B23C
:104A4000C0B24146F6B204FA0AF4FFF7C9FFC5F84E
:104A50001C6447F80940BDE8F08700BF18970D4077
:104A600002480021802209F07BBB00BFAC5000202F
:104A7000034A044B1A60044B803A1A60704700BF27
:104A800080400D40305100202C510020034B01EBA1
:104A9000C0011B6843F82120704700BF305100203F
:104AA000034B01EBC0011B6843F82120704700BF96
:104AB0002C510020024A136843F030031360704702
:104AC00000700D400E2870B50BD1164B164E1C68A9
:104AD00044F002051D60356825F03F0343F00103F3
:104AE0003360124E336823F0FF031A43114301432E
:104AF00031600F4B1B681B06FBD50E4B0E4A1B6823
:104B000012680E2803F0FC0343EA022308BF064A9A
:104B10009BB204BF1560034A9BB208BF146018B271
:104B200070BD00BF34000144F486084008700D4099
:104B300000700D400C700D4010700D40024B186855
:104B4000B0FA80F04009704700B7084010B58F20D8
:104B5000064CFFF7C7FE8F20FFF7B8FE206818B19C
:104B600001F0DEFF0023236010BD00BF34510020A0
:104B7000064A136843F002031360536843F00203CC
:104B80005360936843F002039360704748200D40E0
:104B900007B50C4800F0A6FFFFF7EAFF0A4B1A68BA
:104BA00042F002021A6000220192019A0F2A02DCEE
:104BB000019A0132F8E71A6822F002021A6003B083
:104BC0005DF804FB3D4B200054200D40064A13685D
:104BD00023F002031360536823F0020353609368C9
:104BE00023F002039360704748200D40014B18608A
:104BF000704700BF345100202DE9F0473E4EA0B071
:104C000034688246884615461F46002C70D102291A
:104C100016D1AC4216DA1822482302FB04A14FEA4F
:104C20008409DB690DEB4410984709F1030920ABB7
:104C300003EBC9090022002349E920230134E8E7F6
:104C4000012904D06D00B8F1020FEDB205D0482360
:104C5000DB69684651462A019847284A0123032107
:104C6000136027485160083233601160016801F019
:104C7000030444451EBF21F0030148EA010101601D
:104C800003FA05F01F4C01381F49B8400860A4F52D
:104C90008064C4F8000423601C4BC3F800D0E368B0
:104CA0001B0C1B0443EA0515E560194B1C68E4075F
:104CB000FBD51C68002C06DA4FF00043136000237C
:104CC0003360042015E01B6813F0804306D04FF0DA
:104CD000804313600023336006200AE0032414603D
:104CE00033600B680340834214BF0620002000E0BD
:104CF000032020B0BDE8F08700B7084080B7084027
:104D000008B4084000B4084004B4084004B00840A7
:104D100090B708402DE9F047434C894621689C46EE
:104D2000DDF82880BDF82030BDF82C50DDF830E0EB
:104D3000002975D13D4901260E603D4E0327B2463C
:104D40000221376021603B490F603B4FC7F800905C
:104D5000D7F80090B9F1000FFADB384FD7F8009080
:104D600019F0005FB94607D04FF000530B600023E5
:104D700023600520BDE8F0874AB11668304F3E60D9
:104D800056687E609668BE60D7682E4A17602E4AC5
:104D9000002710F4E02F10605560976002F10802C0
:104DA0001BD053600432C3B1A2F25C5201201060E8
:104DB000C2F804C0D360D9F800309B07FBD51F4B65
:104DC0001B68002B07DA4FF000430B6000232360C1
:104DD0000420BDE8F08702230B600123CAF80030ED
:104DE000BEF1000F08D07046FFF700FF8F20FFF7DD
:104DF00079FD8F20FFF75EFD7DB1144A012313601A
:104E000009990C3242F8081C1560B8F1000F04D063
:104E100053610F4BC3F800809D600020BDE8F08710
:104E20000320BDE8F08700BF00B7084080B7084006
:104E300084B7084088B708400CB4084090B70840D1
:104E400040B508404CB5084050B5084000B0084097
:104E500024B00840034B1A68034B1A4214BF0120C8
:104E60000020704790B70840010000E0F8B5204BE3
:104E7000204F1E684FF060433B6005468F200C4674
:104E8000FFF724FD0020FFF7B1FE00221A4B9642E7
:104E90001A6027DB710027D4B20027D405B9ECB122
:104EA000164B1B685B00FBD55DB1154B1B682B6077
:104EB000144B1B686B60144B1B68AB60134B1B6877
:104EC000EB605CB1124B1B682360124B1B68636084
:104ED000114B1B68A360114B1B68E36003233B600D
:104EE0000020F8BD0420F8BD0620F8BD0520F8BD5F
:104EF00090B7084088B7084000B7084050B5084050
:104F000040B5084044B5084048B508404CB5084095
:104F100070B5084074B5084078B508407CB50840C5
:104F200010B5044B1C68C4F340040CB9FFF720FE15
:104F3000204610BD48200D40014B1B68184700BF9C
:104F4000640621002DE9F04F1646284A89B01468FE
:104F50008346C4F340040F469DF84880DDF84CA01A
:104F60009DF85050DDF854901CB90793FFF700FEF0
:104F7000079B1FFA88F0B9F1000F1AD000218DE8C5
:104F80008100029603970495059102205A4609F084
:104F900058FE28B13CBB09B0BDE8F04FFFF716BE84
:104FA000FFF758FF0028FBD05046294609F066FE5F
:104FB000F0E72E448DE88100029603970495CDF822
:104FC0001490022049465A4609F05EFE0028E1D1BD
:104FD000FFF740FF0028FBD03846314652462B46AB
:104FE00009F00CFED6E709B0BDE8F08F48200D406F
:104FF000084B93F90020002A09DB074AED211160D4
:105000001160E32111601A7862F07F021A700120AA
:10501000704700BF53650020388808400B4B1A6862
:105020009207FBD41B685B065FBF094BED221A6039
:105030001A60084B1B6813B1054BEF221A60064A31
:105040000120137803F07F03137070474C860840EB
:10505000388808402C8608405365002038B5A0F1F8
:105060000B04E3B20F2B054613D80B4B1B6813F050
:105070003F0302D0FFF7D2FF012304EB8404074A69
:105080000B3414600BB1FFF7B3FF054BE8B21D7092
:1050900000E0FF2040B238BD488608403C8608400A
:1050A0004349002010B50B4B1B68990603D1FFF74D
:1050B0009FFF012300E00023074A1268D207FBD5B7
:1050C000064A1468C4F300140BB1FFF7A7FF20468B
:1050D00010BD00BF48860840648608404C860840E2
:1050E000044B186800F02200A0F1200358425841F8
:1050F000704700BF4C860840024B186800F0400023
:10510000704700BF4C86084038B50C46002900F0B7
:105110008880102800F28780DFE800F0090F1A1C51
:1051200023394253586F738585787A7C7F003F4BD3
:105130001B68003318BF012370E03D4B05221B683C
:1051400003F07F030B3B93FBF2F30B33DBB265E021
:10515000384B00E0384B1A68043B1B6843EA0223D3
:105160005CE000230B60354B354A1B6803F00103FC
:105170000B601268900644BF43F002030B60314B92
:105180001B78002B4BD00B6843F0040346E02E4BFA
:1051900000201B780860002B41D001230B6038BD34
:1051A0002A4B1A680023D2B2294901EBC3000079C7
:1051B000904202D851F8333030E001330E2BF3D156
:1051C00028E0244B1B685BB2493B27E0224B1B685D
:1051D000990603D1FFF70CFF012300E000231F4ACB
:1051E0001268D207FBD51E4A1568493DEDB20BB1D6
:1051F000FFF714FF6DB2256011E01A4B93F90030F0
:105200000CE0194B1B7803F07F0307E00B2305E04C
:105210001A2303E06FF0170300E007232360002048
:1052200038BD022038BD012038BD00BF2C860840A3
:105230003C860840CC850840D4850840008608405C
:1052400024860840526500204249002040860840DC
:105250007806210058860840488608406486084041
:1052600060860840516500205065002038B505462D
:105270000C46134B1B689B07FBD4124B93F9003071
:10528000002B01DBFFF7B4FE0F4BEE221A60691E04
:105290001A60A21C43F8102C2144022000F03EFBAF
:1052A000013C0A4924012143022000F049FB02206D
:1052B00000F050FB022000F065FB002038BD00BF6D
:1052C0004C860840536500203888084002C001C061
:1052D000F8B5214B93F90030002B0DDBFFF72AF9CD
:1052E0000446FFF785FEFFF725F96FF009031B1B46
:1052F000C342F8D4012600E00026184B1B7823B9DE
:10530000174D2B68990604D405E0FFF7CBFE002863
:10531000F6D10220F8BD134CE923236004272B6843
:105320009A0707D4013F17F0FF0703D00620FFF7C5
:10533000DDF8F4E72B689B0704D4EE232360236099
:10534000012403E02C6814F00204FBD10EB1FFF736
:1053500065FE2046F8BD00BF53650020424900208D
:105360004C86084038880840044B1A6810B142F057
:10537000010201E022F001021A6070470086084035
:105380000B280DD1082A0DD161B1074B083111F856
:10539000012D43F8042F054A9342F8D100207047AD
:1053A0000120704702207047A4850840C48508404A
:1053B00070B5304E336813F0400308D02E4D2B6883
:1053C000DCB21B0605D52D4BED221A601A600020B9
:1053D00070BD042CF7D9023C8C42F4DCE4B2032CFF
:1053E00021D001190139032000F0A0FA631E2449DD
:1053F0001B010320194300F0A3FA032000F0AAFACE
:10540000032000F0BFFA032000F0C8FA0028FAD108
:1054100029681C4B4939C9B219702B681A4D1806F6
:105420002B70D0D506E02B6803702B6843702B6877
:105430008370EDE749B289B2042006F091FA297829
:10544000032001F07F0106F08BFA104B1B7873B933
:1054500033685A060BD5074B1B681B0603D50C484F
:1054600001F05EFB03E0054BED221A601A60204656
:1054700070BD00BF4C860840288808403888084026
:1054800002C0010C516500205065002052650020CB
:10549000D84400201E4B1870002831D01D4B1B68CB
:1054A0001B03FBD51C4B1A6842F002021A601A68F3
:1054B00042F001021A601A6817495007FBD50A68C2
:1054C00022F001020A601968134A4907FBD41168E7
:1054D00041F002011160116841F0010111601A6888
:1054E0005207FCD50D4A8D20136823F00403136086
:1054F000D2F8A83123F00403C2F8A831FFF7E6B9C7
:10550000064A8D20136843F004031360FFF7D2B9F5
:105510005265002004200D40048808408C86084015
:1055200010B50C4607285CD8DFE800F0040F1B1FFD
:10553000263C4256012903D1FFF75AFD002010BD39
:10554000002950D1FFF76AFDF8E7A1F10B030F2BFB
:1055500049D8C8B2FFF782FD431C0CBF03200020CE
:1055600010BD8CB2E2B2214B02E08CB2204BE2B211
:10557000240A1A605C60E1E731F0070333D101F0DF
:105580000100FFF7F1FE1B4B14F0020F1A68C4F381
:10559000800014BF42F0200222F020021A60FFF7C0
:1055A00079FFCBE731F001001DD1134B197010BD0D
:1055B00001F118031F2B16D80D231049DA0051F8FA
:1055C0003300844204DC8B181A790D4B1A60B5E75E
:1055D00013F1FF33F1D2B1E7CCB20A4B49341C606E
:1055E000ACE7012010BD022010BD00BFC8850840F7
:1055F000D0850840248608404249002078062100D2
:105600004086084058860840F8B5294F3D7815F087
:1056100001054AD1274B01241C605C609C60A3F506
:105620009323A3F51473F8221A600922C3F890217A
:10563000152270331A6003F59B230B2203F59E732A
:105640001A60A3F59B23A3F5F07340221A601A6831
:105650007F2642F020021A60D52243F81C5CDE62ED
:10566000DA61154B1878FFF7F9FC144B8E201E6099
:10567000FFF720F9022000F079F91149022000F02B
:1056800055F9032000F072F90D49032000F046F9A6
:105690000C4B1878FFF7FEFE0B48294601F028FA5C
:1056A0003B78204623433B70F8BD0020F8BD00BF87
:1056B00053650020A8200D404349002094860840EF
:1056C0002888084052650020D844002038B5038857
:1056D0000446CBB140F20342934203D0002303803F
:1056E000032038BD194B18781A4628B11B7873B1BE
:1056F000174B1B7858060AD5822908D1137843B175
:10570000134B1A78520614D440F20343238001202D
:1057100038BD06F0CFF806F063F88021FFF748FEA9
:105720000028EDDD80B206F03FF80A4B1B69984770
:10573000E6E700221A70084B1D68FFF76FFCFFF7C1
:1057400063FFAB06E0D0FFF753FCDDE752650020B6
:1057500053650020A4072100488608400B282DE946
:10576000F84F8A4611D1082A40F0828000297FD064
:10577000414B01F1FF3A53F8042D0AF8012F3F4A3B
:105780009342F8D10020BDE8F88F0C286DD1042A8F
:105790006ED100296CD03A493A480B68DFF8EC909A
:1057A00023F007030B600368DFF8E4B043F008035D
:1057B0000360DBF80040D9F800200B68DFF8D4C0A4
:1057C000DFF8D48023F070030B60D8F80050DCF8C9
:1057D0000030E4B2120244EA036392B2DFF8BCE0A4
:1057E0001A43EBB242EA03430024DEF8002044EA05
:1057F00003060B68D5B223F0070343F001030B60E7
:1058000003682F4643F008030360DBF80000D9F873
:1058100000200B68120223F0700343F010030B60AA
:10582000D8F80050DCF80030C1B241EA036392B20C
:105830001A43EBB242EA0343DEF8002044EA0308CD
:105840005FFA82F9FEF776FEB6EB080667EB09070A
:10585000F903054641EA5641F0030B4A002308F0DC
:105860004BF8281ACAF800008CE70120BDE8F88F31
:105870000220BDE8F88F00BFC8850840A885084011
:1058800010880840048808400048E801188808404B
:105890001488084020880840248808401C88084054
:1058A00008B5054B1B7813B9044801F039F9044BCE
:1058B00000221A6008BD00BF52650020D8440020B5
:1058C00034880840064B07481A68042A1FBF064957
:1058D0000A7842F040020A7000221A6001F020B9F2
:1058E0002C880840D84400205365002010B5094C8E
:1058F00000212046402208F033FC074B01221A60A9
:105900002E205C60FEF7D6FFBDE810402F20FEF78A
:10591000D1BF00BF0040002004F00F4003289EBF0D
:10592000014B0001195070470040002003289EBF22
:10593000024B03EB00104160704700BF00400020A5
:1059400003289EBF024B03EB00108160704700BF2D
:105950000040002003289FBF034901230A688340B9
:105960009CBF13430B60704728F00F4003289FBF74
:10597000034901230A6883409CBF13430B607047AF
:1059800020F00F4003289FBF034901230A6883408A
:105990009CBF13430B60704714F00F4003289FBF58
:1059A000044B03EB0010806800F0070088BF002064
:1059B000704700BF00400020024B4FF0FF321A60DA
:1059C000704700BF04F50F40014B01221A60704779
:1059D0004CF00F40094B1A6812F4801F1A46F9D197
:1059E000043B196821F4803119601168C903FCD4A3
:1059F0001A6842F400321A60704700BF04200D405C
:105A000010B50A4B1A681C4612F0030F0CD0084B55
:105A10001A685101FBD41A685201FCD5FEF774FDD7
:105A2000FFF7D8FF0023236010BD00BF58200D40B2
:105A300004200D4038B5254B1C6814F03F0413D1E9
:105A4000234B53F8243023B1984768B10134052C17
:105A5000F6D1204D2B783BB1FEF766FD0446FEF7EC
:105A600069FD201A092801D830BF38BD002CFBD0B1
:105A7000194B1A6822F400321A60184A1168C902D8
:105A8000FBD4196841F4803119601368DB03FCD53D
:105A9000FEF750FD201A092803D8BDE83840FFF76B
:105AA00099BF63280E4C02D92B78022B00D001231A
:105AB000236000F0EBFF20B1FFF78CFF0023236091
:105AC00038BDFEF731FD0028CED1F5E74886084005
:105AD000385100205465002000200D4004200D4066
:105AE00058200D400023064A52F82310814206D068
:105AF00011B942F8230070470133052BF3D17047E9
:105B000038510020054B00221A60054A136843F003
:105B100004031360034B02221A70704758200D4093
:105B200010ED00E05465002010B59020064CFEF703
:105B3000D9FE9020FEF7CAFE206818B100F0F0FFF1
:105B40000023236010BD00BF4C51002030B5184B1E
:105B50001A78431E3AB9174A1278122A03D1164A04
:105B600012784B2A03D001F52011273117E04A089B
:105B700002F12814B4F1281F04D014F8015D03F8D1
:105B8000015FF7E701F5201127310023934205DA81
:105B900011F801598418E5540133F7E730BD074A7D
:105BA000914204D011F8012903F8012FF7E730BD25
:105BB0002B0028002A0028002900280027002800A0
:105BC000024A136843F0100313607047200002403C
:105BD00014235843034B044A0344B3FBF0F3013B43
:105BE00013607047FF23F4000C0002402DE9F843D6
:105BF00007460E4615461C462A4ADFF8B49013683D
:105C0000DDF8208043F001031360D9F80030322022
:105C100043F00103C9F80030FEF768FCD9F8003002
:105C2000214A23F00103C9F80030380381580123C9
:105C300003FA06FE21EA0E018150290351F802C041
:105C4000A3402CEA030C41F802C0203250F802C0F5
:105C50004CEA0E0E40F802E0885803438B50384659
:105C600031460022FEF712FF284621460022FEF7A9
:105C70000DFF0E4B46EAC7021A6044EAC5025A609D
:105C8000384631460B22FEF70BFF284621460C22F0
:105C9000FEF706FFFFF794FF4046BDE8F843FFF725
:105CA00097BF00BF38200D4000940D402C410D409F
:105CB00044200D40024B18600120FEF717BC00BFC6
:105CC00004000240024B186800F00100704700BF5A
:105CD00004000240054B1868C0B2C30704D410F09A
:105CE000120F08BF002070470020704704000240D8
:105CF00008B5074B4000186099600720FFF7DAFFEE
:105D0000044B1B68DB07FBD4BDE80840FFF7E2BF8C
:105D1000000002400400024040000A4B40F0010035
:105D200010B5186007200C46FFF7C4FF064B1B6830
:105D3000DB07FBD4FFF7CEFF10B9044B1B682370C1
:105D400010BD00BF000002400400024008000240F5
:105D50002DE9F0410F461446002A39D0002937D0EA
:105D6000012A04D1BDE8F0410978FFF7C1BF1A4A02
:105D7000430013600B78194D03202B60FFF79AFF47
:105D8000A846174E3368D907FBD4FFF7A3FF18B115
:105D9000BDE8F041FFF79EBF0125631EAB420BDD5E
:105DA0007B5D0120C8F80030FFF784FF3368DA0715
:105DB000FCD40135EDB2F0E73C4414F8013C052079
:105DC000C8F80030FFF776FF3368DB07FCD4DFE765
:105DD0008020BDE8F08100BF0000024008000240C2
:105DE000040002402DE9F0410F461446002A3AD043
:105DF000002938D0012A03D1BDE8F041FFF78CBF5C
:105E000043001A4A43F0010313600B20FFF752FFCF
:105E1000174B1A68984612F0010FF9D1FFF75AFF95
:105E2000E8B9144E012533683B70631EAB420BDDAD
:105E30000920FFF73FFFD8F80030DA07FBD43368BA
:105E40007B550135EDB2F0E70520FFF733FFD8F8B9
:105E50000030DB07FBD433683C4404F8013CBDE868
:105E6000F041FFF737BF8020BDE8F081000002401D
:105E700004000240080002400FB407B504AA52F81B
:105E8000041B0448019200F035F803B05DF804EB00
:105E900004B07047E84400201FB5084C8DE80300AB
:105EA000114602A81A460294CDF80CD000F022F850
:105EB000009B00221A7004B010BD00BF4FEE2000FE
:105EC00070B505460C46102C07D92B686868084940
:105ED0001022984750B9103CF5E734B12B68686838
:105EE0002246BDE8704002491847204670BD00BFF9
:105EF0005A0D21002DE9F04F80468FB00691079290
:105F00000026069B1B78002B00F05F83069B1C4637
:105F100013F8012B1AB9069B9C4203D10FE0252AE6
:105F2000F5D1F8E7069BD8F80400E51A0699D8F8E9
:105F300000302A469847002840F02A832E442378D0
:105F4000002B00F042836378611C002B00F03D833E
:105F500000240A4611F8013B2B2B11D006D8202B28
:105F600011D0232B12D144F00804F2E72D2B04D0DA
:105F7000302B0BD144F01004EBE744F00104E8E7C8
:105F800044F00604E5E744F00204E2E7A3F131013E
:105F900008290DD8134600251A4613F8011BA1F154
:105FA0003000092811D80A2202FB0515303DF3E71D
:105FB0002A2B09D1079B01321D68191D002D07915D
:105FC000B8BF44F0010400E0002513782E2B1CD14B
:105FD0005178531CA1F1300009280ED8194600272A
:105FE0000A780B46A2F13000092801F101010FD80F
:105FF0000A2303FB0727303FF2E72A2906D1931C27
:10600000079A111D0791176802E013464FF0FF37FA
:106010001A786C2A09D15A786C2A02D144F080048B
:106020000AE0013344F060040BE0682A09D15A7891
:10603000682A03D144F02004023302E0013344F023
:1060400040041A78642A3CD01FD8462A48D00DD87C
:10605000252A5AD003D8002A00F0B78257E0412AF7
:106060004AD0452A53D144F4424450E0582A31D012
:1060700004D8472A4BD144F4A13448E0612A38D0EF
:10608000632A44D144F4A06441E06E2A3AD007D890
:10609000662A22D027D3672A28D0692A11D036E071
:1060A000732A2CD006D86F2A11D0702A2FD144F42D
:1060B00040742CE0752A07D0782A28D144F4C854BB
:1060C00025E044F4245422E044F410641FE044F436
:1060D00088541CE044F4B24419E044F4007416E01F
:1060E00044F4844413E044F4024410E044F4813462
:1060F0000DE044F4C1340AE044F4E13407E044F430
:10610000806404E044F4E06401E044F4C0640133DA
:10611000069304F4E063B3F5806F00F0AA8116D80B
:10612000B3F5807F2BD0B3F5407F7FF4EAAE079BB9
:10613000A04914F4804F03F104029F4818BF084699
:106140000DF1330107920F461A680023C5E1B3F53C
:10615000C06F08D0B3F5E06F00F03182B3F5A06FE7
:106160007FF4CFAE00E2D8F80030D8F804009349AD
:1061700001229847002840F00B820136C1E6002F2B
:10618000ACBF24F01004012714F40053039304F06F
:10619000E00337D0402B17D008D8DBB1202B2AD111
:1061A000079B1A1D079293F9002017E0602B11D06E
:1061B000802B20D1079B073323F0070303F108024C
:1061C0000792D3E900230AE0079B1A1D0792B3F94F
:1061D000002003E0079B1A1D07921A68D317002AB4
:1061E00073F1000109DA524263EB4303CDE9002366
:1061F0004FF0010933E000220023CDE900234FF0E6
:1062000000092CE0402B16D007D8CBB1202B20D191
:10621000079B1A1D07921A78EEE7602B10D0802B8F
:1062200017D1079B073323F0070303F108020792F6
:10623000D3E90023E1E7079B1A1D07921A88DBE7E1
:10624000079B00211A1D07921B681846CDE9000123
:10625000D5E700220023CDE900234FF0000904F424
:10626000C053B3F5805F0CD0B3F5C05F33D0B3F546
:10627000006F4FD1DDE900230DF1360ACDE904238B
:1062800004E0DDE900230DF1360A15E0DDE9042321
:1062900013433AD0DDE904010A22002307F02CFB66
:1062A000DDE9040130320AF8012D00230A2207F04B
:1062B00023FBCDE90401E9E752EA030125D002F00E
:1062C000070130310AF8011DD10841EA4371D808AD
:1062D0000A460346F0E7384B14F4804F0DF1360AB6
:1062E000344908BF1946DDE9002352EA03000CD007
:1062F00002F00F00085C4FEA131E0AF8010D1009A6
:1063000040EA037002467346EFE70DF1360BCAEB25
:106310000B0B03E00DF1360A4FF0000B41F60802BB
:1063200041F208035F4502EA04028CBFCBEB07078A
:1063300000279A4202D1002F08BF012741F6080129
:106340008A4207EB0B030DD1DDE9000150EA01029F
:1063500008D01B4914F4804F1A4A4FF0020C18BFA2
:106360000A4602E04FF0000C62460399A1B1B9F170
:10637000000F0AD104F0060102290AD006291249A9
:1063800004BF4FF0010C0A4606E04FF0010C0F4A23
:1063900002E00F4A4FF0010C63449D428CBFED1A9E
:1063A000002514F0010922D1E30613D52F444D46F0
:1063B0001DE000BF250D2100360D2100580D2100E4
:1063C0004A0D2100470D21004F0D21004D0D2100E8
:1063D000E00F210040462946CDF80CC00092FFF79F
:1063E0006FFD009ADDF80CC0002840F0D180BCF1B0
:1063F000000F0DD01146D8F800306246D8F80400DE
:10640000CDF800C09847DDF800C0002840F0C080FB
:106410003C465E44102CD8F800300DD9D8F8040062
:106420006C491022CDF800C09847002840F0B08099
:10643000103CDDF800C0EDE75CB1D8F80400654918
:106440002246CDF800C09847DDF800C0002840F093
:106450009F80D8F80030D8F8040051465A46664468
:106460009847002840F094803E44B9F1000F79D05D
:1064700073E0079BD3F800A01A1D0792BAF1000F32
:1064800009D05346994699F800200133002AF9D1E2
:10649000CAEB090903E0DFF840A14FF00609002F1D
:1064A00002DBB94528BFB9464D458CBFC9EB050590
:1064B000002514F0010405D140462946FFF700FDF0
:1064C000002865D1D8F80030D8F8040051464A4673
:1064D000984700285CD14E443EE052EA030E0ED0AD
:1064E00002F00F0E10F80EE04FEA131C01F801ED58
:1064F0004FEA121E4EEA037E72466346EDE70B46F4
:106500007F1A01BF3022012701F1FF3301F8012C6E
:1065100003377822BD4203F8012C4FF0300203F814
:10652000022C88BFED1B4FF0230298BF002514F00A
:106530000104A3F1030903F8032C04D140462946C2
:10654000FFF7BEFC20BBD8F80030D8F8040049465D
:106550003A469847E0B93E4424B140462946FFF701
:10656000AFFCA8B92E44CCE4079B012D03F1040233
:106570001B688CBF05F1FF35002514F0010407925C
:106580008DF8203008D140462946FFF799FC10B11C
:106590004FF0FF301AE02E44D8F80030D8F804004D
:1065A00008A9012298470028F2D16F1C2CB140465F
:1065B0002946FFF785FC0028EAD13E44A1E4079B69
:1065C0001A1D1B6807921E609BE430460FB0BDE8A1
:1065D000F08F00BF150D2100510D2100F8B5038883
:1065E000064615462BB14A2B15D000230380032005
:1065F000F8BD174808F0EBFC04462CB1201DA1683B
:1066000008F051FC2468F8E7124B01221A704A2363
:1066100033800120F8BD8829FBD10D4808F0D7FC54
:106620000446002CF3D0231D9D420ED1084821467C
:1066300008F0D7FC084B62691F681A60A2691D4602
:106640000AB1E06990472F60E1E72468E9E700BFFD
:1066500050510020556500205C51002010B5064BBC
:10666000002406481C7008F0AFFC2146BDE810402D
:10667000034800F03DBA00BF55650020505100208E
:10668000F044002070B50446E3610B4B049D1B7879
:106690006561A26143B1094D094B2E68201D2B6035
:1066A00008F001FC2E6000E0A1602146BDE87040CA
:1066B000044808F0AABC00BF556500205C510020CA
:1066C000F04400205051002013B5034C246800947E
:1066D000FFF7D8FF02B010BD5C51002070B5094B28
:1066E00005461B783BB1084C084B266804302360F4
:1066F00008F0E2FB26602946BDE87040044808F037
:1067000084BC00BF556500205C510020F04400208F
:106710005051002070B5094B05461B783BB1084C21
:10672000084B26680430236008F0CFFB266029461A
:10673000BDE87040044808F068BC00BF5565002003
:106740005C510020F04400205051002010B5084B4F
:1067500004461B781BB1043000F0A8F801E0C360C8
:1067600003612146BDE81040024808F03ABC00BF72
:10677000556500205051002010B50E4C236813B908
:106780000D4A136010BDFDF79DFE216891E80C00D5
:106790001A44131A8A6842B192E812002144091A75
:1067A0008B4228BF0B469268F5E71844024B1860ED
:1067B00010BD00BF5451002058510020014800F086
:1067C000AFB900BF00450020F8B5038805462BB1DE
:1067D000592B09D0002303800320F8BD1E4A136003
:1067E00059232B800120F8BD872920D08229F7D199
:1067F000194F00263C68002CF2D0204608F097FB89
:1068000090B1E0688821224600F04AF950B9E06072
:10681000A3680EB1B36000E03B600023A360FFF704
:10682000ABFFE5E7FFF7CAFF2646A468E3E70A499E
:106830000B680BB90B60D3E7D868904201D19B6815
:10684000F7E70B6099680029CAD0C86890420ABF70
:1068500089680B469960F5E75451002010B504464D
:10686000FFF7ACFFE3680B4A4BB113683BB1A3429F
:1068700003D1094A1268DA6007E09B68F6E7064B25
:106880001B68E36013681460A360BDE81040FFF765
:1068900073BF00BF545100205C510020024B1868A8
:1068A000003018BF012070475451002010B50B4A2A
:1068B00004461368984206D18368136008E09A681A
:1068C000A24203D01346002BF9D103E0A2689A60DC
:1068D000FFF752FF0023A360E36010BD5451002076
:1068E00038B5836804460D469BB10A48046002200F
:1068F000A07304F10C0098470238012801D9832DB8
:1069000005D120462146BDE8384000F005B80123F6
:10691000A37338BD5C5100202DE9F8431C4A04469E
:10692000156889462B4690461A4E3768A34204D014
:106930000BB11B68FAE7BDE8F88334B3A37BABB1B6
:106940000023A37345B1AC4204D0284687212246D8
:1069500008F0CCFA2D68F5E7A3683BB14C4505D0AB
:10696000346004F10C0083212A469847D8F800309F
:106970009C4203D12268064B05E0134623B11A68F6
:10698000A242FAD122681A603760BDE8F88300BFDE
:10699000605100205C51002010B5094B00221A7094
:1069A000084B1C685CB1E37B3BB101230022A3735D
:1069B000E27320468221FFF793FF2468F2E710BDBF
:1069C0005865002060510020024B1878421C1A7054
:1069D000704700BF59650020064B8A221A70064A8C
:1069E00000231370054A1370054A1360054A1360AB
:1069F000704700BF5965002056650020576500208C
:106A0000605100205C5100202DE9F0411A4D2B7897
:106A10000BB1FFF7C1FF194C22783AB3184E0C2185
:106A20003378184F5943781817F8018001334768B5
:106A3000806803F01F03013A3370227068B9124B6B
:106A40001E689EB12B780BB1FFF7A6FF304641467A
:106A50003A4608F04BFA3668F3E7B8F1810F04BF05
:106A60000123837341463A4608F040FA2B78207898
:106A70001844BDE8F08100BF58650020576500202C
:106A8000566500206451002060510020024A034BEB
:106A900010781B781844704757650020586500200F
:106AA000F0B50B4E3378202B0FD00A4C0C252478F0
:106AB000094F1C4404F01F046C4301333D19A860C6
:106AC00039556A6033700020F0BD0120F0BD00BF71
:106AD00057650020566500206451002038B5034CEE
:106AE000256808F003FA256038BD00BF5C5100201E
:106AF00010B50A4609490C68234683420DD00BB1F4
:106B00001B68FAE748B10460086001218173838142
:106B10008121BDE81040FFF7E1BF10BD60510020AA
:106B200038B1837B013B012B9FBF024A0123C37312
:106B3000137070475865002010B5084C206858B194
:106B400000232360816843689847236823B1BDE828
:106B500010401868FDF704BD10BD00BFE4520020CE
:106B600010B50446FDF7B8FC94E80C001344C01AB5
:106B7000024B98428CBF0020012010BDFEFFFF7F1A
:106B8000F8B5214C00222178D3B28B4239D8DD00F0
:106B90006619776801328742F6D1FF2B31D01B4B43
:106BA000307A5B689847B0F1004F27D0737A33B9D9
:106BB00041F28833584340F6B833B0FBF3F02C442D
:106BC0006368013B052B19D8DFE803F0030B1610AF
:106BD00016160A234343C3F51F533633B3FBF0F0B5
:106BE0000AE040F28D335843094B03E058235843E1
:106BF00042F21073B0FBF3F080B2F8BD4FF6FF70B5
:106C0000F8BD0020F8BD00BFE8520020DC052100DF
:106C1000A08601002DE9F041431E012707FA01F586
:106C2000052B0646EDB203D94FF0FF30BDE8F081E9
:106C30001D4C2278012AF7D84A1E062AF4D80329C7
:106C4000F2D062781542EFD107FA03F313F0270868
:106C500003D113F0180F0FD1E6E7144B802029461B
:106C60009B689847B0F1004FDED0237804EBC30354
:106C70005E601D725F720EE00C4B802029469B689F
:106C80009847B0F1004FCFD0237804EBC3035E6088
:106C90001D7283F809802378002001332370637804
:106CA0001D436570BDE8F081E8520020DC0521003D
:106CB000812810B50C461DD1104A0020136805210B
:106CC00023F02003136052F8203C23F0200342F805
:106CD000203C0822FDF7DAFE094BFF221A60094B1F
:106CE00000201870084B14B101221A7010BD1C70DE
:106CF000204610BD4FF0FF3010BD00BF20940D4066
:106D000080900D405B6500205A6500202DE9F84F0A
:106D1000431E022B074600F2B1805A4E3378002BF7
:106D200040F09E8001233370574B584D1B78584CD0
:106D3000002B00F09B802B6843F020032B60FF2387
:106D40002360FDF7F7FB8046FDF7F4FB514BC8EBE2
:106D50000303C34202D5FDF77DFDF5E700210522BF
:106D60004D4807F0FDF900232360FDF7E3FB804663
:106D7000FDF7E0FB494BC8EB0303C34202D5FDF727
:106D800069FDF5E74FF00008C146FF23236014209A
:106D9000FDF7ACFB2B6823F020032B6023685FFA20
:106DA00083FA4FF0000B23685FFA8BF0534508D14C
:106DB00001200BF1010BFDF799FBBBF1FF0FF2D1A5
:106DC00058462368FF285FFA83FA1CD0B9F1030FF5
:106DD00012D919F0010F0FD12F494FEAD8028B5C5D
:106DE00008284FEA4303DBB288BF43F0010308F1F0
:106DF00001088B545FFA88F809F101095FFA89F9F3
:106E0000B9F1550FCDD1B8F1270F2FD9224B5978B1
:106E10001A780A4499780A44D9780A441979D2B27E
:106E2000914223D12A68022F22F020022A604FF0DB
:106E3000FF0222600BD0032F15D098780022DB7858
:106E400000F07F00327003EB0020BDE8F88F187867
:106E50005B7803EB00200023337080B2BDE8F88F2D
:106E6000FF20BDE8F88F0020BDE8F88F2B6823F0E5
:106E700020032B60FF232360002333704FF0FF308B
:106E8000BDE8F88F5B6500205A65002000940D4036
:106E900080900D4000E0FFFF5C65002071FDFFFF6A
:106EA00038B50C46054610B94FF0FF3038BD002903
:106EB000FAD00320FFF72AFF0130F5D0084A09492C
:106EC000937803F07F00D37803EB00232B6000203E
:106ED00053780870117803EB01239BB2236038BD0F
:106EE0005C6500205B65002038B505880446672D89
:106EF00009D0792D2ED0002D32D1FFF765FD1B4B27
:106F000018701B4B1D601B4808F012F9431C01D17F
:106F100067231DE00A28164B07D01A687E2AF2DC88
:106F2000511C1960144B9854EDE7196800254A1C50
:106F30001A60114A0D4B555428461978FFF7B0FDD9
:106F40000E4B852118682A46FFF7AAFD20B9792340
:106F5000238009E0852907D1054B00221A60D2E77A
:106F600000230380032038BD012038BDD5710020E7
:106F700004530020FC520020E26500205C510020F8
:106F80000D2810B5014615D00B4C23782BB90B48B2
:106F900008F0BAF848B9012306E00A2805D10748E5
:106FA00008F0B2F808B1002323700548FFF7B8FDD8
:106FB000012010BD002010BD61650020FC520020A2
:106FC0001045002008B505480549802208F095F8CD
:106FD000BDE8084003480021FFF78ABDFC520020AD
:106FE0006265002010450020813801289ABF024BBD
:106FF00018780020704700BF6266002010B5038833
:1070000004466BB1FA2B03D000230380032010BD8C
:10701000822907D107F0ADFF034B00201B6898477A
:10702000FA232380012010BD3C6C00200148FFF7AB
:1070300077BD00BF2045002030B5812887B003917F
:1070400005D0431E032B3DD94FF0FF3418E159B34F
:107050008D4B02200146024600930323FEF7C6FD36
:107060008A4B00221A600324A02305A802218DF870
:1070700014308DF8154007F068FF0028E4D129206E
:1070800005A9FEF749FE0028DED19DF8143003F073
:107090000F03A342D8D1AA2005A9012207F078FF47
:1070A000002800F0AE80CFE7A0238DF8151005A8CA
:1070B00002218DF8143007F048FF04460028C3D1A0
:1070C000734B42E0724B1B78002BBDD0032813D1C9
:1070D000704A05A81368022123F001031360A62358
:1070E0008DF8143000238DF8153007F02EFF003096
:1070F00018BF01204442C3E0042828D112290D46BC
:1071000001D00229A0D8A12305A802218DF81430AE
:107110008DF8155007F019FF0446002894D1122D60
:1071200003D15D4B01221A7008E0012D0AD0022D17
:1071300004D0002D40F0A480584B06E0574B0222AB
:107140001A709DE0554B1D709AE01C7098E09DF8F8
:107150000C3001288DF815309DF80D308DF8163063
:1071600001D1A42302E0022802D1A2238DF8143019
:1071700005A8032107F0E9FE00287FF465AFA623E8
:107180008DF8143005A8122302218DF8153007F070
:10719000DCFE044600287FF457AF414A414813689B
:1071A000032123F00103136052F8203C23F0010374
:1071B00042F8203C52F81C3C23F0010342F81C3CEE
:1071C00052F8183C23F0010342F8183C52F8143CE2
:1071D00023F0010342F8143C2246FDF7F9FB214657
:1071E0003148FFF785FC2B4A03201368214643F002
:1071F000010313600422FDF749FC0320FDF75AFB4D
:107200003EE09DF8143003F0F003502B7FF41CAFE8
:10721000A12005A9012207F0BBFE00287FF414AFCE
:107220009DF814301C4A03F0100111701B4A03F042
:1072300003031370A4238DF8143005A8FF232146FF
:107240008DF815308DF8163007F07FFE00287FF49A
:10725000FBAEA2238DF815008DF81600214605A877
:107260008DF8143007F071FE00287FF4EDAE07F0C2
:1072700080FE044600287FF4E7AE0122044B5FE75E
:10728000204607B030BD00BFA08601003C6C002046
:107290006266002010C40D40636600206466002012
:1072A00020C40D402D7020002045002007B53E4B26
:1072B0001B7813B94FF0FF3073E00128FAD1AC20EE
:1072C00001A9022207F064FE0028F3D1AE200DF1DF
:1072D0000601022207F05CFE0028EBD19DF8053084
:1072E0009DF804209DF8071042EA03229DF806301D
:1072F00043EA01232D49097802299CBF2C4830F824
:1073000011002C49097801B9000142435843920AFF
:107310004FEA90231ABF9902B1FBF2F111460131F5
:107320004908402905D84FF4F97050434FF4D972F9
:107330002FE0802905D84FF40570504340F2D12248
:1073400027E0C02905D840F23F20504340F27B326D
:107350001FE0B1F5807F05D84FF41C70504340F218
:10736000FE3216E0B1F59C7F05D840F26F10504315
:107370004FF4FE720DE0B1F5CD7F03D8D22050431B
:10738000FB2206E040F29A20814205D818205043A3
:10739000122202FB130000E0002000F50050C0F3B1
:1073A0008F3003B05DF804FB626600206466002045
:1073B000F407210063660020054A136843F00403C4
:1073C0001360044B1B68906943EA002080B2704749
:1073D00000700D4014700D40174A136823F00C0321
:1073E0001360164B01221A601A68012AFCD1144B53
:1073F00008221A60E322C3F8142203F50573194624
:10740000104B1B68DB07FBD5102000230E4A013808
:10741000126802F0010243EA02034FEA43039BB2FF
:10742000F4D1002BF0D0094A180A03F0FE031060D3
:107430001360EF230B60704700700D40A8200D40D3
:1074400024860840648608409C86084014700D40DD
:1074500070B505880446772D30D07E2D3FD0002DA5
:107460004DD1FFF7B1FA294B1870294B1D601D460D
:107470002B68284A264E52F823204AB1264800217C
:10748000C154936880209847336801333360EFE735
:10749000224A1370772320E01F4AD256002A12DBBB
:1074A0001B4A136801331360194B1C4A1B6812787E
:1074B0009342F1DB1A4B1B68002BEBD0184A0023D8
:1074C0001360134AEFE7114A00201178114A52F86D
:1074D0002320FFF7E5FA30B97E23238013E00B4B1E
:1074E0001B788B420FD10A4B0B491A688B5C03F057
:1074F0007F038B540A4A136801331360D0E70023DB
:107500000380032070BD012070BD00BFD671002034
:1075100008530020C8440020D17100206566002077
:107520000C530020094B1A780023934204DA0849CF
:1075300051F82310814207D106490748CA5C62F01E
:107540007F02CA54FFF7ECBA0133EEE7656600200C
:10755000C8440020D1710020304500200C4AB823D7
:1075600003FB0022002330B553821A46094CE11870
:107570008D782DB11C5D844202BF00248C700132D5
:1075800040F24C5171338B42F0D1104630BD00BFF8
:107590002C5300207166002008B5064802F0BAF9A5
:1075A000054B01221A70FD2100225A709970DA7081
:1075B00008BD00BF017820006766002010B5137871
:1075C0000446087A83F0020398421DD1487A537822
:1075D000984219D1887A9378984215D1C87AD3788D
:1075E000984211D1087B137998420DD1487B537989
:1075F000984209D1887B9379984205D1C87BD37989
:10760000984201D103201BE00B890F4A6BB94B89CB
:10761000B3F57F4F09D18B89FE2B06D11368C98939
:10762000022023F8021B13600AE0136851F8080FC8
:10763000083343F8080C486843F8040C1360012031
:10764000A040C0B210BD00BF1853002010B50F4CB1
:107650000220A17904F084F9A379112B01D0062B23
:1076600005D1238D618D9942A8BF194608E03A2BB8
:1076700005BF94F8281094F82930002143EA01212D
:107680000120BDE8104004F06BB900BF506C002031
:1076900010B5084C01462378012B08D1A01C082204
:1076A00006F052FC00280CBF2046002010BD002030
:1076B00010BD00BF6766002008B50146132004F026
:1076C0005DF9044B04489B6800219847BDE80840D9
:1076D000FDF7C0B8C4072100DD76200010B50846CC
:1076E0000C46114601F008FD044B1B6813B19B6862
:1076F00020469847024B1C6010BD00BF2853002055
:1077000024530020F8B505460023114A712404FBD8
:107710000324A278B2B9617004F050F826460D4FE8
:107720000D4A3B7806F8035BC01A1568A0701D442B
:1077300004F044F83A782946821A304606F036FCBE
:10774000A078F8BD01330C2BDFD14FF0FF30F8BD2E
:1077500071660020BD6B00201C5300202DE9F8430A
:107760004FEA1219B9F10F0F80461D4602F00F04BF
:107770000BD00F2C05D1B9F1000F0AD110242746E8
:1077800019E0B9F1000F09D004E00F2C4FF01009F7
:1077900000D1102440464A4606F008FC09EB0402DA
:1077A0000F2A274606DC08EB09000021C2F110026F
:1077B00006F0D6FCBCB1114DC7F110002E68404454
:1077C0003146224606F0F2FB022C08D1B9F10A0F2D
:1077D0009FBFFF2388F80B30FE2388F80C30344419
:1077E0002C60BDE8F883B9F1000F05D0404629466A
:1077F000BDE8F84307F000BDBDE8F883185300204A
:107800002DE9F04F8E4E8F4D002387B033702B70D3
:10781000044604F04FF803F0E3FF8B4A8B4B1268E9
:1078200018608DE8600099460AB1FFF70FFF04A8C1
:107830000CB9874900E0214608F048FB854B864E8D
:107840001A8803933E2A40F20182D9F800B0834D92
:107850000BF102032B60009B06F1180093F80080E7
:10786000002308F102080BF80830FFF711FF20B9D8
:1078700006F10800FFF70CFF20B10BF103032B60AA
:10788000802400E0044672783178130943EA01133A
:10789000DBB2980840EA8313DBB212F00F0FDEB2BE
:1078A0006E4F01F00F010CD16B48408848B911B9F7
:1078B00012F0F00F1FD03B6803F8016B3B6070269D
:1078C0001AE079B912F0F00F0CD1296823F03F03C8
:1078D0001A43634B0A701B88033121F8023C682667
:1078E000296009E05C4A2B681068186003F8046B93
:1078F0002B60602600E07826574B9A790293112A74
:1079000008BF46F0040673075EBF3B6803F8012B0F
:107910003B60029BDB79402B06D0FF2B07D0012B6D
:1079200008D146F0010609E046F0020606E046F0FE
:10793000030603E03A6802F8013B3A60029A464BBC
:10794000128982B95A8972B99A8962B9DA8952B9A7
:107950001A8A42B95A8A32B99A8A22B9DB8A13B989
:1079600044F0400013E03F48FFF792FE3E4B1860A2
:1079700078B142781BF80830042043EA02130BF870
:1079800008303849394AFFF719FE60F03F00C4B2A9
:1079900027E0029B30491A8948F2FE039A420CD133
:1079A0004B8B53B98B8B43B9CB8B33B90420083144
:1079B0002E4AFFF703FE2043E9E73A68DFF8A4C048
:1079C00096460CF1100A634603CB5345CEF80000EF
:1079D000CEF804109C460EF1080EF4D11F4B103265
:1079E0001A60DFF874A09AF81830FF2B40F08A80F4
:1079F0009AF8192044F0080E022A5FFA8EFE37D159
:107A0000BAF81A30A3BBBAF81C308BBBBAF81E30D8
:107A100073BBBAF820305BBBBAF8223043BBBAF86C
:107A200024302BBB9AF8263013BB3B689AF82720EA
:107A300044F00B0003F8012BC4B23B609FE000BF91
:107A400066660020BD6B0020285300201C530020D8
:107A50003B0E2100406C0020506C00201853002089
:107A6000526C0020586C002010530020486C0020FD
:107A70009A4B588B194688BB988B78BBD88BA8B982
:107A8000188C98B9588C88B993F8240070B9296873
:107A900044F00A00C4B2084600F8012B33F8252F41
:107AA000043121F8032C9B78837015E0C98B8B4B34
:107AB000A1B9198C91B993F8221079B9296844F0C9
:107AC0000900C4B2084600F8012B53F8232F0631F1
:107AD00041F8052C1B790371296050E0804ADFF8DA
