:020000040020DA
:10200000707D00208D222000078821000588210096
:1020100005882100058821000588210000000000B6
:1020200000000000000000000000000073A4210078
:10203000058821000000000091A421003F8C2100B0
:10204000518C2100578C21005D8C2100638C210074
:1020500000000000458C21004B8C210005882100E8
:1020600005882100000000000000000000000000C2
:1020700000000000000000000588210000000000B2
:1020800000000000000000000588210005882100F4
:102090000588210005882100058821000588210088
:1020A0000588210005882100058821000588210078
:1020B0000588210005882100058821000588210068
:1020C0000588210005882100058821000588210058
:1020D0000588210000000000000000000000000052
:1020E00000000000000000000000000000000000F0
:1020F0000000000000000000BD982000CD982000E6
:1021000000000000000000000000000000000000CF
:1021100000000000000000000000000000000000BF
:1021200000000000000000000000000000000000AF
:10213000000000000000000000000000000000009F
:10214000000000000000000000000000000000008F
:10215000000000000000000000000000000000007F
:10216000000000000000000000000000000000006F
:10217000000000000000000000000000000000005F
:10218000000000000000000000000000000000004F
:10219000000000000000000000000000000000003F
:1021A000000000000000000000000000000000002F
:1021B000000000000000000000000000000000001F
:1021C000000000000000000000000000000000000F
:1021D00000000000000000000000000000000000FF
:1021E00000000000000000000000000000000000EF
:1021F00000000000000000000000000000000000DF
:1022000000000000000000000000000000000000CE
:1022100000000000000000000000000000000000BE
:1022200000000000000000000000000000000000AE
:10223000000000000000000000000000000000009E
:10224000000000000000000000000000000000008E
:10225000000000000000000000000000000000007E
:10226000000000000000000000000000000000006E
:1022700005882100A1972000C597200081892000B2
:102280002D9A2000618420000588210008B5094BA3
:10229000FF221A600848094A4824E3690849121ACB
:1022A00098470848084AA3690021121A984705F080
:1022B00083FDFEE7B4200D4040000020B60A002058
:1022C00054FE2100B80A00206C75002070B5038907
:1022D0000446AB2B0AD004D8002B72D1AB23038168
:1022E00004E0B82B30D0D52B63D06AE004F10800AD
:1022F00020210EF057FB012801D8002070BD04F109
:10230000520528463149042216F0BEF808B90123C7
:1023100016E028462E49042216F0B6F808B9022322
:102320000EE028462B49052216F0AEF808B9042322
:1023300006E028462849072216F0A6F880B90823A7
:1023400084F84038B823238104F108063046202160
:102350000EF028FB0128D0D994F852302F2B06D04C
:102360001E4B10221A7000232381022070BD00250D
:10237000C4F85454304617F007FA204480F85150FE
:1023800004F58B654FF47A73284604F2544104F146
:10239000520216F04DFA94F859342BB928461049D8
:1023A0004FF47A7216F0BAF8012384F84838D5232E
:1023B000238104F108000A210EF0F4FA0128F6D86E
:1023C0009BE700232381032070BD00BFC7B021001D
:1023D000BAB0210039B02100BFB02100B46A00209A
:1023E0007AAF210038B5838D04466A2B0D4604D0A0
:1023F0006B2B11D0C3B96A238385284615F0BEFF25
:102400002946024604F12C000EF06CFA012801D88E
:10241000002038BD6B23A38504F12C0004491B2246
:102420000EF060FA0128F3D90023A385032038BDFC
:102430003FB0210038B5B0F8503004468E2B42D062
:1024400006D8892B2CD08C2B35D0002B73D106E0ED
:10245000992B61D09A2B68D0902B6CD146E000F27A
:102460005945284600F034F9C4F8440840B92846D4
:1024700000F04EF920B1C36820469847C4F84408DC
:10248000D4F84438002B35D0DB68D90705D5D4F80B
:102490004438DB689A070BD512E08923A4F8503042
:1024A00020462749FFF79EFF0128F0D8002038BDBD
:1024B0008C23A4F85030204600F0EEFA0128F5D91C
:1024C0008E23A4F85030D4F8443820461B6998472E
:1024D0000128EBD9D4F84438DB685B0703D5194BE6
:1024E00010221A7027E09023A4F85030204600F004
:1024F000BDFB1DE0144807F007FB04F58B61134892
:1025000007F002FB124B18680FF0F8FD0A2007F0E5
:10251000A1FA9923A4F8503020460E49FFF762FF34
:102520000128C3D99A23A4F85030204600F0C2FCF9
:102530000128D4D8BAE70023A4F85030032038BDCE
:10254000E3AF2100B46A00205BB0210068B0210035
:10255000C46A002086AF21002DE9F04103880646B9
:10256000144643B140F2151293421AD0002303805F
:102570000320BDE8F081394CB4F8D60040BA80B2EF
:102580000FF072FB364807F0BFFA3648B4F8D610A1
:1025900007F0BAFA344816F06FFF40F21513338093
:1025A00003E0324B1B788B4202D00120BDE8F08162
:1025B0002F4D2B78A84613F0300701D1190606D508
:1025C000002CEAD02146284816F07AFFE5E75A06A3
:1025D00027D5254816F060FF044618B9202388F84F
:1025E0000030DAE7234B2146186804F152050FF05A
:1025F0004FFB04F10800294640F2FF3217F0C9F8FA
:1026000004F12C00294640F2FF3217F0C2F8A4F87A
:10261000507084F8487820464FF4A06116F0C1FE4F
:1026200010E0002CDAD01B07204609D516F0CBFEAF
:1026300040B1202321460C482B7016F041FF01E0E9
:1026400016F0BBFE2046FFF741FE94F84838012BF8
:10265000A3D12046FFF7EEFE9FE700BFD87200200F
:1026600083B0210090B02100780400207274002013
:10267000B46A0020C46A0020014800210AF0A4B80E
:1026800068040020064A0023036013680BB9106039
:1026900070471A680AB11346FBE71860704700BF1D
:1026A0001C130020014B1868704700BF1C1300204A
:1026B000064A0023036013680BB9106070471A685C
:1026C0000AB11346FBE71860704700BF18130020DB
:1026D00038B50546054B1C6834B16068294615F0CD
:1026E00011FD08B12468F7E7204638BD1813002013
:1026F000064A0023036013680BB9106070471A681C
:102700000AB11346FBE71860704700BF141300209E
:1027100038B50546054B1C6834B16068294615F08C
:10272000F1FC08B12468F7E7204638BD14130020F7
:1027300010B53D4CB4F85830DA0674D4FFF79CFF5E
:102740003A48FFF79FFF3A48FFF79CFF3948FFF7E9
:1027500099FF3948FFF796FF3848FFF793FF38484D
:10276000FFF790FF3148374916F050F832483649A4
:1027700016F04CF835492E4816F048F83448FFF763
:1027800097FF2B48334916F041F82948324916F093
:102790003DF82748314916F039F83149244816F0F8
:1027A00035F83048FFF7A4FF2F48FFF7A1FF2F4867
:1027B000FFF79EFF20482E4916F028F81D482D49A6
:1027C00016F024F81B482C4916F020F81B482B491A
:1027D00016F01CF8B4F85830DB0724D42848FFF76B
:1027E00087FF2848FFF784FF2748FFF781FF274826
:1027F000FFF77EFF2648FFF77BFF2648FFF778FFAD
:102800002548FFF775FF2548FFF772FF24490C485C
:1028100015F0FCFF2348FFF76BFFBDE810400848A8
:10282000214915F0F3BF10BDD87200209404002098
:10283000C4040020A4040020B4040020D404002018
:10284000840400200C0500208405002004070020DB
:102850006C0700202807002098060020BC060020F6
:10286000E00600204C070020900700205C070020B5
:10287000A00700203005002064060020C8050020C5
:10288000880600204406002054060020740500201D
:102890005405002064050020B8050020A80500208C
:1028A000FC050020EC05002020060020014B002242
:1028B0001A607047405100200FB413B50F4C04ABA1
:1028C000216853F8042BB1F5007F019311D20C4815
:1028D0000844C1F5007107F027F923681844B0F5E2
:1028E000007F206005D3074807F00EF9064816F070
:1028F000A8FA02B0BDE8104004B070474051002073
:10290000485100200AB1210016B1210007B550B18D
:10291000017842788378C07800900648FFF7CCFFB2
:1029200003B05DF804FB044803B05DF804EBFFF767
:10293000C3BF00BF26B1210032B121002DE9F04113
:102940008846074628B30024254645451FDA7B19EB
:102950005B787E5D03EB0626B6B24EB9002C09DB30
:1029600001D0013411E00D48FFF7A6FF01240CE06F
:10297000002C04DC2DB10A48FFF79EFF01E04FF068
:10298000FF3408483146FFF797FF0235DDE7BDE821
:10299000F0810548BDE8F041FFF78EBF39B1210055
:1029A0003AB121003CB1210032B1210038B50546D1
:1029B00060B10024295D08480134FFF77DFF082C31
:1029C00003D00648FFF778FFF4E738BD0448BDE8B8
:1029D0003840FFF771BF00BF3CB121003AB1210080
:1029E00032B1210038B5054660B10024295D0848A0
:1029F0000134FFF761FF062C03D00648FFF75CFFA8
:102A0000F4E738BD0448BDE83840FFF755BF00BFC4
:102A10003CB121003AB1210032B1210070B5054628
:102A20000E460446631BB34205DA034814F8011B43
:102A3000FFF742FFF6E770BD3FB1210038B505460C
:102A4000FFF730FE0446BCB10C48FFF735FF2B689A
:102A50003BB15B699C4204D109486168FFF72CFFD8
:102A600005E0A368074859686268FFF725FF064834
:102A7000FFF722FF2468E6E738BD00BF44B121001C
:102A800055B1210065B12100AAE9210001460148A4
:102A9000FFF712BF79B1210040F20F1370B5858D99
:102AA00004469D423ED0B5F5887F04D285B1B5F588
:102AB000847F17D0B5E0B5F58B7F00F08680B5F543
:102AC0008F7F00F09F80B5F5897F40F0AA803EE0BF
:102AD000D0F8446805F04AFC544B30621D604FF456
:102AE0008473A385524B1D68284615F047FC294680
:102AF000024604F12C000DF0F5FE012801D800205B
:102B000070BDD4F84438996819B14A48FFF7D4FE2B
:102B100002E04948FFF7D0FE4848FFF7CDFE40F2FB
:102B20000F13A385464815F029FC4549024604F1D8
:102B30002C000DF0D7FE0128E1D93C4B002204F611
:102B400044001A60FFF77AFF4FF48973A3853C486D
:102B500015F014FC3A49024604F12C000DF0C2FEB7
:102B60000128CCD9314B00221A60D4F84438002B0C
:102B700039D05B69002B36D0DB68012B33DD31485F
:102B8000FFF79AFED4F844385B699D68D5B1AB680D
:102B9000B3B1EB68DB0313D42B48FFF78DFED4F8F9
:102BA00044389D4204D12948A968FFF785FE04E016
:102BB00027486968AA68FFF77FFE2648FFF77CFE72
:102BC000AD69E3E74FF48B73A3851D4815F0D6FB81
:102BD0001B49024604F12C000DF084FE01288ED919
:102BE000124B00221A601C48FFF766FED4F84438E6
:102BF000986820B1FFF74AFF1848FFF75DFE4FF4D1
:102C00008F73A3850E4815F0B9FB0D49024604F1F8
:102C10002C000DF067FE01287FF671AF034B0022F8
:102C20001A600023A385032070BD00BF405100201F
:102C3000E4040020A0B12100B9B12100CDB12100F0
:102C40004851002051B2210044B1210055B121006A
:102C500065B12100AAE9210068B2210075B2210006
:102C60000148FFF729BE00BF8AB2210038B540F203
:102C70003115838D0446AB4224D040F23312934287
:102C800033D0002B39D1FFF7EBFFD4F844381D487F
:102C9000D9690131D961FFF70FFE05F067FBD4F860
:102CA0004438196A6423C1F10101014401F07F0233
:102CB0005A431548C909D209FFF7FEFD1348FFF72B
:102CC000FBFDA585124815F059FB1149024604F198
:102CD0002C000DF007FE012801D8002038BD0D4B57
:102CE00000221A6040F23313A38504F12C000A4934
:102CF00014220DF0F7FD0128EFD90023A38503204E
:102D000038BD00BFE4B2210009B3210068B2210040
:102D100048510020405100201FB3210038B5838D59
:102D20000446B3F5A17F46D00DD840F23B12934242
:102D300015D0B3F5A07F2DD0002B40F096804D49E3
:102D400082850B600BE0B3F5AC7F75D0B3F5AD7F3A
:102D500000F08380B3F5A27F40F087803AE0464BD5
:102D60001D68284615F00AFB2946024604F12C008E
:102D70000DF0B8FD012801D8002038BD3F48FFF70D
:102D80009BFD3F4B196811B13E48FFF795FD4FF48D
:102D9000A073A3853C4815F0F1FA3B49024604F1C3
:102DA0002C000DF09FFD0128E6D9324B00221A605D
:102DB0004FF4A173A38504F12C00344983220DF054
:102DC00091FD0128D8D904F64400FFF737FE4FF4EF
:102DD000A273A3852C4815F0D1FA2B49024604F1C1
:102DE0002C000DF07FFD0128C6D9224B0022284877
:102DF0001A60FFF761FD274B186800B92648FFF7F6
:102E000045FE2648FFF758FD254B196819B125489E
:102E1000FFF752FD02E02448FFF74EFD184B1B68F8
:102E200013B12248FFF748FDFFF71AFF1848FFF7D4
:102E300043FD4FF4AC73A385134815F09FFA124974
:102E4000024604F12C000DF04DFD012894D9094BE8
:102E500000221A604FF4AD73A38504F12C001449CD
:102E600014220DF03FFD012886D90023A3850320FD
:102E700038BD00BF40510020E4040020B9B121005A
:102E80004451002034B3210048510020CDB121002D
:102E900068B221003851002066B3210075B22100CC
:102EA0003C510020E2C6210075B3210087B3210008
:102EB0001FB3210038B5838D0446B3F5B37F25D009
:102EC00004D85BB1B3F5B27F0BD058E0B3F5B77F50
:102ED0003CD040F27112934249D050E04FF4B273AB
:102EE0008385294B1D68284615F048FA2946024675
:102EF00004F12C000DF0F6FC012801D8002038BDAB
:102F00002248FFF7D9FC4FF4B373A38504F12C00DA
:102F10001F4983220DF0E6FC0128EFD91D4B00224A
:102F200004F644001A60FFF789FD1B48FFF7AEFD69
:102F30001A48FFF7C1FC1A48FFF7BEFCFFF790FEE6
:102F40001848FFF7B9FC4FF4B773A385164815F07E
:102F500015FA1549024604F12C000DF0C3FC0128B6
:102F6000CCD90C4B00221A6040F27113A38504F1F6
:102F70002C000E4914220DF0B5FC0128BED9002307
:102F8000A385032038BD00BFE4040020CCB321009A
:102F9000CDB1210040510020E5B3210075B22100E0
:102FA000E9B3210068B22100485100201FB321007D
:102FB00073B5838D0446882B3AD001D833B1D5E060
:102FC000A72B7FD0C12B00F0C380CFE0FFF76EFCB2
:102FD0006948FFF771FC6949B1F85830580704D5C2
:102FE0006748B431FFF768FC02E06648FFF764FC0D
:102FF0006548FFF761FC6548FFF75EFC6448FFF732
:103000005BFC05F0BDF9634B4FF461611D683C2327
:10301000451BB5FBF3F6B6FBF3F25F4803FB126208
:10302000B5FBF1F103FB1653FFF746FC8823A3859C
:103030005A4815F0A3F95949024604F12C000DF045
:1030400051FC012801D8002093E0FFF72FFC5448E1
:10305000FFF732FC534B54481968FFF72DFC534BD4
:103060001A68DD690192A84720B1A847802292FB27
:10307000F0F200E0024601994D48FFF71DFC13F005
:103080009FFE01464B48FFF717FC4B48FFF714FC27
:103090004A48FFF78BFC4A48FFF70EFC4948FFF708
:1030A0000BFC494815F03CFC4548FFF705FC474838
:1030B000FFF702FC464815F033FC4148FFF7FCFBE4
:1030C000A723A385354815F059F93449024604F180
:1030D0002C000DF007FC0128B5D9FFF7E7FB3D48B0
:1030E000FFF7EAFB3448FFF7E7FB3B48FFF77AFCC2
:1030F0003348FFF7E1FB3348FFF7DEFB374815F0B5
:103100000FFC2F48FFF7D8FB3048FFF7D5FB1B4DCE
:10311000334815F005FC2A48FFF7CEFBB5F85830C8
:103120009A0713D52F48FFF7C7FB95F8A630DB07A2
:1031300005D408F079FAFFF7E9FB214804E008F02C
:10314000FDFC0028F5D12848FFF7B6FBC123A38575
:10315000124815F013F91149024604F12C000DF044
:10316000C1FB01287FF66FAFFFF7A0FB0023A3850B
:10317000032002B070BD00BF23B82100D872002028
:1031800031B821004BB8210097B8210053F7210036
:103190009FB821008C720020A7B821004851002060
:1031A000C2B82100ACAD2100D5B82100E0AD2100AE
:1031B000E3B82100F9B821000CB921009C6500207A
:1031C00085C4210048B92100407200201AB92100AD
:1031D0002A7200202BB921001472002050720020A6
:1031E000A472002043B9210053B921002DE9F7430F
:1031F000838D0446CC2B00F0DC8111D87C2B00F0B1
:103200008E8003D863B35E2B2FD07FE3AC2B00F00E
:103210001F81C72B00F03C81922B40F07783B6E0F2
:1032200040F22D12934200F06D82B3F5977F08D2E1
:10323000EF2B00F0FC8140F21F12934200F02C8231
:1032400064E340F24F12934200F0E98240F25F12D1
:10325000934200F04D83B3F59C7F40F0578380E2AA
:10326000B248FFF729FB5E23A385B14815F086F825
:10327000AF49024604F12C000DF034FB012801D8BF
:10328000002046E3FFF712FBAA4B00221A6003E07E
:10329000A84A136801331360A64D2868052852DC3C
:1032A0002C277843A44E33181B7E002BF0D03044DB
:1032B0001A3015F035FB2B6807FB036393F82A30AF
:1032C000002B3AD0012B0CBF50213F219B48FFF728
:1032D000F3FA2B682C2202FB036393F82B30032BA9
:1032E0002DD0022B2DD0012B0CBF41213F21934823
:1032F000FFF7E2FA28682C235843064496F82C304E
:1033000043B98D4B3030184416F03CF801468C48D8
:10331000FFF7D2FA8B48FFF7CFFA7C23A3858448C6
:1033200015F02CF88249024604F12C000DF0DAFA6F
:103330000128A5D9FFF7BAFAAAE75421C6E74D211B
:10334000D5E74421D3E78048FFF7B6FA00232B6086
:103350002B68022B19DC7D4E5B01F018F35C8BB1FE
:10336000023015F0DDFA7A48FFF7A6FA714B1B68B8
:1033700006EB4316F37C13B17648FFF79DFA7148CC
:10338000FFF79AFA2B680133E1E79223A385684897
:1033900014F0F4FF6649024604F12C000DF0A2FA85
:1033A00001287FF66DAF6C4DFFF780FAB5F8583005
:1033B0002E4613F0020F59D06848FFF77DFA95F8B2
:1033C000A630DD073BD46648FFF776FA08F02CF903
:1033D000FFF79CFA6348FFF76FFA6348FFF76CFA50
:1033E00008F026F9FFF792FA5E48FFF765FA5F48A2
:1033F000FFF762FA08F020F9FFF788FA5948FFF75B
:103400005BFA96F8A630D80720D5594E5948FFF7F1
:1034100053FA30682430FFF779FA5248FFF74CFA34
:103420003368188D16F0CFF833680546588D16F0BE
:10343000CAF800EB05415048FFF73EFA06E008F0F5
:103440007DFB0028BFD14D48FFF736FAAC23A3859A
:10345000374814F093FF3649024604F12C000DF072
:1034600041FA01287FF60CAFFFF720FA4448FFF736
:1034700023FA444B186811F0CBF9434B18601CE059
:103480004248FFF719FA2F48FFF716FAC723A3851A
:10349000274814F073FF2649024604F12C000DF072
:1034A00021FA01287FF6ECAEFFF700FA364D354BD6
:1034B0002968186817F044F82860334D2B68002BF2
:1034C00072D0254BB3F85830D90708D43048FFF7ED
:1034D000F3F9286815F024FA2E48FFF7EDF928686B
:1034E00015F01EFA1A48FFF7E7F928680BF03CFFC1
:1034F000FFF75CFA1648FFF7DFF92B685B7C042BBB
:10350000C1D801A252F823F0813420001D352000DB
:103510002135200025352000293520001E48B0E740
:103520001E48AEE71E48ACE71E48AAE77FB9210057
:1035300048510020201300200C6E00209DB921006E
:10354000A1B921001EDD2100A7B92100E46F0020F0
:10355000EFF9210039F62100D8720020C4B921000A
:1035600048B9210085C42100DDB92100E8B9210056
:1035700070080020F3B9210002BA210053B92100DC
:103580001FBA2100C4080020241300205BBA2100C8
:103590003DBA21004FBA210066BA210070BA21005D
:1035A00076BA21007CBA2100A648FFF785F9CC2322
:1035B000A385A54814F0E2FEA349024604F12C00BD
:1035C0000DF090F901287FF65BAEFFF76FF90BF075
:1035D000FBFF9E4B002218609D4B1A609B4D2B6891
:1035E000002B3CD09B4BB3F85830DA0709D49A48EB
:1035F000FFF762F92868083015F092F99748FFF74D
:103600005BF92868083015F08BF92B68944893F81B
:103610003410FFF751F928680BF0C4FF15F080F95A
:103620002B689048996AFFF747F9EF23A3858648EE
:1036300014F0A4FE8449024604F12C000DF052F966
:1036400001287FF61DAE814DFFF730F9286816F08E
:1036500079F87F4A2860136801331360BEE7824817
:10366000FFF72AF90CF030F9804B804D18602E6876
:103670002EB3301D15F054F92868037F33B9143088
:1036800015F080FE01467A48FFF716F97948FFF7F2
:1036900013F940F21F13A3856B4814F06FFE6A49BB
:1036A000024604F12C000DF01DF901287FF6E8AD6B
:1036B000FFF7FCF8654B186815F0DBFED4E7644DA6
:1036C0006D48FFF7F9F82E602A68002A17DC1827E2
:1036D0007A436A4EB35CB0186BB1023015F020F932
:1036E0005B4B67481A6807FB0263997CDA7C1033EE
:1036F0005B68FFF7E1F82B6801332B60E4E740F2E9
:103700002D13A385504814F039FE4F49024604F1A9
:103710002C000DF0E7F801287FF6B2ADFFF7C6F8F0
:103720005848FFF7C9F800200EF04AFD03886BB92E
:1037300043885BB983884BB9C3883BB903892BB9EC
:1037400043891BB983890BB9C3893BB115F0E8F8EC
:103750000EF03EFD01464C48FFF7AEF84FF49C7367
:10376000A385394814F00AFE3749024604F12C00BB
:103770000DF0B8F801287FF683ADFFF797F8354BC9
:10378000B3F858309B0705D44048FFF795F8304F01
:103790000023A3E03E48FFF78FF807F069FC3D4B9C
:1037A000186004E03B4D286815F063FE2860394D31
:1037B00028680028E8D0043015F005FE0028F1D173
:1037C00028680C3015F0ACF82B68334893F82E209D
:1037D000598DFFF771F82B681A6A8AB35B6A6BB36D
:1037E0002E48FFF769F828681C30FFF78FF8286823
:1037F000B0F82C80078D90F82F608568D0F8049081
:1038000004F0B4FD4D44281AC509334600952448F8
:1038100041463A46FFF750F840F24F13A3850A4855
:1038200014F0ACFD0849024604F12C000DF05AF8E2
:1038300001287FF625ADFFF739F8B3E71948D0E73F
:103840001948CEE786BA21004851002030130020E5
:1038500020130020D8720020A1BA21004FBA210005
:10386000B5BA2100BEBA2100C6BA21002813002033
:10387000A1B921001EDD2100EABA2100B8720020A2
:1038800009BB210017BB210036BB21003DBB210035
:1038900068BB21002C13002095BB21009FBB210099
:1038A000AFBB2100A5BB2100AABB21000A267343A0
:1038B000194DEA18EB5C012B0ED151781748FEF731
:1038C000FBFF174B0821186806FB00500230FFF77A
:1038D00035F81448FEF7F0FF3B6801333B603B6866
:1038E000002BE3DD1048FEF7E7FF40F25F13A385EE
:1038F0000E4814F043FD0D49024604F12C000CF073
:10390000F1FF01287FF6BCACFEF7D0FF0023A385B2
:10391000032003B0BDE8F08367740020C3BB21001F
:10392000201300201EDD2100C9BB210048510020CA
:103930002DE9F041304B314A314E1A60D0F85454E1
:10394000304B88B03360002D52D028463D2114F012
:10395000D7F9044600284BD0002303702A49284693
:1039600014F0D0FB0746002842D1651C28462621CA
:1039700014F0C6F9044600283AD007706946284674
:1039800015F06AFFA0B3651C28463D2114F0B8F974
:10399000044668B307701D49284614F0B3FB074678
:1039A00030BB651C2846262114F0AAF900B3044652
:1039B000284604F8017B14F09FF93D2180462046FB
:1039C00014F09EF9054698B107701149204614F08D
:1039D00099FB68B9681C04A915F03EFF40B1684620
:1039E0005FFA88F104AA0BF01FFF08B1094B33609E
:1039F000094808B0BDE8F08138510020D6BB21004D
:103A00003C510020DEBB2100FBBB210002BC210099
:103A100009BC210011BC2100E80400201FB50C4B9B
:103A20000C4A0D4C1A60D0F854040C4B236058B16A
:103A3000694615F011FF38B168460BF0DBFD18B18F
:103A40000BF00AFE064B2360064804B010BD00BF11
:103A500038510020D6BB21003C5100201FBC210062
:103A60003DBC2100E80400201FB50C4B0C4A0D4C56
:103A70001A60D0F854040C4B236058B1694615F015
:103A8000EBFE38B168460BF077FC18B10BF01AFC6E
:103A9000064B2360064804B010BD00BF385100201B
:103AA000D6BB21003C5100204BBC21006FBC210043
:103AB000E804002040F21112F8B5838D04469342C9
:103AC00000F09285B3F5897F30D2DE2B00F07F8243
:103AD00012D8B02B00F0CD8006D8002B69D0A72BD0
:103AE00000F0898001F0E2B9BC2B00F03281C12BDB
:103AF00000F0988101F0DAB9F62B00F0558307D871
:103B0000E92B00F0D182F12B00F0078301F0CEB950
:103B100040F20112934200F02D8440F207129342CA
:103B200000F0AC84F92B41F0C181B5E3B3F59D7F82
:103B300000F06A871AD8B3F5927F00F04B8609D857
:103B4000B3F58C7F00F09285B3F58F7F00F0C485CC
:103B500001F0ACB940F22912934200F0638640F2C2
:103B60002F12934200F0F48601F0A0B940F24D12FA
:103B7000934201F0A380B3F5A77F0AD2B3F5A07FEB
:103B800000F0988740F24712934200F0DC8701F082
:103B90008DB9B3F5AD7F01F0208140F265129342FB
:103BA00001F0768140F25112934241F07F8101F0A1
:103BB000DEB8AC48FEF780FEAB4DAC48FEF77CFEAD
:103BC000AB48FEF779FEB5F8583095F8561013F06B
:103BD000010F0CBFA748A848FEF76EFEB5F8583095
:103BE000B5F8901013F0010F0CBFA448A448FEF7DD
:103BF00063FEA723A385A34814F0C0FBA149024696
:103C000004F12C000CF06EFE012801D80020F8BD54
:103C1000FEF74CFE944F9C48FEF74EFE9B48FEF785
:103C20004BFE9B4E9B4D97F87E2000218A420CBF95
:103C300032462A469848994BFEF73EFE97F87E207A
:103C400001218A420CBF32462A469348944BFEF724
:103C500033FE97F87E200221924B8F488A420CBF98
:103C600032462A46FEF728FE8F48FEF725FEB0238F
:103C7000A385844814F082FB8249024604F12C009B
:103C80000CF030FE0128C1D9774FFEF70FFE8748B0
:103C90007F4E804DFEF710FE97F87F2000218A426C
:103CA0000CBF32462A467C48814BFEF705FE97F84A
:103CB0007F2001218A420CBF32462A4676487D4B3E
:103CC000FEF7FAFD97F87F2002218A420CBF3246A8
:103CD0002A467148784BFEF7EFFD97F87F200321C5
:103CE0008A420CBF32462A466B48744BFEF7E4FD0D
:103CF00097F87F2004218A420CBF32462A46664844
:103D00006F4BFEF7D9FD97F87F2005218A420CBF43
:103D100032462A4660486B4BFEF7CEFD97F87F206F
:103D200006218A420CBF32462A465B48664BFEF7A4
:103D3000C3FD97F87F200721644B57488A420CBF88
:103D400032462A46FEF7B8FD5748FEF7B5FDBC23BC
:103D5000A3854C4814F012FB4A49024604F12C009A
:103D60000CF0C0FD01287FF651AF3F4DFEF79EFDE0
:103D7000B5F85830DE070AD455482021FEF79CFDDF
:103D800005F180001021FEF749FE524800E052483C
:103D9000FEF792FDB5F85820334BD007B3F8DA3070
:103DA00012D44E4F3B4E13F0010F14BF394631462B
:103DB0004B48FEF781FDB5F8DA304A4813F0010FA1
:103DC0000CBF3946314606E013F0010F464B474918
:103DD00008BF19464648FEF76FFDB5F85820224B3C
:103DE000D107B3F8DA3012D43C4F2A4E13F0020F49
:103DF00014BF394631463F48FEF75EFDB5F8DA306C
:103E00003D4813F0020F0CBF3946314606E013F06F
:103E1000020F354B354908BF19463848FEF74CFDAF
:103E2000C123A385174814F0A9FA1649024604F1E4
:103E30002C000CF057FD01287FF6E8AE0A4DFEF786
:103E400035FD2F48FEF738FDB5F85830DA075BD45A
:103E50002C48FEF731FD05F1160014F061FD1D48F8
:103E60005AE000BFDEBC2100D872002002BD210054
:103E700017BD210037BD210077BD21008ABD21007B
:103E8000C7BD210048510020D9BD2100FABD210045
:103E9000ACBC21001FDD210026BE210048BE210050
:103EA0004DBE210054BE210063BE210073BE21001F
:103EB000ABBE2100B7BE2100C6BE2100D5BE210089
:103EC000E5BE2100EDBE2100F8BE210003BF2100A8
:103ED0000FBF210096D621004DBF2100B5BC2100A7
:103EE00066BF2100B9BF2100BDBC2100F9F7210048
:103EF000F8BF210016C0210073C02100B1C021000D
:103F0000DAC02100FAC02100B548FEF7D5FC05F162
:103F1000160014F005FDB348FEF7CEFCB5F8583096
:103F200095F85A1013F0010F0CBFAF48AF48FEF7D9
:103F3000C3FCB5F85830DB0708D4AD48FEF7BCFC2D
:103F4000AC480821FEF7FAFCAB4806E0AB48FEF7A8
:103F5000B3FCA84814F0E4FCA248FEF7ADFCB5F8A9
:103F6000583013F0010F2B7D11D1A54FA54E13F042
:103F7000100F14BF39463146A348FEF79DFC2B7D38
:103F8000A24813F0100F0CBF3946314606E013F07B
:103F9000100F9F4B9F4908BF19469F48FEF78CFCA6
:103FA000B5F85830DF0707D49C48FEF785FC9C48DD
:103FB00014F0B6FC904806E09A48FEF77DFC98485D
:103FC00014F0AEFC8748FEF777FCDE23A385964805
:103FD00014F0D4F99449024604F12C000CF082FC50
:103FE00001287FF613AE914DFEF760FC9048FEF776
:103FF00063FCB5F85830DE0708D48E48FEF75CFC49
:1040000005F1E40014F08CFC7B4807E08A48FEF7D9
:1040100053FC05F1E40014F083FC7248FEF74CFCFD
:10402000B5F8583013F0010F03F0080311D1744FA5
:10403000744E8248002B14BF39463146FEF73CFCD3
:10404000B5F858307E4813F0080F0CBF394631469A
:1040500005E06F4A6F497B48002B08BF1146FEF709
:104060002BFCB5F8583013F0010F03F4807311D115
:10407000634F644E7448002B14BF39463146FEF737
:104080001BFCB5F85830714813F4807F0CBF3946DB
:10409000314605E06E4A6F496F48002B08BF114654
:1040A000FEF70AFCE923A3855F4814F067F95E492F
:1040B000024604F12C000CF015FC01287FF6A6AD99
:1040C000FEF7F4FB594D6548FEF7F6FB6448FEF732
:1040D000F3FBB5F85830D80708D46248FEF7ECFB7C
:1040E00005F1360014F01CFC434807E03C48FEF79D
:1040F000E3FB05F1360014F013FC3A48FEF7DCFB55
:10410000B5F8583095F85B1013F0010F0CBF564806
:104110003648FEF7D1FBF123A385434814F02EF96E
:104120004149024604F12C000CF0DCFB01287FF62B
:104130006DAD3E4DFEF7BAFBB5F8583013F0010FE8
:104140002B7D11D12E4F2F4E13F0200F14BF394667
:1041500031464648FEF7B0FB2B7D454813F0200F53
:104160000CBF3946314606E013F0200F284B294991
:1041700008BF19462848FEF79FFBB5F85830D90705
:1041800007D43C48FEF798FB3B4814F0C9FB1A489B
:1041900006E02448FEF790FB374814F0C1FB1148B5
:1041A000FEF78AFBF623A3851F4814F0E7F81E49A3
:1041B000024604F12C000CF095FB01287FF626AD99
:1041C0001A4DFEF773FBB5F85830DA0758D42B4870
:1041D000FEF772FB05F1460014F0A2FB064857E01B
:1041E0002DC1210085C4210037C1210081C12100DA
:1041F0009AC12100B473002096D62100DEC12100AF
:10420000B5BC21001FDD2100F3C121004BC22100FC
:10421000BDBC2100F9F7210088C22100ADC22100F8
:10422000FE720020E9C2210048510020D87200200F
:10423000FBC2210018C321004BC3210059C3210038
:10424000A5C32100E3C32100FBC321004CC421000E
:10425000EBF62100FDF621008CC421009FC4210053
:10426000E0C02100BAC42100EDC4210037C52100FF
:104270008FC52100CCC52100DC72002008C62100BA
:10428000AC48FEF719FB05F1460014F049FBAA48BB
:10429000FEF712FBF923A385A84814F06FF8A7498D
:1042A000024604F12C000CF01DFB01287FF6AEAC99
:1042B000A34DFEF7FBFAA348FEF7FEFAB5F8583017
:1042C00013F0010F03F0020311D19F4F9F4EA0483E
:1042D000002B14BF39463146FEF7EEFAB5F85830D8
:1042E0009C4813F0020F0CBF3946314605E09A4A4C
:1042F0009A499B48002B08BF1146FEF7DDFAB5F836
:10430000583013F0010F95F8A63012D18E4F8F4E12
:1043100013F0010F14BF394631469248FEF7CCFA2C
:1043200095F8A630904813F0010F0CBF394631467E
:1043300006E013F0010F884B884908BF19468B48E7
:10434000FEF7BAFAB5F85830DB0707D48848FEF70D
:10435000B3FA8848FEF7DAFA874806E08748FEF79E
:10436000ABFA8448FEF7D2FA7348FEF7A5FA40F29A
:104370000113A385714814F001F87049024604F155
:104380002C000CF0AFFA01287FF640AC6C4DFEF724
:104390008DFAB5F85830DF0708D47948FEF78CFA63
:1043A00005F1AB00FEF7B2FA734807E07548FEF777
:1043B00083FA05F1AB00FEF7A9FA5F48FEF77CFA35
:1043C000B5F85830DE0707D46F48FEF775FA6F4826
:1043D000FEF79CFA684806E06D48FEF76DFA6B48F8
:1043E000FEF794FA5448FEF767FAB5F8583013F020
:1043F000010F95F8A63012D1534F544E13F0040F0D
:1044000014BF394631466348FEF756FA95F8A63090
:10441000614813F0040F0CBF3946314606E013F033
:10442000040F4D4B4D4908BF19465C48FEF744FA4E
:10443000B5F8583013F0010F95F8A63012D1424F5D
:10444000424E13F0020F14BF394631465448FEF76E
:1044500033FA95F8A630534813F0020F0CBF3946D3
:10446000314606E013F0020F3B4B3C4908BF1946AA
:104470004D48FEF721FA40F20713A3852F4813F0A9
:104480007DFF2E49024604F12C000CF02BFA012886
:104490007FF6BCAB2A4DFEF709FA4448FEF70CFA4A
:1044A000B5F8583013F0010F03F0040311D1264F73
:1044B000264E3F48002B14BF39463146FEF7FCF923
:1044C000B5F858303B4813F0040F0CBF394631465D
:1044D00005E0214A21493848002B08BF1146FEF764
:1044E000EBF9B5F85830D80705D434482021344AC0
:1044F000FEF7E2F903E033483149FEF7DDF9B5F89C
:10450000583013F0010F95F8B33061D10E4F0F4EB4
:1045100013F0010F14BF394631462B48FEF7CCF992
:1045200095F8B330294813F0010F0CBF39463146D6
:1045300055E000BF40C6210085C42100485100203D
:10454000D87200204FC62100B5BC21001FDD21001C
:1045500063C62100A2C62100BDBC2100F9F72100DD
:10456000DBC62100EBC621002FC721006DC721004B
:104570007DC721007F73002096D6210048B9210015
:10458000B3C72100DDB92100ECC7210087730020EB
:10459000E8B9210025C8210074C82100B2C8210053
:1045A000CDC8210024C9210066C9210085C9210088
:1045B00099C92100E3C921001CCA210037CA210082
:1045C0008C73002083CA210099CA2100E7CA210008
:1045D00013F0010FA94BAA4908BF1946A948FEF7D5
:1045E0006BF940F21113A385A74813F0C7FEA64943
:1045F000024604F12C000CF075F901287FF606AB99
:10460000FEF754F9A148FEF757F9A14BB3F858202B
:104610001F4612F0010F1B7D11D19E4E9E4D13F0CF
:10462000080F14BF314629469C48FEF745F93B7DEB
:104630009B4813F0080F0CBF3146294606E013F0E3
:10464000080F984B984908BF19469848FEF734F967
:10465000B7F85830B7F85E1013F0010F0CBF94484C
:104660009448FEF729F94FF48C73A385864813F01C
:1046700085FE8549024604F12C000CF033F901282F
:104680007FF6C4AA824DFEF711F98B48FEF714F9A4
:10469000B5F85830B5F8601013F0010F0CBF87481B
:1046A0008748FEF709F9B5F85830B5F8621013F0ED
:1046B000010F0CBF83488448FEF7FEF8B5F8583068
:1046C000B5F8641013F0010F0CBF80488048FEF766
:1046D000F3F84FF48F73A3856B4813F04FFE6A49CC
:1046E000024604F12C000CF0FDF801287FF68EAA9A
:1046F000674DFEF7DBF87748FEF7DEF8B5F858307F
:1047000013F0010FB5F8663012D1624F624E13F408
:10471000807F14BF394631466F48FEF7CDF8B5F8B3
:1047200066306E4813F4807F0CBF3946314606E090
:1047300013F4807F514B524908BF19466848FEF771
:10474000BBF8B5F85820524BD107B3F8663012D4F5
:10475000504F514E13F0800F14BF39463146614817
:10476000FEF7AAF8B5F866305F4813F0800F0CBF6B
:104770003946314606E013F0800F404B404908BFF0
:1047800019465A48FEF798F8B5F85820404BD2071A
:10479000B3F8663012D43F4F3F4E13F0400F14BFB2
:1047A000394631465248FEF787F8B5F86630514829
:1047B00013F0400F0CBF3946314606E013F0400FAE
:1047C0002E4B2F4908BF19464B48FEF775F84FF49A
:1047D0009273A3852C4813F0D1FD2B49024604F1B6
:1047E0002C000CF07FF801287FF610AA284DFEF768
:1047F0005DF8B5F85830A96EDF0754BF3F48404810
:10480000FEF75AF8B5F85820214BD60754BF3D485B
:104810003D48D96EFEF750F83C48FEF74DF840F29F
:104820002913A385184813F0A9FD1749024604F17E
:104830002C000CF057F801287FF6E8A9144DFEF77C
:1048400035F83348FEF738F8B5F8583013F0010F53
:10485000B5F8703062D10F4F0F4E13F4807F14BF44
:10486000394631462B48FEF727F8B5F870302A480C
:1048700013F4807F0CBF3946314656E0BDBC2100A1
:10488000F9F7210022CB2100485100203FCB210025
:10489000D8720020B5BC21001FDD210058CB2100BB
:1048A000ABCB2100C1BC2100C3BC2100EECB210059
:1048B00003CC21004FCC21006ACC21007CCC21000C
:1048C000C9CC2100E1CC21002ECD210046CD210014
:1048D0008DCD2100A2CD2100BBCD21000FCE210026
:1048E0004ACE21006DCE2100BDCE2100FDCE21009B
:1048F00017CF210070CF2100B0CF2100D3CF2100EE
:1049000025D0210042D0210098D0210085C421006B
:10491000B9D02100DDD0210028D1210013F4807FFF
:10492000B14BB24908BF1946B148FDF7C5FFB5F80C
:104930005830B5F8721013F0010F0CBFAD48AE48F7
:10494000FDF7BAFFAD48FDF7B7FF40F22F13A3857F
:10495000AB4813F013FDAA49024604F12C000BF0FA
:10496000C1FF01287FF652A9FDF7A0FFA548FDF77A
:10497000A3FFA548FDF7A0FFA44B1F46B3F858209E
:1049800093F8741012F0010F0CBFA148A148FDF775
:1049900093FFB7F858209D4BD507B3F8923012D447
:1049A0009D4E9E4D13F0010F14BF314629469C4881
:1049B000FDF782FFB7F892309A4813F0010F0CBF51
:1049C0003146294606E013F0010F874B874908BF9F
:1049D00019469548FDF770FFB7F85830D80707D447
:1049E0009248FDF769FF924813F09AFF914806E05C
:1049F0009148FDF761FF8E4813F092FF7F48FDF765
:104A00005BFF4FF49D73A3857D4813F0B7FC7C4991
:104A1000024604F12C000BF065FF01287FF6F6A892
:104A20007A4DFDF743FFB5F8583013F0010FB5F894
:104A3000923012D1784F794E13F0020F14BF3946DD
:104A400031467E48FDF738FFB5F892307C4813F0C8
:104A5000020F0CBF3946314606E013F0020F624BDD
:104A6000624908BF19467748FDF726FFB5F8583068
:104A700095F8751013F0010F0CBF73487348FDF7DC
:104A80001BFFB5F8583095F8761013F0010F0CBFE6
:104A90006F487048FDF710FFB5F8583095F877105B
:104AA00013F0010F0CBF6C486C48FDF705FF4FF485
:104AB000A073A385524813F061FC5149024604F1EA
:104AC0002C000BF00FFF01287FF6A0A84F4DFDF73B
:104AD000EDFEB5F8583095F8781013F0010F0CBFC3
:104AE0005F486048FDF7E8FEB5F85830B5F87A1031
:104AF00013F0010F0CBF5C485C48FDF7DDFEB5F814
:104B00005830B5F8941013F0010F0CBF58485948AD
:104B1000FDF7D2FEB5F8583095F8791013F0010F73
:104B20000CBF55483448FDF7C7FEB5F85830B5F806
:104B30007C1013F0010F0CBF50485148FDF7BCFE2C
:104B400040F24713A3852E4813F018FC2C49024667
:104B500004F12C000BF0C6FE01287FF657A8FDF7E4
:104B6000A5FE4848FDF7A8FE284BB3F858201F467D
:104B700012F0010FB3F8923012D1274E274D13F0E7
:104B8000200F14BF314629463F48FDF795FEB7F880
:104B900092303E4813F0200F0CBF3146294606E004
:104BA00013F0200F3A4B3B4908BF19463A48FDF72E
:104BB00083FEB7F85820154BD107B3F8923071D463
:104BC000154E164D13F0040F14BF314629463348D5
:104BD000FDF772FEB7F89230314813F0040F0CBFA6
:104BE0003146294665E000BFBDBC2100F9F7210030
:104BF00066D121007DD12100CCD1210085C42100C6
:104C000048510020E6D1210007D22100D8720020AF
:104C10002AD2210076D22100B5BC21001FDD21005F
:104C20008DD22100DFD2210020D321003BD32100EF
:104C30006E73002096D6210071D321007DD3210010
:104C4000CFD3210010D421002BD4210075D4210012
:104C50008BD42100E2D4210003D5210053D52100BB
:104C60006FD52100C1D52100DBD5210031D621002F
:104C70004FD62100A1D62100BED6210012D7210097
:104C800068D7210087D72100A3D72100FCD72100B6
:104C9000D6BC2100CABC210040D8210054D8210034
:104CA00099D8210013F0040F824B834908BF19469D
:104CB0008248FDF701FE40F24D13A385804813F0B2
:104CC0005DFB7F49024604F12C000BF00BFE01282E
:104CD0007EF69CAFFDF7EAFD7A4BB3F858201F46ED
:104CE00012F0010FB3F8923012D1774E774D13F0D6
:104CF000080F14BF314629467548FDF7DDFDB7F8AA
:104D00009230744813F0080F0CBF3146294606E074
:104D100013F0080F674B684908BF19466E48FDF746
:104D2000CBFDB7F85820674BD207B3F8923012D4B6
:104D3000654E664D13F0100F0CBF3146294667488B
:104D4000FDF7BAFDB7F89230654813F0100F14BFA5
:104D50003146294606E013F0100F564B564918BF4E
:104D600019466048FDF7A8FD40F25113A385544849
:104D700013F004FB5249024604F12C000BF0B2FD83
:104D800001287EF643AF4F4FFDF790FD5648FDF7E3
:104D900093FDB7F8583013F0010F03F0100311D151
:104DA000494E4A4D5148002B14BF31462946FDF764
:104DB00083FDB7F858304E4813F0100F0CBF314642
:104DC000294605E04B4A4C494C48002B08BF114688
:104DD000FDF772FD4FF4AD73A385394813F0CEFA99
:104DE0003749024604F12C000BF07CFD01287EF6C9
:104DF0000DAF344DFDF75AFDB5F8583013F0010FE3
:104E000003F0400311D1304F304E3D48002B14BF0A
:104E100039463146FDF750FDB5F85830394813F0A2
:104E2000400F0CBF3946314605E0324A3249364818
:104E3000002B08BF1146FDF73FFDB5F8583013F0C1
:104E4000010F03F0800311D11F4F204E2F48002B7C
:104E500014BF39463146FDF72FFDB5F858302C48C0
:104E600013F0800F0CBF3946314605E0214A224934
:104E70002848002B08BF1146FDF71EFDB5F8583035
:104E8000DB0702D42448FDF717FD40F26513A38524
:104E90000B4813F073FA0A49024604F12C000BF098
:104EA00021FD01287EF6B2AEFDF700FD0023A385AB
:104EB0000320F8BDBDBC2100F9F72100D5D82100A1
:104EC00048510020D8720020B5BC21001FDD210010
:104ED000E8D8210041D9210084D92100A4D921009A
:104EE000FBD921003ADA21005CDA210080DA2100C6
:104EF000D5DA2100EBF62100FDF6210017DB2100B9
:104F00002CDB210083DB2100C6DB2100DCDB210060
:104F100031DC210073DC210088DC210008B50C485D
:104F2000012111F009FD0B4B01221A700A4A0B4BAB
:104F30000B481A600B4A0C4B1A600C4B0F221A607C
:104F40000B4B0022197807F017FC0A4808BD00BF78
:104F5000D8720020B4720020E6B021003851002041
:104F6000500A0020BBDC21003C51002044510020AD
:104F7000B5720020E80400202DE9F047AD4AAE4BA1
:104F8000D0F854548AB01A6015B10026012728E0E1
:104F9000AA4AAB4B1A6001F0ECB828463D2112F04A
:104FA000AFFE08B304464FF0000904F8019B204609
:104FB000262112F0A5FEE8B1804608F8019B28469C
:104FC000A04913F09FF8814680BB20469E4913F00C
:104FD00099F8A8B99D4A0126137D03F07F03137544
:104FE00045462B78002BD8D1954C002F01F0BF807F
:104FF00001F0A9B8204613F0C1F904EB0008DEE780
:105000002046934913F07EF830B9904A0126137D6B
:1050100063F07F031375E3E78E4804F075FD8E4857
:105020002946224604F070FD4F46D9E728468B49B1
:1050300013F068F8814608BB2046834913F062F8F4
:1050400030B9824A0126137D23F004031375C7E7A4
:1050500020467F4913F056F830B97C4A0126137D6B
:1050600043F004031375BBE77A4804F04DFD7A481A
:105070002946224604F048FD4F46B1E728467849C4
:1050800013F040F838B9204612F036FE6F4B012677
:1050900083F85600A4E77349284613F033F8014615
:1050A00040B92046102213F0A1FB684B0126A3F85B
:1050B000900095E728466C4913F024F838B920464B
:1050C00012F01AFE614B012683F87E0088E728461D
:1050D000664913F017F838B9204612F00DFE5B4B05
:1050E000012683F87F007BE72846614913F00AF820
:1050F000C8B90DF1180920464946102213F0E4FB07
:10510000824630B199E80F005A4C012684E80F001E
:1051100066E7504804F0F8FC4F482946224604F060
:10512000F3FC57465CE72846534912F0EBFF28BBD7
:105130002046454912F0E6FF40B9444A0126B2F83C
:10514000DA3023F00103A2F8DA3049E7204640497B
:1051500012F0D8FF40B93D4A0126B2F8DA3043F0E8
:105160000103A2F8DA303BE73A4804F0CDFC3A48B4
:105170002946224604F0C8FC002731E728463F496B
:1051800012F0C0FF28BB20462F4912F0BBFF40B9E8
:105190002E4A0126B2F8DA3023F00203A2F8DA3000
:1051A0001EE720462A4912F0ADFF40B9274A0126E2
:1051B000B2F8DA3043F00203A2F8DA3010E72548FB
:1051C00004F0A2FC24482946224604F09DFC002756
:1051D00006E728462A4912F095FFE8B9204602A9B9
:1051E00014F03AFB814668B1264C02AB06AD1A4674
:1051F00003CAAA4220606160134604F10804F6D194
:105200000126EDE6134804F07FFC134829462246A8
:1052100004F07AFC4F46E3E628461B4912F072FF81
:10522000A0BB204612F068FD084B012683F85A0007
:10523000D6E600BFE6B0210038510020E1DC2100B5
:105240003C510020F7DC210007FB2100D872002030
:1052500058FC21000AB1210003DD210020DD2100DE
:1052600028DD210030DD210045F6210036DD21005A
:1052700042DD21005873002046DD210051DD210070
:105280005BDD2100EE72002063DD21002846A3498A
:1052900012F038FFC0B90DF108092046494614F054
:1052A000DBFA824630B199E803009D4B012683E882
:1052B000030095E69B4804F027FC9B4829462246BC
:1052C00004F022FC57468BE62846984912F01AFF54
:1052D000814608BB2046964912F014FF30B9954A22
:1052E0000126137D23F01003137579E620469249B9
:1052F00012F008FF30B98F4A0126137D43F01003E6
:1053000013756DE6874804F0FFFB8748294622465F
:1053100004F0FAFB4F4663E62846884912F0F2FE95
:10532000E8B9204602A914F097FA814668B1844C86
:1053300002AB06AD1A4603CAAA422060616013465A
:1053400004F10804F6D101264AE6764804F0DCFBB5
:1053500075482946224604F0D7FB4F4640E62846CA
:10536000784912F0CFFEC0B90DF108092046494630
:1053700014F072FA824630B199E80F00724C01269F
:1053800084E80F002CE6674804F0BEFB6648294617
:10539000224604F0B9FB574622E628466B4912F034
:1053A000B1FEE8B9204602A914F056FA814668B168
:1053B000674C02AB06AD1A4603CAAA422060616080
:1053C000134604F10804F6D1012609E6554804F015
:1053D0009BFB55482946224604F096FB4F46FFE5C5
:1053E00028465C4912F08EFE38B9204612F084FC43
:1053F000504B012683F85B00F2E52846564912F02F
:1054000081FE08BB20464A4912F07CFE30B9494A69
:105410000126137D23F020031375E1E5204646495C
:1054200012F070FE30B9434A0126137D43F0200389
:105430001375D5E53B4804F067FB3B4829462246F7
:1054400004F062FB0027CBE52846444912F05AFEDF
:10545000B8B90DF108092046494614F0FDF930B1FC
:1054600099E80F003E4C012684E80F00B8E52D486E
:1054700004F04AFB2C482946224604F045FB00274D
:10548000AEE52846374912F03DFEE8B9204602A9AC
:1054900014F0E2F9814668B1334C02AB06AD1A460E
:1054A00003CAAA4220606160134604F10804F6D1E1
:1054B000012695E51B4804F027FB1B482946224698
:1054C00004F022FB4F468BE52846284912F01AFECD
:1054D000814600284CD12046154912F013FE30B900
:1054E000144A0126137D23F00803137578E520463E
:1054F000114912F007FE30B90E4A0126137D43F020
:10550000080313756CE5074804F0FEFA06482946BF
:10551000224604F0F9FA4F4662E500BF6FDD210034
:10552000B47300200AB1210003DD21007DDD2100DC
:1055300007FB2100D872002058FC210086DD2100E5
:10554000FE7200201BDE2100BC7300208FDD2100D5
:105550000E73002097DD2100A3DD2100ACDD2100CA
:10556000DC720020B5DD21001E730020BDDD2100AE
:105570002846AE4912F0C6FD814608BB2046AC491C
:1055800012F0C0FD30B9AB4A0126137D23F00103B0
:10559000137525E52046A84912F0B4FD30B9A54A97
:1055A0000126137D43F00103137519E5A34804F0A8
:1055B000ABFAA3482946224604F0A6FA4F460FE567
:1055C0002846A04912F09EFD814628BB20469849F6
:1055D00012F098FD40B9974A0126B2F8583023F0EE
:1055E0000203A2F85830FBE42046934912F08AFDEA
:1055F00040B9904A0126B2F8583043F00203A2F8AD
:105600005830EDE48D4804F07FFA8D482946224653
:1056100004F07AFA4F46E3E428468B4912F072FD13
:10562000814628BB2046824912F06CFD40B9814A70
:10563000012692F8A63023F0010382F8A630CFE4C9
:1056400020467D4912F05EFD40B97A4A012692F863
:10565000A63043F0010382F8A630C1E4774804F095
:1056600053FA77482946224604F04EFA4F46B7E4EB
:105670002846764912F046FDA0B9204601A914F04B
:1056800045F9814620B10198714B01261860A7E4C5
:105690006A4804F039FA6A482946224604F034FA86
:1056A0004F469DE428466B4912F02CFDA0B92046D8
:1056B00001A914F02BF9814620B10198664B01260F
:1056C00018608DE45D4804F01FFA5D4829462246C3
:1056D00004F01AFA4F4683E42846604912F012FD9E
:1056E000A0B9204601A914F011F9814620B1019812
:1056F0005B4B0126186073E4504804F005FA5048EB
:105700002946224604F000FA4F4669E428465549E6
:1057100012F0F8FC28BB2046454912F0F3FC40B9D2
:10572000444A012692F8A63023F0020382F8A630FC
:1057300056E42046404912F0E5FC40B93D4A0126B6
:1057400092F8A63043F0020382F8A63048E43B48C2
:1057500004F0DAF93A482946224604F0D5F9002740
:105760003EE42846404912F0CDFC28BB2046304993
:1057700012F0C8FC40B92F4A012692F8A63023F057
:10578000040382F8A6302BE420462B4912F0BAFC21
:1057900040B9284A012692F8A63043F0040382F863
:1057A000A6301DE4254804F0AFF9254829462246D5
:1057B00004F0AAF9002713E428462C4912F0A2FCB1
:1057C00038BB20461A4912F09DFC40B9194A0126FF
:1057D000B2F8583023F00403A2F8583000E4204611
:1057E000154912F08FFC48B9124A0126B2F8583018
:1057F00043F00403A2F85830FFF7F2BB0F4804F05F
:1058000083F90F482946224604F07EF90027FFF766
:10581000E7BB2846164912F075FC68BB15482146BF
:10582000202212F07BFE0126FFF7DABBC7DD210044
:1058300007FB2100D872002058FC21000AB121008A
:1058400003DD2100CFDD2100D4DD2100DEDD2100DC
:105850007F730020E8DD210083730020F5DD210047
:105860008773002002DE210010DE21001ADE2100F5
:105870001FDE21008C7300202846B44912F042FC40
:10588000814640BB2046B24912F03CFC48B9B14ABF
:10589000012692F8B33023F0010382F8B330FFF70A
:1058A0009FBB2046AC4912F02DFC48B9A94A0126FD
:1058B00092F8B33043F0010382F8B330FFF790BBA6
:1058C000A64804F021F9A6482946224604F01CF90E
:1058D0004F46FFF785BB2846A24912F013FC8146CC
:1058E00040BB20469A4912F00DFC48B9994A01265E
:1058F000B2F8583023F00803A2F85830FFF770BB15
:105900002046954912F0FEFB48B9924A0126B2F8AA
:10591000583043F00803A2F85830FFF761BB8F48B6
:1059200004F0F2F88E482946224604F0EDF84F467E
:10593000FFF756BB28468C4912F0E4FB814640BB7A
:105940002046834912F0DEFB48B9824A0126B2F8AC
:10595000583023F48073A2F85830FFF741BB20463B
:105960007D4912F0CFFB48B97A4A0126B2F8583087
:1059700043F48073A2F85830FFF732BB774804F045
:10598000C3F877482946224604F0BEF84F46FFF791
:1059900027BB2846754912F0B5FB40B9204612F0E6
:1059A000ABF96C4B0126A3F85E00FFF719BB284644
:1059B0006F4912F0A7FB40B9204612F09DF9654BE4
:1059C0000126A3F86000FFF70BBB2846694912F0D7
:1059D00099FB40B9204612F08FF95E4B0126A3F8DF
:1059E0006200FFF7FDBA2846634912F08BFB40B90D
:1059F000204612F081F9574B0126A3F86400FFF707
:105A0000EFBA28465D4912F07DFB40BB2046504965
:105A100012F078FB48B94F4A0126B2F8663023F4F9
:105A20008073A2F86630FFF7DBBA20464A4912F0CD
:105A300069FB48B9474A0126B2F8663043F48073DF
:105A4000A2F86630FFF7CCBA444804F05DF8444849
:105A50002946224604F058F80027FFF7C1BA284625
:105A6000474912F04FFB40BB2046394912F04AFB30
:105A700048B9384A0126B2F8663023F08003A2F80C
:105A80006630FFF7ADBA2046334912F03BFB48B908
:105A9000304A0126B2F8663043F08003A2F866303F
:105AA000FFF79EBA2D4804F02FF82D4829462246CC
:105AB00004F02AF80027FFF793BA2846314912F07C
:105AC00021FB814640BB2046214912F01BFB48B90F
:105AD000204A0126B2F8663023F04003A2F866306F
:105AE000FFF77EBA20461C4912F00CFB48B9194A50
:105AF0000126B2F8663043F04003A2F86630FFF7A3
:105B00006FBA164804F000F815482946224603F0FB
:105B1000FBFF4F46FFF764BA28461B4912F0F2FA22
:105B200038B9204612F0E8F80A4B01269866FFF7CC
:105B300057BA2846154912F0E5FA48BB204612F03C
:105B4000DBF8044B0126D866FFF74ABA28DE2100AD
:105B500007FB2100D872002058FC21000AB1210067
:105B600003DD21002FDE210039DE210041DE21008E
:105B70004DDE21005DDE21006DDE21007ADE210098
:105B800081DE21008DDE210099DE2100A9DE2100C9
:105B90002846B14912F0B6FA814640BB2046AF49CB
:105BA00012F0B0FA48B9AE4A0126B2F8703023F4C8
:105BB0008073A2F87030FFF713BA2046A94912F09B
:105BC000A1FA48B9A64A0126B2F8703043F48073AE
:105BD000A2F87030FFF704BAA34803F095FFA3487A
:105BE0002946224603F090FF4F46FFF7F9B92846B1
:105BF0009F4912F087FA40B9204612F07DF8984B81
:105C00000126A3F87200FFF7EBB92846994912F074
:105C100079FA40B9204612F06FF8914B012683F8CB
:105C20007400FFF7DDB92846934912F06BFA8146FC
:105C300040BB2046894912F065FA48B9884A0126D6
:105C4000B2F8923023F00103A2F89230FFF7C8B9FE
:105C50002046844912F056FA48B9814A0126B2F822
:105C6000923043F00103A2F89230FFF7B9B97E48B1
:105C700003F04AFF7D482946224603F045FF4F4680
:105C8000FFF7AEB928467D4912F03CFA40BB2046EA
:105C9000724912F037FA48B9714A0126B2F89230C7
:105CA00023F00203A2F89230FFF79AB920466D491B
:105CB00012F028FA48B96A4A0126B2F8923043F045
:105CC0000203A2F89230FFF78BB9674803F01CFF7C
:105CD00066482946224603F017FF0027FFF780B9E0
:105CE0002846674912F00EFA40BB20465B4912F085
:105CF00009FA48B95A4A0126B2F8923023F0200333
:105D0000A2F89230FFF76CB92046564912F0FAF922
:105D100048B9534A0126B2F8923043F02003A2F862
:105D20009230FFF75DB9504803F0EEFE4F48294628
:105D3000224603F0E9FE0027FFF752B928465149F1
:105D400012F0E0F940BB2046444912F0DBF948B9B3
:105D5000434A0126B2F8923023F00403A2F89230AD
:105D6000FFF73EB920463F4912F0CCF948B93C4A0A
:105D70000126B2F8923043F00403A2F89230FFF704
:105D80002FB9394803F0C0FE38482946224603F0AF
:105D9000BBFE0027FFF724B928463B4912F0B2F9B1
:105DA000814640BB20462D4912F0ACF948B92C4A37
:105DB0000126B2F8923023F00803A2F89230FFF7E0
:105DC0000FB92046274912F09DF948B9244A012607
:105DD000B2F8923043F00803A2F89230FFF700B90E
:105DE000214803F091FE21482946224603F08CFE0B
:105DF0004F46FFF7F5B82846244912F083F981464B
:105E0000002845D12046154912F07CF948B9144ABA
:105E10000126B2F8923043F01003A2F89230FFF757
:105E2000DFB820460F4912F06DF948B90C4A012637
:105E3000B2F8923023F01003A2F89230FFF7D0B8F6
:105E4000094803F061FE09482946224603F05CFE3A
:105E50004F46FFF7C5B800BFB9DE210007FB2100A0
:105E6000D872002058FC21000AB1210003DD210076
:105E7000C3DE2100D3DE2100E3DE2100F0DE2100BD
:105E8000FDDE210009DF210011DF210020DF2100DC
:105E90002846BA4912F036F9F8B9204602A913F09B
:105EA000DBFC814670B1B64C02AB06AD1A4603CAA4
:105EB000AA4220606160134604F10804F6D101266D
:105EC000FFF78EB8AF4803F01FFEAF4829462246C1
:105ED00003F01AFE4F46FFF783B82846AB4912F08D
:105EE00011F940B9204611F007FFA94B012683F8AC
:105EF0007500FFF775B82846A64912F003F940B9B6
:105F0000204611F0F9FEA24B012683F87600FFF738
:105F100067B82846A04912F0F5F840B9204611F0BC
:105F2000EBFE9B4B012683F87700FFF759B8284614
:105F30009A4912F0E7F840B9204611F0DDFE944B83
:105F4000012683F87800FFF74BB82846944912F0F1
:105F5000D9F840B9204611F0CFFE8D4B012683F8C9
:105F60007900FFF73DB828468E4912F0CBF840B9CA
:105F7000204611F0C1FE864B0126A3F87A00FFF7F8
:105F80002FB82846884912F0BDF840B9204611F0D4
:105F9000B3FE7F4B0126A3F89400FFF721B82846F3
:105FA000824912F0AFF840B9204611F0A5FE784BB7
:105FB0000126A3F87C00FFF713B828467C4912F0AD
:105FC000A1F8814640BB20467A4912F09BF848B9B7
:105FD0006F4A0126B2F8583023F01003A2F8583067
:105FE000FEF7FEBF2046744912F08CF848B9684AA3
:105FF0000126B2F8583043F01003A2F85830FEF7EB
:10600000EFBF604803F080FD5F482946224603F059
:106010007BFD4F46FEF7E4BF2846684912F072F850
:10602000814640BB2046634912F06CF848B9584A93
:106030000126B2F8583023F02003A2F85830FEF7BA
:10604000CFBF20465C4912F05DF848B9504A01269E
:10605000B2F8583043F02003A2F85830FEF7C0BF22
:10606000484803F051FD48482946224603F04CFDBC
:106070004F46FEF7B5BF2846514912F043F8814616
:1060800040BB20464B4912F03DF848B9404A012632
:10609000B2F8583023F04003A2F85830FEF7A0BF02
:1060A0002046454912F02EF848B9394A0126B2F87F
:1060B000583043F04003A2F85830FEF791BF314802
:1060C00003F022FD30482946224603F01DFD4F46CD
:1060D000FEF786BF28463B4912F014F8814640BBC4
:1060E0002046344912F00EF848B9294A0126B2F880
:1060F000583023F08003A2F85830FEF771BF2046D5
:106100002D4911F0FFFF48B9214A0126B2F8583055
:1061100043F08003A2F85830FEF762BF194803F03D
:10612000F3FC19482946224603F0EEFC4F46FEF7E1
:1061300057BF144803F0E8FC2348294603F0E4FC69
:106140000027FEF74DBF14F042FD002E3EF420AFB5
:106150001E4B01221A701E4B0F2223601D4B1E483E
:106160001A601E4B0022197806F006FB01E01C4B5A
:1061700023601C480AB0BDE8F08700BF2BDF210078
:106180006E7300200AB1210003DD210034DF2100FD
:10619000D872002043DF210054DF210063DF21009B
:1061A00076DF21008BDF21009EDF2100AEDF2100A2
:1061B000C0DF210007FB210058FC2100CADF2100BD
:1061C000D6DF2100E1DF2100EBDF2100B4720020E7
:1061D00003E0210044510020500A0020B572002045
:1061E0002BE02100E804002010B5838D0446D02B5D
:1061F00016D0DB2B25D08BBB1A48FCF75DFB1A4869
:10620000FCF75AFB1948FCF757FB1948FCF754FBFD
:106210001848FCF751FB1848FCF74EFBD023A38528
:10622000164812F0ABF81549024604F12C000AF0AA
:1062300059FB012801D8002010BDFCF737FBDB23F8
:10624000A3850E4812F09AF80C49024604F12C007E
:106250000AF048FB0128EED9FCF728FB0023A385B0
:10626000032010BD55E0210061E0210088E02100FD
:1062700095E02100BDE0210085C4210048510020A7
:1062800010B5838D0446452B11D04F2B29D0002B00
:1062900034D11C48FCF710FB1B48FCF70DFB1B48D6
:1062A000FCF70AFB1A48FCF707FB4523A3851948AE
:1062B00012F064F81749024604F12C000AF012FBB0
:1062C000012801D8002010BDFCF7F0FA1248FCF7B5
:1062D000F3FA1248FCF7F0FA1148FCF7EDFA4F23F5
:1062E000A3850C4812F04AF80A49024604F12C0032
:1062F0000AF0F8FA0128E5D9FCF7D8FA0023A385BB
:10630000032010BDDAE02100F2E0210003E12100CA
:1063100028E121004851002061E1210078E12100BD
:10632000A2E1210008B50A4B01221A70094A0A4B62
:106330000A481A600A4A0B4B1A600B4B0F221A606C
:106340000A4B0022197806F017FA094808BD00BF69
:10635000B4720020CCB0210038510020500A002037
:10636000EBE121003C51002044510020B572002097
:10637000E804002010B5838D044613B1692B0BD0BF
:1063800017E00F48FCF798FA0E48FCF795FA0E480C
:10639000FCF792FA6923A3850C4811F0EFFF0B4933
:1063A000024604F12C000AF09DFA012805D9FCF7F9
:1063B0007DFA0023A385032010BD002010BD00BF7F
:1063C0000FE2210061E121001DE22100485100207F
:1063D0002DE9F047838D05464A2B73D003D863B16E
:1063E000402B1CD089E1712B00F04681832B00F0FB
:1063F0007681582B40F08181D3E0C248FCF75CFAEB
:10640000C14BC24893F87920B3F87C3003FB02F10A
:10641000FCF752FABE48FCF74FFA4023AB85BD4863
:1064200011F0ACFFBB49024605F12C000AF05AFA04
:10643000012802D80020BDE8F087FCF737FAB64BF8
:1064400000221A6003E0B44A136801331360B24BB0
:106450001A68002A00F32381B04B4FF4BC7101FB92
:10646000023390335A79002AEDD01979AC48FCF701
:1064700023FAAC4B00221A60AA4F39680129E2DCEA
:10648000DFF894824FF4BC74D8F80030A34E634315
:1064900003EB8113334493F82530002B00F0FA808E
:1064A000A148FCF709FAA148FCF706FAD8F8003031
:1064B00038685C4304EB80101030304412F030FA3E
:1064C0004A23AB85934811F059FF9249024605F1E2
:1064D0002C000AF007FA0128ACD98F4FFCF7E6F937
:1064E0003B684FF4BC74DFF83C826343D8F800206B
:1064F0008A4E03EB8213334493F822108C48FCF746
:10650000DBF93B68D8F80020634303EB8213334484
:1065100093F82310DFF848A2DFF84092854800295D
:1065200014BF51464946FCF7C7F93B68D8F800202C
:10653000634303EB8213334493F824107E48FCF743
:10654000BBF93B687D4804FB036393F89710FCF7A5
:10655000B3F93B687A4804FB03639B68998CFCF7AA
:10656000ABF93B68D8F80020634303EB8213334454
:1065700093F826107348002914BF51464946FCF78A
:106580009BF93B68D8F80020634303EB8214344442
:106590006D48A18DFCF790F95D48FCF78DF9582303
:1065A000AB855C4811F0EAFE5A49024605F12C0021
:1065B0000AF098F901287FF63DAF574EFCF776F9BF
:1065C000564C33684FF4BC7707FB034393F899109C
:1065D00093F898205D4893F89C300A44FCF76CF9D6
:1065E00030687843231893F89D30CBB12044D830DD
:1065F00012F0B6FE804601F0B9FEC0EB0801C909F1
:106600005348FCF759F9306807FB0040D83012F0C6
:10661000A7FE336807FB0347D7F8A870074409E0D3
:106620004C48FCF749F9306807FB0040D83012F0BD
:1066300097FE074601F09AFE391AC9094648FCF749
:106640003BF933684FF4BC7202FB034494F89A3070
:1066500098344BB1A2794149414C42489A4228BFF3
:106660002146FCF729F902E03F48FCF725F92848C4
:10667000FCF722F97123AB85264811F07FFE2549EE
:10668000024605F12C000AF02DF901287FF6D2AE62
:10669000FCF70CF9234A136801331360ECE61A4B3C
:1066A0003248B3F85830DB0712D4FCF705F930480C
:1066B000FCF702F92F48FCF7FFF82F48FCF7FCF82D
:1066C0002E48FCF7F9F82E48FCF7F6F82D4802E0C2
:1066D000FCF7F2F82C48FCF7EFF88323AB850D4864
:1066E00011F04CFE0B49024605F12C000AF0FAF8B5
:1066F00001287FF69FAEFCF7D9F80023AB85032075
:10670000BDE8F0874FE22100D872002066E2210048
:1067100085C4210048510020381300205870002003
:1067200086E22100341300209BE2210071D3210076
:10673000ADE22100C0E22100D4E22100EAE2210022
:1067400007E3210030E3210042E3210052E321006E
:106750007AE32100A7E321008EE321004CE221002F
:1067600048E22100BAE32100E0E3210001E4210036
:1067700018E421003CE421007EE42100A5E421008E
:10678000E1E4210008E5210046E5210008B5064BBB
:1067900093F874000BF028FF044A054B05481A6073
:1067A000054A064B1A6008BDD872002055E5210045
:1067B00038510020E804002059E521003C51002018
:1067C00008B5074B93F874000BF0FEFE13F081FD43
:1067D000044A054B05481A60054A064B1A6008BD75
:1067E000D872002055E5210038510020E80400202F
:1067F00071E521003C5100201FB540F2FF23ADF8A8
:1068000000300023ADF80230ADF80430ADF80630AA
:10681000ADF80830ADF80A30ADF80C3068464FF4EA
:10682000D053ADF80E300CF0A5FE054A054B0648D6
:106830001A60064A064B1A6005B05DF804FB00BFFB
:1068400055E5210038510020E804002085E52100AD
:106850003C51002070B5868D054626B140F22913C3
:106860009E4242D04EE02A48FCF726F8294B2A4C9B
:106870009979DB79294803EB0121FCF71DF82660A3
:10688000206827282BDC5422424325498B188A5C38
:106890000AB39A8E7AB9DA8E6AB91A8F5AB95A8FB0
:1068A0004AB99A8F3AB9DA8F2AB9B3F8402012B9A7
:1068B000B3F842307BB1542202FB00131E7C597C9A
:1068C00093F8422093F84330164801EB062103EB7E
:1068D0000222FBF7F1FF236801332360D0E712485F
:1068E000FBF7EAFF40F22913AB85104811F046FD93
:1068F0000E49024605F12C0009F0F4FF012805D9E4
:10690000FBF7D4FF0023AB85032070BD002070BDD2
:10691000CFE521009C650020441300202DE62100D6
:10692000485300201EE621003CE62100485100208B
:1069300040F249122DE9F04F838D85B09342044611
:1069400000F09E80B3F5A57F05D240F2351283B1E9
:1069500093420FD0D0E040F25112934200F0B68043
:10696000B3F5A97F00F0BE80B3F5A77F40F0C480E7
:106970009BE0828504F12C00624940F20F1209F07D
:10698000B1FF012801D80020B9E05F48FBF794FF70
:106990005E4B00221A6003E05C4A13680133136007
:1069A0005A4E3368272B7ADC4FF0540A0AFB03F364
:1069B000574DEA18EB5C002BEED0D2F824B0BBF1B7
:1069C000000FE9D0976A002FE6D0906C02F1480CD6
:1069D000C0EB0B00CDF80CC010F0DEFB00224D4BDD
:1069E00010F050FC80465846894610F0D5FB024610
:1069F0000B464046494610F06FFD10F055FEDDF89D
:106A00000CC08346DCF80400381A10F0C5FB0022E5
:106A1000404B10F037FC80463846894610F0BCFBEE
:106A200002460B464046494610F056FD10F03CFE2B
:106A300007463948FBF740FF30680AFB0050023038
:106A400011F06EFF3548FBF737FF3548FBF734FF91
:106A500030680AFB0050023011F062FF584610F017
:106A6000BDFB80463846894610F0B8FB4B46CDE961
:106A7000000142462B48FBF71FFF40F24913A38554
:106A8000294811F07BFC2849024604F12C0009F04A
:106A900029FF01287FF677AFFBF708FF7CE7234843
:106AA000FBF70AFF4FF4A773A3851F4811F066FC9C
:106AB0001D49024604F12C0009F014FF01287FF65D
:106AC00062AFFBF7F3FE40F25113A38504F12C00F3
:106AD00017494E2209F006FF01287FF654AF4FF404
:106AE000A973A38504F12C0012494FF4BB7209F07D
:106AF000F9FE01287FF647AF0023A385032005B0E8
:106B0000BDE8F08F51E6210061E72100401300202D
:106B1000485300200000594089E721008CE72100FC
:106B2000DCC121008FE72100485100209DE72100B2
:106B3000EBE721003AE82100F8B5838D0446B3F570
:106B4000B77F58D004D87BB1B3F5AE7F0FD08AE0C1
:106B5000B3F5BB7F73D040F2771293427AD040F204
:106B6000731293427FD15AE04FF4AE73838504F1E0
:106B70002C003F4940F20F1209F0B4FE012801D861
:106B80000020F8BD3B48FBF797FE3B4B00221A6004
:106B900003E0394A136801331360374E3368272BFB
:106BA00037DC54277B43354DEA18EB5C002BF0D0E3
:106BB000536A002BEDD03248FBF77EFE306807FBAE
:106BC0000050023011F0ACFE2E48FBF775FE2E4847
:106BD000FBF772FE306807FB0050023011F0A0FE98
:106BE00033682A4807FB0355B5F85010FBF764FEDD
:106BF0004FF4B773A385264811F0C0FB2449024621
:106C000004F12C0009F06EFE0128B9D9FBF74EFE05
:106C1000BFE72048FBF750FE40F27313A3851C48E2
:106C200011F0ACFB1A49024604F12C0009F05AFE9F
:106C30000128A5D9FBF73AFE4FF4BB73A38504F1F5
:106C40002C0015494B2209F04DFE012898D940F23D
:106C50007713A38504F12C0010494FF4BB7209F09F
:106C600041FE01288CD90023A3850320F8BD00BF75
:106C700051E62100B1E921004813002048530020CB
:106C800089E721008CE72100DCC12100D4E9210043
:106C900048510020DBE921001BEA21003AE82100ED
:106CA00040F29312F8B5838D0446934257D0B3F562
:106CB000CA7F05D240F281126BB193420CD086E0BC
:106CC00040F29B1293426ED0B3F5CE7F76D0B3F5EF
:106CD000CC7F7CD157E0828504F12C003E4940F204
:106CE0000F1209F0FFFD012801D80020F8BD3B4834
:106CF000FBF7E2FD3A4B00221A6003E0384A1368C2
:106D000001331360364E3368272B36DC54277B4320
:106D1000344DEA18EB5C002BF0D0536A002BEDD019
:106D20003148FBF7C9FD306807FB0050023011F015
:106D3000F7FD2E48FBF7C0FD2D48FBF7BDFD306881
:106D400007FB0050023011F0EBFD3368294807FBC8
:106D50000355297EFBF7B0FD40F29313A385264827
:106D600011F00CFB2449024604F12C0009F0BAFD95
:106D70000128BAD9FBF79AFDC0E72048FBF79CFD34
:106D80004FF4CC73A3851C4811F0F8FA1A49024657
:106D900004F12C0009F0A6FD0128A6D9FBF786FD19
:106DA00040F29B13A38504F12C0015494B2209F0F6
:106DB00099FD012899D94FF4CE73A38504F12C00D5
:106DC00010494FF4BB7209F08DFD01288DD90023C5
:106DD000A3850320F8BD00BF51E6210067EA21002A
:106DE0004C1300204853002089E721008CE7210044
:106DF000DCC12100D4E9210048510020DBE9210059
:106E00001BEA21003AE821002DE9F843838D05466D
:106E1000A22B00F01B8103D84BB15D2B0FD0FEE1FC
:106E2000DC2B00F0CB80E52B00F0EB81F7E1B848DC
:106E3000FBF742FDB748FBF73FFD5D23AB85B64846
:106E400011F09CFAB449024605F12C0009F04AFD04
:106E5000012802D80020BDE8F883FBF727FDAF4BDF
:106E600000221A60BCE0FBF721FDAD4809F018FDD7
:106E7000AA4EAC4C002800F0F8803368542000FB88
:106E80000340023011F074FD0746002800F0EB804B
:106E9000A54B93F8A6309B0740F1E580A348FBF78C
:106EA0000BFD04F0C1FBFBF731FDF989A048FBF7AE
:106EB00003FDA048FBF700FD04F0B6FBFBF726FD41
:106EC0009D48B989FBF7F8FC3368542707FB034357
:106ED0001B6ADFF85082002B00F0E7809748FBF731
:106EE000EBFC8E4B1868474308EB0703DB69180778
:106EF00004D508EB0700343011F012FD9048FBF781
:106F0000DBFC3368542202FB0343DA69910740F14A
:106F1000C6805F6A986C381A10F03EF90022894BDF
:106F200010F0B0F980463846894610F035F902462F
:106F30000B464046494610F0CFFA02460B468248BF
:106F4000FBF7BAFC3368542202FB0343DA695207A9
:106F500040F1A9805F6AD86C381A10F01DF9002240
:106F6000784B10F08FF980463846894610F014F9B6
:106F700002460B464046494610F0AEFA02460B4622
:106F80007148FBF799FC01F0F1F93368542707FBCE
:106F900003435969411AC9096C48FBF78DFC3368F2
:106FA00007FB0344E06900F049FE01466848FBF72F
:106FB00083FC6848FBF780FCDC23AB85564811F066
:106FC000DDF95549024605F12C0009F08BFC01283A
:106FD0007FF640AFFBF76AFC504A13680133136039
:106FE0004E4F3B68272B00F3FE80542463434D4EE5
:106FF000F35C002BF0D05848FBF75EFC5748FBF7DA
:107000005BFC386804FB0060023011F089FC5448D6
:10701000FBF752FC386804FB0060023011F080FC82
:107020005048FBF749FC386804FB0063997A022951
:1070300047D1DA7A122A3CD11B7BA3F17402012AD0
:1070400052D84948FBF738FCA223AB85324811F0EF
:1070500095F93149024605F12C0009F043FC01285D
:107060003FF601AFF6E6414816E04148FBF724FC45
:107070003068542707FB0040023011F051FC3D48B6
:10708000FBF71AFC3C48FBF717FC306807FB004095
:10709000023011F045FC3948FBF70EFC14E7384884
:1070A000FBF70AFC4EE7364800E03648FBF704FCE5
:1070B00069E71A2A11D11B7B4C2B40F08F80324894
:1070C000C0E7C32978D1DA7A0C2A40F087801B7B8D
:1070D000002B40F083802D48B4E7802A08D11B7B29
:1070E000E12B7BD12A48ADE74B2B77D12948A9E783
:1070F000502A53D11A7BC22A70D15A7BA82A6DD14B
:107100009B7B03F0F003C02B68D123489AE700BFB4
:1071100086EA2100A2EA2100485100203C13002009
:10712000BC65002048530020D87200204EEC21009E
:1071300063EC210076EC21008BEC210066EB210052
:10714000FDEC210000005940F3EC21009CF12100EE
:107150001FED21002BED210062EB21006BEB2100E4
:107160004EB22100BCEC21007FEB21000CED210090
:107170009FEC2100B5EC2100C6EC2100DCEC2100E5
:1071800015ED210003ED210095EB2100ABEB210073
:10719000C0EB2100D1EB2100DDEB2100052A1DD140
:1071A0001A7B0C2A1AD15B7B2A2B17D1542303FBA1
:1071B0000060837B8C2BA7E7EE290FD1DA7A472A70
:1071C0000CD11A7B3C2A09D15A7B4D2A04D19B7BD6
:1071D000122B01D1144835E7144833E78A0754BF0E
:1071E000134814482EE71448FBF766FB1348FBF7D7
:1071F00063FB1348FBF760FB1248FBF75DFBE523DD
:10720000AB85114811F0BAF80F49024605F12C0080
:1072100009F068FB01287FF61DAEFBF747FB002352
:10722000AB850320BDE8F883F9EB21000EEC2100CB
:1072300027EC21003DEC210031ED210048ED21003B
:107240005FED21008CED21004851002008B500F0D1
:107250001BFD044A044B05481A60054A054B1A6099
:1072600008BD00BFFBB0210038510020E804002019
:10727000CDED21003C510020F8B5838D0446642BF0
:1072800000F08E8003D863B15A2B57D056E18A2B79
:1072900000F00E819D2B00F04381772B40F04E8152
:1072A000C2E0D0F85454002D00F035812846A5499D
:1072B000032211F0E9F8002840F02D81E81CA249D2
:1072C00012F0CAFA002800F026819F4800F0C8FC9E
:1072D0009E4D2860002800F01C819D48FBF7ECFAC9
:1072E0009C48FBF7E9FA984811F01AFB9A48FBF71B
:1072F000E3FA9A48FBF7E0FA9948FBF7DDFA2868C9
:10730000C3691E0704D5343011F00AFB954800E02C
:107310009548FBF7D1FA9048FBF7CEFA2B68D8696D
:1073200000F0010000F08AFC904B9149002818BF42
:1073300019469048FBF7C0FA5A23A3858E4811F0EE
:107340001DF88D49024604F12C0009F0CBFA012802
:1073500001D80020F8BDFBF7A9FA8848FBF7ACFA82
:1073600001F004F8794D2B68596C411AC909844819
:10737000FBF7A2FA00F0FAFF2B685969411AC90914
:107380008048FBF799FA2B687F48197EFBF794FA3F
:107390002B687E48B3F85010FBF78EFA6423A38560
:1073A000754810F0EBFF7449024604F12C0009F017
:1073B00099FA0128CDD9654DFBF778FA7448FBF7A7
:1073C0007BFA2B68DA6991072CD5198E7148FBF787
:1073D00073FA2B687048596AFBF76EFA2B686F488E
:1073E000996CFBF769FA2B685D6AC5B1986C281A2D
:1073F0000FF0D2FE00226A4B0FF044FF06462846EB
:107400000F460FF0C9FE02460B463046394610F0D3
:1074100063F802460B466348FBF74EFA02E0624807
:10742000FBF74AFA7723A385534810F0A7FF524988
:10743000024604F12C0009F055FA012889D9434D80
:10744000FBF734FA5948FBF737FA2B68DA69520729
:107450002CD5598E4F48FBF72FFA2B684E48996A66
:10746000FBF72AFA2B684D48D96CFBF725FA2B68F5
:107470009D6AC5B1D86C281A0FF08EFE0022484BC9
:107480000FF000FF064628460F460FF085FE024625
:107490000B463046394610F01FF802460B4641486D
:1074A000FBF70AFA02E04048FBF706FA8A23A385B5
:1074B000314810F063FF3049024604F12C0009F016
:1074C00011FA01287FF645AFFBF7F0F93848FBF7D2
:1074D000F3F91E4D3748FBF7EFF93748FBF7ECF9A6
:1074E0002868023011F01CFA3448FBF7E5F93448FB
:1074F000FBF7E2F93348FBF7DFF92F48FBF7DCF93C
:107500002868023011F00CFA2C48FBF7D5F92E4808
:1075100002E02E4800E02E48FBF7CEF99D23A3851C
:10752000154810F02BFF1449024604F12C0009F015
:10753000D9F901287FF60DAFFBF7B8F90023A38531
:107540000320F8BD7BEB2100D8410020541300201C
:1075500023B8210068EE210085C421006DEE2100D2
:107560007CEE210074B1210085EE210048E221006B
:107570004CE221008DEE210048510020A6EE2100B2
:10758000C0EE2100D3EE2100EAEE2100FEEE210044
:1075900016EF21002EEF21004DEF210065EF2100B5
:1075A000000059407DEF21008FEF21009EEF210068
:1075B00048ED2100B8EF2100E1EF210008F02100A3
:1075C0000CF0210049F021006EF02100A6F021000E
:1075D000BDF0210038B5114A114BD0F854541A604F
:1075E000104CB5B128461049032210F04DFF80B968
:1075F000E81C0E4912F030F958B10C4800F030FB8D
:107600000B4A106018B111F0D7FA0A4B02E00A4B8E
:1076100000E00A4B23600A4838BD00BFD4F02100C7
:10762000385100203C5100207BEB2100E841002034
:1076300058130020DBF02100A6F02100BDF021004E
:10764000E804002038B5114A114BD0F854541A60A0
:10765000104CB5B128461049032210F015FF80B92F
:10766000E81C0E4912F0F8F858B10C4800F0F8FA8E
:107670000B4A106018B111F0AAF90A4B02E00A4B4C
:1076800000E00A4B23600A4838BD00BFD4F0210057
:10769000385100203C5100207BEB2100F8410020B4
:1076A00050130020F3F02100A6F02100BDF02100CE
:1076B000E804002038B5838D0446462B1AD001D843
:1076C0002BB171E0552B4FD05A2B60D06CE038486D
:1076D000FBF7F2F83748FBF7EFF8374B93F8A63093
:1076E0009A0702D53548FBF7E7F83548FBF7E4F889
:1076F0004623A385334810F041FE3249024604F187
:107700002C0009F0EFF8012801D8002038BDFBF764
:10771000CDF82D4B1B782BB92C48FBF7CDF85A230D
:10772000A38534E000F032FA294B1860284D2B680D
:10773000002BF1D02748FBF7BFF828680430FBF78F
:1077400035F92548FBF7B8F81B4B93F8A6309B0793
:1077500005D52B6821489989DA89FBF7ADF82048CF
:10776000FBF7AAF85523A385164810F007FE154924
:10777000024604F12C0009F0B5F80128C5D9144DD2
:10778000FBF794F8286811F074FE2860CEE70D48E6
:1077900010F0F4FD0B49024604F12C0009F0A2F8A8
:1077A0000128B2D9FBF782F80023A385032038BD56
:1077B0001DF1210042F12100D872002076F1210054
:1077C0004BEB2100485100209F48002031ED210063
:1077D0005C13002062EB2100FDEC210091F12100FF
:1077E0002BED21002DE9F04104889EB080462CB19C
:1077F0006B2C18D000230380032051E02A4802F0AC
:1078000083F92A4811F01DFB2046214622460AF042
:1078100047FA274B18604BF60B0303826B23A8F83B
:10782000003001203CE0234B1B788B42F6D1224BE9
:107830001B789B07F2D5214B214C1A88214B002045
:1078400019681B4D88541968204611F0C4F8074682
:1078500094E80F002E6886E80F00238C2C46738274
:107860004FB1BB6A7A8E0133BB626846164901325A
:1078700002F06EF903E06846144910F021FD6846F5
:1078800010F07CFD6946024620680AF0BFFC2468BF
:1078900000212046102210F041FB00236382BDE747
:1078A0001EB0BDE8F08100BFBCF12100C9F121008C
:1078B0006013002072740020B46A002090650020DC
:1078C000BC650020C06A0020E7E2210007FB210020
:1078D000054BB3F8581001F0400189B211B90348C3
:1078E00004F072BF704700BFD8720020C4070020A8
:1078F00010B50C4680B1084611F03AF830BB164876
:1079000002F002F9154802F0FFF820460AF0F6FBF3
:107910000A2002F09FF813E00B78FF2B1AD048F2F0
:10792000FE030A889A4215D0084607F0D5F988B9AF
:10793000204607F0F7FA68B9204611F019F848B95F
:107940002046102111F004F9002010BD204610211E
:1079500011F011F9012010BDEFF12100FFF121001C
:1079600008B5084802F0D0F8074811F06AFA00F0AC
:10797000E5F8064BB3F858301B0742BF044A054BE5
:107980001A6008BDEFF1210019F22100D872002021
:10799000F1782000600A0020F8B506460F4615462B
:1079A00010F0C1FF0446D0B13A46114B03F110016B
:1079B00053F8040B8B4242F8040BF9D13846211DD1
:1079C00011F036FEA389B34202D141F2336303E0E2
:1079D000E389B34203D150232B800120F8BD054831
:1079E00002F092F8044811F02CFA0020F8BD00BF14
:1079F0001A7200202AF2210039F2210038B5114B09
:107A000005461B781446D3B10F4B93F8A6309B075D
:107A100015D5084610F0ACFF88B141F233639D42A2
:107A200001D1838902E0502D03D1C3892380012035
:107A300038BD064802F068F8054811F002FA002047
:107A400038BD00BF9F480020D87200202AF22100D4
:107A500055F2210008B5094B1B786BB1084B93F820
:107A6000A62002F0020202F0FF032AB110F05BFF31
:107A7000003018BF012008BD184608BD9F480020EF
:107A8000D87200200B4B1B7883B10B4B93F8A620C8
:107A900002F0020202F0FF0342B141F23363984266
:107AA00006D0A0F15003584258417047184670471D
:107AB000012070479F480020D8720020014811F033
:107AC000EBBC00BFD407002038B50546FFF7F6FF32
:107AD000044688B16968094A031D286803C31388EE
